:0200000280007C
:1000000000040820F93208005D4108005D41080045
:100010005D4108005D4108005D41080000000000EE
:100020000000000000000000000000005D4108002A
:100030005D410800000000005D4108005D410800CE
:100040005D4108005D4108005D4108005D41080018
:100050005D4108005D4108005D4108005D41080008
:100060005D4108005D410800BD160800D516080076
:100070005D4108005D4108005D4108005D410800E8
:100080005D4108005D4108005D4108005D410800D8
:100090005D4108005D4108005D4108005D410800C8
:1000A0005D4108005D4108005D4108005D410800B8
:1000B0005D410800C11808005D41080010B5054CFD
:1000C000237833B9044B13B10448AFF30080012304
:1000D000237010BDDC07002000000000AC570800B2
:1000E0000C4B43B10C4810B50C49AFF300800C48E1
:1000F000036823B910BD0A48036833B97047094B38
:10010000002BF7D0BDE810401847064B002BF5D068
:10011000184700BF00000000AC570800E0070020AF
:10012000AC5708000000000080B582B000AF7860D6
:100130007B68072B2ED801A252F823F09301080008
:100140005D010800650108006D01080075010800E7
:100150007D010800850108008D01080000200F4B7B
:10016000984717E001200D4B984713E000200C4BF7
:1001700098470FE010200A4B98470BE02020084BCF
:10018000984707E03E20074B984703E0064B984707
:1001900000E000BF00BF0837BD4680BDF137080052
:1001A0005D380800D13808001D39080080B582B0DC
:1001B00000AF78607B68072B2FD801A252F823F09C
:1001C000E1010800E5010800E5010800F701080069
:1001D000F7010800F70108000902080009020800F9
:1001E00001231BE00F4B98470346002B14BF01234C
:1001F0000023DBB212E00C4B98470346002B14BFE0
:1002000001230023DBB209E0084B98470346002B8B
:1002100014BF01230023DBB200E000231846083797
:10022000BD4680BD29380800B93808006939080082
:1002300080B483B000AF78607B68072B23D801A21D
:1002400052F823F0650208006B0208006F020800F4
:1002500073020800770208007B0208007F02080092
:10026000830208004FF4FA430EE000230CE0002361
:100270000AE0084B08E0084B06E0084B04E0074B97
:1002800002E0064B00E0002318460C37BD4680BC58
:10029000704700BF00093D0000127A00001BB70044
:1002A00080B582B000AF0346FB7100BFFB791846F2
:1002B000054B9847034683F00103DBB2002BF5D1D1
:1002C00000BF0837BD4680BDAD01080080B586B0CF
:1002D00000AFF8607A603B600B46FB727B68002BD6
:1002E00007D13B68002B04D1FB684FF470021A6001
:1002F00019E0FB7A18460E4B984702467B68B2FB22
:10030000F3F37B617B693A6802FB03F37B613B6833
:10031000013B1A04074B13407A68D2B2134343F4EB
:100320007C52FB681A6000BF1837BD4680BD00BF15
:10033000310208000000FF0780B582B000AF78608E
:1003400039603B68002B08D1094B9847094A7B6804
:100350001B6843F00053936205E0064A7B681B6804
:1003600043F48033D36100BF0837BD4680BD00BF72
:10037000D939080000040E4080B582B000AF786023
:100380007B68002B03D1054B9847034602E0044BE2
:100390009847034618460837BD4680BDF139080026
:1003A000253A080080B582B000AF0346FB71FB79A7
:1003B000033B042B08D8FB791846064B9847FB797A
:1003C0001846054B984700E000BF00BF0837BD4600
:1003D00080BD00BF29010800A102080090B585B0CA
:1003E00000AF78607868214B98470346002B38D1DE
:1003F0007B68002B02D0012B15D024E006201C4B7B
:1004000098474FF080701B4B984700BF1A4B984796
:100410000346002BFAD007F10C001023012206211D
:10042000164CA0470FE0164B98470346002B02D10D
:1004300006200F4B984707F10C00002300220621ED
:100440000E4CA04700BF07F10C03796818460D4B0E
:10045000984700BF7868054B98470346002BF9D0B2
:1004600000E000BF1437BD4690BD00BF790308000F
:10047000A50308009939080081390800CD02080059
:10048000513908003903080080B48DB000AF78609E
:1004900039607B68FB623B68BB62FB6A7B627B6A9C
:1004A0005A09FB6A3B623B6A03F01F03012101FA10
:1004B00003F3FA61BB61BB6A7B61FB693B613B692A
:1004C00003F5001303F206735B02FB607B6903F024
:1004D0000803002B03D0FB68BA695A6602E0FB6888
:1004E000BA691A667B6903F02003002B03D0FB680E
:1004F000BA691A6502E0FB68BA695A657B6903F05C
:10050000C003002B03D0FB68BA691A6202E0FB68E3
:10051000BA695A627B6903F08003002B04D0FB6840
:10052000BA69C3F8842003E0FB68BA69C3F8802085
:100530007B6903F00103002B06D0FB681A6FBB69CF
:100540001A43FB681A6706E0FB681A6FBB69DB4356
:100550001A40FB681A6700BF3437BD4680BC70473D
:1005600080B582B000AF0346FB7172B6BFF35F8FF8
:10057000054B00221A70FB791846044B984700BFC0
:100580000837BD4680BD00BF1A030020194F080080
:1005900080B483B000AF0023FB7106E0FB79084A0A
:1005A0000021D154FB790133FB71FB79042BF5D980
:1005B000034B01225A7100BF0C37BD4680BC704707
:1005C0006C0D002080B483B000AF0023FB71094B99
:1005D0003B6005E03B6801333B60FB790133FB7115
:1005E0003B681B78002BF5D0FB7918460C37BD46CD
:1005F00080BC70476C0D002080B582B000AF72B631
:10060000BFF35F8F0B4B00221A700B4B98470346CA
:10061000FB71FB79002B06D1064B01221A70BFF348
:100620005F8F62B603E0FB791846044B98470837A2
:10063000BD4680BD1A030020C505080061050800FD
:1006400080B483B000AF786039607B6800221A60A4
:1006500000BF0C37BD4680BC7047000080B483B03B
:1006600000AF78600B46FB707B681B6823F00702C5
:100670007B681A60FB780A2B39D801A252F823F064
:10068000AD060800AD060800AD060800B706080074
:10069000B7060800B7060800B7060800B706080046
:1006A000C5060800D3060800E10608007B681A6842
:1006B0007B681A601BE07B681B6843F001027B6863
:1006C0001A6014E07B681B6843F002027B681A60C2
:1006D0000DE07B681B6843F003027B681A6006E04C
:1006E0007B681B6843F004027B681A6000BF00BF90
:1006F0000C37BD4680BC704780B483B000AF7860D3
:1007000039607B681B6823F070027B681A607B6825
:100710001A683B681A437B681A6000BF0C37BD46F5
:1007200080BC704780B582B000AF786039600749FF
:100730007B681A683B68103341F823203868044B03
:10074000984700BF0837BD4680BD00BF00040E407B
:10075000DD3A080080B582B000AF0346FB71FB793B
:100760000A2B00F2A28001A252F823F09907080098
:10077000BB070800DB070800FB0708001B08080090
:100780003B0808005B0808007B0808009B0808007D
:10079000A3080800AB08080000204E4B984703460A
:1007A00083F00103DBB2002B00F0818000204A4B74
:1007B00098470020494B984779E00120454B9847DE
:1007C000034683F00103DBB2002B72D00120424BC1
:1007D00098470120414B98476BE002203D4B9847DA
:1007E000034683F00103DBB2002B64D002203A4BB6
:1007F00098470220394B98475DE00320354B9847D6
:10080000034683F00103DBB2002B56D00320324BAA
:1008100098470320314B98474FE004202D4B9847D1
:10082000034683F00103DBB2002B48D004202A4B9F
:1008300098470420294B984741E00520254B9847CD
:10084000034683F00103DBB2002B3AD00520224B94
:1008500098470520214B984733E006201D4B9847C9
:10086000034683F00103DBB2002B2CD006201A4B89
:1008700098470620194B984725E00720154B9847C5
:10088000034683F00103DBB2002B1ED00720124B7E
:1008900098470720114B984717E00020104B9847C6
:1008A00014E001200E4B984710E000BF0EE000BF9F
:1008B0000CE000BF0AE000BF08E000BF06E000BF98
:1008C00004E000BF02E000BF00E000BF00BF083747
:1008D000BD4680BDAD01080029010800A102080045
:1008E000DD03080080B400AF054B4FF000725A637F
:1008F000034B4FF080625A6300BFBD4680BC704717
:10090000000C0E4080B400AF054B4FF000725A63EC
:10091000034B4FF080621A6300BFBD4680BC704736
:10092000000C0E4080B400AF054B4FF080625A635C
:10093000034B4FF000721A6300BFBD4680BC704786
:10094000000C0E4080B500AF2E4B984708211820B0
:100950002D4B98472D4B4FF080725A612B4B4FF027
:1009600080725A66294B4FF08072C3F88420274B5F
:100970004FF0C0621A61264B98470920254B9847D3
:1009800025492920254B984723492A20234B98475E
:1009900021492B20214B98471F492C201F4B98475A
:1009A0001D492D201D4B98471B492E201B4B984756
:1009B00019492F20194B984717493020174B984752
:1009C00015493320154B984713493720134B984747
:1009D00011493420114B9847114A00211148124BFC
:1009E0009847124A00210F48114B9847114A00219D
:1009F0000C48114B9847032200210A480F4B984797
:100A000000BF80BDA553080089040800000C0E40FB
:100A1000250908003D3A0800010000081D3F0800B4
:100A20000001010100000E406115080001010301F1
:100A30008B15080002000400B5150800DF1508003A
:100A400080B483B000AF00237B6002E07B68013399
:100A50007B607B68034A9342F8D900BF0C37BD46E0
:100A600080BC70478FD0030080B586B000AFF860BF
:100A70000B467A60FB7207F11403F96818460E4BB7
:100A80009847FB7A18460D4B9847FA7A07F11403FA
:100A9000114618460A4B984707F11403796818461F
:100AA000084B984707F11403F9681846064B984716
:100AB00000BF1837BD4680BD410608005507080035
:100AC0005D060800F90608002507080080B586B015
:100AD00000AF3B1D10211846224B9847224B0122A4
:100AE0001A70BFF35F8F62B6204B9847204B984730
:100AF000204B984700220A2100201F4B98471F4B8C
:100B000098471D201E4B98471F201E4B98470023D7
:100B1000FB751D4B98471D4BDB6B03F08073002B5F
:100B20000CBF01230023DBB2BB75BB7D002BF0D0D3
:100B3000FB7D0133FB75FB7D022B01D90023FB7587
:100B4000134B984700BF114BDB6B03F08073002BF6
:100B5000F9D0FB7D0F4A52F8233098470C4B984749
:100B6000D7E700BF5D1208001A03002091050800B6
:100B7000E536080045090800690A0800E143080055
:100B8000BD3E0800ED3E0800F9050800000C0E40CF
:100B9000410A08008002002080B400AF00BFBD46BB
:100BA00080BC704780B400AF00BFBD4680BC7047BA
:100BB00080B400AF044B1B78DBB283F00103DBB2DF
:100BC000002BBD4680BC70478C02002080B500AF72
:100BD000054B01221A70054A4FF480610448054B09
:100BE00098470123184680BD8C0200209D0F080005
:100BF000F8070020753C080080B400AF034B0022CA
:100C00001A7000BFBD4680BC704700BF8C02002038
:100C100080B582B000AF0E4B1B687B600C4B5B68ED
:100C20003B600C4B984700BF02200B4B9847034694
:100C3000002BF9D03868094B9847094A79684FF07A
:100C4000C040084B984700BF0837BD4680BD00BF75
:100C5000F80B00209D1008005D100800CD10080062
:100C6000650F0800493C080080B582B000AF0E4B0C
:100C70001B687B600C4B5B683B600C4B984700BF6C
:100C800005200B4B98470346002BF9D03868094BD9
:100C90009847094B4FF0C0421A60084A7B681360BE
:100CA00000BF0837BD4680BDF80B00209D1008002E
:100CB0005D100800CD1008003C0C0020400C002006
:100CC00080B584B000AF164B1B68BB60144B5B68EB
:100CD0007B60144B3B60144B984700BF0120134BC3
:100CE00098470346002BF9D07868114B98470023AA
:100CF000FB600BE00F4B1A68FB6813443968FA6815
:100D00000A4412781A70FB680133FB60FA68BB680A
:100D10009A42EFD3044B984700BF1037BD4680BDC1
:100D2000F80B0020000C00209D1008005D1008004A
:100D3000CD1008009002002080B582B000AF094BB2
:100D40005B687B60084B984700BF0420074B9847BF
:100D50000346002BF9D07868054B984700BF083749
:100D6000BD4680BDF80B00209D1008005D100800F6
:100D7000CD10080080B500AF0B4B5B88A12B07D0CE
:100D8000A22B0BD0A02B00D00CE0084B984709E019
:100D9000074B9847074B0A221A7003E0054B0022C5
:100DA0001A7000BF00BF80BD540D0020A5110800BF
:100DB00025120800380C002080B500AF304B314AB6
:100DC0009A602F4BDB88402B28BF40239AB22C4BD4
:100DD0009A812D4B00221A70294B5B78103B062B11
:100DE00041D801A252F823F0050E0800310E080088
:100DF0001B0E0800470E0800670E0800670E08006B
:100E00005D0E08000620214B98470346002B2CD08E
:100E10001B4B1F4A1A6101232FE006201B4B9847EA
:100E20000346002B23D0164B1A4A1A61012324E0F3
:100E30000620164B98470346002B1AD0104B164A33
:100E40001A61012319E00620104B98470346002B36
:100E500011D00B4B114A1A6101230EE0084B104AC6
:100E60001A61012309E0002307E000BF04E000BF8E
:100E700002E000BF00E000BF0023184680BD00BFB5
:100E8000540D0020F80B0020380C00205D100800E5
:100E9000110C0800690C0800390D0800C10C08008D
:100EA000750D080080B500AF274B5B78152B2AD055
:100EB000172B17D0122B43D1244B1B68224A936067
:100EC000234B1B689AB2204B9A81214B00221A6057
:100ED000204B98470346052B02D100201E4B984714
:100EE00001232EE01D4B00221A701C4B0A225A705F
:100EF0001A4B00229A70144B184A9A60124B032224
:100F00009A8101231DE01320154B98470346002BBF
:100F100014BF01230023DBB21A46104B1A700F4B8B
:100F200000225A700D4B00229A700C4B0022DA708E
:100F3000054B0A4A9A60044B04229A81012300E07F
:100F40000023184680BD00BF540D00203C0C00203B
:100F5000400C0020B51008005D100800440C002073
:100F60008D3E080080B582B000AF03463960FB714A
:100F70001346BB71FB79002B08D1064B98470346FB
:100F8000022B04D10020044B984700E000BF083733
:100F9000BD4680BDB51008005D10080080B584B066
:100FA00000AF03463960FB711346BB71FB79002B20
:100FB00006D0224A4FF480612148224B984739E0FD
:100FC000214B1B78002B1AD10023FB600BE01F4B39
:100FD0001A68FB6813441A49FA680A4412781A70AE
:100FE000FB680133FB60FA683B689A42EFD3184B09
:100FF00098470346042B17D1164B984714E0124B21
:101000001B780A2B10D10023BB6009E00C4ABB6897
:1010100013441B781846104B9847BB680133BB60DC
:10102000BA683B689A42F1D3044A4FF4806104489D
:10103000044B98471037BD4680BD00BF9D0F080088
:10104000F8070020753C0800380C002090020020B2
:10105000B51008009D1008003912080080B584B052
:1010600000AF0346FB710023FB60094B9847094B17
:101070001B78DBB2002B04D10123FB60054AFB790E
:101080001370054B9847FB6818461037BD4680BD66
:10109000C9530800840C00201D54080080B400AF20
:1010A000034B00221A7000BFBD4680BC704700BFD2
:1010B000840C002080B400AF034B1B78DBB21846D1
:1010C000BD4680BC704700BF840C002080B582B054
:1010D00000AF786079680348034B984700BF083732
:1010E000BD4680BD000E0E402D3E080080B483B08A
:1010F00000AF78607B68072B23D801A252F823F059
:1011000021110800271108002B1108002F110800D9
:1011100033110800371108003B1108003F11080087
:101120004FF4FA430EE000230CE000230AE0084BE2
:1011300008E0084B06E0084B04E0074B02E0064BD2
:1011400000E0002318460C37BD4680BC704700BF46
:1011500000093D0000127A00001BB70080B500AF07
:101160000620034B984703461B01184680BD00BF6D
:10117000ED10080080B500AF024B984703465B08AE
:10118000184680BD5D11080080B582B000AF786060
:101190007868034B984700BF0837BD4680BD00BF45
:1011A0003D3A080080B584B000AF1420144B984736
:1011B000144B3B60C0237B600023FB600023BB60BB
:1011C0000D20114B9847114B984702463B46194654
:1011D0000F48104B98474FF0405112200E4B984744
:1011E0004FF0405111200C4B98470C4B4FF4C0224C
:1011F0005A6007480A4B984700BF1037BD4680BD6C
:10120000ED3E0800809698008911080075110800CD
:10121000000009406D1308001D3F0800000C0E403F
:101220007D14080080B500AF1420024B984700BF22
:1012300080BD00BFBD3E080080B582B000AF034650
:10124000FB71FB7919460348034B984700BF0837E9
:10125000BD4680BD000009401315080090B58BB055
:1012600002AF7860396007F10C0204230093134643
:101270000F220E211348144CA0470346002B01D027
:1012800010231BE03B68042B01D904233B6000239F
:10129000FB610EE0FB699B007A681A44FB699B00C6
:1012A00007F120010B4453F8143C1360FB69013330
:1012B000FB61FA693B689A42ECD300231846243755
:1012C000BD4690BD00080E400100002080B487B0EC
:1012D00000AFF860B9607A60BB685A087B681A444E
:1012E000BB68B2FBF3F37B617B69032B03D97B699A
:1012F000B3F5803F01D3012303E0FB687A691A62EA
:10130000002318461C37BD4680BC704780B582B0AC
:1013100000AF786078680F4B98477B6800225A606E
:101320007B6800225A627B6800229A6278680A4BC6
:1013300098477868094B98477868094B98477868C8
:10134000084B98477868084B984700BF0837BD4658
:1013500080BD00BF4115080095140800AD140800B9
:10136000C5140800F9140800DF14080080B584B023
:1013700000AFF860B9607A60F8683D4B98473D4B24
:1013800000221A60BB68002B0DD0BB689B68032B42
:1013900009D8BB681B687A681946F868364B9847C5
:1013A0000346002B01D001235DE0BB685A68314B36
:1013B0001B6813432F4A1360BB68DA682D4B1B6808
:1013C000134343F4802343F00E032A4A1360BB689F
:1013D0009B68032B3ED801A252F823F0ED130800BE
:1013E00007140800211408003B140800214B1B6857
:1013F00043F480731F4A13601E4B1B6823F4803331
:101400001C4A136027E01B4B1B6823F48073194AA6
:101410001360184B1B6823F48033164A13601AE0DC
:10142000144B1B6843F48073124A1360114B1B6802
:1014300043F480330F4A13600DE00E4B1B6823F416
:1014400080730C4A13600B4B1B6843F48033094ACA
:10145000136000E000BFFB685A68064B1B681A4324
:10146000FB685A60002318461037BD4680BD00BF98
:101470000D130800880C0020CD12080080B483B042
:1014800000AF78607B6840221A6000BF0C37BD4611
:1014900080BC704780B483B000AF78607B688822DE
:1014A0001A6000BF0C37BD4680BC704780B483B063
:1014B00000AF78607B6824221A6000BF0C37BD46FD
:1014C00080BC704780B483B000AF78607B684FF415
:1014D00080721A6000BF0C37BD4680BC704780B474
:1014E00083B000AF78607B684FF400321A6000BFB1
:1014F0000C37BD4680BC704780B483B000AF7860C5
:101500007B684FF400221A6000BF0C37BD4680BCD8
:10151000704780B483B000AF7860396000BF7B68EB
:101520005B6903F00203002BF9D03B68C3F30802A8
:101530007B68DA61002318460C37BD4680BC7047D3
:1015400080B483B000AF78607B68044AC3F8E420BD
:1015500000BF0C37BD4680BC704700BF00415355EB
:1015600080B485B000AFF860B9607A60F968BA6895
:1015700013469B0013449B000B4470337A681A6037
:1015800000BF1437BD4680BC704780B485B000AF43
:10159000F860B9607A60F968BA6813469B00134432
:1015A0009B000B4474337A681A6000BF1437BD4641
:1015B00080BC704780B485B000AFF860B9607A60D5
:1015C000F968BA6813469B0013449B000B447833B8
:1015D0007A681A6000BF1437BD4680BC704780B47B
:1015E00085B000AFF860B9607A60F968BA681346F0
:1015F0009B0013449B000B4480337A681A6000BF41
:101600001437BD4680BC704780B584B000AF7860A9
:1016100039607868264B9847F8607868254B98477A
:101620000246FB681340FB60FB68002B3CD00023A4
:10163000BB6034E0204ABB681B0113441A683B6856
:101640009A4226D11C4ABB681B01134404331A6812
:10165000FB681340002B1CD0174ABB681B011344C6
:101660000C331B681449BA6812010A441068124905
:10167000BA6812010A4404321268114698470E4AA9
:10168000BB681B01134404331B68DB43FA68134037
:10169000FB60BB680133BB60BB68062B03D8FB68EB
:1016A000002BC7D100E000BF00BF1037BD4680BD92
:1016B000613E0800773E08008C0C002080B500AF2A
:1016C0000A210248024B984700BF80BD000C0E4023
:1016D0000916080080B500AF0B210248024B98475D
:1016E00000BF80BD000E0E400916080080B483B014
:1016F00000AF0346FB71084997F907305B09FA7997
:1017000002F01F02012000FA02F241F8232000BF7C
:101710000C37BD4680BC704700E100E080B483B068
:1017200000AF03463960FB7197F90730002B0BDAE5
:101730000D49FB7903F00F03043B3A68D2B2120162
:10174000D2B20B441A7609E0084997F907303A6893
:10175000D2B21201D2B20B4483F8002300BF0C377F
:10176000BD4680BC704700BF00ED00E000E100E036
:1017700080B483B000AFEFF310833B603B68002B75
:101780000CBF01230023DBB27B6072B6BFF35F8F17
:10179000044B00221A707B6818460C37BD4680BC8B
:1017A000704700BF1A03002080B483B000AF786098
:1017B0007B68002B14BF01230023DBB218460C37D3
:1017C000BD4680BC7047000080B582B000AF786035
:1017D0007868074B98470346002B05D0054B01223C
:1017E0001A70BFF35F8F62B600BF0837BD4680BD79
:1017F000A91708001A03002080B584B000AF034683
:10180000FB71084B9847F860FB79074AD25C0132BC
:10181000D1B2054AD154F868044B984700BF10373D
:10182000BD4680BD711708006C0D0020C917080067
:1018300080B584B000AF0346FB71084B9847F86051
:10184000FB79074AD25C013AD1B2054AD154F86813
:10185000044B984700BF1037BD4680BD7117080084
:101860006C0D0020C917080080B582B000AF034698
:10187000FB71FB7983F00103DBB2002B06D00D4B2B
:101880001B78002B02D002200B4B9847FB79002BD2
:1018900009D0084B1B7883F00103DBB2002B02D088
:1018A0000220064B9847034AFB79137000BF0837A4
:1018B000BD4680BDFC0C002031180800F917080057
:1018C00080B500AF1D205E4B98475E4B984703469E
:1018D00083F00103DBB2002B0CD05B4B5B6903F0A0
:1018E0000203002B06D172B6BFF35F8F574B002265
:1018F0001A70A4E0544B5B6903F00803002B0DD071
:10190000514B08229A61504B5B6903F00103002B95
:1019100001D14F4B98474F4B98478EE04A4B5B693C
:1019200003F00403002B05D0474B04229A61484B77
:10193000984782E0484B98470346002B7AD1474BA3
:1019400098470346002B77D13F4B5B6903F01003A8
:10195000002B1DD03C4B10229A61414B9847414BC4
:101960009847414B9847414B9847374A364B1B693C
:1019700043F008031361344A334B1B6943F00403FB
:101980001361314A304B1B6943F00203136154E089
:101990002D4B1B6903F00203002B20D02A4B5B69FF
:1019A00003F00203002B1AD0274B20229A61264A0B
:1019B000254B1B6923F002031361234A224B1B6949
:1019C00043F020031361204B02229A611D20284B13
:1019D0009847284B98470020274B98472DE01A4BF3
:1019E0005B6903F02003002B28D00120224B98478D
:1019F000154B02229A61144B20229A61124A124B13
:101A00001B6923F0200313610F4A0F4B1B6943F03E
:101A1000020313610C4A0C4B1B6943F0080313616A
:101A2000094A094B1B6943F004031361134B9847A0
:101A300000BF02E000BF00E000BF00BF00BF80BDEC
:101A40003D3A08000553080000400A401A030020F0
:101A500045440800B10B0800ED2C080005310800D2
:101A60002D2E0800F14308004D260800CD26080061
:101A70008D3A0800990B080069180800A50B0800AA
:101A800080B582B000AF194B98471D20184B98477E
:101A9000184B98477860184A174B1B6843F48073BB
:101AA000136005211D20154B98471D20144B9847A6
:101AB000144B9847104A104BD3F8E03023F003033F
:101AC000C2F8E0304FF480200F4B98470F4B0022B4
:101AD0001A7003200E4B98470E4B984778680E4BB0
:101AE000984700BF0837BD4680BD00BFA536080037
:101AF0003D3A08007117080000400A401D17080011
:101B0000ED160800D12D0800013B0800FC0C002058
:101B1000F91708001D1B0800C917080080B582B01E
:101B200000AF264B984778600120254B98471D2031
:101B3000244B9847244A244B1B6843F400631360EA
:101B4000214A214B1B6823F4007313601E4A1E4B6D
:101B50001B6943F0100313611B4A1B4B1B6943F0C5
:101B600002031361184A184B1B6943F020031361E9
:101B7000154A154B1B6943F008031361124A124BB7
:101B80001B6943F0040313610F4B08229A610E4B4B
:101B900004229A610C4B10229A610B4B02229A612B
:101BA000094B20229A611D20084B98477868084B02
:101BB000984700BF0837BD4680BD00BF71170800B9
:101BC000691808003D3A080000400A408D3A0800B4
:101BD000C917080080B400AF064B5B6903F001032E
:101BE000002B14BF01230023DBB21846BD4680BC86
:101BF000704700BF00400A4080B483B000AF034686
:101C0000FB710D4A0C4B1B6823F0800313600A49DB
:101C1000094B1B6823F07F02FB7903F07F0313431A
:101C20000B60054A044B1B6843F08003136000BF40
:101C30000C37BD4680BC704700400A4080B400AFFE
:101C4000044B1B68DBB203F07F03DBB21846BD46D2
:101C500080BC704700400A4080B483B000AF786019
:101C60000B467B80054A7B689360044A7B8893819E
:101C700000BF0C37BD4680BC704700BF540D00202C
:101C800090B589B002AF0346FB710B46BB7113469A
:101C9000BB800023FB7400237B74FB7903F080037B
:101CA000002B14BF012300233B74FB7903F00F03C7
:101CB000FB71FB79022B01D90023B2E1B24AFB7917
:101CC0005B01134403F586731B6803F00103002BCB
:101CD00001D00023A5E1BB7903F00303022B1AD046
:101CE000032B15D0012B19D1FB79002B07D0FB79E1
:101CF000032B04D0FB79042B01D0012300E0002347
:101D00007B747B7C03F001037B7401237B7507E00C
:101D100001237B7504E002237B7501E0002380E151
:101D20007B7D022B06D0032B07D0012B08D101238A
:101D30003B7507E002233B7504E003233B7501E09C
:101D400000236EE17B7C002B17D0BB8803F4C053CB
:101D5000B3F5006F03D0B3F5805F03D005E0022335
:101D6000FB7405E00323FB7402E00123FB7400BF56
:101D7000BB8823F4C053BB8006E0BB8803F4C05388
:101D8000002B01D000234CE17F4CF9797E4AFB798E
:101D900008335B0113441B6823F47F7323F00303B0
:101DA000BA79120102F030003A7C002A01D00822F0
:101DB00000E000221043BA88082A03D9BA88B2F595
:101DC000806F08DABA88082A03D9BA885200013A23
:101DD00003E00F2201E040F2FF72B2FA82F2C2F198
:101DE0001C0210433A7D9201D2B210437A7C002A41
:101DF00004D0FA7C120202F4407200E00022024396
:101E0000C2F309021A4301F108035B0123441A607B
:101E10005D4AFB7908335B0113441B68002B01DB2F
:101E20000023FEE0584AFB7908335B011344043376
:101E300001221A600023FB820223BB7439E0524A5C
:101E4000BB7C5B01134403F586731B6803F001033D
:101E5000002B2BD04C4ABB7C08335B0113441B681E
:101E60009B09DBB203F003033B753A7DBB7C5B004F
:101E700002FA03F31AB2B7F9163013431BB2FB820E
:101E8000414ABB7C5B01134403F5847301221A6051
:101E90003D49BB7C3C48BA7C08325201024412687E
:101EA00022F0C00208335B010B441A60BB7C013B8B
:101EB000BB74BA7CFB799A42C1D2FB79BB74ABE0AC
:101EC000BB7C5A1E13465B001344DB002F4A1344AD
:101ED000FB60FB681B7DC3F30003DBB2002B14BF68
:101EE00001230023FB72FA8ABB7C5B0042FA03F3F6
:101EF000DBB203F003033B753B7D002B00F08880D1
:101F0000FA68137D6FF3000313751F48BB7C1E49ED
:101F1000BA7C083252010A44126822F0C0013A7DAC
:101F20009201D2B20A4308335B0103441A60164A95
:101F3000BB7C08335B011344043301221A60124A4C
:101F4000BB7C08335B0113441B68002B20DBFB6860
:101F50001B68002B01D1002363E00B4ABB7C0833D4
:101F60005B0113441B6803F00803002B03D0BB7C08
:101F700063F07F03BB74FB681B68FA68D168BA7CA6
:101F80000120984700234CE000400A40040D002047
:101F90002649BB7C2548BA7C0832520102440432EF
:101FA000126842F0020208335B010B4404331A60EA
:101FB000FB7A002B2DD0FB68DA68FB681B69D21A0C
:101FC000FB68DA60FB681B7DC3F34003DBB2002BC8
:101FD00014BF01230023D9B2FB685A68FB68DB6891
:101FE000D418FB689A68FB68DB68D21AFB681B6828
:101FF000B87C0093134622460D4CA0470346FB7263
:10200000FB7A83F00103DBB2002B02D0002308E04F
:1020100000BFBB7C0133BB74BB7C022B7FF650AF8F
:10202000012318461C37BD4690BD00BF00400A4042
:102030006123080080B584B000AF0346FB71FB79D3
:1020400003F00F03FB73FB7B022B28D8164AFB7BA4
:102050005B01134403F5847301221A601249FB7B70
:102060001148FA7B083252010244126822F0C00281
:1020700008335B010B441A60FB7918460B4B9847F9
:10208000FB7B5A1E0A4913465B001344DB000B44DA
:1020900003F1100213796FF38203137100E000BFA4
:1020A0001037BD4680BD00BF00400A40712E0800B9
:1020B000040D002080B485B000AF0346FB71FB79AE
:1020C00003F00F03FB73FB7B5A1E13465B001344A4
:1020D000DB00104A1344BB600F4AFB7B5B011344D7
:1020E00003F58E731B6803F02003002B06D1BB6839
:1020F0001B7D03F00403DBB2002B01D0012300E0C1
:10210000002303F00103DBB218461437BD4680BC40
:10211000704700BF040D002000400A4080B485B025
:1021200000AF0346FB71FB7903F00F03FB73FB7BEE
:10213000022B01D9002371E0FB7B5A1E13465B0082
:102140001344DB00384A1344BB60384AFB7B5B0115
:10215000134403F58E731B6803F02003002B06D194
:10216000BB681B7D03F00403DBB2002B01D001230D
:1021700054E0BB681B7D03F00103DBB2002B01D0F0
:1021800000234BE097F90730002B25DA274AFB7B29
:102190005B01134403F58E731B689B0C03F0030370
:1021A000002B19D0BA68137D43F0040313751F4A3E
:1021B000FB7B08335B01134404334FF480221A6025
:1021C0001A491A4B1A69FB7B4FF4807000FA03F32B
:1021D00013430B61012321E01449FB7B1348FA7B75
:1021E0005201024402F58472126822F002025B017D
:1021F0000B4403F584731A600C4AFB7B5B011344A8
:1022000003F58C734FF400521A60084AFB7B5B01A4
:10221000134403F58A7320221A60012318461437E9
:10222000BD4680BC704700BF040D002000400A403E
:1022300080B584B000AF0346FB710023FB73FB79CC
:1022400003F00F03FB71FB79022B01D900237EE021
:10225000FB795A1E13465B001344DB003E4A1344CD
:10226000BB60BB681B7D03F00403DBB2002B1AD0FC
:10227000BA68137D6FF382031375384AFB795B01EB
:10228000134403F584734FF480221A603349334BAF
:102290001A69FB794FF4807000FA03F3DB431340B3
:1022A0000B610123FB732D4AFB795B01134403F59A
:1022B0008E731B6803F02003002B35D0274AFB796F
:1022C0005B01134403F58E731B6803F40053002B6A
:1022D00010D0224AFB795B01134403F58C734FF451
:1022E00000521A601D4AFB795B01134403F58C739D
:1022F00040221A60194AFB795B01134403F58C7381
:1023000020221A601549FB791448FA7908325201E3
:1023100002440432126842F0020208335B010B44AB
:1023200004331A600123FB73FB7B002B0ED0BB68C8
:102330001B7D03F00103DBB2002B07D0BA68137DCD
:102340006FF300031375BB681B6898470123184699
:102350001037BD4680BD00BF040D002000400A407C
:1023600080B586B000AFBA607B600346FB730B4656
:10237000BB73FB7B03F00F03FB73FB7B022B01D9C9
:10238000002364E0FB7B5A1E13465B001344DB0012
:10239000314A13447B61314AFB7B5B01134403F5F3
:1023A00086731B6803F00103002B11D02B4AFB7BC3
:1023B0005B01134403F58E731B6803F02003002BAD
:1023C00006D17B691B7D03F00403DBB2002B01D037
:1023D00000233CE0224B984738617B691B7D03F06A
:1023E0000103DBB2002B04D038691E4B9847002351
:1023F0002DE07A69137D43F0010313753869194B99
:1024000098477B69BA685A607B697A689A607B6989
:102410000022DA607B6900221A617B693A6A1A60DD
:10242000BB7B002B02D17B68002B01D1012300E094
:102430000023DBB203F00103D9B27A69137D61F3A3
:1024400041031375FB7B1846074B98470123184639
:102450001837BD4680BD00BF040D002000400A4073
:1024600071170800C91708001D2F080080B584B037
:1024700000AF0346FB71FB7903F00F03FB73FB7B9B
:102480001A01194B134400229A6097F90730002B68
:1024900021DA14E0154AFB7B5B01134403F58A73D0
:1024A0004FF400721A6000BF104AFB7B5B011344BB
:1024B00003F58E731B6803F40073002BF4D10B4AF1
:1024C000FB7B5B01134403F58E731B689B0C03F0CD
:1024D0000303002BDED1FB791846054B984700BF5C
:1024E0001037BD4680BD00BF00430A4000400A408F
:1024F000712E080080B400AF0A4A0A4BD3F8E030CE
:1025000023F0030343F00203C2F8E030054A054B11
:10251000D3F8E03043F00403C2F8E03000BFBD461A
:1025200080BC704700400A4080B400AF0A4A0A4BA2
:10253000D3F8E03023F0030343F00203C2F8E030A5
:10254000054A054BD3F8E03043F00803C2F8E03009
:1025500000BFBD4680BC704700400A4080B400AF59
:10256000064A064BD3F8E03023F0030343F002039E
:10257000C2F8E03000BFBD4680BC704700400A4052
:10258000B0B493B000AF2E4B3C1D1D460FCD0FC411
:102590000FCD0FC40FCD0FC495E8030020600434A5
:1025A0002170284B0122C3F80821264A254BD3F875
:1025B000003123F47F7323F0030343F06B03C2F86D
:1025C0000031204B0122C3F804211E4A1D4BD3F8D1
:1025D000E03023F0030343F00203C2F8E030194A6D
:1025E000184BD3F8E03043F01003C2F8E030164B3C
:1025F0003B643B1DFB63002387F847300CE03B6CDA
:102600005A1C3A64FA6B511CF96312781A7097F8E5
:102610004730013387F8473097F84730342BEED9ED
:10262000084B4FF48062C3F81821064B4FF4006248
:10263000C3F8142100BF4C37BD46B0BC704700BF83
:102640004C57080000400A400000182080B582B0B6
:1026500000AF1B4A1A4B1B6823F07F031360184A14
:10266000174B1B6843F080031360154A144BD3F8D3
:10267000003123F47F7323F0030343F04303C2F8D4
:1026800000310F4B0122C3F804210E4B98477860AC
:102690000B4B4FF48052C3F80421094B4FF40072E6
:1026A000C3F80421064A064B1B6943F48073136187
:1026B0007868054B984700BF0837BD4680BD00BF0E
:1026C00000400A4071170800C917080080B582B0A1
:1026D00000AF104B984778600F4B4FF48062C3F8FF
:1026E000082178680D4B98470B4B4FF40072C3F8E4
:1026F00018210B4B00221A61094B00225A61084B2A
:1027000000229A81074B00221A7000BF0837BD468D
:1027100080BD00BF7117080000400A40C9170800BB
:10272000540D0020FD0C002080B584B000AF404B5C
:102730001B78002B03D03F4B98473F4B98473F4BAC
:10274000D3F81C311B0DC3F30A03082B07D03C4BF5
:1027500098473A4B4FF48052C3F8182164E0394B44
:10276000BB600023FB730AE0FB7B374A1A44BB685B
:10277000591CB9601B781370FB7B0133FB73FB7B27
:10278000072BF1D9304B5A882F4B5A802E4B9A8801
:102790002D4B9A802C4BDA882B4BDA802B4B9847A9
:1027A000034683F00103DBB2002B07D0244B98478C
:1027B000224B4FF48052C3F8182135E01F4B4FF4E1
:1027C0008052C3F81821204B1B785BB2002B0BDA28
:1027D0001F4B00221A801F4B00221A80144B02222A
:1027E0001A701D4B98471FE0174BDB88002B02D156
:1027F0001A4B984718E0164B00221A80154B0022FE
:102800001A800B4B01221A700C4B4FF48042C3F814
:102810001821134B98477860084B4FF48042C3F857
:10282000042178680F4B98471037BD4680BD00BF24
:10283000FD0C0020D12C0800CD26080000400A40E5
:10284000052C080000001820540D0020894E0800B7
:10285000FE0C0020000D002069280800292C08002B
:1028600071170800C917080080B584B000AF4C4B41
:10287000984738604B4B4FF48062C3F808213868A2
:10288000494B9847494B1B78032B04D1484B984739
:10289000484B984781E0484B9A89484B1B88D31A8C
:1028A000FB81FB89002B27D1454B1A88434B1B88A2
:1028B00013449AB2424B1A803F4BDA88404B1B8834
:1028C0009A4203D03F4B1B78002B02D03E4B9847D7
:1028D00063E0394B5B69002B0ED0374B5B6998473F
:1028E000034683F00103DBB2002B05D1334B0022FA
:1028F0001A80314B9B89FB81FB893F2B05D94023F3
:10290000FB81304B00221A7002E02E4B01221A701C
:102910002E4BBB60284B9B68284A128813447B606F
:102920001F4B984738601F4BD3F81C3103F40073DA
:10293000002B06D038681C4B98471C4B04221A7099
:102940002BE000237B730AE0BB685A1CBA607A68EC
:10295000511C796012781A707B7B01337B737B7B0F
:102960009BB2FA899A42EFD8144B1A88FB89134418
:102970009AB2124B1A800B4B4FF48062C3F81821A5
:10298000084B4FF40062C3F81421064B4FF48062E9
:10299000C3F804213868044B98471037BD4680BD02
:1029A0007117080000400A40C9170800FD0C0020FC
:1029B000D12C0800CD260800540D0020000D002069
:1029C000FE0C0020340D00208D2C08000000182083
:1029D00080B584B000AF614B1B78012B0FD05F4BEB
:1029E0001B78022B03D05D4B1B78042B02D15C4B70
:1029F000984701E05B4B98475B4B9847ABE05B4BDC
:102A0000D3F81C311B0D9BB2C3F30A03BB81584B97
:102A10009B891A46574B1B881946BB890B449A421F
:102A200005DA534B9A89534B1B88D31ABB81524BFF
:102A3000BB604F4B9B684F4A128813447B60002356
:102A4000FB730AE07B685A1C7A60BA68511CB96053
:102A500012781A70FB7B0133FB73FB7B9BB2BA8944
:102A60009A42EFD8434B1A88BB8913449AB2414B20
:102A70001A80BB89402B0AD13D4BDB881A463F4B5D
:102A80001B8819463B4B1B880B449A4220DC394B70
:102A90001A88374B9A81364B5B69002B10D0344B28
:102AA0005B699847034683F00103DBB2002B07D034
:102AB0002C4B98472D4B4FF40072C3F818214AE075
:102AC0002A4B4FF40072C3F818212D4B984742E06F
:102AD000274B9A89274B1B889A4227D1244B5B6945
:102AE000002B07D11F4B9847204B4FF40072C3F8BF
:102AF000182130E01E4B5B699847034683F00103C1
:102B0000DBB2002B07D0174B9847184B4FF40072DD
:102B1000C3F818211FE0194B1A88164B1B88134461
:102B20009AB2164B1A80134B00221A800F4B4FF4A7
:102B30000072C3F818210D4B4FF48042C3F81821DE
:102B4000104B98473860094B4FF48042C3F804217A
:102B500038680D4B98471037BD4680BDFD0C0020EE
:102B6000D12C0800052C0800CD26080000400A40A2
:102B7000540D0020000D002000001820FE0C002045
:102B8000292C080071170800C917080080B500AF8C
:102B90000C4BD3F81C3103F40073002B0FD10A4BFC
:102BA0001B78012B02D1094B984709E0064B1B7893
:102BB000042B05D1034B2022C3F8142100E000BFF1
:102BC00080BD00BF00400A40FD0C0020292C0800F9
:102BD00080B400AF094BD3F81C3103F48063002BA1
:102BE00008D1074B1B78032B05D1044B2022C3F8D7
:102BF000142100E000BFBD4680BC704700400A4081
:102C0000FD0C002080B400AF054B05221A70054B67
:102C10002022C3F8142100BFBD4680BC704700BF0E
:102C2000FD0C002000400A4080B582B000AF134B7D
:102C300003221A70124B98477860124B4FF480624F
:102C4000C3F818210F4B4FF40062C3F814210D4B49
:102C50004FF48062C3F804210A4B4FF40042C3F8DA
:102C60001821084B4FF40042C3F804217868064B42
:102C7000984700BF0837BD4680BD00BFFD0C00204F
:102C80007117080000400A40C917080080B582B0DB
:102C900000AF0B4B04221A700A4B984778600A4B1E
:102CA0004FF48042C3F81821074B4FF48042C3F819
:102CB00004217868054B984700BF0837BD4680BDA2
:102CC000FD0C00207117080000400A40C9170800D9
:102CD00080B500AF044B1B69002B02D0024B1B696F
:102CE000984700BF80BD00BF540D002080B582B062
:102CF00000AF314BD3F81C317B602F4B5B6903F481
:102D00008073002B01D1002352E02B4B4FF4804203
:102D1000C3F80821284B4FF40042C3F808217B6810
:102D200003F48053002B03D0244B984701233FE04A
:102D30007B6803F48063002B0AD01F4BD3F80C315F
:102D400003F48063002B03D01D4B984701232FE031
:102D50007B6803F40073002B03D01A4B98470123C0
:102D600026E07B6803F40053002B04D0124B4FF491
:102D70000052C3F818217B6803F40043002B08D0ED
:102D80000D4B4FF40042C3F818210F4B9847012315
:102D90000EE07B6803F48043002B08D0064B4FF411
:102DA0008042C3F81821094B9847012300E0002313
:102DB00018460837BD4680BD00400A402927080054
:102DC00069280800D1290800D12B08008D2B0800A4
:102DD00080B483B000AF0023FB711CE0FA79124984
:102DE00013465B001344DB000B4403F1100213791C
:102DF0006FF300031371FA790B4913465B00134418
:102E0000DB000B4403F1100213796FF3820313719B
:102E1000FB790133FB71FB79012BDFD900BF0C3744
:102E2000BD4680BC704700BF040D002080B582B055
:102E300000AF0023FB7110E0FA7913465B001344E6
:102E4000DB00094A9818FB790133DBB21A460121ED
:102E5000064B9847FB790133FB71FB79012BEBD9CA
:102E600000BF0837BD4680BD040D0020AD2E080010
:102E700080B582B000AF0346FB71FB7903F00F030E
:102E8000FB71FB795A1E13465B001344DB00054AB5
:102E90001344FA7901211846034B984700BF0837BD
:102EA000BD4680BD040D0020AD2E080080B582B067
:102EB00000AF78600B46FB701346BB707B681B7DD0
:102EC00003F00103DBB2002B1FD07A68137D6FF390
:102ED000000313757B681B68002B18D00E4ABB7863
:102EE00008335B0113441B6803F00803002B03D075
:102EF000BB7863F07F03BB707B681B68FA78104671
:102F00007A689168BA78984702E000BF00E000BF95
:102F10000837BD4680BD00BF00400A4080B586B07E
:102F200000AF0346FB7100237B61FB795A1E1346F9
:102F30005B001344DB006D4A1344FB60FB681B7DA0
:102F400003F00103DBB2002B00F0CB80FB68DA68F2
:102F5000FB689B689A4200F09880FB689A68FB685F
:102F6000DB68D31A3B613B69B3F5803F05D94FF469
:102F700080333B6100237B6102E03B691B047B6182
:102F80005B4AFB7908335B0113441B6803F00803B9
:102F9000002B1DD0564AFB7908335B0113441B6894
:102FA00003F00703082202FA03F31A463B69B3FB56
:102FB000F2F102FB01F29B1A002B27D07B6943F050
:102FC00008037B61FA68137D6FF3410313751DE0FD
:102FD000474AFB7908335B0113441B681B0903F064
:102FE0000303012B0ED1424AFB7908335B011344E2
:102FF0001B6803F00703082202FA03F31A463B6931
:103000009A4203D37B6943F014037B61FB791A0175
:10301000384B1344FA685168FA68D2680A445A6017
:103020007B6943F021037B61334B9847B860FB79A0
:103030001A01304B1344DB6803F01003002B1DD141
:10304000FB791A012B4B13447A699A60FB68DA68A2
:103050003B691A44FB68DA60FB683A691A612449E3
:10306000234B1A69FB79013B4FF0007000FA03F320
:1030700013430B61B868214B984733E0B8681F4B86
:103080009847FB68DA68FB689A60194AFB7908334D
:103090005B0113441B6803F00803002B1AD0FB6884
:1030A0001B7D03F00203DBB2002B13D0104AFB7927
:1030B00008335B01134404334FF400621A600C4977
:1030C0000B4B1A69FB794FF4807000FA03F313433A
:1030D0000B6107E0FB791A460021F868084B984716
:1030E00000E000BF1837BD4680BD00BF040D0020C2
:1030F00000400A4000430A4071170800C917080041
:10310000AD2E080080B584B000AF0123FB73E0E072
:10311000FB7B5A1E13465B001344DB00714A1344C9
:10312000BB60714B1A69FB7B013B4FF0007101FAE8
:1031300003F31340002B3CD06B4B5A69FB7B013BE4
:103140004FF0007101FA03F31340002B31D0FB7BE9
:103150001A01664B1344DB6803F00103002B01D016
:103160000123BBE06049604B1A69FB7B013B4FF0D8
:10317000007000FA03F3DB4313400B61FB7B1A0181
:103180005A4B1344DB681B0C9BB27B607B68002BA3
:1031900009D0BB68DA687B68D21ABB68DA60BB68A2
:1031A000DA68BB689A60FB7B1846514B984701234D
:1031B00094E04D4B1A69FB7B4FF4807101FA03F3E5
:1031C0001340002B00F08280474AFB7B5B011344D5
:1031D00003F586731B6803F40063002B24D0424A76
:1031E000FB7B5B01134403F58E731B6803F40063E0
:1031F000002B19D13C4AFB7B5B01134403F584731C
:103200004FF400621A60384AFB7B5B01134403F5FC
:103210008A734FF400621A60FB7B1A460021B8687B
:10322000344B9847012359E02F4AFB7B5B01134441
:1032300003F586731B6803F48023002B46D02A4ACB
:10324000FB7B5B01134403F58E731B689B0C03F03F
:103250000303002B3AD1244AFB7B5B01134403F5A3
:1032600084734FF480221A601F491F4B1A69FB7B3D
:103270004FF4807000FA03F3DB4313400B61BA682C
:10328000137D6FF3820313751749FB7B1648FA7B96
:103290005201024402F58472126822F002025B01BC
:1032A0000B4403F584731A600F4AFB7B5B011344E4
:1032B00003F58A7320221A600B4AFB7B5B011344DF
:1032C00003F58C7340221A60012307E0FB7B013376
:1032D000FB73FB7B022B7FF61BAF002318461037D6
:1032E000BD4680BD040D002000400A4000430A4056
:1032F0001D2F0800AD2E080080B582B000AF1E4B18
:103300007B601E4B3B607A683B689A420CD007E0BA
:103310003B681A1D3A607A68111D796012681A605C
:103320003B68174A9342F3D3164B3B6004E03B687B
:103330001A1D3A6000221A603B68134A9342F6D382
:10334000124B7B60124A7B6823F0604323F07F03BB
:1033500093607B68B3F1005F09D37B680D4A9342A9
:1033600005D80B4A0A4B9B6843F0005393600A4B05
:1033700098470A4B9847FEE7AC570800000000202A
:10338000DC070020DC070020980D0020000008006A
:1033900000ED00E0FF3F0020DD550800CD0A0800E9
:1033A00080B582B000AF78607B68072B2ED801A271
:1033B00052F823F00B340800D5330800DD33080041
:1033C000E5330800ED330800F5330800FD3308004D
:1033D0000534080000200F4B984717E001200D4BE3
:1033E000984713E000200C4B98470FE010200A4B41
:1033F00098470BE02020084B984707E03E20074BFA
:10340000984703E0064B984700E000BF00BF08372D
:10341000BD4680BDF13708005D380800D13808008E
:103420001D39080080B582B000AF78607B68072B3B
:103430002FD801A252F823F0593408005D34080057
:103440005D3408006F3408006F3408006F340800E2
:10345000813408008134080001231BE00F4B98479A
:103460000346002B14BF01230023DBB212E00C4BF8
:1034700098470346002B14BF01230023DBB209E069
:10348000084B98470346002B14BF01230023DBB2EF
:1034900000E0002318460837BD4680BD29380800E3
:1034A000B93808006939080080B483B000AF78608B
:1034B0007B68072B23D801A252F823F0DD340800E3
:1034C000E3340800E7340800EB340800EF34080068
:1034D000F3340800F7340800FB3408004FF4FA43D3
:1034E0000EE000230CE000230AE0084B08E0084B44
:1034F00006E0084B04E0074B02E0064B00E0002327
:1035000018460C37BD4680BC704700BF00093D001F
:1035100000127A00001BB70080B582B000AF0346EE
:10352000FB7100BFFB791846054B9847034683F0B3
:103530000103DBB2002BF5D100BF0837BD4680BDCB
:103540002534080080B586B000AFF8607A603B6033
:103550000B46FB727B68002B07D13B68002B04D124
:10356000FB684FF470021A6019E0FB7A18460E4BA4
:10357000984702467B68B2FBF3F37B617B693A684C
:1035800002FB03F37B613B68013B1A04074B1340CA
:103590007A68D2B2134343F47C52FB681A6000BFCE
:1035A0001837BD4680BD00BFA93408000000FF07E2
:1035B00080B582B000AF786039603B68002B08D1DD
:1035C000094B9847094A7B681B6843F00053936294
:1035D00005E0064A7B681B6843F48033D36100BF73
:1035E0000837BD4680BD00BFD939080000040E4031
:1035F00080B582B000AF78607B68002B03D1054BAB
:103600009847034602E0044B98470346184608379C
:10361000BD4680BDF1390800253A080080B582B06A
:1036200000AF0346FB71FB79033B042B08D8FB7901
:103630001846064B9847FB791846054B984700E01B
:1036400000BF00BF0837BD4680BD00BFA1330800E2
:103650001935080080B582B000AF786000BF786887
:10366000044B98470346002BF9D00023184608372F
:10367000BD4680BDF135080080B500AF0620034B84
:10368000984703461B01184680BD00BFA9340800B7
:1036900080B500AF024B984703465B08184680BDD3
:1036A0007936080090B583B000AF0620094B9847E3
:1036B000381D002300220621074CA0473B1D012195
:1036C0001846064B98470120054B984700BF0C371A
:1036D000BD4690BD1D36080045350800B1350800CF
:1036E0005536080090B583B000AF1648164B984782
:1036F0000620164B98474FF08070154B984700BF37
:10370000144B98470346002BFAD0381D1023012292
:103710000621114CA0473B1D002118460F4B98472E
:1037200000200F4B984710200E4B98470E4B9847A0
:103730000E4B984703461846034B984700BF0C377B
:10374000BD4690BD00D8B805BD0100201D3608005B
:10375000993908008139080045350800B13508005D
:1037600055360800713708005D540800913608008E
:1037700080B485B000AF78601C491C4B1B6B23F0F4
:1037800070027B6813430B634FF40063FB6007E038
:10379000FB68002B01D1012323E0FB68013BFB60A8
:1037A000124B9B6E03F00803002BF1D00F4A0F4B16
:1037B0001B6B23F0030343F0020313634FF4006316
:1037C000FB6007E0FB68002B01D1012309E0FB68E7
:1037D000013BFB60054B9B6E03F00803002BF1D00F
:1037E000002318461437BD4680BC704700040E40C5
:1037F00080B483B000AF78607B68012B07D1084AA2
:10380000074B9B6843F0254343F480139360044BBC
:10381000044A1A6000BF0C37BD4680BC704700BF29
:1038200010120E40080000A580B400AF094B5B6980
:1038300003F08003002B07D0074B9B6E03F080033F
:10384000002B01D0012300E000231846BD4680BCB8
:10385000704700BF10120E4000040E4080B483B0C9
:1038600000AF7860134A134B1B6A43F45C1343F0B8
:103870000803136200BF0F4B9B6E03F40033002B51
:10388000F9D00C490B4B1B6A23F45C1323F0700333
:103890007A68134343F45C130B6200BF054B9B6EC5
:1038A00003F40033002BF9D000BF0C37BD4680BCB9
:1038B000704700BF00040E4080B400AF034B9B6E06
:1038C00003F400331846BD4680BC704700040E4028
:1038D00080B485B000AF78600F4B1B6AFB60FB685B
:1038E00023F00303FB607B681B029AB2FB6813435F
:1038F00043F45C1343F00103FB60074AFB68136267
:1039000000BF054B9B6E03F00103002BF9D000BFF5
:103910001437BD4680BC704700040E4080B483B0AD
:1039200000AF0A4B1B6A7B607B6823F003037B605C
:103930007B6843F45C1343F002037B60034A7B68BB
:10394000136200BF0C37BD4680BC704700040E40B8
:1039500080B400AF034B1B6A03F002031846BD4658
:1039600080BC704700040E4080B400AF034B9B6ED8
:1039700003F001031846BD4680BC704700040E40AA
:1039800080B400AF034B9B6E03F480331846BD46F2
:1039900080BC704700040E4080B485B000AF7860F2
:1039A0000C4B1B6AFB607B68002B04D0FB6843F068
:1039B0008073FB6003E0FB6823F08073FB60054AC3
:1039C000FB6843F45C13136200BF1437BD4680BC30
:1039D000704700BF00040E4080B400AF034B4FF0AF
:1039E00000529A6200BFBD4680BC704700040E4082
:1039F00080B400AF034B9B6E03F002031846BD4634
:103A000080BC704700040E4080B400AF044A044BF1
:103A1000DB6923F48033D36100BFBD4680BC7047AF
:103A200000040E4080B400AF034B9B6E03F04003D4
:103A30001846BD4680BC704700040E4080B483B079
:103A400000AF78607B681D2B01D9012316E07B68ED
:103A50001F2B12D80C4B9A6901217B6801FA03F3E2
:103A60001A4001217B6801FA03F39A4205D0064A05
:103A700001217B6801FA03F31361002318460C3718
:103A8000BD4680BC704700BF00040E4080B483B0C8
:103A900000AF78607B681D2B01D9012316E07B689D
:103AA0001F2B12D80C4B9A6901217B6801FA03F392
:103AB0001A4001217B6801FA03F39A4205D1064AB4
:103AC00001217B6801FA03F35361002318460C3788
:103AD000BD4680BC704700BF00040E4080B483B078
:103AE00000AF7860054A4FF480717B6801FA03F3F8
:103AF000136000BF0C37BD4680BC704700040E4009
:103B000080B483B000AF78607B68C3F312037B603E
:103B10000549054B1A6F7B6813430B6700BF0C37D1
:103B2000BD4680BC704700BF00040E4080B483B027
:103B300000AF124A114B1B6F43F480131367104AF6
:103B40000F4B1B6923F00403136120BF00237B602C
:103B500003E000BF7B6801337B607B68B3F5FA7FCD
:103B6000F7D300BF054B1B6A03F00803002BF9D005
:103B700000BF0C37BD4680BC704700BF00040E403C
:103B800000ED00E080B500AF0B4B98470346DA78B4
:103B90000A4B1A70094B1B78002B09D1084B984728
:103BA000034683F00103DBB2002B01D0002300E0C9
:103BB0000123184680BD00BF79410800350D002063
:103BC000CD0B080080B500AF034B1B78002B01D153
:103BD000024B984700BF80BD350D0020F90B08004F
:103BE00080B500AF104B1B785BB2002B09DA0E4B8F
:103BF0001B7803F06003402B03D10C4B984703461E
:103C00000FE0094B1B785BB2002B09DB064B1B78DE
:103C100003F06003402B03D1054B9847034600E0B7
:103C20000023184680BD00BF540D0020A50E0800DB
:103C3000B90D080080B400AF024B1B781846BD4692
:103C400080BC7047350D002090B587B002AFF8609A
:103C5000B9607A607B680093BB68FA6800218120B4
:103C6000034CA047034618461437BD4690BD00BF1D
:103C70006123080090B587B002AFF860B9607A6040
:103C80007B680093BB68FA6800210220034CA047C0
:103C9000034618461437BD4690BD00BF6123080097
:103CA00080B485B000AFF860B9607A607B68002BA3
:103CB00003D0FB68BA685A6602E0FB68BA681A6605
:103CC00000BF1437BD4680BC704780B487B000AFDA
:103CD000F860B9607A60FB687A685A64BB68B3F1CF
:103CE000805F1FD0B3F1805F05D8002B27D0B3F1E0
:103CF000006F0AD01FE0B3F1405F20D0B3F1605FE6
:103D00001DD0B3F1205F1AD015E0FB681B6F7B61FB
:103D1000FB681A6F7B68D9437B690B401A40FB68CC
:103D20001A6708E0FB681B6F7B617A687B691A433E
:103D3000FB681A6700BFFB687A685A6000E000BF42
:103D40001C37BD4680BC704780B584B000AFF860BA
:103D5000B9607A60B968F868194B98477B6803F0D6
:103D600001031A46B968F868164B98477B6803F058
:103D70000A03002B03D0FB68BA681A6202E0FB68F2
:103D8000BA685A627B6803F00203002B04D0FB6818
:103D9000BA68C3F8802008E07B6803F00803002BB2
:103DA00003D0FB68BA68C3F88420FB68BA685A611C
:103DB000FB68BA681A6000BF1037BD4680BD00BFFF
:103DC000473E0800A13C080080B584B000AFF86011
:103DD000B9607A603B60B968F868124B9847BA6975
:103DE000B968F868104B98473B68002B03D0FB6814
:103DF000BA681A6502E0FB68BA685A657B68002BEE
:103E000003D0FB68BA681A6302E0FB68BA685A63B9
:103E1000FB68BA681A61FB68BA681A6000BF10379D
:103E2000BD4680BD473E0800A13C080080B483B079
:103E300000AF786039607B683A689A6300BF0C37DE
:103E4000BD4680BC704780B483B000AF78603960F5
:103E50007B683A685A6400BF0C37BD4680BC704727
:103E600080B483B000AF78607B68DB6C18460C3799
:103E7000BD4680BC704780B483B000AF78607B687B
:103E80009B6C18460C37BD4680BC704780B584B02B
:103E900000AF78607868084B9847F860FB68DA6B89
:103EA0007B6803F01F0322FA03F303F001031846B3
:103EB0001037BD4680BD00BF3941080080B584B0D1
:103EC00000AF78607868084B9847F8607B6803F02B
:103ED0001F03012202FA03F31A46FB681A6300BFAC
:103EE0001037BD4680BD00BF3941080080B584B0A1
:103EF00000AF78607868084B9847F8607B6803F0FB
:103F00001F03012202FA03F31A46FB685A6300BF3B
:103F10001037BD4680BD00BF3941080090B587B05D
:103F200002AF786039607868454B9847F8603B6825
:103F300003F0F043B3F1205F46D0B3F1205F06D821
:103F4000B3F1006F0AD0B3F1805F22D070E0B3F11B
:103F5000405F45D0B3F1605F42D069E07B6803F019
:103F60001F03012202FA03F31A464FF00061F868BA
:103F7000344B98477B6803F01F03012202FA03F3D6
:103F800019463B6803F001031A46F8682E4B984720
:103F900050E07B6803F01F03012202FA03F31A4684
:103FA0004FF08051F868274B98477B6803F01F0358
:103FB000012202FA03F319463B6803F001031A4693
:103FC000F868214B984735E07B6803F01F03012216
:103FD00002FA03F33A681946F8681C4B984729E03F
:103FE0007B6803F01F03012202FA03F319463B68C2
:103FF00003F06053B3F1605F0CBF01230023DBB219
:104000001A463B6803F00403002B14BF012300236E
:10401000DBB218463B6803F00103002B14BF0123F9
:104020000023DBB200930346F868094CA04701E087
:10403000002300E0012318461437BD4690BD00BFA1
:1040400039410800CB3C0800A13C0800493D08006C
:10405000C93D080090B587B002AFF860B9607A60DA
:104060007B6803F0F043B3F1205F2ED0B3F1205F03
:1040700006D8B3F1006F0AD0B3F1805F16D04CE0E0
:10408000B3F1405F27D0B3F1605F24D045E0BA6858
:104090004FF00061F868244B98477B6803F00103F8
:1040A0001A46B968F868214B984738E0BA684FF06B
:1040B0008051F8681C4B98477B6803F001031A464F
:1040C000B968F868194B984729E07A68B968F868C0
:1040D000174B984723E07B6803F06053B3F1605FB0
:1040E0000CBF01230023DBB21A467B6803F00403F4
:1040F000002B14BF01230023DBB219467B6803F0B9
:104100000103002B14BF01230023DBB200930B46F5
:10411000B968F868074CA04701E0002300E00123DC
:1041200018461437BD4690BDCB3C0800A13C0800A2
:10413000493D0800C93D080080B485B000AF7860F3
:104140007B685B0903F5001303F206735B02FB60F7
:10415000FB6818461437BD4680BC704780B400AF7A
:10416000FEE7000080B400AF024B1846BD4680BC9D
:10417000704700BF5C02002080B400AF024B1B6898
:104180001846BD4680BC7047400D002080B400AF8B
:10419000064B1B681B68054A12681268528892B267
:1041A00013441846BD4680BC704700BF3C0D00203C
:1041B00080B584B000AF78600B46FB70124B984717
:1041C000F8607B681B781A467B6813447B6010E0BC
:1041D0007B685B78042B11D07B685B78FA789A4215
:1041E00001D17B680CE07B681B781A467B6813441E
:1041F0007B60FA687B689A42EAD800E000BF00233F
:1042000018461037BD4680BD8D41080080B584B08A
:1042100000AF03460A46FB711346BB711E4B1B7869
:10422000002B01D1002332E01C4B1B681B681B795B
:10423000FA799A4201D3002329E0184B1B681B68C6
:10424000174A1360174B9847F8601AE0144B1B6825
:104250005B78042B0DD1124B1B689B78FA799A423C
:1042600007D10F4B1B68DB78BA799A4201D1012341
:104270000DE00B4B1B680A4A126812781344084A77
:104280001360074B1B68FA689A42DFD80023184670
:104290001037BD4680BD00BF380D00203C0D00200A
:1042A000400D00208D41080080B584B000AF03466A
:1042B000FB71FB79002118461E4B9847034683F09B
:1042C0000103DBB2002B01D000232FE01A4B1B6847
:1042D0005A68FB799B0013441B68BB60BB68DB68B2
:1042E000984703461A46FB7911461846114B9847E2
:1042F000034683F00103DBB2002B01D0002315E05D
:104300000E4B1B68FB600521F8680D4B9847F86061
:10431000FB68002B05D0FB689B781846094B984733
:10432000F1E700BFBB685B68984701231846103768
:10433000BD4680BD0D4208003C0D0020400D002010
:10434000B14108003520080080B584B000AF0346B5
:104350000A46FB711346BB71BA79FB7911461846C0
:104360001A4B9847034683F00103DBB2002B01D0C0
:10437000002327E0164B1B68FB600521F868154BEE
:104380009847F860FB68002B11D0FB689878FB68B1
:10439000D978FB689B889BB21A460F4B9847034617
:1043A00083F00103DBB2002BE7D000230AE000BF5B
:1043B0000A4B1B685A68FB799B0013441B681B68F7
:1043C0009847034618461037BD4680BD0D42080089
:1043D000400D0020B1410800811C08003C0D002068
:1043E00080B500AF014B984700BF80BD811A08001F
:1043F00080B582B000AF0F4B1B78002B10D000238C
:10440000FB7106E0FB7918460B4B9847FB790133AB
:10441000FB710A4B1B681B681B79FA799A42F1D32E
:10442000044B00221A70064B00221A8000BF083786
:10443000BD4680BD380D0020A94208003C0D00207B
:10444000360D002080B582B000AF144B1B78002BD6
:104450001FD00023FB7115E0114B1B685A68FB79D4
:104460009B0013441B681B69002B08D00C4B1B6876
:104470005A68FB799B0013441B681B699847FB79BA
:104480000133FB71064B1B681B681B79FA799A4252
:10449000E2D300BF0837BD4680BD00BF380D002005
:1044A0003C0D002080B500AF064BDB88022B01D00D
:1044B000002304E002210448044B984701231846D6
:1044C00080BD00BF540D0020360D0020591C08008F
:1044D00080B500AF0B4BDB88022B01D000230EE030
:1044E000084B9B88DBB21846074B984703469AB2A5
:1044F000064B1A8002210548054B984701231846B0
:1045000080BD00BF540D0020B5200800440D0020E0
:10451000591C080080B400AF0B4BDB88002B01D086
:1045200000230DE0084B5B88012B08D1074B1B884B
:1045300023F002039AB2054B1A80012300E0002306
:104540001846BD4680BC7047540D0020360D002033
:1045500080B500AF0A4BDB88002B01D000230CE0B4
:10456000074B5B88002B07D1054B9B88DBB21846B5
:10457000044B9847034600E00023184680BD00BF67
:10458000540D00203122080080B500AF264BDB8897
:10459000002B01D0002345E0234B5B88012B02D088
:1045A000022B02D03DE000233CE0204B984703461D
:1045B00083F00103DBB2002B30D11B4B9B88DBB2B5
:1045C000002B2DD11A4B9847174B9B881B0A9BB287
:1045D000DBB2013B032B1FD801A252F823F000BF2E
:1045E000F1450800FB450800054608000F46080095
:1045F0000D4B104A1A61012314E00B4B0E4A1A614D
:1046000001230FE0084B0D4A1A6101230AE0064B13
:104610000B4A1A61012305E000BF02E000BF00E081
:1046200000BF0023184680BD540D0020D51B080094
:10463000F1430800F5240800292508005D2508003D
:104640008125080080B500AF0D4BDB88002B01D021
:10465000002312E00A4B5B88002B0DD1084B9B888E
:10466000DBB21846074B9847054B9B88DBB21846D0
:10467000054B9847034600E00023184680BD00BF65
:10468000540D00206D2408001D21080080B500AFE6
:10469000054B5B88DBB203F07F03DBB21846034BAC
:1046A000984700BF80BD00BF540D0020F91B0800D3
:1046B00080B400AF064BDB88002B01D0002303E061
:1046C000034B044A1A6101231846BD4680BC70475B
:1046D000540D00208D46080080B584B000AF002343
:1046E000FB71294B5B88DBB2032B20D801A252F867
:1046F00023F000BF054708000F47080019470800CE
:104700002347080004212148214B984711E0152335
:10471000FB71204BBB600CE01323FB711E4BBB6095
:1047200007E02023FB711D4B9847B86001E0002390
:1047300026E0FB79002B22D00023FB730DE0FB7BEE
:10474000FA7BB9680A44127891B2154A5B001344A7
:104750000A465A80FB7B0133FB73FA7BFB799A4252
:10476000EDD3FB790133DBB25B00DAB20C4B1A708C
:104770000B4B1B789BB219460948054B9847012300
:1047800018461037BD4680BD540D0020A8020020F9
:10479000591C0800AC020020C4020020654108003A
:1047A000D802002080B582B000AF804B5B88FB71DF
:1047B0007E4B5B881B0A9BB2DBB2013B0E2B00F2E7
:1047C000E28001A252F823F00548080041480800A1
:1047D000734908008749080087490800BB4808005A
:1047E000D148080087490800874908008749080020
:1047F0008749080087490800874908008749080059
:10480000514908006A4B9847034683F00103DBB225
:10481000002B0AD0674B9A68664B9B681B789BB24B
:1048200019461046644B9847B0E0624B1A68614BDA
:104830001B681B789BB2194610465F4B9847A5E052
:104840005B4B98470346002B19D05A4B9B685B7C07
:10485000FA799A4201D30023A3E0564B1A69FB79F7
:10486000DB0013441868534B1A69FB79DB001344CF
:104870001B685B889BB219464F4B984718E04D4B1D
:104880001B685B7CFA799A4201D3002389E0494B8B
:104890005A68FB79DB0013441868464B5A68FB7969
:1048A000DB0013441B685B889BB21946424B984758
:1048B0003E4B9B6802225A7068E03E4BDA683D4BE3
:1048C000DB681B789BB2194610463B4B98475DE06E
:1048D000374B9847034683F00103DBB2002B19D016
:1048E000344B9B685B7CFA799A4201D3002358E0F1
:1048F000304B1A69FB79DB00134418682D4B1A6999
:10490000FB79DB0013441B685B889BB219462A4B7A
:10491000984718E0274B1B685B7CFA799A4201D3D1
:1049200000233EE0234B5A68FB79DB0013441868F0
:10493000204B5A68FB79DB0013441B685B889BB2F1
:1049400019461D4B9847194B9B6807225A701DE06A
:10495000184B5B69002B01D1002322E0154B5A69EB
:10496000144B5B695B889BB219461046124B984703
:104970000CE0124B9847034683F00103DBB2002B97
:1049800003D000230DE000230BE000BF074BDA88C3
:10499000064B9B899A4203D2044BDA88034B9A81D7
:1049A000012318460837BD4680BD00BF540D0020C6
:1049B000D51B080090030020591C0800D9460800A8
:1049C00080B500AF064BDB88012B01D0002304E04B
:1049D00001210448044B98470123184680BD00BFBD
:1049E000540D0020380D0020591C080080B582B0FD
:1049F00000AF374BDB88002B01D0002363E0354B41
:104A000098470346002B01D100235CE0324B9847C6
:104A10000346002B09D02E4B5B88DBB22F4A9268ED
:104A2000527C93420BDD00234DE0294B5B88DBB2C7
:104A30002A4A1268527C934201DD002343E0284B4E
:104A40009847234B5B88DAB2264B1A70254B1B78AC
:104A5000002B01D1012336E01F4B98470346002B62
:104A60000BD01E4B1A691F4B1B7803F10053013BFF
:104A7000DB0013441C4A13600AE0184B5A68194BB8
:104A80001B7803F10053013BDB001344164A13600B
:104A90000023FB710FE0FB7900211846134B984768
:104AA000034683F00103DBB2002B01D000230AE0B0
:104AB000FB790133FB710C4B1B681B681B79FA797E
:104AC0009A42E8D3012318460837BD4680BD00BF8F
:104AD000540D00203D1C0800D51B08009003002049
:104AE000F1430800380D00203C0D00204943080028
:104AF00080B582B000AF1E4BDB88012B01D00023B4
:104B000032E01C4B1B78002B01D100232CE0184B0A
:104B10009B88FB71184B1B681B681B79FA799A42BA
:104B200001D3002320E0FB7900211846134B98475E
:104B3000034683F00103DBB2002B01D0002313E016
:104B40000D4B1B685A68FB799B0013441B683B6044
:104B50003B68DB68984703461A46094B1A700121E7
:104B60000748084B9847012318460837BD4680BDC3
:104B7000540D0020380D00203C0D00200D4208008F
:104B8000460D0020591C080080B582B000AF144BC0
:104B9000DB88002B01D000231EE0124B1B78002B7A
:104BA00001D1002318E00E4B9B88FB710C4B5B88F6
:104BB000BB71FB7918460C4B9847034683F0010301
:104BC000DBB2002B01D0002306E0BA79FB79114655
:104BD0001846064B9847034618460837BD4680BD21
:104BE000540D0020380D0020A94208004943080058
:104BF00080B500AF4D4B1B785BB2002B3EDA4B4BC0
:104C0000DB88002B01D100238EE0484B1B7803F09A
:104C10001F03002B14D1454B5B78062B08D0082BC3
:104C20000AD0002B00D00BE0414B984703467BE0B5
:104C3000404B9847034677E03F4B9847034673E065
:104C40003A4B1B7803F01F03012B08D1374B5B78DD
:104C50000A2B00D003E0394B9847034664E0334BFE
:104C60001B7803F01F03022B5DD1304B5B78002BC8
:104C700000D058E0324B9847034655E02B4B1B7849
:104C800003F01F03002B2AD1284B5B78013B082B34
:104C900024D801A252F823F0C54C0800DD4C0800CE
:104CA000CD4C0800DD4C0800BD4C0800DD4C080070
:104CB000DD4C0800DD4C0800D54C0800214B98471E
:104CC000034631E0204B984703462DE01F4B9847A1
:104CD000034629E01E4B9847034625E000BF134BCF
:104CE0001B7803F01F03012B08D1104B5B780B2BB3
:104CF00000D003E0174B9847034615E00B4B1B7899
:104D000003F01F03022B0ED1084B5B78012B02D05E
:104D1000032B04D007E0104B9847034604E00F4BE9
:104D20009847034600E00023184680BD540D00203C
:104D3000A5440800A5470800C1490800F14A080039
:104D4000D1440800B146080015450800894508000F
:104D5000ED490800894B0800514508004546080008
:104D600080B582B000AF204B1B78002B01D100230F
:104D700036E01E4B9B88FB711D4B1B681B681B7923
:104D8000FA799A4201D300232AE0FB7900211846E0
:104D9000184B9847034683F00103DBB2002B01D088
:104DA00000231DE0124B1B685A68FB799B001344DB
:104DB0001B683B603B68DB68984703461A46FB79F3
:104DC000114618460B4B9847034683F00103DBB2AC
:104DD000002B01D0002303E03B689B689847034603
:104DE00018460837BD4680BD380D0020540D002000
:104DF0003C0D00200D42080080B582B000AF1E4B74
:104E00001B78002B01D1002332E01C4B9B88FB71E7
:104E10000023FB7124E01A4B1B685A68FB799B0046
:104E200013441B683B603B68DB68984703461A469F
:104E3000FB7911461846134B9847034683F001034C
:104E4000DBB2002B01D0002312E03B689B6898473F
:104E50000346002B01D001230AE0FB790133FB71EB
:104E6000074B1B681B681B79FA799A42D3D300233E
:104E700018460837BD4680BD380D0020540D00206F
:104E80003C0D00200D42080080B500AF1E4B0022F3
:104E90009A811D4B00221A611B4B00225A611A4B4A
:104EA0001B785BB2002B05DA174BDB88002B01D196
:104EB000002327E0144B1B7803F06003002B06D17E
:104EC000124B98470346002B01D001231AE00E4BEA
:104ED0001B7803F01F03012B06D10D4B98470346A7
:104EE000002B01D001230DE0074B1B7803F01F03BB
:104EF000022B06D1074B98470346002B01D0012314
:104F000000E00023184680BD540D0020F14B08003E
:104F1000614D0800F94D0800B0B59CB000AF786055
:104F20007B68013B042B00F2D98101A252F823F0E7
:104F3000454F0800454F0800774F0800774F08009D
:104F4000C1520800804A804B1B6F23F48013136703
:104F50007E4A7E4B1B6923F0040313617C4B0122C4
:104F60001A70BFF35F8F62B67B68022B01D130BF2E
:104F7000B4E120BFB2E172B6BFF35F8F744B002281
:104F80001A70744B01221A707B68042B0CBF01232A
:104F90000023DAB207F12003FB6407F11C03BB64B2
:104FA00007F118037B6407F114033B6407F1100356
:104FB000FB6307F10C03BB63134687F83730624B82
:104FC0001B6A3B63604B1B6BFB62634B1B68BB62E2
:104FD000624B1B687B62FB6C002B02D0FB6C3A6B54
:104FE0001A60BB6C002B03D0574B9A6ABB6C1A60DB
:104FF0007B6C002B03D0544BDA697B6C1A603B6CE2
:10500000002B02D03B6CFA6A1A60FB6B002B02D0BB
:10501000FB6BBA6A1A60BB6B002B02D0BB6B7A6A5F
:105020001A60494A3B6B43F45C1343F00803136274
:10503000FB6A03F00303012B0ED9FB6A23F0030381
:1050400043F00103FB62404AFB6A13633E4B9B6ED5
:1050500003F00803002BF9D0FB6A03F07003002B68
:105060000CD0FB6A23F07003FB62374AFB6A1363C0
:10507000354B9B6E03F00803002BF9D0384B984753
:10508000384B9847304B9B6E03F40033002BF9D01C
:105090002D4A2D4B1B6A23F09B7323F4803343F47A
:1050A0005C131362284B9B6E03F48033002BF9D002
:1050B000294ABB6A23F470631360284A7B6A23F48D
:1050C0007063136097F83730002B09D01E4A1E4BCF
:1050D0001B6A23F45C1323F0010343F45C13136293
:1050E0001B4B01221A70BFF35F8F62B61E4B9847AD
:1050F00072B6BFF35F8F164B00221A703D6AFC69CF
:10510000B86979693A69FB68FD66BC667866396694
:10511000FA65BB6500237B65FB6E03F00203002B81
:1051200028D00949084B1B6A104A1A40104B1343F8
:105130000B62054A044B1B6A23F45C1323F07803CB
:1051400043F45C13136250E000040E4000ED00E0F5
:105150001A030020470D002000080E40000A0E40F0
:10516000D9390800093A08002D3B0800FCFFC8FEA9
:1051700002003701FB6E03F00103002B35D0594BC1
:105180001B6A03F00103002B11D1564A554B1B6AD1
:1051900023F45C1323F0030343F45C1343F0010393
:1051A0001362504B9B6E03F00103002BF9D04D4B63
:1051B0001B6A03F08073002B0DD14A4A494B1B6ACE
:1051C00043F09B7343F480331362464B9B6E03F4AE
:1051D0008033002BF9D0434A424B1B6A23F45C1303
:1051E00023F0780343F45C131362BA6E3E4B134012
:1051F000002B08D03B4ABB6E43F0005393627B6D9B
:1052000043F002037B657B6E03F48033002B06D0F2
:10521000344A7B6ED3617B6D43F040037B653B6E0C
:1052200003F00303022B02D0032B07D00CE02D4B1D
:105230009B6E03F00203002BF9D005E0294B9B6E17
:1052400003F04003002BF9D0264B1B6B3B6525492F
:105250003B6D23F070023B6E03F0700313430B634E
:10526000204B9B6E03F00803002BF9D01F4AFB6D07
:1052700013601F4ABB6D13601A4A3B6E1363194BD0
:105280009B6E03F00803002BF9D0164B9A6E7B6DD2
:105290001340002BF9D0174B00221A70164B1B68D5
:1052A000002B05D0144B1B689847134B00221A6043
:1052B000124B01221A70BFF35F8F62B600BF0DE080
:1052C0000F4A0F4B1B6943F0040313610B4B012280
:1052D0001A70BFF35F8F62B620BF00BF00BF703788
:1052E000BD46B0BD00040E400000FF0700080E40A0
:1052F000000A0E40470D0020480D00201A03002030
:1053000000ED00E080B400AF084B1B78DBB2002B4F
:1053100014BF01230023DBB283F00103DBB203F0EF
:105320000103DBB21846BD4680BC7047470D002024
:1053300080B582B000AF78607868034B984700BFB3
:105340000837BD4680BD00BF3D3A080080B500AFBC
:105350000A20034B98470B20014B984700BF80BDA4
:105360003153080080B500AF4FF060511D200A4B4B
:1053700098474FF060511F20074B98474FF040511E
:105380001820054B98474FF000624FF4C051034876
:10539000034B984700BF80BD1D3F0800000C0E4026
:1053A0005540080080B500AF044B4FF400425A60EE
:1053B000034B9847034B984700BF80BD50120E40E7
:1053C0004D5308006553080080B483B000AF104B04
:1053D0001B68002B12D1EFF310837B607B68002BDE
:1053E00009D172B6BFF35F8F0A4B00221A700A4BC5
:1053F00001221A7002E0084B00221A70044B1B684D
:105400000133034A136000BF0C37BD4680BC7047B0
:105410004C0D00201A030020500D002080B400AF76
:105420000B4B1B68013B0A4A1360094B1B68002B9E
:105430000AD1084B1B78DBB2002B05D0064B0122AA
:105440001A70BFF35F8F62B600BFBD4680BC704765
:105450004C0D0020500D00201A03002080B400AF36
:10546000574B1B6B03F00303032B00F28A8001A24E
:1054700052F823F085540800A5540800F55408009C
:10548000F55408004F4B5B6903F08003002B04D0F8
:105490004D4B4FF400421A6073E04B4B4FF4FA420D
:1054A0001A606EE0464B1B6A03F08073002B03D03A
:1054B000454B464A1A6064E0434B454A1A60404BEC
:1054C0001B6A03F07003102B04D0202B08D0002B94
:1054D0000ED00EE03C4B1B685B003B4A136008E0BB
:1054E000394B1A6813465B001344374A136000E0D7
:1054F00000BF46E0324B1B6A03F08073002B03D0E1
:10550000314B324A1A601CE02F4B314A1A602C4B47
:105510001B6A03F07003102B04D0202B08D0002B43
:105520000ED00EE0284B1B685B00274A136008E092
:10553000254B1A6813465B001344234A136000E0AE
:1055400000BF1F4B1B6B03F00303022B15D11C4B39
:105550009B6A1B0CC3F30A0301331B4A126802FB4C
:1055600003F3194A1360164B9B6ADBB2164A1268A2
:10557000B2FBF3F3144A136002E0134B154A1A60AE
:1055800000BF0F4B1B6B03F07003702B08D10E4B49
:105590001B68114AA2FB03235B080B4A13600AE055
:1055A000074B1B6B1B0903F00703074A126822FA1B
:1055B00003F3054A136000BFBD4680BC704700BFBF
:1055C00000040E4010120E40A8030020001BB7007C
:1055D00000093D00001C4E0EABAAAAAA70B50F4EE2
:1055E0000F4D761BB61018BF002405D0013455F8B6
:1055F000043B9847A642F9D10A4E0B4D00F0C4F87F
:10560000761BB61018BF002406D0013455F8043BB1
:105610009847A642F9D170BD70BD00BF94570800ED
:10562000945708009C57080094570800024B13B188
:10563000024800F005B87047000000004D56080011
:10564000002301461A46184600F01EB838B50A4C29
:105650000A4D641BA4100AD004F18043013B05EB02
:105660008305013C55F804399847002CF9D1BDE871
:10567000384000F093B800BFAC570800A8570800A6
:10568000704700BF704700BF2DE9F8432C4D064618
:10569000286898460F469146FFF7F2FF294B1C6891
:1056A000D4F84831002B3ED05A681F2A1CDC02F186
:1056B000010E76B1012103EB8204C4F88890D3F87F
:1056C000880191400843022EC3F88801C4F808817C
:1056D00023D00232C3F804E0286843F82270FFF7B1
:1056E000D1FF0020BDE8F883174B0BB34FF4C8700F
:1056F000AFF300800346D8B10020D4F848114FF032
:10570000010E586019600246C4F84831C3F8880198
:10571000C3F88C01002EDCD0CCE7D3F88C01014318
:10572000C3F88C11D5E704F5A673C4F84831BBE77C
:105730002868FFF7A7FF4FF0FF30BDE8F88300BFF0
:10574000D807002084570800000000000000000077
:105750000000000000AAAAAAAAAAAAAAAAEEEEEE2F
:10576000EEEEEEEEEEFEFFFFFFFFFFFFFFFFFFFF9F
:10577000FF7FBFDFEFF7FBFDFC7EBFDFEFF7FBFD39
:105780007E000000B0030020F8B500BFF8BC08BCE4
:105790009E4670472D560800E1000800F8B500BF8E
:0C57A000F8BC08BC9E467047BD00080025
:1057AC0080B489B000AFF860B9607A603B604FF4A8
:1057BC000023BB613B68002B01D102233CE0FB685A
:1057CC001B6843F48032FB681A60BB68DBB243F0A1
:1057DC00B442FB685A60FB689B687B617B6903F091
:1057EC000103012BF7D00023FB610CE0FB699B004C
:1057FC003A681344FA699200B9690A4412681A604B
:10580C00FB690133FB61FA69BB6A9A42EED37B6890
:10581C00DBB243F0B442FB685A60FB689B687B6167
:10582C007B6903F00103012BF7D1FB681B6823F4A0
:10583C008032FB681A60002318462437BD4680BCB2
:10584C00704780B483B000AF786039607B683A6889
:10585C001A6000BF0C37BD4680BC704780B485B061
:10586C0000AF786039607B683A685A607B689B68E7
:10587C00FB60FB6803F00103012BF7D1FB6803F01D
:10588C00060318461437BD4680BC704780B400AF81
:10589C002A4B4FF480621A60294B4FF480621A60D5
:1058AC00284B1B6A03F08073002B09D1254B264A29
:1058BC001A6200BF234B9B6E03F00103002BF9D03F
:1058CC00204B224A1A6200BF1E4B9B6E03F480339E
:1058DC00002BF9D01B4A1B4B1B6B23F0030343F02B
:1058EC000103136300BF174B9B6E03F00803002BDF
:1058FC00F9D0144B164A9A6200BF124B9B6E03F000
:10590C000203002BF9D00F4B11221A6300BF0D4B71
:10591C009B6E03F00803002BF9D00A4B12221A637A
:10592C0000BF084B9B6E03F00803002BF9D0094B0A
:10593C00094A1A6000BFBD4680BC704700080E4083
:10594C00000A0E4000040E40090837000908370110
:10595C00013F0F20A803002000D8B80580B483B005
:10596C0000AF78607B681F4A934206D81E4B00221A
:10597C001A601E4B00221A602EE07B681C4A934270
:10598C0008D8194B4FF480721A60184B4FF4807280
:10599C001A6021E07B68174A934208D8124B4FF4E7
:1059AC0000721A60114B4FF400721A6014E07B689D
:1059BC00114A934208D80C4B4FF440721A600B4BAF
:1059CC004FF440721A6007E0074B4FF480621A6084
:1059DC00064B4FF480621A6000BF0C37BD4680BC8A
:1059EC00704700BFFF356E0100080E40000A0E40E4
:1059FC00FF596202FFA14A04FFBC01053030303070
:105A0C0030303030303030304445414442454546EA
:105A1C00000000000000000000000000000000007A
:105A2C00E508080005090800250908000100000028
:105A3C0000000060853B0800C53B0800E13B080006
:105A4C00353C080000000000040309044E65774152
:105A5C004520546563686E6F6C6F677920496E637F
:105A6C002E00000042616C6C697374696320476599
:105A7C006C20435735323100000300000000000059
:105A8C00000000000000000000000000000000000A
:105A9C0000000000000000000000000000000000FA
:105AAC0000000000000000000000000000000000EA
:105ABC0000000000000000000000010012010002C4
:105ACC00000000403E2B21C5000101020301000033
