:0200000280007C
:1000000000040820D52208005530080055300800AB
:100010005530080055300800553008000000000039
:100020000000000000000000000000005530080043
:100030005530080000000000553008005530080019
:10004000553008005530080055300800553008007C
:10005000553008005530080055300800553008006C
:100060005530080055300800FD0708001508080045
:10007000553008005530080055300800553008004C
:10008000553008005530080055300800553008003C
:10009000553008005530080055300800553008002C
:1000A000553008005530080055300800553008001C
:1000B000553008007D0908005530080010B5054C82
:1000C000237833B9044B13B10448AFF30080012304
:1000D000237010BDDC06002000000000C4420800B0
:1000E0000C4B43B10C4810B50C49AFF300800C48E1
:1000F000036823B910BD0A48036833B97047094B38
:10010000002BF7D0BDE810401847064B002BF5D068
:10011000184700BF00000000C4420800E0060020AD
:10012000C44208000000000080B483B000AF002388
:10013000FB7106E0FB79084A0021D154FB790133B9
:10014000FB71FB79042BF5D9034B01225A7100BFD7
:100150000C37BD4680BC7047640C002080B500AFF2
:10016000064B9847064B9847064B98471D20064B71
:1001700098471F20054B9847FEE700BF290108005C
:1001800081260800A13E0800B52D0800E52D0800D5
:1001900080B582B000AF78607B68072B2ED801A2B3
:1001A00052F823F0FB010800C5010800CD0108004A
:1001B000D5010800DD010800E5010800ED01080097
:1001C000F501080000200F4B984717E001200D4B68
:1001D000984713E000200C4B98470FE010200A4B83
:1001E00098470BE02020084B984707E03E20074B3C
:1001F000984703E0064B984700E000BF00BF083770
:10020000BD4680BD0D28080079280800ED280800AB
:100210003929080080B582B000AF78607B68072B71
:100220002FD801A252F823F0490208004D0208001D
:100230004D0208005F0208005F0208005F0208002C
:10024000710208007102080001231BE00F4B984760
:100250000346002B14BF01230023DBB212E00C4B3A
:1002600098470346002B14BF01230023DBB209E0AB
:10027000084B98470346002B14BF01230023DBB231
:1002800000E0002318460837BD4680BD4528080019
:10029000D52808006D29080080B582B000AF03465C
:1002A000FB7100BFFB791846054B9847034683F066
:1002B0000103DBB2002BF5D100BF0837BD4680BD7E
:1002C0001502080080B500AF014B984700BF80BD04
:1002D0004540080080B500AF014B984700BF80BD86
:1002E0005D40080080B500AF084B1B78DBB283F09F
:1002F0000103DBB2002B06D1054B98470346184695
:10030000044B984700E000BF80BD00BF9101002072
:10031000C10B08007140080080B500AF054B0122F9
:100320001A70054A4FF480610448054B9847012331
:10033000184680BD9101002075060800F8060020CF
:10034000B52B080080B400AF034B00221A7000BF29
:10035000BD4680BC704700BF9101002080B582B0CF
:1003600000AF0A4B1B687B60084B5B683B60022058
:10037000074B98473B6803F1C043064A7968184623
:10038000054B984700BF0837BD4680BDF80A0020DE
:10039000110708003D060800892B080080B582B0CF
:1003A00000AF0A4B1B687B60084B5B683B60042016
:1003B000074B98473B6803F1C043064A1360064A5F
:1003C0007B68136000BF0837BD4680BDF80A002077
:1003D000110708003C0B0020400B002080B584B0C2
:1003E00000AF154B1B68BB60134B5B687B60134B06
:1003F0003B600120124B98471F20124B9847002367
:10040000FB600DE0104B1A68F9687B680B441344DD
:100410003968FA680A4412781A70FB680133FB6085
:10042000FA68BB689A42EDD30020054B984700BF9D
:100430001037BD4680BD00BFF80A0020000B002029
:10044000110708007D2208009401002080B582B0C9
:1004500000AF0B4B1B687B60094B5B683B60032064
:10046000084B9847084A3B681360084A7B6813604A
:100470001F20074B984700BF0837BD4680BD00BF0F
:10048000F80A002011070800440B0020480B002048
:100490007D22080080B500AF0D4B5B88DBB2022BDC
:1004A0000ED0032B10D0012B00D00EE00620094BFC
:1004B00098470620084B98471020084B984704E0BF
:1004C0001020074B984700E000BF00BF80BD00BF71
:1004D0004C0C002091010800990208000D2708002B
:1004E0008D27080080B400AF2C4B2D4A9A602B4B0F
:1004F000DB88402B28BF40239AB2284B9A81294B96
:1005000000221A70254B5B78103B122B41D801A2B8
:1005100052F823F061050800750508006B05080016
:100520007F0508009305080093050800930508005F
:10053000930508009305080093050800930508003B
:10054000930508009305080093050800930508002B
:100550009305080093050800930508008905080025
:100560000E4B114A1A61012314E00C4B0F4A1A6119
:1005700001230FE0094B0E4A1A6101230AE0074BE1
:100580000C4A1A61012305E0044B0B4A1A6101234E
:1005900000E000231846BD4680BC70474C0C00208C
:1005A000F80A0020380B00205D0308009D030800B6
:1005B0004D040800DD0308009504080080B500AF75
:1005C000184B5B78122B02D0172B16D026E0164B57
:1005D0001B68144A9360154B1B689AB2114B9A81A1
:1005E000124B00221A60124B98470346042B02D18B
:1005F0000020104B9847012311E00F4B00221A7086
:100600000D4B0A225A700C4B00229A70054B0A4A75
:100610009A60044B03229A81012300E000231846CC
:1006200080BD00BF4C0C00203C0B0020400B002084
:1006300031070800110708004C0B002080B582B07C
:1006400000AF03463960FB711346BB71FB79002B89
:1006500008D1064B98470346022B04D10020044BD7
:10066000984700E000BF0837BD4680BD310708004D
:100670001107080080B584B000AF03463960FB71F4
:100680001346BB71FB79002B06D0194A4FF48061E9
:100690001848194B984727E0184B1B78002B1DD1A1
:1006A0000023FB600EE0164B1A68164B1968FB68B6
:1006B0000B4413440F49FA680A4412781A70FB6815
:1006C0000133FB60FA683B689A42ECD30E4B9847C3
:1006D0000346032B02D100200C4B9847044A4FF4E9
:1006E00080610448044B98471037BD4680BD00BF69
:1006F00075060800F8060020B52B0800380B00200E
:1007000094010020440B0020310708001107080065
:1007100080B483B000AF0346FB71044AFB791370C9
:1007200000BF0C37BD4680BC704700BF8C0B00205B
:1007300080B400AF034B1B78DBB21846BD4680BCCB
:10074000704700BF8C0B002080B584B000AF78608C
:1007500039607868264B9847F8607868254B984749
:100760000246FB681340FB60FB68002B3CD0002373
:10077000BB6034E0204ABB681B0113441A683B6825
:100780009A4226D11C4ABB681B01134404331A68E1
:10079000FB681340002B1CD0174ABB681B01134495
:1007A0000C331B681449BA6812010A4410681249D4
:1007B000BA6812010A4404321268114698470E4A78
:1007C000BB681B01134404331B68DB43FA68134006
:1007D000FB60BB680133BB60BB68062B03D8FB68BA
:1007E000002BC7D100E000BF00BF1037BD4680BD61
:1007F000872D08009D2D0800900B002080B500AFCC
:100800000A210248024B984700BF80BD000C0E40F1
:100810004907080080B500AF0B210248024B9847FA
:1008200000BF80BD000E0E404907080080B483B0B1
:1008300000AFEFF310833B603B68002B0CBF01233C
:100840000023DBB27B6072B6BFF35F8F044B0022E4
:100850001A707B6818460C37BD4680BC704700BFD5
:100860001E02002080B483B000AF78607B68002B4C
:1008700014BF01230023DBB218460C37BD4680BCF1
:100880007047000080B582B000AF78607868074B91
:1008900098470346002B05D0054B01221A70BFF381
:1008A0005F8F62B600BF0837BD4680BD650808008F
:1008B0001E02002080B584B000AF0346FB71084BD8
:1008C0009847F860FB79074AD25C0132D1B2054AF9
:1008D000D154F868044B984700BF1037BD4680BD1F
:1008E0002D080800640C00208508080080B584B03D
:1008F00000AF0346FB71084B9847F860FB79074A45
:10090000D25C013AD1B2054AD154F868044B9847F9
:1009100000BF1037BD4680BD2D080800640C0020C4
:100920008508080080B582B000AF0346FB71FB79F3
:1009300083F00103DBB2002B06D00D4B1B78002B9C
:1009400002D002200B4B9847FB79002B09D0084BB3
:100950001B7883F00103DBB2002B02D00220064B90
:100960009847034AFB79137000BF0837BD4680BD26
:10097000000C0020ED080800B508080080B500AFA5
:100980001D205E4B98475E4B9847034683F001035A
:10099000DBB2002B0CD05B4B5B6903F00203002B36
:1009A00006D172B6BFF35F8F574B00221A70A4E0D6
:1009B000544B5B6903F00803002B0DD0514B082208
:1009C0009A61504B5B6903F00103002B01D14F4B3F
:1009D00098474F4B98478EE04A4B5B6903F00403FE
:1009E000002B05D0474B04229A61484B984782E080
:1009F000484B98470346002B7AD1474B984703460C
:100A0000002B77D13F4B5B6903F01003002B1DD007
:100A10003C4B10229A61414B9847414B9847414BC0
:100A20009847414B9847374A364B1B6943F00803B8
:100A30001361344A334B1B6943F004031361314A99
:100A4000304B1B6943F00203136154E02D4B1B69CB
:100A500003F00203002B20D02A4B5B6903F0020352
:100A6000002B1AD0274B20229A61264A254B1B695E
:100A700023F002031361234A224B1B6943F0200336
:100A80001361204B02229A611D20284B9847284B66
:100A900098470020274B98472DE01A4B5B6903F0DD
:100AA0002003002B28D00120224B9847154B02220F
:100AB0009A61144B20229A61124A124B1B6923F04F
:100AC000200313610F4A0F4B1B6943F002031361AC
:100AD0000C4A0C4B1B6943F008031361094A094B8C
:100AE0001B6943F004031361134B984700BF02E0F6
:100AF00000BF00E000BF00BF00BF80BD252A080086
:100B0000013E080000400A401E0200202D3308006C
:100B1000E5020800751C080031200800591D080076
:100B2000D9320800D515080055160800752A0800A6
:100B3000C502080025090800D502080080B400AFEE
:100B4000064B5B6903F00103002B14BF0123002354
:100B5000DBB21846BD4680BC704700BF00400A406B
:100B600080B483B000AF0346FB710D4A0C4B1B6889
:100B700023F0800313600A49094B1B6823F07F02AE
:100B8000FB7903F07F0313430B60054A044B1B689A
:100B900043F08003136000BF0C37BD4680BC704734
:100BA00000400A4080B400AF044B1B68DBB203F086
:100BB0007F03DBB21846BD4680BC704700400A4048
:100BC00080B400AF054B5B68DB089BB2C3F30A033C
:100BD0009BB21846BD4680BC704700BF00400A402B
:100BE00080B483B000AF78600B467B80054A7B6899
:100BF0009360044A7B88938100BF0C37BD4680BC5C
:100C0000704700BF4C0C002090B589B002AF03467E
:100C1000FB710B46BB711346BB800023FB740023A2
:100C20007B74FB7903F08003002B14BF01230023A6
:100C30003B74FB7903F00F03FB71FB79022B01D9A5
:100C40000023B2E1B24AFB795B01134403F58673DA
:100C50001B6803F00103002B01D00023A5E1BB7941
:100C600003F00303022B1AD0032B15D0012B19D14B
:100C7000FB79002B07D0FB79032B04D0FB79042BE5
:100C800001D0012300E000237B747B7C03F001038F
:100C90007B7401237B7507E001237B7504E002234D
:100CA0007B7501E0002380E17B7D022B06D0032BC6
:100CB00007D0012B08D101233B7507E002233B75C8
:100CC00004E003233B7501E000236EE17B7C002BF5
:100CD00017D0BB8803F4C053B3F5006F03D0B3F54E
:100CE000805F03D005E00223FB7405E00323FB745F
:100CF00002E00123FB7400BFBB8823F4C053BB8018
:100D000006E0BB8803F4C053002B01D000234CE164
:100D10007F4CF9797E4AFB7908335B0113441B68E9
:100D200023F47F7323F00303BA79120102F0300039
:100D30003A7C002A01D0082200E000221043BA8841
:100D4000082A03D9BA88B2F5806F08DABA88082A67
:100D500003D9BA885200013A03E00F2201E040F2C1
:100D6000FF72B2FA82F2C2F11C0210433A7D920184
:100D7000D2B210437A7C002A04D0FA7C120202F428
:100D8000407200E000220243C2F309021A4301F15B
:100D900008035B0123441A605D4AFB7908335B0159
:100DA00013441B68002B01DB0023FEE0584AFB794B
:100DB00008335B011344043301221A600023FB82D1
:100DC0000223BB7439E0524ABB7C5B01134403F538
:100DD00086731B6803F00103002B2BD04C4ABB7CAD
:100DE00008335B0113441B689B09DBB203F0030368
:100DF0003B753A7DBB7C5B0002FA03F31AB2B7F98C
:100E0000163013431BB2FB82414ABB7C5B01134487
:100E100003F5847301221A603D49BB7C3C48BA7CCF
:100E2000083252010244126822F0C00208335B010A
:100E30000B441A60BB7C013BBB74BA7CFB799A42C1
:100E4000C1D2FB79BB74ABE0BB7C5A1E13465B007E
:100E50001344DB002F4A1344FB60FB681B7DC3F384
:100E60000003DBB2002B14BF01230023FB72FA8ABC
:100E7000BB7C5B0042FA03F3DBB203F003033B7578
:100E80003B7D002B00F08880FA68137D6FF3000330
:100E900013751F48BB7C1E49BA7C083252010A44B4
:100EA000126822F0C0013A7D9201D2B20A4308339F
:100EB0005B0103441A60164ABB7C08335B01134490
:100EC000043301221A60124ABB7C08335B011344CD
:100ED0001B68002B20DBFB681B68002B01D1002363
:100EE00063E00B4ABB7C08335B0113441B6803F0CF
:100EF0000803002B03D0BB7C63F07F03BB74FB684B
:100F00001B68FA68D168BA7C0120984700234CE03E
:100F100000400A40080C00202649BB7C2548BA7CCA
:100F20000832520102440432126842F002020833CD
:100F30005B010B4404331A60FB7A002B2DD0FB6855
:100F4000DA68FB681B69D21AFB68DA60FB681B7DF4
:100F5000C3F34003DBB2002B14BF01230023D9B23B
:100F6000FB685A68FB68DB68D418FB689A68FB6802
:100F7000DB68D21AFB681B68B87C009313462246D4
:100F80000D4CA0470346FB72FB7A83F00103DBB2F2
:100F9000002B02D0002308E000BFBB7C0133BB74F0
:100FA000BB7C022B7FF650AF012318461C37BD4691
:100FB00090BD00BF00400A40E912080080B584B02F
:100FC00000AF0346FB71FB7903F00F03FB73FB7B60
:100FD000022B28D8164AFB7B5B01134403F584736C
:100FE00001221A601249FB7B1148FA7B0832520138
:100FF0000244126822F0C00208335B010B441A60FD
:10100000FB7918460B4B9847FB7B5A1E0A4913463F
:101010005B001344DB000B4403F1100213796FF300
:101020008203137100E000BF1037BD4680BD00BFD2
:1010300000400A409D1D0800080C002080B485B0C7
:1010400000AF0346FB71FB7903F00F03FB73FB7BDF
:101050005A1E13465B001344DB00104A1344BB6066
:101060000F4AFB7B5B01134403F58E731B6803F08F
:101070002003002B06D1BB681B7D03F00403DBB209
:10108000002B01D0012300E0002303F00103DBB2B9
:1010900018461437BD4680BC704700BF080C0020BE
:1010A00000400A4080B485B000AF0346FB71FB7975
:1010B00003F00F03FB73FB7B022B01D9002371E0CC
:1010C000FB7B5A1E13465B001344DB00384A134473
:1010D000BB60384AFB7B5B01134403F58E731B68CE
:1010E00003F02003002B06D1BB681B7D03F0040333
:1010F000DBB2002B01D0012354E0BB681B7D03F061
:101100000103DBB2002B01D000234BE097F907303D
:10111000002B25DA274AFB7B5B01134403F58E7312
:101120001B689B0C03F00303002B19D0BA68137DD6
:1011300043F0040313751F4AFB7B08335B01134420
:1011400004334FF480221A601A491A4B1A69FB7B48
:101150004FF4807000FA03F313430B61012321E085
:101160001449FB7B1348FA7B5201024402F5847256
:10117000126822F002025B010B4403F584731A60CB
:101180000C4AFB7B5B01134403F58C734FF4005254
:101190001A60084AFB7B5B01134403F58A73202223
:1011A0001A60012318461437BD4680BC704700BF43
:1011B000080C002000400A4080B584B000AF034610
:1011C000FB710023FB73FB7903F00F03FB71FB79C9
:1011D000022B01D900237EE0FB795A1E13465B00E7
:1011E0001344DB003E4A1344BB60BB681B7D03F025
:1011F0000403DBB2002B1AD0BA68137D6FF38203AD
:101200001375384AFB795B01134403F584734FF47B
:1012100080221A603349334B1A69FB794FF480708E
:1012200000FA03F3DB4313400B610123FB732D4AE8
:10123000FB795B01134403F58E731B6803F02003F5
:10124000002B35D0274AFB795B01134403F58E73DD
:101250001B6803F40053002B10D0224AFB795B017A
:10126000134403F58C734FF400521A601D4AFB7946
:101270005B01134403F58C7340221A60194AFB7911
:101280005B01134403F58C7320221A601549FB7926
:101290001448FA790832520102440432126842F0CA
:1012A000020208335B010B4404331A600123FB7311
:1012B000FB7B002B0ED0BB681B7D03F00103DBB270
:1012C000002B07D0BA68137D6FF300031375BB685A
:1012D0001B689847012318461037BD4680BD00BFE4
:1012E000080C002000400A4080B586B000AFBA600C
:1012F0007B600346FB730B46BB73FB7B03F00F0362
:10130000FB73FB7B022B01D9002364E0FB7B5A1E9D
:1013100013465B001344DB00314A13447B61314ABE
:10132000FB7B5B01134403F586731B6803F0010329
:10133000002B11D02B4AFB7B5B01134403F58E730A
:101340001B6803F02003002B06D17B691B7D03F093
:101350000403DBB2002B01D000233CE0224B984772
:1013600038617B691B7D03F00103DBB2002B04D0E5
:1013700038691E4B984700232DE07A69137D43F0AE
:10138000010313753869194B98477B69BA685A602D
:101390007B697A689A607B690022DA607B69002247
:1013A0001A617B693A6A1A60BB7B002B02D17B68A9
:1013B000002B01D1012300E00023DBB203F0010385
:1013C000D9B27A69137D61F341031375FB7B18462B
:1013D000074B9847012318461837BD4680BD00BF0C
:1013E000080C002000400A402D080800850808006D
:1013F000491E080080B584B000AF0346FB71FB793D
:1014000003F00F03FB73FB7B1A01194B13440022FB
:101410009A6097F90730002B21DA14E0154AFB7B1C
:101420005B01134403F58A734FF400721A6000BF26
:10143000104AFB7B5B01134403F58E731B6803F4B6
:101440000073002BF4D10B4AFB7B5B01134403F5C3
:101450008E731B689B0C03F00303002BDED1FB791A
:101460001846054B984700BF1037BD4680BD00BFEA
:1014700000430A4000400A409D1D080080B400AFB0
:101480000A4A0A4BD3F8E03023F0030343F0020387
:10149000C2F8E030054A054BD3F8E03043F00403CE
:1014A000C2F8E03000BFBD4680BC704700400A4033
:1014B00080B400AF0A4A0A4BD3F8E03023F00303AC
:1014C00043F00203C2F8E030054A054BD3F8E030A0
:1014D00043F00803C2F8E03000BFBD4680BC70474F
:1014E00000400A4080B400AF064A064BD3F8E03013
:1014F00023F0030343F00203C2F8E03000BFBD460F
:1015000080BC704700400A40B0B493B000AF2E4B8F
:101510003C1D1D460FCD0FC40FCD0FC40FCD0FC402
:1015200095E80300206004342170284B0122C3F8A1
:101530000821264A254BD3F8003123F47F7323F08A
:10154000030343F06B03C2F80031204B0122C3F8C0
:1015500004211E4A1D4BD3F8E03023F0030343F06F
:101560000203C2F8E030194A184BD3F8E03043F0D8
:101570001003C2F8E030164B3B643B1DFB630023B5
:1015800087F847300CE03B6C5A1C3A64FA6B511CEC
:10159000F96312781A7097F84730013387F84730AB
:1015A00097F84730342BEED9084B4FF48062C3F8DC
:1015B0001821064B4FF40062C3F8142100BF4C37CA
:1015C000BD46B0BC704700BF5442080000400A400E
:1015D0000000182080B582B000AF1B4A1A4B1B6870
:1015E00023F07F031360184A174B1B6843F08003F6
:1015F0001360154A144BD3F8003123F47F7323F0A2
:10160000030343F04303C2F800310F4B0122C3F838
:1016100004210E4B984778600B4B4FF48052C3F86F
:101620000421094B4FF40072C3F80421064A064B0B
:101630001B6943F4807313617868054B984700BFBA
:101640000837BD4680BD00BF00400A402D08080095
:101650008508080080B582B000AF104B98477860CD
:101660000F4B4FF48062C3F8082178680D4B984700
:101670000B4B4FF40072C3F818210B4B00221A6178
:10168000094B00225A61084B00229A81074B002225
:101690001A7000BF0837BD4680BD00BF2D08080086
:1016A00000400A40850808004C0C0020010C002076
:1016B00080B584B000AF404B1B78002B03D03F4B6C
:1016C00098473F4B98473F4BD3F81C311B0DC3F352
:1016D0000A03082B07D03C4B98473A4B4FF48052F3
:1016E000C3F8182164E0394BBB600023FB730AE0A8
:1016F000FB7B374A1A44BB68591CB9601B781370CE
:10170000FB7B0133FB73FB7B072BF1D9304B5A88F2
:101710002F4B5A802E4B9A882D4B9A802C4BDA886F
:101720002B4BDA802B4B9847034683F00103DBB247
:10173000002B07D0244B9847224B4FF48052C3F81C
:10174000182135E01F4B4FF48052C3F81821204B6D
:101750001B785BB2002B0BDA1F4B00221A801F4B49
:1017600000221A80144B02221A701D4B98471FE06A
:10177000174BDB88002B02D11A4B984718E0164B09
:1017800000221A80154B00221A800B4B01221A707E
:101790000C4B4FF48042C3F81821134B98477860E4
:1017A000084B4FF48042C3F8042178680F4B9847E8
:1017B0001037BD4680BD00BF010C0020591C080039
:1017C0005516080000400A408D1B08000000182034
:1017D0004C0C0020713D0800020C0020040C00207D
:1017E000F1170800B11B08002D0808008508080043
:1017F00080B584B000AF4C4B984738604B4B4FF4EA
:101800008062C3F808213868494B9847494B1B78D8
:10181000032B04D1484B9847484B984781E0484BED
:101820009A89484B1B88D31AFB81FB89002B27D14F
:10183000454B1A88434B1B8813449AB2424B1A807B
:101840003F4BDA88404B1B889A4203D03F4B1B78B2
:10185000002B02D03E4B984763E0394B5B69002B6D
:101860000ED0374B5B699847034683F00103DBB228
:10187000002B05D1334B00221A80314B9B89FB8111
:10188000FB893F2B05D94023FB81304B00221A7086
:1018900002E02E4B01221A702E4BBB60284B9B6836
:1018A000284A128813447B601F4B984738601F4BAF
:1018B000D3F81C3103F40073002B06D038681C4B9E
:1018C00098471C4B04221A702BE000237B730AE01C
:1018D000BB685A1CBA607A68511C796012781A7019
:1018E0007B7B01337B737B7B9BB2FA899A42EFD877
:1018F000144B1A88FB8913449AB2124B1A800B4B73
:101900004FF48062C3F81821084B4FF40062C3F80B
:101910001421064B4FF48062C3F804213868044B4D
:1019200098471037BD4680BD2D08080000400A408A
:1019300085080800010C0020591C080055160800F5
:101940004C0C0020040C0020020C0020380C00205D
:10195000151C08000000182080B584B000AF614B52
:101960001B78012B0FD05F4B1B78022B03D05D4BF4
:101970001B78042B02D15C4B984701E05B4B9847E6
:101980005B4B9847ABE05B4BD3F81C311B0D9BB214
:10199000C3F30A03BB81584B9B891A46574B1B88DC
:1019A0001946BB890B449A4205DA534B9A89534B2B
:1019B0001B88D31ABB81524BBB604F4B9B684F4A6D
:1019C000128813447B600023FB730AE07B685A1C77
:1019D0007A60BA68511CB96012781A70FB7B0133C7
:1019E000FB73FB7B9BB2BA899A42EFD8434B1A88B0
:1019F000BB8913449AB2414B1A80BB89402B0AD150
:101A00003D4BDB881A463F4B1B8819463B4B1B88D6
:101A10000B449A4220DC394B1A88374B9A81364B5B
:101A20005B69002B10D0344B5B699847034683F009
:101A30000103DBB2002B07D02C4B98472D4B4FF402
:101A40000072C3F818214AE02A4B4FF40072C3F821
:101A500018212D4B984742E0274B9A89274B1B882A
:101A60009A4227D1244B5B69002B07D11F4B984723
:101A7000204B4FF40072C3F8182130E01E4B5B6915
:101A80009847034683F00103DBB2002B07D0174BC6
:101A90009847184B4FF40072C3F818211FE0194BF8
:101AA0001A88164B1B8813449AB2164B1A80134B94
:101AB00000221A800F4B4FF40072C3F818210D4B0F
:101AC0004FF48042C3F81821104B98473860094BF7
:101AD0004FF48042C3F8042138680D4B9847103703
:101AE000BD4680BD010C0020591C08008D1B08005C
:101AF0005516080000400A404C0C0020040C002041
:101B000000001820020C0020B11B08002D0808005E
:101B10008508080080B500AF0C4BD3F81C3103F4E6
:101B20000073002B0FD10A4B1B78012B02D1094BFC
:101B3000984709E0064B1B78042B05D1034B202264
:101B4000C3F8142100E000BF80BD00BF00400A4080
:101B5000010C0020B11B080080B400AF094BD3F882
:101B60001C3103F48063002B08D1074B1B78032B37
:101B700005D1044B2022C3F8142100E000BFBD466C
:101B800080BC704700400A40010C002080B400AFC8
:101B9000054B05221A70054B2022C3F8142100BF03
:101BA000BD4680BC704700BF010C002000400A40C9
:101BB00080B582B000AF134B03221A70124B9847C6
:101BC0007860124B4FF48062C3F818210F4B4FF42A
:101BD0000062C3F814210D4B4FF48062C3F8042156
:101BE0000A4B4FF40042C3F81821084B4FF400424F
:101BF000C3F804217868064B984700BF0837BD46F4
:101C000080BD00BF010C00202D08080000400A40E4
:101C10008508080080B582B000AF0B4B04221A7013
:101C20000A4B984778600A4B4FF48042C3F818215A
:101C3000074B4FF48042C3F804217868054B98475E
:101C400000BF0837BD4680BD010C00202D080800EC
:101C500000400A408508080080B500AF044B1B69AE
:101C6000002B02D0024B1B69984700BF80BD00BF0C
:101C70004C0C002080B582B000AF314BD3F81C3142
:101C80007B602F4B5B6903F48073002B01D1002331
:101C900052E02B4B4FF48042C3F80821284B4FF4FD
:101CA0000042C3F808217B6803F48053002B03D063
:101CB000244B984701233FE07B6803F48063002BAB
:101CC0000AD01F4BD3F80C3103F48063002B03D0F0
:101CD0001D4B984701232FE07B6803F40073002B12
:101CE00003D01A4B9847012326E07B6803F4005386
:101CF000002B04D0124B4FF40052C3F818217B681C
:101D000003F40043002B08D00D4B4FF40042C3F8FE
:101D100018210F4B984701230EE07B6803F48043A2
:101D2000002B08D0064B4FF48042C3F81821094B12
:101D30009847012300E0002318460837BD4680BDC0
:101D400000400A40B1160800F117080059190800B0
:101D5000591B0800151B080080B582B000AF002396
:101D6000FB7110E0FA7913465B001344DB00094A6B
:101D70009818FB790133DBB21A460121064B9847CC
:101D8000FB790133FB71FB79012BEBD900BF0837DD
:101D9000BD4680BD080C0020D91D080080B582B06A
:101DA00000AF0346FB71FB7903F00F03FB71FB7976
:101DB0005A1E13465B001344DB00054A1344FA79AC
:101DC00001211846034B984700BF0837BD4680BD28
:101DD000080C0020D91D080080B582B000AF7860E3
:101DE0000B46FB701346BB707B681B7D03F0010341
:101DF000DBB2002B1FD07A68137D6FF300031375DD
:101E00007B681B68002B18D00E4ABB7808335B0137
:101E100013441B6803F00803002B03D0BB7863F066
:101E20007F03BB707B681B68FA7810467A689168FC
:101E3000BA78984702E000BF00E000BF0837BD460F
:101E400080BD00BF00400A4080B586B000AF0346A9
:101E5000FB7100237B61FB795A1E13465B00134420
:101E6000DB006D4A1344FB60FB681B7D03F001033C
:101E7000DBB2002B00F0CB80FB68DA68FB689B6864
:101E80009A4200F09880FB689A68FB68DB68D31A76
:101E90003B613B69B3F5803F05D94FF480333B612B
:101EA00000237B6102E03B691B047B615B4AFB7999
:101EB00008335B0113441B6803F00803002B1DD09B
:101EC000564AFB7908335B0113441B6803F0070390
:101ED000082202FA03F31A463B69B3FBF2F102FB54
:101EE00001F29B1A002B27D07B6943F008037B612A
:101EF000FA68137D6FF3410313751DE0474AFB79C0
:101F000008335B0113441B681B0903F00303012B17
:101F10000ED1424AFB7908335B0113441B6803F07E
:101F20000703082202FA03F31A463B699A4203D3D5
:101F30007B6943F014037B61FB791A01384B13442E
:101F4000FA685168FA68D2680A445A607B6943F0BB
:101F500021037B61334B9847B860FB791A01304B02
:101F60001344DB6803F01003002B1DD1FB791A0129
:101F70002B4B13447A699A60FB68DA683B691A4410
:101F8000FB68DA60FB683A691A612449234B1A69D5
:101F9000FB79013B4FF0007000FA03F313430B6130
:101FA000B868214B984733E0B8681F4B9847FB68E7
:101FB000DA68FB689A60194AFB7908335B011344BD
:101FC0001B6803F00803002B1AD0FB681B7D03F08D
:101FD0000203DBB2002B13D0104AFB7908335B01FC
:101FE000134404334FF400621A600C490B4B1A6916
:101FF000FB794FF4807000FA03F313430B6107E0A1
:10200000FB791A460021F868084B984700E000BFAA
:102010001837BD4680BD00BF080C002000400A40B4
:1020200000430A402D08080085080800D91D080053
:1020300080B584B000AF0123FB73E0E0FB7B5A1E48
:1020400013465B001344DB00714A1344BB60714BC1
:102050001A69FB7B013B4FF0007101FA03F3134057
:10206000002B3CD06B4B5A69FB7B013B4FF000715E
:1020700001FA03F31340002B31D0FB7B1A01664BAE
:102080001344DB6803F00103002B01D00123BBE004
:102090006049604B1A69FB7B013B4FF0007000FA0E
:1020A00003F3DB4313400B61FB7B1A015A4B1344D0
:1020B000DB681B0C9BB27B607B68002B09D0BB6884
:1020C000DA687B68D21ABB68DA60BB68DA68BB681A
:1020D0009A60FB7B1846514B9847012394E04D4B87
:1020E0001A69FB7B4FF4807101FA03F31340002B54
:1020F00000F08280474AFB7B5B01134403F5867343
:102100001B6803F40063002B24D0424AFB7B5B0175
:10211000134403F58E731B6803F40063002B19D17D
:102120003C4AFB7B5B01134403F584734FF400626C
:102130001A60384AFB7B5B01134403F58A734FF442
:1021400000621A60FB7B1A460021B868344B98473E
:10215000012359E02F4AFB7B5B01134403F586738F
:102160001B6803F48023002B46D02A4AFB7B5B01CB
:10217000134403F58E731B689B0C03F00303002BC1
:102180003AD1244AFB7B5B01134403F584734FF47B
:1021900080221A601F491F4B1A69FB7B4FF4807025
:1021A00000FA03F3DB4313400B61BA68137D6FF34E
:1021B000820313751749FB7B1648FA7B52010244D0
:1021C00002F58472126822F002025B010B4403F5EF
:1021D00084731A600F4AFB7B5B01134403F58A7317
:1021E00020221A600B4AFB7B5B01134403F58C73BE
:1021F00040221A60012307E0FB7B0133FB73FB7B6A
:10220000022B7FF61BAF002318461037BD4680BD5A
:10221000080C002000400A4000430A40491E080004
:10222000D91D080080B584B000AF78600023FB6042
:1022300017E00F4AFB6852F833207B689A420DD1B1
:102240000B4AFB68DB0013445B68012B03D1786801
:10225000084B984702E07868074B9847FB680133C2
:10226000FB60FB68012BE4D900BF1037BD4680BD81
:102270008C420800E52D0800B52D080080B584B01B
:1022800000AF78600023FB6017E00F4AFB6852F84C
:1022900033207B689A420DD10B4AFB68DB00134464
:1022A0005B68012B03D17868084B984702E0786897
:1022B000074B9847FB680133FB60FB68012BE4D9AF
:1022C00000BF1037BD4680BD8C420800B52D080008
:1022D000E52D080080B582B000AF1E4B7B601E4B21
:1022E0003B607A683B689A420CD007E03B681A1D55
:1022F0003A607A68111D796012681A603B68174A63
:102300009342F3D3164B3B6004E03B681A1D3A60DE
:1023100000221A603B68134A9342F6D3124B7B604B
:10232000124A7B6823F0604323F07F0393607B684D
:10233000B3F1005F09D37B680D4A934205D80B4A7D
:102340000A4B9B6843F0005393600A4B98470A4B33
:102350009847FEE7C442080000000020DC06002089
:10236000DC060020900C00200000080000ED00E0DA
:10237000FF3F0020E54008005D01080080B582B005
:1023800000AF78607B68072B2ED801A252F823F0AB
:10239000E7230800B1230800B9230800C12308007F
:1023A000C9230800D1230800D9230800E12308002D
:1023B00000200F4B984717E001200D4B984713E082
:1023C00000200C4B98470FE010200A4B98470BE079
:1023D0002020084B984707E03E20074B984703E032
:1023E000064B984700E000BF00BF0837BD4680BDE0
:1023F0000D28080079280800ED2808003929080070
:1024000080B582B000AF78607B68072B2FD801A21F
:1024100052F823F035240800392408003924080034
:102420004B2408004B2408004B2408005D240800BE
:102430005D24080001231BE00F4B98470346002B47
:1024400014BF01230023DBB212E00C4B9847034674
:10245000002B14BF01230023DBB209E0084B98478F
:102460000346002B14BF01230023DBB200E000234E
:1024700018460837BD4680BD45280800D528080005
:102480006D29080080B483B000AF78607B68072BAB
:1024900023D801A252F823F0B9240800BF24080071
:1024A000C3240800C7240800CB240800CF24080058
:1024B000D3240800D72408004FF4FA430EE0002389
:1024C0000CE000230AE0084B08E0084B06E0084B4C
:1024D00004E0074B02E0064B00E0002318460C37EF
:1024E000BD4680BC704700BF00093D0000127A0065
:1024F000001BB70080B582B000AF0346FB7100BF80
:10250000FB791846054B9847034683F00103DBB27D
:10251000002BF5D100BF0837BD4680BD012408005F
:1025200080B586B000AFF8607A603B600B46FB7206
:102530007B68002B07D13B68002B04D1FB684FF46C
:1025400070021A6019E0FB7A18460E4B9847024653
:102550007B68B2FBF3F37B617B693A6802FB03F3B0
:102560007B613B68013B1A04074B13407A68D2B287
:10257000134343F47C52FB681A6000BF1837BD4612
:1025800080BD00BF852408000000FF0780B582B031
:1025900000AF786039603B68002B08D1094B984741
:1025A000094A7B681B6843F00053936205E0064AC2
:1025B0007B681B6843F48033D36100BF0837BD4696
:1025C00080BD00BFDD29080000040E4080B582B048
:1025D00000AF78607B68002B03D1054B984703461A
:1025E00002E0044B9847034618460837BD4680BDB5
:1025F000F52908000D2A080080B582B000AF034617
:10260000FB71FB79033B042B08D8FB791846064B7A
:102610009847FB791846054B984700E000BF00BF7C
:102620000837BD4680BD00BF7D230800F5240800A3
:1026300080B582B000AF786000BF7868044B9847DF
:102640000346002BF9D0002318460837BD4680BD4D
:10265000CD25080080B500AF0620034B9847034600
:102660001B01184680BD00BF8524080080B500AF5F
:10267000024B984703465B08184680BD5526080064
:1026800090B583B000AF1648164B98470620164BFE
:1026900098474FF08070154B984700BF144B9847F0
:1026A0000346002BFAD0381D102301220621114CBD
:1026B000A0473B1D002118460F4B984700200F4BA9
:1026C000984710200E4B98470E4B98470E4B984753
:1026D00003461846034B984700BF0C37BD4690BDD4
:1026E00000D8B805D1000020F92508009D29080070
:1026F00085290800212508008D25080031260800BD
:102700008D270800C53E08006D26080080B485B0FE
:1027100000AF78601C4A1C4B1B6B23F0030343F093
:10272000010313634FF40063FB6007E0FB68002BB9
:1027300001D1012323E0FB68013BFB60124B9B6E40
:1027400003F00803002BF1D00F490F4B1B6B23F054
:1027500070027B6813430B634FF40063FB6007E078
:10276000FB68002B01D1012309E0FB68013BFB6002
:10277000054B9B6E03F00803002BF1D00023184695
:102780001437BD4680BC704700040E4080B485B04D
:1027900000AF78601C491C4B1B6B23F070027B68F8
:1027A00013430B634FF40063FB6007E0FB68002BEF
:1027B00001D1012323E0FB68013BFB60124B9B6EC0
:1027C00003F00803002BF1D00F4A0F4B1B6B23F0D3
:1027D000030343F0020313634FF40063FB6007E05D
:1027E000FB68002B01D1012309E0FB68013BFB6082
:1027F000054B9B6E03F00803002BF1D00023184615
:102800001437BD4680BC704700040E4080B483B0CE
:1028100000AF78607B68012B07D1084A074B9B68A3
:1028200043F0254343F480139360044B044A1A6039
:1028300000BF0C37BD4680BC704700BF10120E4071
:10284000080000A580B400AF094B5B6903F080036A
:10285000002B07D0074B9B6E03F08003002B01D0A9
:10286000012300E000231846BD4680BC704700BF2E
:1028700010120E4000040E4080B483B000AF7860A8
:10288000134A134B1B6A43F45C1343F008031362AF
:1028900000BF0F4B9B6E03F40033002BF9D00C49A3
:1028A0000B4B1B6A23F45C1323F070037A68134309
:1028B00043F45C130B6200BF054B9B6E03F40033C3
:1028C000002BF9D000BF0C37BD4680BC704700BF5D
:1028D00000040E4080B400AF034B9B6E03F4003342
:1028E0001846BD4680BC704700040E4080B485B0D9
:1028F00000AF78600F4B1B6AFB60FB6823F003039B
:10290000FB607B681B029AB2FB68134343F45C13C1
:1029100043F00103FB60074AFB68136200BF054BED
:102920009B6E03F00103002BF9D000BF1437BD46A6
:1029300080BC704700040E4080B483B000AF0A4BE7
:102940001B6A7B607B6823F003037B607B6843F436
:102950005C1343F002037B60034A7B68136200BF91
:102960000C37BD4680BC704700040E4080B400AFF9
:10297000034B9B6E03F001031846BD4680BC7047B5
:1029800000040E4080B400AF034B9B6E03F4803311
:102990001846BD4680BC704700040E4080B485B028
:1029A00000AF78600C4B1B6AFB607B68002B04D087
:1029B000FB6843F08073FB6003E0FB6823F08073E7
:1029C000FB60054AFB6843F45C13136200BF1437D5
:1029D000BD4680BC704700BF00040E4080B400AF0D
:1029E000034B4FF000529A6200BFBD4680BC704757
:1029F00000040E4080B400AF034B9B6E03F0020353
:102A00001846BD4680BC704700040E4080B400AF3D
:102A1000034B9B6E03F040031846BD4680BC7047D5
:102A200000040E4080B483B000AF78607B681D2B3B
:102A300001D9012316E07B681F2B12D80C4B9A6931
:102A400001217B6801FA03F31A4001217B6801FA36
:102A500003F39A4205D0064A01217B6801FA03F389
:102A60001361002318460C37BD4680BC704700BF79
:102A700000040E4080B483B000AF78607B681D2BEB
:102A800001D9012316E07B681F2B12D80C4B9A69E1
:102A900001217B6801FA03F31A4001217B6801FAE6
:102AA00003F39A4205D1064A01217B6801FA03F338
:102AB0005361002318460C37BD4680BC704700BFE9
:102AC00000040E4080B500AF0B4B98470346DA7800
:102AD0000A4B1A70094B1B78002B09D1084B9847F9
:102AE000034683F00103DBB2002B01D0002300E09A
:102AF0000123184680BD00BF71300800390C00204A
:102B00001903080080B500AF034B1B78002B01D1DF
:102B1000024B984700BF80BD390C002045030800D8
:102B200080B500AF104B1B785BB2002B09DA0E4B5F
:102B30001B7803F06003402B03D10C4B98470346EE
:102B40000FE0094B1B785BB2002B09DB064B1B78AF
:102B500003F06003402B03D1054B9847034600E088
:102B60000023184680BD00BF4C0C0020BD050800A6
:102B7000E504080080B400AF024B1B781846BD4640
:102B800080BC7047390C002090B587B002AFF86068
:102B9000B9607A607B680093BB68FA680021812085
:102BA000034CA047034618461437BD4690BD00BFEE
:102BB000E912080090B587B002AFF860B9607A609A
:102BC0007B680093BB68FA6800210220034CA04791
:102BD000034618461437BD4690BD00BFE9120800F1
:102BE00080B485B000AFF860B9607A607B68002B74
:102BF00003D0FB68BA685A6602E0FB68BA681A66D6
:102C000000BF1437BD4680BC704780B487B000AFAA
:102C1000F860B9607A60FB687A685A64BB68B3F19F
:102C2000805F1FD0B3F1805F05D8002B27D0B3F1B0
:102C3000006F0AD01FE0B3F1405F20D0B3F1605FB6
:102C40001DD0B3F1205F1AD015E0FB681B6F7B61CC
:102C5000FB681A6F7B68D9437B690B401A40FB689D
:102C60001A6708E0FB681B6F7B617A687B691A430F
:102C7000FB681A6700BFFB687A685A6000E000BF13
:102C80001C37BD4680BC704780B584B000AFF8608B
:102C9000B9607A60B968F868194B98477B6803F0A7
:102CA00001031A46B968F868164B98477B6803F029
:102CB0000A03002B03D0FB68BA681A6202E0FB68C3
:102CC000BA685A627B6803F00203002B04D0FB68E9
:102CD000BA68C3F8802008E07B6803F00803002B83
:102CE00003D0FB68BA68C3F88420FB68BA685A61ED
:102CF000FB68BA681A6000BF1037BD4680BD00BFD0
:102D00006D2D0800E12B080080B584B000AFF8609D
:102D1000B9607A603B60B968F868124B9847BA6945
:102D2000B968F868104B98473B68002B03D0FB68E4
:102D3000BA681A6502E0FB68BA685A657B68002BBE
:102D400003D0FB68BA681A6302E0FB68BA685A638A
:102D5000FB68BA681A61FB68BA681A6000BF10376E
:102D6000BD4680BD6D2D0800E12B080080B483B006
:102D700000AF786039607B683A685A6400BF0C37EE
:102D8000BD4680BC704780B483B000AF78607B687C
:102D9000DB6C18460C37BD4680BC704780B483B0EE
:102DA00000AF78607B689B6C18460C37BD4680BCD2
:102DB0007047000080B584B000AF78607868084B39
:102DC0009847F8607B6803F01F03012202FA03F3BF
:102DD0001A46FB681A6300BF1037BD4680BD00BFAE
:102DE0003130080080B584B000AF78607868084B57
:102DF0009847F8607B6803F01F03012202FA03F38F
:102E00001A46FB685A6300BF1037BD4680BD00BF3D
:102E10003130080090B587B002AF786039607868CB
:102E2000454B9847F8603B6803F0F043B3F1205FEF
:102E300046D0B3F1205F06D8B3F1006F0AD0B3F1EA
:102E4000805F22D070E0B3F1405F45D0B3F1605FA6
:102E500042D069E07B6803F01F03012202FA03F30A
:102E60001A464FF00061F868344B98477B6803F0CE
:102E70001F03012202FA03F319463B6803F0010322
:102E80001A46F8682E4B984750E07B6803F01F0302
:102E9000012202FA03F31A464FF08051F868274BDB
:102EA00098477B6803F01F03012202FA03F31946D7
:102EB0003B6803F001031A46F868214B984735E058
:102EC0007B6803F01F03012202FA03F33A681946F4
:102ED000F8681C4B984729E07B6803F01F03012228
:102EE00002FA03F319463B6803F06053B3F1605FE5
:102EF0000CBF01230023DBB21A463B6803F0040336
:102F0000002B14BF01230023DBB218463B6803F0FB
:102F10000103002B14BF01230023DBB200930346FF
:102F2000F868094CA04701E0002300E0012318469F
:102F30001437BD4690BD00BF313008000B2C08008F
:102F4000E12B0800892C0800092D080090B587B0F6
:102F500002AFF860B9607A607B6803F0F043B3F1C8
:102F6000205F2ED0B3F1205F06D8B3F1006F0AD0F6
:102F7000B3F1805F16D04CE0B3F1405F27D0B3F1DE
:102F8000605F24D045E0BA684FF00061F868244BD8
:102F900098477B6803F001031A46B968F868214B2B
:102FA000984738E0BA684FF08051F8681C4B984752
:102FB0007B6803F001031A46B968F868194B984713
:102FC00029E07A68B968F868174B984723E07B686E
:102FD00003F06053B3F1605F0CBF01230023DBB249
:102FE0001A467B6803F00403002B14BF012300235F
:102FF000DBB219467B6803F00103002B14BF0123E9
:103000000023DBB200930B46B968F868074CA04771
:1030100001E0002300E0012318461437BD4690BDAF
:103020000B2C0800E12B0800892C0800092D080052
:1030300080B485B000AF78607B685B0903F500134E
:1030400003F206735B02FB60FB6818461437BD464B
:1030500080BC704780B400AFFEE7000080B400AFD2
:10306000024B1846BD4680BC704700BF700100206F
:1030700080B400AF024B1B681846BD4680BC704749
:10308000440C002080B400AF064B1B681B68054A47
:1030900012681268528892B213441846BD4680BC2A
:1030A000704700BF400C002080B584B000AF78604E
:1030B0000B46FB70124B9847F8607B681B781A46EA
:1030C0007B6813447B6010E07B685B78042B11D035
:1030D0007B685B78FA789A4201D17B680CE07B6868
:1030E0001B781A467B6813447B60FA687B689A42B7
:1030F000EAD800E000BF002318461037BD4680BD67
:103100008530080080B584B000AF03460A46FB71E5
:103110001346BB711E4B1B78002B01D1002332E0FC
:103120001C4B1B681B681B79FA799A4201D3002358
:1031300029E0184B1B681B68174A1360174B984708
:10314000F8601AE0144B1B685B78042B0DD1124B0E
:103150001B689B78FA799A4207D10F4B1B68DB7882
:10316000BA799A4201D101230DE00B4B1B680A4A40
:10317000126812781344084A1360074B1B68FA68F8
:103180009A42DFD8002318461037BD4680BD00BFE5
:103190003C0C0020400C0020440C0020853008002E
:1031A00080B584B000AF0346FB71FB79002118465F
:1031B0001E4B9847034683F00103DBB2002B01D07E
:1031C00000232FE01A4B1B685A68FB799B001344BD
:1031D0001B68BB60BB68DB68984703461A46FB79EF
:1031E00011461846114B9847034683F00103DBB2A2
:1031F000002B01D0002315E00E4B1B68FB6005215E
:10320000F8680D4B9847F860FB68002B05D0FB6809
:103210009B781846094B9847F1E700BFBB685B688D
:103220009847012318461037BD4680BD0531080078
:10323000400C0020440C0020A9300800BD0F0800FD
:1032400080B584B000AF03460A46FB711346BB71DC
:10325000BA79FB79114618461A4B9847034683F012
:103260000103DBB2002B01D0002327E0164B1B68C3
:10327000FB600521F868154B9847F860FB68002B48
:1032800011D0FB689878FB68D978FB689B889BB263
:103290001A460F4B9847034683F00103DBB2002B1D
:1032A000E7D000230AE000BF0A4B1B685A68FB798D
:1032B0009B0013441B681B68984703461846103749
:1032C000BD4680BD05310800440C0020A93008002F
:1032D000090C0800400C002080B582B000AF0F4BF5
:1032E0001B78002B10D00023FB7106E0FB791846F9
:1032F0000B4B9847FB790133FB710A4B1B681B682A
:103300001B79FA799A42F1D3044B00221A70064BCA
:1033100000221A8000BF0837BD4680BD3C0C00204B
:10332000A1310800400C00203A0C002080B582B08A
:1033300000AF144B1B78002B1FD00023FB7115E04E
:10334000114B1B685A68FB799B0013441B681B696F
:10335000002B08D00C4B1B685A68FB799B00134468
:103360001B681B699847FB790133FB71064B1B688F
:103370001B681B79FA799A42E2D300BF0837BD4631
:1033800080BD00BF3C0C0020400C002080B500AF89
:10339000064BDB88022B01D0002304E00221044805
:1033A000044B98470123184680BD00BF4C0C0020F9
:1033B0003A0C0020E10B080080B500AF0B4BDB8816
:1033C000022B01D000230EE0084B9B88DBB218468D
:1033D000074B984703469AB2064B1A8002210548CC
:1033E000054B98470123184680BD00BF4C0C0020B8
:1033F0003D100800480C0020E10B080080B400AF2D
:103400000B4BDB88002B01D000230DE0084B5B88C1
:10341000012B08D1074B1B8823F002039AB2054BFE
:103420001A80012300E000231846BD4680BC704787
:103430004C0C00203A0C002080B500AF0A4BDB8812
:10344000002B01D000230CE0074B5B88002B07D139
:10345000054B9B88DBB21846044B9847034600E0B7
:103460000023184680BD00BF4C0C0020B911080095
:1034700080B500AF264BDB88002B01D0002345E050
:10348000234B5B88012B02D0022B02D03DE00023AE
:103490003CE0204B9847034683F00103DBB2002B4E
:1034A00030D11B4B9B88DBB2002B2DD11A4B984798
:1034B000174B9B881B0A9BB2DBB2013B032B1FD827
:1034C00001A252F823F000BFD9340800E334080009
:1034D000ED340800F73408000D4B104A1A6101233F
:1034E00014E00B4B0E4A1A6101230FE0084B0D4A02
:1034F0001A6101230AE0064B0B4A1A61012305E019
:1035000000BF02E000BF00E000BF0023184680BDFE
:103510004C0C00203D0B0800D93208007D14080037
:10352000B1140800E51408000915080080B500AFC3
:103530000D4BDB88002B01D0002312E00A4B5B8887
:10354000002B0DD1084B9B88DBB21846074B9847E0
:10355000054B9B88DBB21846054B9847034600E0B5
:103560000023184680BD00BF4C0C0020F513080056
:10357000A510080080B500AF054B5B88DBB203F0F7
:103580007F03DBB21846034B984700BF80BD00BFE6
:103590004C0C0020610B080080B400AF064BDB88A8
:1035A000002B01D0002303E0034B044A1A610123DE
:1035B0001846BD4680BC70474C0C0020753508008D
:1035C00080B584B000AF0023FB71294B5B88DBB270
:1035D000032B20D801A252F823F000BFED350800DC
:1035E000F7350800013608000B3608000421214891
:1035F000214B984711E01523FB71204BBB600CE079
:103600001323FB711E4BBB6007E02023FB711D4B96
:103610009847B86001E0002326E0FB79002B22D018
:103620000023FB730DE0FB7BFA7BB9680A44127838
:1036300091B2154A5B0013440A465A80FB7B013362
:10364000FB73FA7BFB799A42EDD3FB790133DBB252
:103650005B00DAB20C4B1A700B4B1B789BB219460D
:103660000948054B9847012318461037BD4680BDD1
:103670004C0C0020AC010020E10B0800B001002040
:10368000C80100205D300800DC01002080B582B058
:1036900000AF804B5B88FB717E4B5B881B0A9BB243
:1036A000DBB2013B0E2B00F2E28001A252F823F0C4
:1036B000ED360800293708005B3808006F3808002D
:1036C0006F380800A3370800B93708006F380800C2
:1036D0006F3808006F3808006F3808006F3808002E
:1036E0006F3808006F380800393808006A4B98476F
:1036F000034683F00103DBB2002B0AD0674B9A68C4
:10370000664B9B681B789BB219461046644B9847E2
:10371000B0E0624B1A68614B1B681B789BB219467C
:1037200010465F4B9847A5E05B4B98470346002B3C
:1037300019D05A4B9B685B7CFA799A4201D30023DB
:10374000A3E0564B1A69FB79DB0013441868534B0E
:103750001A69FB79DB0013441B685B889BB219462E
:103760004F4B984718E04D4B1B685B7CFA799A42A7
:1037700001D3002389E0494B5A68FB79DB001344ED
:103780001868464B5A68FB79DB0013441B685B885A
:103790009BB21946424B98473E4B9B6802225A7097
:1037A00068E03E4BDA683D4BDB681B789BB21946FC
:1037B00010463B4B98475DE0374B9847034683F0F4
:1037C0000103DBB2002B19D0344B9B685B7CFA7988
:1037D0009A4201D3002358E0304B1A69FB79DB0091
:1037E000134418682D4B1A69FB79DB0013441B68DE
:1037F0005B889BB219462A4B984718E0274B1B68F9
:103800005B7CFA799A4201D300233EE0234B5A684D
:10381000FB79DB0013441868204B5A68FB79DB0006
:1038200013441B685B889BB219461D4B9847194B84
:103830009B6807225A701DE0184B5B69002B01D171
:10384000002322E0154B5A69144B5B695B889BB2DD
:1038500019461046124B98470CE0124B9847034606
:1038600083F00103DBB2002B03D000230DE0002323
:103870000BE000BF074BDA88064B9B899A4203D2C4
:10388000044BDA88034B9A81012318460837BD465A
:1038900080BD00BF4C0C00203D0B080094020020AE
:1038A000E10B0800C135080080B500AF064BDB888E
:1038B000012B01D0002304E001210448044B984768
:1038C0000123184680BD00BF4C0C00203C0C00209A
:1038D000E10B080080B582B000AF374BDB88002BCE
:1038E00001D0002363E0354B98470346002B01D1FC
:1038F00000235CE0324B98470346002B09D02E4B47
:103900005B88DBB22F4A9268527C93420BDD002326
:103910004DE0294B5B88DBB22A4A1268527C934205
:1039200001DD002343E0284B9847234B5B88DAB244
:10393000264B1A70254B1B78002B01D1012336E052
:103940001F4B98470346002B0BD01E4B1A691F4B89
:103950001B7803F10053013BDB0013441C4A136046
:103960000AE0184B5A68194B1B7803F10053013BCE
:10397000DB001344164A13600023FB710FE0FB7950
:1039800000211846134B9847034683F00103DBB22E
:10399000002B01D000230AE0FB790133FB710C4BB3
:1039A0001B681B681B79FA799A42E8D301231846F1
:1039B0000837BD4680BD00BF4C0C0020A50B080099
:1039C0003D0B080094020020D93208003C0C002076
:1039D000400C00204132080080B582B000AF1E4B81
:1039E000DB88012B01D0002332E01C4B1B78002B1D
:1039F00001D100232CE0184B9B88FB71184B1B68EE
:103A00001B681B79FA799A4201D3002320E0FB79E5
:103A100000211846134B9847034683F00103DBB29D
:103A2000002B01D0002313E00D4B1B685A68FB7973
:103A30009B0013441B683B603B68DB689847034668
:103A40001A46094B1A7001210748084B9847012371
:103A500018460837BD4680BD4C0C00203C0C0020A9
:103A6000400C0020053108004A0C0020E10B080042
:103A700080B582B000AF144BDB88002B01D000234F
:103A80001EE0124B1B78002B01D1002318E00E4BD7
:103A90009B88FB710C4B5B88BB71FB7918460C4B08
:103AA0009847034683F00103DBB2002B01D00023CB
:103AB00006E0BA79FB7911461846064B984703464B
:103AC00018460837BD4680BD4C0C00203C0C002039
:103AD000A13108004132080080B500AF4D4B1B7882
:103AE0005BB2002B3EDA4B4BDB88002B01D100236D
:103AF0008EE0484B1B7803F01F03002B14D1454B7D
:103B00005B78062B08D0082B0AD0002B00D00BE0E6
:103B1000414B984703467BE0404B9847034677E08C
:103B20003F4B9847034673E03A4B1B7803F01F0363
:103B3000012B08D1374B5B780A2B00D003E0394BBF
:103B40009847034664E0334B1B7803F01F03022BB6
:103B50005DD1304B5B78002B00D058E0324B98475A
:103B6000034655E02B4B1B7803F01F03002B2AD193
:103B7000284B5B78013B082B24D801A252F823F094
:103B8000AD3B0800C53B0800B53B0800C53B08003D
:103B9000A53B0800C53B0800C53B0800C53B080025
:103BA000BD3B0800214B9847034631E0204B984726
:103BB00003462DE01F4B9847034629E01E4B9847CC
:103BC000034625E000BF134B1B7803F01F03012BB6
:103BD00008D1104B5B780B2B00D003E0174B9847B4
:103BE000034615E00B4B1B7803F01F03022B0ED18D
:103BF000084B5B78012B02D0032B04D007E0104B5D
:103C00009847034604E00F4B9847034600E0002323
:103C1000184680BD4C0C00208D3308008D360800FE
:103C2000A9380800D9390800B933080099350800C7
:103C3000FD33080071340800D5380800713A0800D7
:103C4000393408002D35080080B582B000AF204B14
:103C50001B78002B01D1002336E01E4B9B88FB71A3
:103C60001D4B1B681B681B79FA799A4201D300230C
:103C70002AE0FB7900211846184B9847034683F049
:103C80000103DBB2002B01D000231DE0124B1B68A7
:103C90005A68FB799B0013441B683B603B68DB68F8
:103CA000984703461A46FB79114618460B4B98472E
:103CB000034683F00103DBB2002B01D0002303E0B5
:103CC0003B689B689847034618460837BD4680BD49
:103CD0003C0C00204C0C0020400C0020053108005A
:103CE00080B582B000AF1E4B1B78002B01D10023A2
:103CF00032E01C4B9B88FB710023FB7124E01A4BC4
:103D00001B685A68FB799B0013441B683B603B6847
:103D1000DB68984703461A46FB7911461846134B51
:103D20009847034683F00103DBB2002B01D0002348
:103D300012E03B689B6898470346002B01D00123A3
:103D40000AE0FB790133FB71074B1B681B681B7989
:103D5000FA799A42D3D3002318460837BD4680BD6E
:103D60003C0C00204C0C0020400C002005310800C9
:103D700080B500AF1E4B00229A811D4B00221A61B4
:103D80001B4B00225A611A4B1B785BB2002B05DAE1
:103D9000174BDB88002B01D1002327E0144B1B7845
:103DA00003F06003002B06D1124B98470346002B0B
:103DB00001D001231AE00E4B1B7803F01F03012BE7
:103DC00006D10D4B98470346002B01D001230DE08F
:103DD000074B1B7803F01F03022B06D1074B9847B4
:103DE0000346002B01D0012300E00023184680BDCC
:103DF0004C0C0020D93A0800493C0800E13C08007E
:103E000080B400AF084B1B78DBB2002B14BF01233A
:103E10000023DBB283F00103DBB203F00103DBB26A
:103E20001846BD4680BC70474B0C002080B582B060
:103E300000AF78607868034B984700BF0837BD46ED
:103E400080BD00BF252A080080B500AF0A20034BC3
:103E500098470B20014B984700BF80BD2D3E0800BE
:103E600080B500AF4FF060511D200A4B98474FF0CE
:103E700060511F20074B98474FF040511820054BC9
:103E800098474FF000624FF4C0510348034B9847E6
:103E900000BF80BD152E0800000C0E404D2F0800FD
:103EA00080B500AF044B4FF400425A60034B984773
:103EB000034B984700BF80BD50120E40493E08009A
:103EC000613E080080B400AF574B1B6B03F0030347
:103ED000032B00F28A8001A252F823F0ED3E080085
:103EE0000D3F08005D3F08005D3F08004F4B5B69D8
:103EF00003F08003002B04D04D4B4FF400421A60B6
:103F000073E04B4B4FF4FA421A606EE0464B1B6A6B
:103F100003F08073002B03D0454B464A1A6064E0DF
:103F2000434B454A1A60404B1B6A03F07003102B49
:103F300004D0202B08D0002B0ED00EE03C4B1B6889
:103F40005B003B4A136008E0394B1A6813465B007C
:103F50001344374A136000E000BF46E0324B1B6A4F
:103F600003F08073002B03D0314B324A1A601CE0FF
:103F70002F4B314A1A602C4B1B6A03F07003102B35
:103F800004D0202B08D0002B0ED00EE0284B1B684D
:103F90005B00274A136008E0254B1A6813465B0054
:103FA0001344234A136000E000BF1F4B1B6B03F058
:103FB0000303022B15D11C4B9B6A1B0CC3F30A0392
:103FC00001331B4A126802FB03F3194A1360164BB4
:103FD0009B6ADBB2164A1268B2FBF3F3144A136011
:103FE00002E0134B154A1A6000BF0F4B1B6B03F026
:103FF0007003702B08D10E4B1B68114AA2FB0323E0
:104000005B080B4A13600AE0074B1B6B1B0903F0AC
:104010000703074A126822FA03F3054A136000BF38
:10402000BD4680BC704700BF00040E4010120E4019
:10403000AC020020001BB70000093D00001C4E0E22
:10404000ABAAAAAA80B500AF1D20034B98471F203A
:10405000014B984700BF80BD2522080080B500AF06
:104060001D20024B984700BF80BD00BF7D22080085
:1040700080B582B000AF0346FB80FB88164AA2FBE6
:10408000031292094FF47A7101FB02F29B1A9BB260
:10409000002B02D11D20114B9847FB880E4AA2FB32
:1040A000031292094FF47A7101FB02F29B1A9BB240
:1040B000B3F5FA7F02D11D20094B9847FB88C3F363
:1040C00008039BB2002B02D11F20054B984700BF6D
:1040D0000837BD4680BD00BFD34D62107D22080069
:1040E0002522080070B50F4E0F4D761BB61018BF75
:1040F000002405D0013455F8043B9847A642F9D175
:104100000A4E0B4D00F0CCF8761BB61018BF0024F9
:1041100006D0013455F8043B9847A642F9D170BD4A
:1041200070BD00BFAC420800AC420800B4420800B9
:10413000AC420800024B13B1024800F005B87047CA
:104140000000000055410800002301461A461846A9
:1041500000F01EB838B50A4C0A4D641BA4100AD0F2
:1041600004F18043013B05EB8305013C55F804391C
:104170009847002CF9D1BDE8384000F09BB800BF4B
:10418000C4420800C0420800704700BF704700BF2B
:104190002DE9F8432C4D0646286898460F4691466F
:1041A000FFF7F2FF294B1C68D4F84831002B3ED0B2
:1041B0005A681F2A1CDC02F1010E76B1012103EBC3
:1041C0008204C4F88890D3F8880191400843022EF5
:1041D000C3F88801C4F8088123D00232C3F804E090
:1041E000286843F82270FFF7D1FF0020BDE8F8836C
:1041F000174B0BB34FF4C870AFF300800346D8B130
:104200000020D4F848114FF0010E586019600246A2
:10421000C4F84831C3F88801C3F88C01002EDCD003
:10422000CCE7D3F88C010143C3F88C11D5E704F532
:10423000A673C4F84831BBE72868FFF7A7FF4FF023
:10424000FF30BDE8F88300BFD80600209C4208007C
:1042500000000000000000000000000000AAAAAA60
:10426000AAAAAAAAAAEEEEEEEEEEEEEEEEFEFFFF90
:10427000FFFFFFFFFFFFFFFFFF7FBFDFEFF7FBFD4C
:10428000FC7EBFDFEFF7FBFD7E0000001D0000009D
:10429000010000001F00000001000000B00200202B
:1042A000F8B500BFF8BC08BC9E4670473541080011
:1042B000E1000800F8B500BFF8BC08BC9E46704796
:0442C000BD00080035
:1042C40080B400AF2A4B4FF480621A60294B4FF43C
:1042D40080621A60284B1B6A03F08073002B09D19B
:1042E400254B264A1A6200BF234B9B6E03F0010341
:1042F400002BF9D0204B224A1A6200BF1E4B9B6E42
:1043040003F48033002BF9D01B4A1B4B1B6B23F0A7
:10431400030343F00103136300BF174B9B6E03F0C9
:104324000803002BF9D0144B164A9A6200BF124BB3
:104334009B6E03F00203002BF9D00F4B11221A637A
:1043440000BF0D4B9B6E03F00803002BF9D00A4B02
:1043540012221A6300BF084B9B6E03F00803002B64
:10436400F9D0094B094A1A6000BFBD4680BC7047AA
:1043740000080E40000A0E4000040E4009083700F1
:1043840009083701013F0F20AC02002000D8B8050E
:1043940080B483B000AF78607B681F4A934206D82C
:1043A4001E4B00221A601E4B00221A602EE07B680E
:1043B4001C4A934208D8194B4FF480721A60184B68
:1043C4004FF480721A6021E07B68174A934208D840
:1043D400124B4FF400721A60114B4FF400721A60C2
:1043E40014E07B68114A934208D80C4B4FF4407296
:1043F4001A600B4B4FF440721A6007E0074B4FF4FE
:1044040080621A60064B4FF480621A6000BF0C375A
:10441400BD4680BC704700BFFF356E0100080E40EA
:10442400000A0E40FF596202FFA14A04FFBC0105C5
:10443400303030303030303030303030444541442A
:104444004245454600000000000000000000000056
:104454000001000000000060C52A0800052B0800C8
:10446400212B0800752B0800000000000403090438
:104474004E6577414520546563686E6F6C6F67794C
:1044840020496E632E00000042616C6C697374698C
:10449400632047656C204357353231000003000028
:1044A4000000000000000000000000000000000008
:1044B40000000000000000000000000000000000F8
:1044C40000000000000000000000000000000000E8
:1044D40000000000000000000000000000000100D7
:1044E40012010002000000403E2B21C50001010220
:1044F400030100000A060002000000400100000061
:104504000902200001010080FA0904000002FFFFF3
:10451400FF00070581024000000705020240000079
:104524000902200001010080FA0904000002FFFFD3
:10453400FF000705810200020007050202000200D5
:104544009801002040020020800200206002002028
:10455400800200202002002084020020200200208B
:10456400340200208C0200200000000000093D00FD
:10457400000000009C050020040600206C060020BA
:104584000000000000000000000000000000000027
:104594000000000000000000000000000000000017
:1045A4000000000000000000000000000000000007
:1045B40000000000000000000000000000000000F7
:1045C40000000000000000000000000000000000E7
:1045D40000000000000000000000000000000000D7
:1045E40000000000000000000000000000000000C7
:1045F40000000000000000000000000000000000B7
:1046040000000000000000000000000000000000A6
:104614000000000000000000010000000000000095
:104624000E33CDAB34126DE6ECDE05000B0000005A
:104634000000000000000000000000000000000076
:104644000000000000000000000000000000000066
:104654000000000000000000000000000000000056
:104664000000000000000000000000000000000046
:0C49940000000000000000006C0C00207F
:04000003800022D582
:00000001FF
