:0200000280007C
:1000000000040820B5270800391708003917080030
:1000100039170800391708003917080000000000D8
:100020000000000000000000000000003917080078
:1000300039170800000000003917080039170800B8
:100040003917080039170800391708003917080050
:100050003917080039170800391708003917080040
:100060003917080039170800391E0800511E08000A
:100070003917080039170800391708003917080020
:100080003917080039170800391708003917080010
:100090003917080039170800391708003917080000
:1000A00039170800391708003917080039170800F0
:1000B00039170800DD3E08003917080010B5054C57
:1000C000237833B9044B13B10448AFF30080012304
:1000D000237010BD000E0020000000005CAD080081
:1000E00008B5034B1BB103490348AFF3008008BDBB
:1000F00000000000040E00205CAD080080B582B056
:1001000000AF78607B68072B2ED801A252F823F04D
:1001100067010800310108003901080041010800A9
:100120004901080051010800590108006101080057
:1001300000200F4B984717E001200D4B984713E024
:1001400000200C4B98470FE010200A4B98470BE01B
:100150002020084B984707E03E20074B984703E0D4
:10016000064B984700E000BF00BF0837BD4680BD82
:10017000691F0800D51F08004920080095200800C5
:1001800080B582B000AF78607B68072B2FD801A2C2
:1001900052F823F0B5010800B9010800B9010800C0
:1001A000CB010800CB010800CB010800DD010800ED
:1001B000DD01080001231BE00F4B98470346002B8D
:1001C00014BF01230023DBB212E00C4B9847034617
:1001D000002B14BF01230023DBB209E0084B984732
:1001E0000346002B14BF01230023DBB200E00023F1
:1001F00018460837BD4680BDA11F08003120080001
:10020000E120080080B483B000AF78607B68072BE2
:1002100023D801A252F823F0390208003F02080057
:1002200043020800470208004B0208004F02080082
:1002300053020800570208004FF4FA430EE000236F
:100240000CE000230AE0084B08E0084B06E0084BEE
:1002500004E0074B02E0064B00E0002318460C3791
:10026000BD4680BC704700BF00093D0000127A0007
:10027000001BB70080B582B000AF0346FB7100BF22
:10028000FB791846054B9847034683F00103DBB220
:10029000002BF5D100BF0837BD4680BD81010800A5
:1002A00080B586B000AFF8607A603B600B46FB72A9
:1002B0007B68002B07D13B68002B04D1FB684FF40F
:1002C00070021A6019E0FB7A18460E4B98470246F6
:1002D0007B68B2FBF3F37B617B693A6802FB03F353
:1002E0007B613B68013B1A04074B13407A68D2B22A
:1002F000134343F47C52FB681A6000BF1837BD46B5
:1003000080BD00BF050208000000FF0780B582B075
:1003100000AF786039603B68002B08D1094B9847E3
:100320007B681B68084A43F00053936205E07B68D2
:100330001B68054A43F48033D36100BF0837BD46CC
:1003400080BD00BF5121080000040E4080B582B07E
:1003500000AF78607B68002B03D1054B98470346BC
:1003600002E0044B9847034618460837BD4680BD57
:10037000692108009D21080080B582B000AF0346C6
:10038000FB71FB79033B042B08D8FB791846064B1D
:100390009847FB791846054B984700E000BF00BF1F
:1003A0000837BD4680BD00BFFD000800750208008B
:1003B00090B585B000AF78607868214B98470346C8
:1003C000002B38D17B68002B02D0012B15D024E004
:1003D00006201C4B98474FF080701B4B984700BF7E
:1003E0001A4B98470346002BFAD007F10C00102354
:1003F00001220621164CA0470FE0164B98470346F2
:10040000002B02D106200F4B984707F10C00002368
:10041000002206210E4CA04700BF07F10C037968AB
:1004200018460D4B984700BF7868054B9847034620
:10043000002BF9D000E000BF1437BD4690BD00BFCF
:100440004D0308007903080011210800F920080075
:10045000A1020800C92008000D03080080B48DB077
:1004600000AF786039607B68FB623B68BB62FB6A07
:100470007B627B6A5A09FB6A3B623B6A03F01F039B
:10048000012101FA03F3FA61BB61BB6A7B61FB697D
:100490003B613B6903F5001303F206735B02FB60EB
:1004A0007B6903F00803002B03D0FB68BA695A6626
:1004B00002E0FB68BA691A667B6903F02003002B2F
:1004C00003D0FB68BA691A6502E0FB68BA695A652D
:1004D0007B6903F0C003002B03D0FB68BA691A6282
:1004E00002E0FB68BA695A627B6903F08003002B63
:1004F00004D0FB68BA69C3F8842003E0FB68BA69DA
:10050000C3F880207B6903F00103002B06D0FB6851
:100510001A6FBB691A43FB681A6706E0FB681A6F1B
:10052000BB69DB431A40FB681A6700BF3437BD461E
:1005300080BC704780B582B000AF0346FB7172B6D5
:10054000BFF35F8F054B00221A70FB791846044BEE
:10055000984700BF0837BD4680BD00BF9402002009
:10056000F522080080B483B000AF0023FB7106E0E1
:10057000FB79084A0021D154FB790133FB71FB79E7
:10058000042BF5D9034B01225A7100BF0C37BD462D
:1005900080BC7047B813002080B483B000AF002344
:1005A000FB71094B3B6005E03B6801333B60FB7925
:1005B0000133FB713B681B78002BF5D0FB791846A3
:1005C0000C37BD4680BC7047B813002080B582B0A0
:1005D00000AF0A4B98470346FB71FB79002B06D10D
:1005E000074B01221A70BFF35F8F62B603E0FB79FD
:1005F0001846044B98470837BD4680BD990508004A
:10060000940200203505080080B483B000AF786004
:1006100039607B6800221A6000BF0C37BD4680BC81
:100620007047000080B483B000AF78600B46FB7069
:100630007B681B6823F007027B681A60FB780A2B33
:1006400039D801A252F823F0750608007506080093
:10065000750608007F0608007F0608007F06080070
:100660007F0608007F0608008D0608009B0608002C
:10067000A90608007B681A687B681A601BE07B6823
:100680001B6843F001027B681A6014E07B681B68FA
:1006900043F002027B681A600DE07B681B6843F040
:1006A00003027B681A6006E07B681B6843F0040263
:1006B0007B681A6000BF00BF0C37BD4680BC704726
:1006C00080B483B000AF786039607B681B6823F02A
:1006D00070027B681A607B681A683B681A437B6803
:1006E0001A6000BF0C37BD4680BC704780B582B031
:1006F00000AF7860396007497B681A683B6810333F
:1007000041F823203868044B984700BF0837BD469E
:1007100080BD00BF00040E404D22080080B582B0AD
:1007200000AF0346FB71FB790A2B00F2A28001A205
:1007300052F823F06107080083070800A3070800A8
:10074000C3070800E307080003080800230808009F
:1007500043080800630808006B08080073080800D5
:1007600000204E4B9847034683F00103DBB2002B79
:1007700000F0818000204A4B98470020494B984761
:1007800079E00120454B9847034683F00103DBB233
:10079000002B72D00120424B98470120414B9847D3
:1007A0006BE002203D4B9847034683F00103DBB228
:1007B000002B64D002203A4B98470220394B9847CF
:1007C0005DE00320354B9847034683F00103DBB21D
:1007D000002B56D00320324B98470320314B9847CB
:1007E0004FE004202D4B9847034683F00103DBB212
:1007F000002B48D004202A4B98470420294B9847C7
:1008000041E00520254B9847034683F00103DBB206
:10081000002B3AD00520224B98470520214B9847C2
:1008200033E006201D4B9847034683F00103DBB2FB
:10083000002B2CD006201A4B98470620194B9847BE
:1008400025E00720154B9847034683F00103DBB2F0
:10085000002B1ED00720124B98470720114B9847BA
:1008600017E00020104B984714E001200E4B9847EA
:1008700010E000BF0EE000BF0CE000BF0AE000BFC8
:1008800008E000BF06E000BF04E000BF02E000BFD8
:1008900000E000BF00BF0837BD4680BD81010800F1
:1008A000FD00080075020800B103080080B400AF25
:1008B000054B4FF000725A63034B4FF080625A634E
:1008C00000BFBD4680BC7047000C0E4080B400AF36
:1008D000054B4FF000725A63034B4FF080621A636E
:1008E00000BFBD4680BC7047000C0E4080B400AF16
:1008F000054B4FF080625A63034B4FF000721A634E
:1009000000BFBD4680BC7047000C0E4080B400AFF5
:10091000174B9B6B03F00073002B07D1144B9B6BA1
:1009200003F08063002B01D100231CE0104B9B6B74
:1009300003F00073002B07D10D4B9B6B03F080631A
:10094000002B01D001230EE0094B9B6B03F00073D9
:10095000002B07D0064B9B6B03F08063002B01D16B
:10096000022300E0FF231846BD4680BC704700BF4D
:10097000000C0E4080B500AF3A4B98470821182074
:10098000394B9847394B4FF080725A61374B4FF0D3
:1009900080725A66354B4FF08072C3F88420334B17
:1009A0004FF0C0621A61324B9847324B984709208A
:1009B000314B984731492920314B98472F492A20FC
:1009C0002F4B98472D492B202D4B98472B492C20F6
:1009D0002B4B984729492D20294B984727492E20F2
:1009E000274B984725492F20254B984723493020EE
:1009F000234B984721493320214B98471F493720E3
:100A00001F4B98471D4934201D4B98474FF04052CB
:100A100040F2BF111B481C4B984740F2BF111948C8
:100A20001A4B98474FF040512620154B98474FF0EE
:100A300060513120124B9847154A00211548164B3A
:100A40009847164A00211348154B9847154A00212C
:100A50001048154B9847032200210E48134B984726
:100A600000BF80BD311808005D040800000C0E4076
:100A7000ED08080079150800B521080001000008FC
:100A8000691B0800000E0E408D1C0800751A080036
:100A90000001010100000E400D27080001010301C3
:100AA0003727080002000400612708008B27080090
:100AB00080B483B000AF00237B6002E07B68013329
:100AC0007B607B68034A9342F8D900BF0C37BD4670
:100AD00080BC70478FD0030080B586B000AFF8604F
:100AE0000B467A60FB7207F11403F96818460E4B47
:100AF0009847FB7A18460D4B9847FA7A07F114038A
:100B0000114618460A4B984707F1140379681846AE
:100B1000084B984707F11403F9681846064B9847A5
:100B200000BF1837BD4680BD090608001D07080034
:100B300025060800C1060800ED06080080B586B04D
:100B400000AF3B4610211846374B9847374B0122E0
:100B50001A70BFF35F8F62B6354B9847354B984795
:100B6000354B984700237B6111E07B69DB00334AFA
:100B700098187B699B0007F11802134453F8183C3E
:100B80001A462F492F4B98477B6901337B617B695C
:100B9000032BEAD9294B002283F8202000220A21C6
:100BA0000120294B9847294B98471D20284B9847EF
:100BB0001F20284B9847284B9847284B00221A7033
:100BC0000023FB74264B9847264BDB6B03F08073A6
:100BD000002B0CBF01230023DBB2BB74BB7C002BBA
:100BE000F0D0214B984700BF1E4BDB6B03F08073A6
:100BF000002BF9D0194B1B78002B12D0174B1B7808
:100C0000022B0ED8194B98470346002B02D0124BEB
:100C1000984706E0114B1B781A46154B53F82230C3
:100C20009847114B9847CDE74117080094020020E0
:100C300065050800F92B0800750908005C02002012
:100C400040AA0800AD5D0800D90A080081300800FC
:100C5000091B0800391B0800AD0808001C0E002005
:100C6000CD050800000C0E40B10A08000D0908006F
:100C70008002002080B582B000AF78607B68072BCF
:100C80002ED801A252F823F0DF0C0800A90C0800AE
:100C9000B10C0800B90C0800C10C0800C90C080010
:100CA000D10C0800D90C080000200F4B984717E022
:100CB00001200D4B984713E000200C4B98470FE0A4
:100CC00010200A4B98470BE02020084B984707E07C
:100CD0003E20074B984703E0064B984700E000BFD3
:100CE00000BF0837BD4680BD691F0800D51F08003A
:100CF000492008009520080080B582B000AF7860D8
:100D00007B68072B2FD801A252F823F02D0D080085
:100D1000310D0800310D0800430D0800430D080097
:100D2000430D0800550D0800550D080001231BE078
:100D30000F4B98470346002B14BF01230023DBB25F
:100D400012E00C4B98470346002B14BF01230023ED
:100D5000DBB209E0084B98470346002B14BF012380
:100D60000023DBB200E0002318460837BD4680BDF3
:100D7000A11F080031200800E120080080B582B0E2
:100D800000AF0346FB7100BFFB791846054B98473F
:100D9000034683F00103DBB2002BF5D100BF083717
:100DA000BD4680BDF90C080080B500AF014B9847E7
:100DB00000BF80BDF541080080B400AF00BFBD4654
:100DC00080BC704780B400AF00BFBD4680BC704798
:100DD00080B400AF044B1B78DBB283F00103DBB2BD
:100DE000002BBD4680BC70478C02002080B500AF50
:100DF000054B01221A70054A4FF480610448054BE7
:100E000098470123184680BD8C0200204913080032
:100E1000200E0020DD3C080080B400AF034B002210
:100E20001A7000BFBD4680BC704700BF8C02002016
:100E300080B582B000AF0F4B1B687B600D4B5B68C9
:100E40003B600D4B984700BF02200C4B9847034670
:100E5000002BF9D038680A4B98470A4A79684FF056
:100E6000C040094B9847044B984700BF0837BD4620
:100E700080BD00BF2012002049140800091408009A
:100E80007914080011130800B13C080080B582B045
:100E900000AF0F4B1B687B600D4B5B683B600D4BDD
:100EA000984700BF05200C4B98470346002BF9D00C
:100EB00038680A4B98470A4B4FF0C0421A60094AFB
:100EC0007B681360034B984700BF0837BD4680BD61
:100ED00020120020491408000914080079140800A1
:100EE000641200206812002080B584B000AF164B59
:100EF0001B68BB60144B5B687B60144B3B60144BFE
:100F0000984700BF0120134B98470346002BF9D0A8
:100F10007868114B98470023FB600BE03A68FB6848
:100F20001A440E4B1968FB680B4412781A70FB6860
:100F30000133FB60FA68BB689A42EFD3044B9847D1
:100F400000BF1037BD4680BD2012002028120020AF
:100F500049140800091408007914080090020020C0
:100F600080B582B000AF0A4B5B687B60094B984745
:100F700000BF0420084B98470346002BF9D078683F
:100F8000064B9847034B984700BF0837BD4680BDC6
:100F900020120020491408000914080079140800E0
:100FA00080B500AF184B5B88DBB2022B0ED0032B51
:100FB00010D0012B00D024E00620144B98470620C7
:100FC000134B98471020134B98471AE01020124BF0
:100FD000984716E001220C211048114B9847114BFD
:100FE000984700BF104B5B6803F40033002BF9D126
:100FF0000D4B1B680C4A43F0254343F00503136077
:10100000FEE700BF80BD00BFC0130020750C0800C4
:101010007D0D0800691E0800E91E080000080E404A
:10102000D9160800A90D080000120E4080B500AFC7
:101030000B4B5B88A12B07D0A22B0BD0A02B00D091
:101040000CE0084B984709E0074B9847074B0A22EA
:101050001A7003E0054B00221A7000BF00BF80BD6C
:10106000C01300209915080019160800601200200E
:1010700080B400AF184B5B88012B10D0022B1AD024
:10108000002B00D023E0154B4FF000725A63134B36
:101090004FF080625A63124B00221A7017E00F4B18
:1010A0004FF000725A630D4B4FF080621A630C4B85
:1010B00001221A700BE0094B4FF080625A63074B14
:1010C0004FF000721A63064B02221A7000BF00BF75
:1010D000BD4680BC704700BFC0130020000C0E400E
:1010E0001C0E002080B500AF2620034B9847262019
:1010F000024B984700BF80BD091B0800391B080040
:1011000080B500AF464B474A9A60454BDB88402B81
:1011100028BF40239AB2424B9A81434B00221A7057
:101120003F4B5B78103B152B6ED801A252F823F091
:1011300089110800B51108009F110800CB110800A3
:101140000912080009120800E1110800091208003C
:101150000912080009120800091208000912080003
:1011600009120800091208000912080009120800F3
:101170000912080009120800EB1108000912080002
:10118000F5110800FF1108000620284B9847034678
:10119000002B3BD0224B264A1A6101233EE0062059
:1011A000224B98470346002B32D01D4B214A1A612F
:1011B000012333E006201D4B98470346002B29D01E
:1011C000174B1D4A1A61012328E00620174B984748
:1011D0000346002B20D0124B184A1A6101231DE050
:1011E0000F4B174A1A61012318E00D4B154A1A617B
:1011F000012313E00A4B144A1A6101230EE0084B45
:10120000124A1A61012309E0002307E000BF04E04D
:1012100000BF02E000BF00E000BF0023184680BD11
:10122000C0130020201200206012002009140800C2
:10123000310E08008D0E0800610F0800E90E08004D
:101240002D100800A10F080071100800E51008001B
:1012500080B500AF274B5B78152B2AD0172B17D002
:10126000122B43D1244B1B68224A9360234B1B68EB
:101270009AB2204B9A81214B00221A60204B98474A
:101280000346052B02D100201E4B984701232EE078
:101290001D4B01221A701C4B01225A701A4B00225E
:1012A0009A70144B184A9A60124B03229A810123B8
:1012B0001DE01320154B98470346002B14BF012354
:1012C0000023DBB21A46104B1A700F4B00225A70E3
:1012D0000D4B00229A700C4B0022DA70054B0A4A23
:1012E0009A60044B04229A81012300E000231846EF
:1012F00080BD00BFC01300206412002068120020CF
:1013000061140800091408006C120020D91A0800A2
:1013100080B582B000AF03463960FB711346BB71E4
:10132000FB79002B08D1064B98470346022B04D1CA
:101330000020044B984700E000BF0837BD4680BD41
:10134000611408000914080080B584B000AF03469A
:101350003960FB711346BB71FB79002B06D0224A22
:101360004FF480612148224B984739E0214B1B788C
:10137000002B1AD10023FB600BE01F4B1A68FB689F
:1013800013441A49FA680A4412781A70FB68013348
:10139000FB60FA683B689A42EFD3184B98470346C4
:1013A000042B17D1164B984714E0124B1B780A2BCD
:1013B00010D10023BB6009E00C4ABB6813441B78C2
:1013C0001846104B9847BB680133BB60BA683B684E
:1013D0009A42F1D3044A4FF480610448044B984781
:1013E0001037BD4680BD00BF49130800200E002005
:1013F000DD3C08006012002090020020611408000B
:10140000491408002D16080080B584B000AF0346CB
:10141000FB710023FB60094B9847094B1B78DBB23B
:10142000002B04D10123FB60054AFB791370054BA7
:101430009847FB6818461037BD4680BD5518080010
:10144000AC120020A918080080B400AF034B0022A2
:101450001A7000BFBD4680BC704700BFAC120020B0
:1014600080B400AF034B1B78DBB21846BD4680BC8E
:10147000704700BFAC12002080B582B000AF78602A
:101480000C4B9B6B03F040027B6803F03F031A4355
:101490007B685B0003F4C073064913438B63312000
:1014A000054B98473120054B984700BF0837BD468C
:1014B00080BD00BF000E0E40391B0800091B08004C
:1014C00080B483B000AF78607B68072B23D801A27B
:1014D00052F823F0F5140800FB140800FF1408006C
:1014E00003150800071508000B1508000F15080064
:1014F000131508004FF4FA430EE000230CE000231C
:101500000AE0084B08E0084B06E0084B04E0074BF4
:1015100002E0064B00E0002318460C37BD4680BCB5
:10152000704700BF00093D0000127A00001BB700A1
:1015300080B500AF0620034B984703461B011846B1
:1015400080BD00BFC114080080B500AF024B9847B2
:1015500003465B08184680BD3115080080B582B08F
:1015600000AF78607868034B984700BF0837BD46E6
:1015700080BD00BFB521080080B500AF4FF06051BD
:101580001420034B98471420024B984700BF80BD9E
:10159000691B0800091B080080B584B000AF142047
:1015A000144B9847144B3B60C0237B600023FB60C7
:1015B0000023BB600D20114B9847114B9847024602
:1015C0003B4619460F48104B98474FF040511220A8
:1015D0000E4B98474FF0405111200C4B98470C4B45
:1015E0004FF4C0225A6007480A4B984700BF103793
:1015F000BD4680BD391B0800809698005D15080027
:101600004915080000000940F1590800691B08004D
:10161000000C0E40015B080080B500AF1420024BA7
:10162000984700BF80BD00BF091B080080B582B08D
:1016300000AF0346FB71FB7919460348034B9847FB
:1016400000BF0837BD4680BD00000940975B080019
:1016500080B483B000AFEFF310833B603B68002B96
:101660000CBF01230023DBB27B6072B6BFF35F8F38
:10167000044B00221A707B6818460C37BD4680BCAC
:10168000704700BF9402002080B483B000AF786040
:101690007B68002B14BF01230023DBB218460C37F4
:1016A000BD4680BC7047000080B582B000AF786056
:1016B0007868074B98470346002B05D0054B01225D
:1016C0001A70BFF35F8F62B600BF0837BD4680BD9A
:1016D000891608009402002080B586B000AFF8603B
:1016E000B9607A60BB680E2B02D0BB680F2B02D1A9
:1016F0004FF0FF3316E00D4B984778617B681B0273
:1017000023F07F4323F0FF03BA68D2B2134343F0C0
:10171000B4431946F868064B984738617869054B19
:1017200098473B6918461837BD4680BD51160800DA
:10173000BD000020A916080080B400AFFEE700003D
:1017400090B58BB002AF7860396007F10C020423CA
:10175000009313460F220E211348144CA047034652
:10176000002B01D010231BE03B68042B01D904237C
:101770003B600023FB610EE0FB699B007A681A4422
:10178000FB699B0007F120010B4453F8143C1360E4
:10179000FB690133FB61FA693B689A42ECD3002391
:1017A00018462437BD4690BD00080E4001000020B9
:1017B00080B582B000AF78607868034B984700BF6F
:1017C0000837BD4680BD00BFB521080080B500AF19
:1017D0000A20034B98470B20014B984700BF80BD60
:1017E000B117080080B500AF4FF060511D200D4BC0
:1017F00098474FF060511F200A4B98474FF04051D7
:101800001820084B98474FF000624FF4C05106482B
:10181000064B98474FF080513820024B984700BF45
:1018200080BD00BF691B0800000C0E408D1C080025
:1018300080B500AF044B4FF400425A60034B984709
:10184000034B984700BF80BD50120E40CD170800D3
:10185000E517080080B483B000AF104B1B68002B65
:1018600012D1EFF310837B607B68002B09D172B635
:10187000BFF35F8F0A4B00221A700A4B01221A70C5
:1018800002E0084B00221A70044B1B680133034A24
:10189000136000BF0C37BD4680BC7047B0120020FB
:1018A00094020020B412002080B400AF0B4B1B68E0
:1018B000013B0A4A1360094B1B68002B0AD1084BF5
:1018C0001B78DBB2002B05D0064B01221A70BFF348
:1018D0005F8F62B600BFBD4680BC7047B01200206B
:1018E000B41200209402002080B485B000AFF860EC
:1018F000B9607A607B68002B03D0FB68BA685A66CF
:1019000002E0FB68BA681A6600BF1437BD4680BCA7
:10191000704780B487B000AFF860B9607A60FB6848
:101920007A685A64BB68B3F1805F1FD0B3F1805FFF
:1019300005D8002B27D0B3F1006F0AD01FE0B3F118
:10194000405F20D0B3F1605F1DD0B3F1205F1AD0AB
:1019500015E0FB681B6F7B61FB681A6F7B68D943DE
:101960007B690B401A40FB681A6708E0FB681B6F35
:101970007B617A687B691A43FB681A6700BFFB6862
:101980007A685A6000E000BF1C37BD4680BC7047D3
:1019900080B584B000AFF860B9607A60B968F86863
:1019A000194B98477B6803F001031A46B968F86839
:1019B000164B98477B6803F00A03002B03D0FB68A3
:1019C000BA681A6202E0FB68BA685A627B6803F080
:1019D0000203002B04D0FB68BA68C3F8802008E03B
:1019E0007B6803F00803002B03D0FB68BA68C3F8D8
:1019F0008420FB68BA685A61FB68BA681A6000BF45
:101A00001037BD4680BD00BF911A0800E9180800D4
:101A100080B584B000AFF860B9607A603B60B968A7
:101A2000F868124B9847BA69B968F868104B98473C
:101A30003B68002B03D0FB68BA681A6502E0FB68BC
:101A4000BA685A657B68002B03D0FB68BA681A63D2
:101A500002E0FB68BA685A63FB68BA681A61FB68FF
:101A6000BA681A6000BF1037BD4680BD911A0800E1
:101A7000E918080080B483B000AF786039607B68F3
:101A80003A68C3F8A02000BF0C37BD4680BC704741
:101A900080B483B000AF786039607B683A685A647C
:101AA00000BF0C37BD4680BC704780B483B000AF28
:101AB00078607B68DB6C18460C37BD4680BC70478D
:101AC00080B483B000AF78607B689B6C18460C379D
:101AD000BD4680BC7047000080B584B000AF786020
:101AE0007868084B9847F860FB68DA6B7B6803F00E
:101AF0001F0322FA03F303F0010318461037BD4613
:101B000080BD00BF611D080080B584B000AF786063
:101B10007868084B9847F8607B6803F01F03012240
:101B200002FA03F31A46FB681A6300BF1037BD467A
:101B300080BD00BF611D080080B584B000AF786033
:101B40007868084B9847F8607B6803F01F03012210
:101B500002FA03F31A46FB685A6300BF1037BD460A
:101B600080BD00BF611D080090B587B002AF7860EE
:101B700039607868404B9847F8603B6803F0F04361
:101B8000B3F1205F46D0B3F1205F06D8B3F1006F08
:101B90000AD0B3F1805F22D067E0B3F1405F45D057
:101BA000B3F1605F42D060E07B6803F01F03012265
:101BB00002FA03F31A464FF00061F8682F4B98477A
:101BC0007B6803F01F03012202FA03F319463B6806
:101BD00003F001031A46F868294B984747E07B68F1
:101BE00003F01F03012202FA03F31A464FF080515B
:101BF000F868224B98477B6803F01F03012202FA22
:101C000003F319463B6803F001031A46F8681C4BBE
:101C100098472CE07B6803F01F03012202FA03F3CC
:101C20003A681946F868174B984720E07B6803F03C
:101C30001F03012202FA03F319463B6803F06053C5
:101C4000B3F1605F0CBF01230023DBB218463B6891
:101C50009B0803F001023B6803F001030093134665
:101C60000246F868084CA04701E0002300E0012389
:101C700018461437BD4690BD611D080013190800B1
:101C8000E918080091190800111A080090B587B0EA
:101C900002AFF860B9607A607B6803F0F043B3F19B
:101CA000205F2ED0B3F1205F06D8B3F1006F0AD0C9
:101CB000B3F1805F16D043E0B3F1405F27D0B3F1BA
:101CC000605F24D03CE0BA684FF00061F868204BB8
:101CD00098477B6803F001031A46B968F8681D4B02
:101CE00098472FE0BA684FF08051F868184B984732
:101CF0007B6803F001031A46B968F868154B9847EA
:101D000020E07A68B968F868134B98471AE07B6856
:101D100003F06053B3F1605F0CBF01230023DBB21B
:101D200019467B689B0803F001027B6803F00103FE
:101D3000009313460A46B968F868084CA04701E0CA
:101D4000002300E0012318461437BD4690BD00BFB4
:101D500013190800E918080091190800111A080061
:101D600080B485B000AF78607B685B0903F5001331
:101D700003F206735B02FB60FB6818461437BD462E
:101D800080BC704780B584B000AF786039607868F7
:101D9000264B9847F8607868254B98470246FB68C1
:101DA0001340FB60FB68002B3CD00023BB6034E099
:101DB000204ABB681B0113441B683A689A4226D12B
:101DC0001C4ABB681B01134404331A68FB681340A8
:101DD000002B1CD0174ABB681B0113440C331B6833
:101DE0001449BA6812010A4410681249BA6812010B
:101DF0000A4404321268114698470E4ABB681B0118
:101E0000134404331B68DB43FA681340FB60BB6870
:101E10000133BB60BB68062B03D8FB68002BC7D11E
:101E200000E000BF00BF1037BD4680BDAB1A080000
:101E3000C11A0800B812002080B500AF0A2102487C
:101E4000024B984700BF80BD000C0E40851D080066
:101E500080B500AF0B210248024B984700BF80BD00
:101E6000000E0E40851D080080B485B000AF78607C
:101E70001C4B1B6B23F003031A4A43F0010313634B
:101E80004FF40063FB6007E0FB68002B01D10123E6
:101E900023E0FB68013BFB60124B9B6E03F00803E1
:101EA000002BF1D00F4B1B6B23F070020D497B68A8
:101EB00013430B634FF40063FB6007E0FB68002BE8
:101EC00001D1012309E0FB68013BFB60054B9B6EE0
:101ED00003F00803002BF1D0002318461437BD4649
:101EE00080BC704700040E4080B485B000AF7860BD
:101EF0001C4B1B6B23F070021A497B6813430B6366
:101F00004FF40063FB6007E0FB68002B01D1012365
:101F100023E0FB68013BFB60124B9B6E03F0080360
:101F2000002BF1D00F4B1B6B23F003030D4A43F042
:101F3000020313634FF40063FB6007E0FB68002BB0
:101F400001D1012309E0FB68013BFB60054B9B6E5F
:101F500003F00803002BF1D0002318461437BD46C8
:101F600080BC704700040E4080B483B000AF78603E
:101F70007B68012B07D1084B9B68074A43F0254338
:101F800043F480139360044B044A1A6000BF0C377B
:101F9000BD4680BC704700BF10120E40080000A56F
:101FA00080B400AF094B5B6903F08003002B07D0BE
:101FB000074B9B6E03F08003002B01D0012300E050
:101FC00000231846BD4680BC704700BF10120E406B
:101FD00000040E4080B483B000AF7860134B1B6ADE
:101FE000124A43F45C1343F00803136200BF0F4B23
:101FF0009B6E03F40033002BF9D00C4B1B6A23F4C7
:102000005C1323F070037A681343084A43F45C13AB
:10201000136200BF054B9B6E03F40033002BF9D015
:1020200000BF0C37BD4680BC704700BF00040E40A7
:1020300080B400AF034B9B6E03F400331846BD46DB
:1020400080BC704700040E4080B485B000AF78605B
:102050000F4B1B6AFB60FB6823F00303FB607B688C
:102060001B029AB2FB68134343F45C1343F0010371
:10207000FB60074AFB68136200BF054B9B6E03F0D1
:102080000103002BF9D000BF1437BD4680BC704758
:1020900000040E4080B483B000AF0A4B1B6A7B6023
:1020A0007B6823F003037B607B6843F45C1343F09D
:1020B00002037B60034A7B68136200BF0C37BD4696
:1020C00080BC704700040E4080B400AF034B1B6A15
:1020D00003F002031846BD4680BC704700040E4062
:1020E00080B400AF034B9B6E03F001031846BD465E
:1020F00080BC704700040E4080B400AF034B9B6E61
:1021000003F480331846BD4680BC704700040E407F
:1021100080B485B000AF78600C4B1B6AFB607B68B5
:10212000002B04D0FB6843F08073FB6003E0FB6886
:1021300023F08073FB60054AFB6843F45C13136271
:1021400000BF1437BD4680BC704700BF00040E407E
:1021500080B400AF034B4FF000529A6200BFBD46FF
:1021600080BC704700040E4080B400AF034B9B6EF0
:1021700003F002031846BD4680BC704700040E40C1
:1021800080B400AF044BDB69034A23F48033D3618E
:1021900000BFBD4680BC704700040E4080B400AF55
:1021A000034B9B6E03F040031846BD4680BC70474E
:1021B00000040E4080B483B000AF78607B681D2BB4
:1021C00001D9012315E07B681F2B11D80B4B9A69AD
:1021D00001217B6801FA03F31A4001217B6801FAAF
:1021E00003F39A4204D001227B689A40034B1A61A0
:1021F000002318460C37BD4680BC704700040E40D3
:1022000080B483B000AF78607B681D2B01D90123B7
:1022100015E07B681F2B11D80B4B9A6901217B6855
:1022200001FA03F31A4001217B6801FA03F39A4291
:1022300004D101227B689A40034B5A61002318465F
:102240000C37BD4680BC704700040E4080B483B09C
:1022500000AF7860054A4FF480717B6801FA03F3A0
:10226000136000BF0C37BD4680BC704700040E40B1
:1022700080B483B000AF78607B68C3F312037B60E7
:10228000054B1A6F04497B6813430B6700BF0C377B
:10229000BD4680BC704700BF00040E4080B483B0D0
:1022A00000AF124B1B6F114A43F480131367104B9E
:1022B0001B690F4A23F00403136120BF00237B60D6
:1022C00003E000BF7B6801337B607B68B3F5FA7F76
:1022D000F7D300BF054B1B6A03F00803002BF9D0AE
:1022E00000BF0C37BD4680BC704700BF00040E40E5
:1022F00000ED00E0B0B59CB000AF78607B68013BBA
:10230000042B00F2D98101A252F823F02123080006
:102310002123080053230800532308009D260800AA
:10232000804B1B6F7F4A23F4801313677E4B1B691E
:102330007D4A23F0040313617C4B01221A70BFF322
:102340005F8F62B67B68022B01D130BFB4E120BF42
:10235000B2E172B6BFF35F8F744B00221A70744BF8
:1023600001221A707B68042B0CBF01230023DAB210
:1023700007F12003FB6407F11C03BB6407F118039A
:102380007B6407F114033B6407F11003FB6307F15F
:102390000C03BB63134687F83730624B1B6A3B6301
:1023A000604B1B6BFB62634B1B68BB62624B1B6821
:1023B0007B62FB6C002B02D0FB6C3A6B1A60BB6C2F
:1023C000002B03D0574B9A6ABB6C1A607B6C002BB6
:1023D00003D0544BDA697B6C1A603B6C002B02D043
:1023E0003B6CFA6A1A60FB6B002B02D0FB6BBA6A7B
:1023F0001A60BB6B002B02D0BB6B7A6A1A60494A29
:102400003B6B43F45C1343F008031362FB6A03F075
:102410000303012B0ED9FB6A23F0030343F00103EE
:10242000FB62404AFB6A13633E4B9B6E03F008035A
:10243000002BF9D0FB6A03F07003002B0CD0FB6A71
:1024400023F07003FB62374AFB6A1363354B9B6EC4
:1024500003F00803002BF9D0384B9847384B9847C6
:10246000304B9B6E03F40033002BF9D02D4B1B6ACD
:1024700023F09B7323F480332A4A43F45C131362E2
:10248000284B9B6E03F48033002BF9D0294ABB6A9A
:1024900023F470631360284A7B6A23F4706313602B
:1024A00097F83730002B09D01E4B1B6A23F45C13BE
:1024B00023F001031B4A43F45C1313621B4B0122FC
:1024C0001A70BFF35F8F62B61E4B984772B6BFF3A8
:1024D0005F8F164B00221A703D6AFC69B8697969F2
:1024E0003A69FB68FD66BC6678663966FA65BB6565
:1024F00000237B65FB6E03F00203002B28D0094B01
:102500001B6A114A1A400749104B13430B62054BD3
:102510001B6A23F45C1323F07803024A43F45C1330
:10252000136250E000040E4000ED00E09402002031
:102530002813002000080E40000A0E405121080018
:10254000812108009D220800FCFFC8FE020037011F
:10255000FB6E03F00103002B35D0594B1B6A03F0CF
:102560000103002B11D1564B1B6A23F45C1323F09B
:102570000303534A43F45C1343F001031362504BCB
:102580009B6E03F00103002BF9D04D4B1B6A03F047
:102590008073002B0DD14A4B1B6A494A43F09B7351
:1025A00043F480331362464B9B6E03F48033002B5D
:1025B000F9D0434B1B6A23F45C1323F07803404AA1
:1025C00043F45C131362BA6E3E4B1340002B08D0E9
:1025D0003B4ABB6E43F0005393627B6D43F00203B2
:1025E0007B657B6E03F48033002B06D0344A7B6E10
:1025F000D3617B6D43F040037B653B6E03F00303C7
:10260000022B02D0032B07D00CE02D4B9B6E03F066
:102610000203002BF9D005E0294B9B6E03F0400329
:10262000002BF9D0264B1B6B3B653B6D23F07002F2
:102630003B6E03F07003224913430B63204B9B6EE8
:1026400003F00803002BF9D01F4AFB6D13601F4AEB
:10265000BB6D13601A4A3B6E1363194B9B6E03F0FC
:102660000803002BF9D0164B9A6E7B6D1340002B9C
:10267000F9D0174B00221A70164B1B68002B05D09F
:10268000144B1B689847134B00221A60124B01220F
:102690001A70BFF35F8F62B600BF0DE00F4B1B696E
:1026A0000E4A43F0040313610B4B01221A70BFF36F
:1026B0005F8F62B620BF00BF00BF7037BD46B0BDA0
:1026C00000040E400000FF0700080E40000A0E4004
:1026D000281300202C1300209402002000ED00E0BD
:1026E00080B400AF084B1B78DBB2002B14BF012372
:1026F0000023DBB283F00103DBB203F00103DBB2A2
:102700001846BD4680BC70472813002080B485B0B1
:1027100000AFF860B9607A60F968BA6813469B0048
:1027200013449B000B4470337A681A6000BF14375F
:10273000BD4680BC704780B485B000AFF860B9601A
:102740007A60F968BA6813469B0013449B000B44F7
:1027500074337A681A6000BF1437BD4680BC704776
:1027600080B485B000AFF860B9607A60F968BA6883
:1027700013469B0013449B000B4478337A681A601D
:1027800000BF1437BD4680BC704780B485B000AF31
:10279000F860B9607A60F968BA6813469B00134420
:1027A0009B000B4480337A681A6000BF1437BD4623
:1027B00080BC704780B582B000AF1E4B7B601E4B63
:1027C0003B607A683B689A420CD007E07A68131D38
:1027D0007B603B68191D396012681A603B68174AB4
:1027E0009342F3D3164B3B6004E03B681A1D3A60FA
:1027F00000221A603B68134A9342F6D3124B7B6067
:102800007B68124A23F0604323F07F0393607B6868
:10281000B3F1005F09D37B680D4A934205D80B4B97
:102820009B680A4A43F0005393600A4B98470A4B4F
:102830009847FEE75CAD080000000020000E002075
:10284000000E0020001400200000080000ED00E051
:10285000FF3F0020E55B08003D0B080080B485B019
:1028600000AF7860104BFB60104B1B68002B02D14F
:102870000E4B0F4A1A600D4B1B68BB60BA687B6831
:102880001344FA689A4202DA4FF0FF3306E0074B2E
:102890001A687B681344054A1360BB6818461437EE
:1028A000BD4680BC704700BFFC1F082030130020CD
:1028B0000004082080B582B000AF78607B68072BE9
:1028C0002ED801A252F823F01F290800E928080099
:1028D000F1280800F9280800012908000929080042
:1028E000112908001929080000200F4B984717E00C
:1028F00001200D4B984713E000200C4B98470FE048
:1029000010200A4B98470BE02020084B984707E01F
:102910003E20074B984703E0064B984700E000BF76
:1029200000BF0837BD4680BD691F0800D51F0800DD
:10293000492008009520080080B582B000AF78607B
:102940007B68072B2FD801A252F823F06D290800CD
:1029500071290800712908008329080083290800CB
:1029600083290800952908009529080001231BE008
:102970000F4B98470346002B14BF01230023DBB203
:1029800012E00C4B98470346002B14BF0123002391
:10299000DBB209E0084B98470346002B14BF012324
:1029A0000023DBB200E0002318460837BD4680BD97
:1029B000A11F080031200800E120080080B483B086
:1029C00000AF78607B68072B23D801A252F823F070
:1029D000F1290800F7290800FB290800FF29080051
:1029E000032A0800072A08000B2A08000F2A0800FB
:1029F0004FF4FA430EE000230CE000230AE0084BFA
:102A000008E0084B06E0084B04E0074B02E0064BE9
:102A100000E0002318460C37BD4680BC704700BF5D
:102A200000093D0000127A00001BB70080B582B09B
:102A300000AF0346FB7100BFFB791846054B984772
:102A4000034683F00103DBB2002BF5D100BF08374A
:102A5000BD4680BD3929080080B586B000AFF8605A
:102A60007A603B600B46FB727B68002B07D13B68AA
:102A7000002B04D1FB684FF470021A6019E0FB7A56
:102A800018460E4B984702467B68B2FBF3F37B6116
:102A90007B693A6802FB03F37B613B68013B1A04E4
:102AA000074B13407A68D2B2134343F47C52FB685D
:102AB0001A6000BF1837BD4680BD00BFBD290800A1
:102AC0000000FF0780B582B000AF786039603B68D6
:102AD000002B08D1094B98477B681B68084A43F0D4
:102AE0000053936205E07B681B68054A43F480331A
:102AF000D36100BF0837BD4680BD00BF512108002B
:102B000000040E4080B582B000AF78607B68002B77
:102B100003D1054B9847034602E0044B9847034610
:102B200018460837BD4680BD692108009D21080070
:102B300080B582B000AF0346FB71FB79033B042BE9
:102B400008D8FB791846064B9847FB791846054B81
:102B5000984700E000BF00BF0837BD4680BD00BFFA
:102B6000B52808002D2A080080B582B000AF786033
:102B700000BF7868044B98470346002BF9D0002328
:102B800018460837BD4680BD052B080080B500AF4C
:102B90000620034B984703461B01184680BD00BF23
:102BA000BD29080080B500AF024B984703465B087B
:102BB000184680BD8D2B080090B583B000AF06206D
:102BC000094B9847381D002300220621074CA047D7
:102BD0003B1D01211846064B98470120054B98479D
:102BE00000BF0C37BD4690BD312B0800592A0800A4
:102BF000C52A0800692B080090B583B000AF1648BD
:102C0000164B98470620164B98474FF08070154B8F
:102C1000984700BF144B98470346002BFAD0381D45
:102C2000102301220621114CA0473B1D002118460C
:102C30000F4B984700200F4B984710200E4B98479A
:102C40000E4B98470E4B984703461846034B984740
:102C500000BF0C37BD4690BD00D8B805BD010020AF
:102C6000312B080011210800F9200800592A08001A
:102C7000C52A0800692B0800E91E0800852C0800F9
:102C8000A52B080080B400AF574B1B6B03F0030368
:102C9000032B00F28A8001A252F823F0AD2C080029
:102CA000CD2C08001D2D08001D2D08004F4B5B6921
:102CB00003F08003002B04D04D4B4FF400421A6008
:102CC00073E04B4B4FF4FA421A606EE0464B1B6ABE
:102CD00003F08073002B03D0454B464A1A6064E032
:102CE000434B454A1A60404B1B6A03F07003102B9C
:102CF00004D0202B08D0002B0ED00EE03C4B1B68DC
:102D00005B003B4A136008E0394B1A6813465B00CE
:102D10001344374A136000E000BF46E0324B1B6AA1
:102D200003F08073002B03D0314B324A1A601CE051
:102D30002F4B314A1A602C4B1B6A03F07003102B87
:102D400004D0202B08D0002B0ED00EE0284B1B689F
:102D50005B00274A136008E0254B1A6813465B00A6
:102D60001344234A136000E000BF1F4B1B6B03F0AA
:102D70000303022B15D11C4B9B6A1B0CC3F30A03E4
:102D800001331B4A126802FB03F3194A1360164B06
:102D90009B6ADBB2164A1268B2FBF3F3144A136063
:102DA00002E0134B154A1A6000BF0F4B1B6B03F078
:102DB0007003702B08D10E4B1B68114AA2FB032332
:102DC0005B080B4A13600AE0074B1B6B1B0903F0FF
:102DD0000703074A126822FA03F3054A136000BF8B
:102DE000BD4680BC704700BF00040E4010120E406C
:102DF00098020020001BB70000093D00001C4E0E89
:102E0000ABAAAAAA80B400AF024B1846BD4680BC4C
:102E1000704700BF5C02002080B400AF024B1B680B
:102E20001846BD4680BC70473C13002080B400AFFC
:102E3000064B1B681B68054A12681268528892B2DA
:102E400013441846BD4680BC704700BF38130020AD
:102E500080B584B000AF78600B46FB70124B98478A
:102E6000F8607B681B781A467B6813447B6010E02F
:102E70007B685B78042B11D07B685B78FA789A4288
:102E800001D17B680CE07B681B781A467B68134491
:102E90007B60FA687B689A42EAD800E000BF0023B2
:102EA00018461037BD4680BD2D2E080080B584B071
:102EB00000AF03460A46FB711346BB711E4B1B78DD
:102EC000002B01D1002332E01C4B1B681B681B79CF
:102ED000FA799A4201D3002329E0184B1B681B683A
:102EE000174A1360174B9847F8601AE0144B1B6899
:102EF0005B78042B0DD1124B1B689B78FA799A42B0
:102F000007D10F4B1B68DB78BA799A4201D10123B4
:102F10000DE00B4B1B680A4A126812781344084AEA
:102F20001360074B1B68FA689A42DFD800231846E3
:102F30001037BD4680BD00BF361300203813002077
:102F40003C1300202D2E080080B584B000AF03464E
:102F5000FB71FB79002118461E4B9847034683F00E
:102F60000103DBB2002B01D000232FE01A4B1B68BA
:102F70005A68FB799B0013441B68BB60BB68DB6825
:102F8000984703461A46FB7911461846114B984755
:102F9000034683F00103DBB2002B01D0002315E0D0
:102FA0000E4B1B68FB600521F8680D4B9847F860D5
:102FB000FB68002B05D0FB689B781846094B9847A7
:102FC000F1E700BFBB685B689847012318461037DC
:102FD000BD4680BDAD2E0800381300203C130020F4
:102FE000512E08009146080080B584B000AF03461A
:102FF0000A46FB711346BB71BA79FB791146184634
:103000001A4B9847034683F00103DBB2002B01D033
:10301000002327E0164B1B68FB600521F868154B61
:103020009847F860FB68002B11D0FB689878FB6824
:10303000D978FB689B889BB21A460F4B984703468A
:1030400083F00103DBB2002BE7D000230AE000BFCE
:103050000A4B1B685A68FB799B0013441B681B686A
:103060009847034618461037BD4680BDAD2E080070
:103070003C130020512E0800E542080038130020C0
:1030800080B500AF014B984700BF80BDA14008004C
:1030900080B582B000AF0F4B1B78002B10D00023FF
:1030A000FB7106E0FB7918460B4B9847FB7901331F
:1030B000FB710A4B1B681B681B79FA799A42F1D3A2
:1030C000044B00221A70064B00221A8000BF0837FA
:1030D000BD4680BD36130020492F0800381300205C
:1030E0003413002080B582B000AF144B1B78002B46
:1030F0001FD00023FB7115E0114B1B685A68FB7948
:103100009B0013441B681B69002B08D00C4B1B68E9
:103110005A68FB799B0013441B681B699847FB792D
:103120000133FB71064B1B681B681B79FA799A42C5
:10313000E2D300BF0837BD4680BD00BF3613002074
:103140003813002080B500AF064BDB88022B01D07E
:10315000002304E002210448044B98470123184649
:1031600080BD00BFC013002034130020BD42080002
:1031700080B500AF0B4BDB88022B01D000230EE0A3
:10318000084B9B88DBB21846074B984703469AB218
:10319000064B1A8002210548054B98470123184623
:1031A00080BD00BFC013002011470800401300205D
:1031B000BD42080080B400AF0B4BDB88002B01D070
:1031C00000230DE0084B5B88012B08D1074B1B88BF
:1031D00023F002039AB2054B1A80012300E000237A
:1031E0001846BD4680BC7047C01300203413002031
:1031F00080B500AF0A4BDB88002B01D000230CE028
:10320000074B5B88002B07D1054B9B88DBB2184628
:10321000044B9847034600E00023184680BD00BFDA
:10322000C01300208D48080080B500AF264BDB8816
:10323000002B01D0002345E0234B5B88012B02D0FB
:10324000022B02D03DE000233CE0204B9847034690
:1032500083F00103DBB2002B30D11B4B9B88DBB228
:10326000002B2DD11A4B9847174B9B881B0A9BB2FA
:10327000DBB2013B032B1FD801A252F823F000BFA1
:10328000913208009B320800A5320800AF320800D6
:103290000D4B104A1A61012314E00B4B0E4A1A61C0
:1032A00001230FE0084B0D4A1A6101230AE0064B87
:1032B0000B4A1A61012305E000BF02E000BF00E0F5
:1032C00000BF0023184680BDC0130020394208000B
:1032D000913008004D4B0800814B0800B54B0800A9
:1032E000D94B080080B500AF0D4BDB88002B01D017
:1032F000002312E00A4B5B88002B0DD1084B9B8802
:10330000DBB21846074B9847054B9B88DBB2184643
:10331000054B9847034600E00023184680BD00BFD8
:10332000C0130020C54A08007947080080B500AFE7
:10333000054B5B88DBB203F07F03DBB21846034B1F
:10334000984700BF80BD00BFC01300205D42080049
:1033500080B400AF064BDB88002B01D0002303E0D4
:10336000034B044A1A6101231846BD4680BC7047CE
:10337000C01300202D33080080B584B000AF0023B7
:10338000FB71294B5B88DBB2032B20D801A252F8DA
:1033900023F000BFA5330800AF330800B93308009D
:1033A000C333080004212148214B984711E015231D
:1033B000FB71204BBB600CE01023FB711E4BBB600C
:1033C00007E02023FB711D4B9847B86001E0002304
:1033D00026E0FB79002B22D00023FB730DE0FB7B62
:1033E000BA6813441A78FB7B91B2154A5B00134408
:1033F0000A465A80FB7B0133FB73FA7BFB799A42C6
:10340000EDD3FB790133DBB25B00DAB20C4B1A70FF
:103410000B4B1B789BB219460948054B9847012373
:1034200018461037BD4680BDC01300209C02002006
:10343000BD420800A0020020B8020020052E0800AE
:10344000CC02002080B582B000AF7F4B5B88FB715F
:103450007D4B5B881B0A9BB2DBB2013B0E2B00F25B
:10346000E08001A252F823F0A5340800F5340800EA
:103470000F36080023360800233608006F35080091
:103480008535080023360800233608002336080057
:1034900023360800233608002336080023360800A8
:1034A00005360800694B9847034683F00103DBB2F9
:1034B000002B0AD0664B9A68654B9B681B789BB2C1
:1034C00019461046634B9847AEE0614B1B680022DB
:1034D00042F010029A70002242F00202DA705C4B55
:1034E0001A685B4B1B681B789BB219461046594BF8
:1034F000984799E0554B98470346002B19D0544BF9
:103500009B685B7CFA799A4201D3002397E0504B89
:103510001A69FB79DB00134418684D4B1A69FB7973
:10352000DB0013441B685B889BB21946494B9847E4
:1035300018E0474B1B685B7CFA799A4201D3002361
:103540007DE0434B5A68FB79DB0013441868404B1D
:103550005A68FB79DB0013441B685B889BB21946F1
:103560003C4B9847384B9B6802225A705CE0384BC2
:10357000DA68374BDB681B789BB219461046354B2F
:10358000984751E0314B9847034683F00103DBB283
:10359000002B19D02E4B9B685B7CFA799A4201D3A1
:1035A00000234CE02A4B1A69FB79DB0013441868AE
:1035B000274B1A69FB79DB0013441B685B889BB2BD
:1035C0001946244B984718E0214B1B685B7CFA791D
:1035D0009A4201D3002332E01D4B5A68FB79DB008D
:1035E000134418681A4B5A68FB79DB0013441B68B4
:1035F0005B889BB21946174B9847134B9B68072271
:103600005A7011E021211448124B98470CE0134BDB
:103610009847034683F00103DBB2002B03D000235D
:103620000DE000230BE000BF074BDA88064B9B89B7
:103630009A4203D2044BDA88034B9A81012318463D
:103640000837BD4680BD00BFC013002039420800C6
:1036500038040020BD42080048AA08007933080059
:1036600080B500AF064BDB88012B01D0002304E0BE
:1036700001210448044B98470123184680BD00BF30
:10368000C013002036130020BD42080080B582B070
:1036900000AF374BDB88002B01D0002363E0354BB4
:1036A00098470346002B01D100235CE0324B98473A
:1036B0000346002B09D02E4B5B88DBB22F4A926861
:1036C000527C93420BDD00234DE0294B5B88DBB23B
:1036D0002A4A1268527C934201DD002343E0284BC2
:1036E0009847234B5B88DAB2264B1A70254B1B7820
:1036F000002B01D1012336E01F4B98470346002BD6
:103700000BD01E4B1A691F4B1B7803F10053013B72
:10371000DB0013441C4A13600AE0184B5A68194B2B
:103720001B7803F10053013BDB001344164A13607E
:103730000023FB710FE0FB7900211846134B9847DB
:10374000034683F00103DBB2002B01D000230AE023
:10375000FB790133FB710C4B1B681B681B79FA79F1
:103760009A42E8D3012318460837BD4680BD00BF02
:10377000C0130020A142080039420800380400208C
:10378000913008003613002038130020E92F08007C
:1037900080B582B000AF1E4BDB88012B01D0002327
:1037A00032E01C4B1B78002B01D100232CE0184B7E
:1037B0009B88FB71184B1B681B681B79FA799A422E
:1037C00001D3002320E0FB7900211846134B9847D2
:1037D000034683F00103DBB2002B01D0002313E08A
:1037E0000D4B1B685A68FB799B0013441B683B60B8
:1037F0003B68DB68984703461A46094B1A7001215B
:103800000748084B9847012318460837BD4680BD36
:10381000C01300203613002038130020AD2E0800FE
:1038200042130020BD42080080B582B000AF144BA7
:10383000DB88002B01D000231EE0124B1B78002BED
:1038400001D1002318E00E4B9B88FB710C4B5B8869
:10385000BB71FB7918460C4B9847034683F0010374
:10386000DBB2002B01D0002306E0BA79FB791146C8
:103870001846064B9847034618460837BD4680BD94
:10388000C013002036130020492F0800E92F08003C
:1038900080B500AF514B1B785BB2002B40DA4F4B29
:1038A000DB88002B01D1002396E04C4B1B7803F002
:1038B0001F03002B14D1494B5B78062B08D0082B33
:1038C0000AD0002B00D00CE0454B9847034683E01C
:1038D000444B984703467FE0434B984703467BE0C1
:1038E00000BF3E4B1B7803F01F03012B08D13B4B5D
:1038F0005B780A2B00D004E03C4B984703466BE012
:1039000000BF364B1B7803F01F03022B60D1334BF3
:103910005B78002B00D05EE0354B984703465BE0B8
:103920002E4B1B7803F01F03002B29D12B4B5B7808
:10393000013B082B26D801A252F823F06939080070
:103940008539080071390800853908006139080097
:10395000853908008539080085390800793908005B
:10396000244B9847034637E0234B9847034633E000
:10397000224B984703462FE0214B984703462BE004
:1039800000BF00E000BF154B1B7803F01F03012BA5
:1039900008D1124B5B780B2B00D004E0194B9847F1
:1039A000034619E000BF0D4B1B7803F01F03022BE9
:1039B00010D10A4B5B78012B02D0032B04D00AE014
:1039C000114B9847034607E0104B9847034603E026
:1039D00000BF00E000BF0023184680BDC0130020D8
:1039E0004531080045340800613608009137080069
:1039F0007131080051330800B53108002932080040
:103A00008D36080029380800F1310800E532080039
:103A100080B582B000AF204B1B78002B01D1002372
:103A200036E01E4B9B88FB711D4B1B681B681B7986
:103A3000FA799A4201D300232AE0FB790021184643
:103A4000184B9847034683F00103DBB2002B01D0EB
:103A500000231DE0124B1B685A68FB799B0013443E
:103A60001B683B603B68DB68984703461A46FB7956
:103A7000114618460B4B9847034683F00103DBB20F
:103A8000002B01D0002303E03B689B689847034666
:103A900018460837BD4680BD36130020C0130020ED
:103AA00038130020AD2E080080B582B000AF1E4B49
:103AB0001B78002B01D1002332E01C4B9B88FB714B
:103AC0000023FB7124E01A4B1B685A68FB799B00AA
:103AD00013441B683B603B68DB68984703461A4603
:103AE000FB7911461846134B9847034683F00103B0
:103AF000DBB2002B01D0002312E03B689B689847A3
:103B00000346002B01D001230AE0FB790133FB714E
:103B1000074B1B681B681B79FA799A42D3D30023A1
:103B200018460837BD4680BD36130020C01300205C
:103B300038130020AD2E080080B500AF254B0022C1
:103B40009A81244B00221A61224B00225A61214B98
:103B50001B78C02B09D11F4B5B78012B05D19E210F
:103B60001D481E4B9847012332E01A4B1B785BB26D
:103B7000002B05DA174BDB88002B01D1002327E04F
:103B8000144B1B7803F06003002B06D1144B9847AD
:103B90000346002B01D001231AE00E4B1B7803F0E3
:103BA0001F03012B06D10F4B98470346002B01D072
:103BB00001230DE0074B1B7803F01F03022B06D1F6
:103BC000094B98470346002B01D0012300E0002356
:103BD000184680BDC013002010030020BD4208001D
:103BE00091380800113A0800A93A080080B500AFE2
:103BF0000B4B98470346DA780A4B1A70094B1B782F
:103C0000002B09D1084B9847034683F00103DBB230
:103C1000002B01D0002300E00123184680BD00BF27
:103C2000192E080043130020ED0D080080B500AFE9
:103C3000034B1B78002B01D1024B984700BF80BD7E
:103C400043130020190E080080B500AF104B1B78FD
:103C50005BB2002B09DA0E4B1B7803F06003402B9C
:103C600003D10C4B984703460FE0094B1B785BB21E
:103C7000002B09DB064B1B7803F06003402B03D1BC
:103C8000054B9847034600E00023184680BD00BF5F
:103C9000C0130020511208000111080080B400AFC9
:103CA000024B1B781846BD4680BC7047431300206A
:103CB00090B587B002AFF860B9607A607B68009316
:103CC000BB68FA6800218120034CA04703461846D0
:103CD0001437BD4690BD00BFBD49080090B587B000
:103CE00002AFF860B9607A607B680093BB68FA68DD
:103CF00000210220034CA047034618461437BD4656
:103D000090BD00BFBD49080080B483B000AF03463A
:103D1000FB71FB7903F01F03012202FA03F1054A4C
:103D200097F907305B0942F8231000BF0C37BD46F6
:103D300080BC704700E100E080B483B000AF034670
:103D40003960FB7197F90730002B0BDA3B68DAB268
:103D50000C49FB7903F00F03043B1201D2B20B4470
:103D60001A7609E03B68DAB2074997F90730120181
:103D7000D2B20B4483F8002300BF0C37BD4680BC91
:103D8000704700BF00ED00E000E100E080B483B0C8
:103D900000AFEFF310833B603B68002B0CBF0123A7
:103DA0000023DBB27B6072B6BFF35F8F044B00224F
:103DB0001A707B6818460C37BD4680BC704700BF40
:103DC0009402002080B483B000AF78607B68002B41
:103DD00014BF01230023DBB218460C37BD4680BC5C
:103DE0007047000080B582B000AF78607868074BFC
:103DF00098470346002B05D0054B01221A70BFF3EC
:103E00005F8F62B600BF0837BD4680BDC53D080064
:103E10009402002080B584B000AF0346FB71084BCC
:103E20009847F860FB79074AD25C0132D1B2054A63
:103E3000D154F868044B984700BF1037BD4680BD89
:103E40008D3D0800B8130020E53D080080B584B022
:103E500000AF0346FB71084B9847F860FB79074AAF
:103E6000D25C013AD1B2054AD154F868044B984764
:103E700000BF1037BD4680BD8D3D0800B81300203F
:103E8000E53D080080B582B000AF0346FB71FB79C9
:103E900083F00103DBB2002B06D00D4B1B78002B07
:103EA00002D002200B4B9847FB79002B09D0084B1E
:103EB0001B7883F00103DBB2002B02D00220064BFB
:103EC0009847034AFB79137000BF0837BD4680BD91
:103ED000441300204D3E0800153E080080B500AF99
:103EE0001D205F4B98475F4B9847034683F00103C3
:103EF000DBB2002B0CD05C4B5B6903F00203002BA0
:103F000006D172B6BFF35F8F584B00221A70A5E03E
:103F1000554B5B6903F00803002B0DD0524B082270
:103F20009A61514B5B6903F00103002B01D1504BA7
:103F30009847504B984790E04B4B5B6903F0040364
:103F4000002B05D0484B04229A61494B984784E0E6
:103F5000494B98470346002B7AD1484B9847034674
:103F6000002B77D1404B5B6903F01003002B1DD071
:103F70003D4B10229A61424B9847424B9847424B27
:103F80009847424B9847384B1B69374A43F0080320
:103F90001361354B1B69344A43F004031361324B00
:103FA0001B69314A43F00203136156E02E4B1B6933
:103FB00003F00203002B20D02B4B5B6903F00203BC
:103FC000002B1AD0284B20229A61274B1B69264AC6
:103FD00023F002031361244B1B69234A43F020039F
:103FE0001361214B02229A611D20294B9847294BCE
:103FF00098470020284B98472FE01B4B5B6903F044
:104000002003002B28D00120234B9847164B022277
:104010009A61154B20229A61134B1B69124A23F0B7
:1040200020031361104B1B690F4A43F00203136115
:104030000D4B1B690C4A43F0080313610A4B1B69C3
:10404000094A43F004031361144B984700BF04E08E
:1040500000BF02E000BF00E000BF00BF80BD00BFA6
:10406000B5210800E126080000400A409402002023
:10407000E5300800D10D0800455308005D570800E1
:104080008554080091300800A54C0800254D080013
:1040900001220800B90D0800853E0800C50D080082
:1040A00080B582B000AF194B98471D20184B984738
:1040B000184B98477860184B1B68174A43F4807375
:1040C000136005211D20154B98471D20144B984760
:1040D000144B9847104BD3F8E0300F4A23F00303FA
:1040E000C2F8E0304FF480200F4B98470F4B00226E
:1040F0001A7003200E4B98470E4B984778680E4B6A
:10410000984700BF0837BD4680BD00BFB92B0800E7
:10411000B52108008D3D080000400A40393D0800E7
:10412000093D0800295408007122080044130020AA
:10413000153E08003D410800E53D080080B582B00D
:1041400000AF264B984778600120254B98471D20EB
:10415000244B9847244B1B68234A43F400631360A5
:10416000214B1B68204A23F4007313601E4B1B690C
:104170001D4A43F0100313611B4B1B691A4A43F09D
:1041800002031361184B1B69174A43F020031361A4
:10419000154B1B69144A43F008031361124B1B694A
:1041A000114A43F0040313610F4B08229A610E4B2E
:1041B00004229A610C4B10229A610B4B02229A61E5
:1041C000094B20229A611D20084B98477868084BBC
:1041D000984700BF0837BD4680BD00BF8D3D080031
:1041E000853E0800B521080000400A400122080071
:1041F000E53D080080B500AF1D200B4B98470B4BE9
:104200001B680A4A43F400731360084B1B68074A93
:1042100023F4006313601D20054B98470020054BD5
:10422000984700BF80BD00BFB521080000400A408C
:1042300001220800853E080080B400AF064B5B6990
:1042400003F00103002B14BF01230023DBB2184647
:10425000BD4680BC704700BF00400A4080B483B0B8
:1042600000AF0346FB710D4B1B680C4A23F0800323
:1042700013600A4B1B6823F07F02FB7903F07F0376
:10428000064913430B60054B1B68044A43F0800347
:10429000136000BF0C37BD4680BC704700400A4029
:1042A00080B400AF044B1B68DBB203F07F03DBB2CA
:1042B0001846BD4680BC704700400A4080B483B0B9
:1042C00000AF78600B467B80054A7B689360044AA8
:1042D0007B88938100BF0C37BD4680BC704700BF10
:1042E000C013002090B589B002AF0346FB710B46A6
:1042F000BB711346BB800023FB7400237B74FB79E6
:1043000003F08003002B14BF012300233B74FB79CF
:1043100003F00F03FB71FB79022B01D90023AEE1FF
:10432000B04AFB795B01134403F586731B6803F005
:104330000103002B01D00023A1E1BB7903F00303AB
:10434000022B1AD0032B15D0012B19D1FB79002B8E
:1043500007D0FB79032B04D0FB79042B01D0012378
:1043600000E000237B747B7C03F001037B7401235A
:104370007B7507E001237B7504E002237B7501E078
:1043800000237CE17B7D022B06D0032B07D0012B81
:1043900008D101233B7507E002233B7504E00323AA
:1043A0003B7501E000236AE17B7C002B17D0BB88C2
:1043B00003F4C053B3F5006F03D0B3F5805F03D0AF
:1043C00005E00223FB7405E00323FB7402E00123F4
:1043D000FB7400BFBB8823F4C053BB8006E0BB88DE
:1043E00003F4C053002B01D0002348E17D4AFB7940
:1043F00008335B0113441B6823F47F7323F003032A
:10440000BA79120102F03002397C002901D008216A
:1044100000E000211143BA88B2F5806F07D2BA8854
:10442000082A38BF082292B25200013A01E040F255
:10443000FF72B2FA82F2C2F11C0211433A7D92017C
:10444000D2B211437A7C002A04D0FA7C120202F420
:10445000407200E000220A43C2F309026148F97980
:104460001A4301F108035B0103441A605D4AFB79BA
:1044700008335B0113441B68002B01DB0023FEE0C3
:10448000584AFB7908335B011344043301221A6054
:104490000023FB820223BB7439E0524ABB7C5B01E0
:1044A000134403F586731B6803F00103002B2BD024
:1044B0004C4ABB7C08335B0113441B689B09DBB28D
:1044C00003F003033B753A7DBB7C5B0002FA03F308
:1044D0001AB2B7F9163013431BB2FB82414ABB7CB8
:1044E0005B01134403F5847301221A603D4ABB7CCF
:1044F00008335B0113441A683A49BB7C22F0C002BE
:1045000008335B010B441A60BB7C013BBB74BA7C73
:10451000FB799A42C1D2FB79BB74ABE0BB7C5A1EDB
:1045200013465B001344DB002F4A1344FB60FB6817
:104530001B7DC3F30003DBB2002B14BF0123002358
:10454000FB72FA8ABB7C5B0042FA03F3DBB203F036
:1045500003033B753B7D002B00F08880FA68137DD8
:104560006FF3000313751F4ABB7C08335B011344D0
:104570001B6823F0C0013B7D9B01DAB21948BB7C6C
:104580000A4308335B0103441A60164ABB7C0833B4
:104590005B011344043301221A60124ABB7C0833C6
:1045A0005B0113441B68002B20DBFB681B68002B9E
:1045B00001D1002363E00B4ABB7C08335B01134449
:1045C0001B6803F00803002B03D0BB7C63F07F0360
:1045D000BB74FB681B68FA68D168BA7C01209847F5
:1045E00000234CE000400A404C130020264ABB7CCC
:1045F00008335B01134404331A682349BB7C42F03F
:10460000020208335B010B4404331A60FB7A002B6F
:104610002DD0FB68DA68FB681B69D21AFB68DA6088
:10462000FB681B7DC3F34003DBB2002B14BF0123E7
:104630000023D9B2FB685A68FB68DB68D418FB68B2
:104640009A68FB68DB68D21AFB681B68B87C009329
:10465000134622460D4CA0470346FB72FB7A83F0BB
:104660000103DBB2002B02D0002308E000BFBB7CBB
:104670000133BB74BB7C022B7FF650AF012318467D
:104680001C37BD4690BD00BF00400A40BD49080030
:1046900080B584B000AF0346FB71FB7903F00F03D4
:1046A000FB73FB7B022B28D8164AFB7B5B01134470
:1046B00003F5847301221A60124AFB7B08335B0105
:1046C00013441A680F49FB7B22F0C00208335B01D8
:1046D0000B441A60FB7918460B4B9847FB7B5A1E1C
:1046E0000A4913465B001344DB000B4403F110023C
:1046F00013796FF38203137100E000BF1037BD46DA
:1047000080BD00BF00400A40C95408004C1300207F
:1047100080B485B000AF0346FB71FB7903F00F0353
:10472000FB73FB7B5A1E13465B001344DB00104AED
:104730001344BB600F4AFB7B5B01134403F58E738C
:104740001B6803F02003002B06D1BB681B7D03F020
:104750000403DBB2002B01D0012300E0002303F0AF
:104760000103DBB218461437BD4680BC704700BF5A
:104770004C13002000400A4080B485B000AF0346CF
:10478000FB71FB7903F00F03FB73FB7B022B01D959
:10479000002371E0FB7B5A1E13465B001344DB00D1
:1047A000384A1344BB60384AFB7B5B01134403F572
:1047B0008E731B6803F02003002B06D1BB681B7DA2
:1047C00003F00403DBB2002B01D0012354E0BB68EB
:1047D0001B7D03F00103DBB2002B01D000234BE073
:1047E00097F90730002B25DA274AFB7B5B0113443E
:1047F00003F58E731B689B0C03F00303002B19D089
:10480000BA68137D43F0040313751F4AFB7B08331A
:104810005B01134404334FF480221A601A4B1A6967
:10482000FB7B4FF4807101FA03F3174913430B61CB
:10483000012321E0144AFB7B5B01134403F58473DD
:104840001A681149FB7B22F002025B010B4403F55D
:1048500084731A600C4AFB7B5B01134403F58C7371
:104860004FF400521A60084AFB7B5B01134403F5C6
:104870008A7320221A60012318461437BD4680BC73
:10488000704700BF4C13002000400A4080B584B040
:1048900000AF0346FB710023FB73FB7903F00F03AA
:1048A000FB71FB79022B01D900237EE0FB795A1EB4
:1048B00013465B001344DB003E4A1344BB60BB68F5
:1048C0001B7D03F00403DBB2002B1AD0BA68137D02
:1048D0006FF382031375384AFB795B01134403F5C8
:1048E00084734FF480221A60334B1A69FB794FF4BA
:1048F000807101FA03F3DB432F4913400B6101235D
:10490000FB732D4AFB795B01134403F58E731B681F
:1049100003F02003002B35D0274AFB795B011344B9
:1049200003F58E731B6803F40053002B10D0224A4A
:10493000FB795B01134403F58C734FF400521A604A
:104940001D4AFB795B01134403F58C7340221A6006
:10495000194AFB795B01134403F58C7320221A601A
:10496000154AFB7908335B01134404331A68124972
:10497000FB7942F0020208335B010B4404331A60F6
:104980000123FB73FB7B002B0ED0BB681B7D03F068
:104990000103DBB2002B07D0BA68137D6FF300036D
:1049A0001375BB681B689847012318461037BD462E
:1049B00080BD00BF4C13002000400A4080B586B087
:1049C00000AFBA607B600346FB730B46BB73FB7B97
:1049D00003F00F03FB73FB7B022B01D9002363E081
:1049E000FB7B5A1E13465B001344DB00304A134422
:1049F0007B61304AFB7B5B01134403F586731B68C4
:104A000003F00103002B11D02A4AFB7B5B01134406
:104A100003F58E731B6803F02003002B06D17B691E
:104A20001B7D03F00403DBB2002B01D000233BE02D
:104A3000214B984738617B691B7D03F00103DBB292
:104A4000002B04D038691D4B984700232CE07A696D
:104A5000137D43F0010313753869184B98477B6940
:104A6000BA685A607B697A689A607B690022DA606A
:104A70007B6900221A617B693A6A1A60BB7B002B52
:104A800002D17B68002B01D1012300E0002303F059
:104A90000103D9B27A69137D61F341031375FB7B7E
:104AA0001846074B9847012318461837BD4680BD66
:104AB0004C13002000400A408D3D0800E53D0800F1
:104AC0007555080080B584B000AF0346FB71FB79D3
:104AD00003F00F03FB73FB7B1A01194B13440022F5
:104AE0009A6097F90730002B21DA14E0154AFB7B16
:104AF0005B01134403F58A734FF400721A6000BF20
:104B0000104AFB7B5B01134403F58E731B6803F4AF
:104B10000073002BF4D10B4AFB7B5B01134403F5BC
:104B20008E731B689B0C03F00303002BDED1FB7913
:104B30001846054B984700BF1037BD4680BD00BFE3
:104B400000430A4000400A40C954080080B400AF46
:104B50000A4BD3F8E03023F00303084A43F0020382
:104B6000C2F8E030054BD3F8E030044A43F00403C8
:104B7000C2F8E03000BFBD4680BC704700400A402C
:104B800080B400AF0A4BD3F8E03023F00303084AA7
:104B900043F00203C2F8E030054BD3F8E030044A9A
:104BA00043F00803C2F8E03000BFBD4680BC704748
:104BB00000400A4080B400AF064BD3F8E03023F049
:104BC0000303044A43F00203C2F8E03000BFBD46CD
:104BD00080BC704700400A40B0B493B000AF2E4B89
:104BE0003C1D1D460FCD0FC40FCD0FC40FCD0FC4FC
:104BF00095E80300206004342170284B0122C3F89B
:104C00000821264BD3F8003123F47F7323F00303EC
:104C1000224A43F06B03C2F80031204B0122C3F853
:104C200004211E4BD3F8E03023F003031B4A43F06A
:104C30000203C2F8E030194BD3F8E030174A43F0D2
:104C40001003C2F8E030164B3B643B1DFB630023AE
:104C500087F847300CE0FA6B531CFB633B6C591C24
:104C6000396412781A7097F84730013387F8473063
:104C700097F84730342BEED9084B4FF48062C3F8D5
:104C80001821064B4FF40062C3F8142100BF4C37C3
:104C9000BD46B0BC704700BF6CAA080000400A4087
:104CA0000000182080B582B000AF1B4B1B681A4A69
:104CB00023F07F031360184B1B68174A43F08003EF
:104CC0001360154BD3F8003123F47F7323F00303F3
:104CD000114A43F04303C2F800310F4B0122C3F8DD
:104CE00004210E4B984778600B4B4FF48052C3F869
:104CF0000421094B4FF40072C3F80421064B1B69D1
:104D0000054A43F4807313617868054B984700BFE8
:104D10000837BD4680BD00BF00400A408D3D0800F9
:104D2000E53D080080B582B000AF104B9847786031
:104D30000F4B4FF48062C3F8082178680D4B9847F9
:104D40000B4B4FF40072C3F818210B4B00221A6171
:104D5000094B00225A61084B00229A81074B00221E
:104D60001A7000BF0837BD4680BD00BF8D3D0800EA
:104D700000400A40E53D0800C01300204513002014
:104D800080B584B000AF404B1B78002B03D03F4B65
:104D900098473F4B98473F4BD3F81C311B0DC3F34B
:104DA0000A03082B07D03C4B98473A4B4FF48052EC
:104DB000C3F8182164E0394BBB600023FB730AE0A1
:104DC000BB685A1CBA60FA7B35490A441B781370D9
:104DD000FB7B0133FB73FB7B072BF1D9304B5A88EC
:104DE0002F4B5A802E4B9A882D4B9A802C4BDA8869
:104DF0002B4BDA802B4B9847034683F00103DBB241
:104E0000002B07D0244B9847224B4FF48052C3F815
:104E1000182135E01F4B4FF48052C3F81821204B66
:104E20001B785BB2002B0BDA1F4B00221A801F4B42
:104E300000221A80144B02221A701D4B98471FE063
:104E4000174BDB88002B02D11A4B984718E0164B02
:104E500000221A80154B00221A800B4B01221A7077
:104E60000C4B4FF48042C3F81821134B98477860DD
:104E7000084B4FF48042C3F8042178680F4B9847E1
:104E80001037BD4680BD00BF4513002029530800E0
:104E9000254D080000400A405D520800000018201F
:104EA000C0130020393B080046130020481300209F
:104EB000C14E0800815208008D3D0800E53D080004
:104EC00080B584B000AF4C4B984738604B4B4FF4E3
:104ED0008062C3F808213868494B9847494B1B78D2
:104EE000032B04D1484B9847484B984781E0484BE7
:104EF0009A89484B1B88D31AFB81FB89002B27D149
:104F0000454B1A88434B1B8813449AB2424B1A8074
:104F10003F4BDA88404B1B889A4203D03F4B1B78AB
:104F2000002B02D03E4B984763E0394B5B69002B66
:104F30000ED0374B5B699847034683F00103DBB221
:104F4000002B05D1334B00221A80314B9B89FB810A
:104F5000FB893F2B05D94023FB81304B00221A707F
:104F600002E02E4B01221A702E4BBB60284B9B682F
:104F7000284A128813447B601F4B984738601F4BA8
:104F8000D3F81C3103F40073002B06D038681C4B97
:104F900098471C4B04221A702BE000237B730AE015
:104FA0007A68531C7B60BB68591CB96012781A7010
:104FB0007B7B01337B737B7B9BB2FA899A42EFD870
:104FC000144B1A88FB8913449AB2124B1A800B4B6C
:104FD0004FF48062C3F81821084B4FF40062C3F805
:104FE0001421064B4FF48062C3F804213868044B47
:104FF00098471037BD4680BD8D3D080000400A40EF
:10500000E53D08004513002029530800254D080000
:10501000C013002048130020461300207C130020FA
:10502000E55208000000182080B584B000AF614B45
:105030001B78012B0FD05F4B1B78022B03D05D4BED
:105040001B78042B02D15C4B984701E05B4B9847DF
:105050005B4B9847ABE05B4BD3F81C311B0D9BB20D
:10506000C3F30A03BB81584B9B891A46574B1B88D5
:105070001946BB890B449A4205DA534B9A89534B24
:105080001B88D31ABB81524BBB604F4B9B684F4A66
:10509000128813447B600023FB730AE0BA68531C38
:1050A000BB607B68591C796012781A70FB7B0133F6
:1050B000FB73FB7B9BB2BA899A42EFD8434B1A88A9
:1050C000BB8913449AB2414B1A80BB89402B0AD149
:1050D0003D4BDB881A463F4B1B8819463B4B1B88D0
:1050E0000B449A4220DC394B1A88374B9A81364B55
:1050F0005B69002B10D0344B5B699847034683F003
:105100000103DBB2002B07D02C4B98472D4B4FF4FB
:105110000072C3F818214AE02A4B4FF40072C3F81A
:1051200018212D4B984742E0274B9A89274B1B8823
:105130009A4227D1244B5B69002B07D11F4B98471C
:10514000204B4FF40072C3F8182130E01E4B5B690E
:105150009847034683F00103DBB2002B07D0174BBF
:105160009847184B4FF40072C3F818211FE0194BF1
:105170001A88164B1B8813449AB2164B1A80134B8D
:1051800000221A800F4B4FF40072C3F818210D4B08
:105190004FF48042C3F81821104B98473860094BF0
:1051A0004FF48042C3F8042138680D4B98471037FC
:1051B000BD4680BD45130020295308005D520800FC
:1051C000254D080000400A40C0130020481300206D
:1051D0000000182046130020815208008D3D080071
:1051E000E53D080080B500AF0C4BD3F81C3103F44B
:1051F0000073002B0FD10A4B1B78012B02D1094BF6
:10520000984709E0064B1B78042B05D1034B20225D
:10521000C3F8142100E000BF80BD00BF00400A4079
:10522000451300208152080080B400AF094BD3F829
:105230001C3103F48063002B08D1074B1B78032B30
:1052400005D1044B2022C3F8142100E000BFBD4665
:1052500080BC704700400A404513002080B400AF76
:10526000054B05221A70054B2022C3F8142100BFFC
:10527000BD4680BC704700BF4513002000400A4077
:1052800080B582B000AF134B03221A70124B9847BF
:105290007860124B4FF48062C3F818210F4B4FF423
:1052A0000062C3F814210D4B4FF48062C3F804214F
:1052B0000A4B4FF40042C3F81821084B4FF4004248
:1052C000C3F804217868064B984700BF0837BD46ED
:1052D00080BD00BF451300208D3D080000400A40FE
:1052E000E53D080080B582B000AF0B4B04221A7078
:1052F0000A4B984778600A4B4FF48042C3F8182154
:10530000074B4FF48042C3F804217868054B984757
:1053100000BF0837BD4680BD451300208D3D080005
:1053200000400A40E53D080080B500AF044B1B6912
:10533000002B02D0024B1B69984700BF80BD00BF05
:10534000C013002080B582B000AF314BD3F81C31C0
:105350007B602F4B5B6903F48073002B01D100232A
:1053600052E02B4B4FF48042C3F80821284B4FF4F6
:105370000042C3F808217B6803F48053002B03D05C
:10538000244B984701233FE07B6803F48063002BA4
:105390000AD01F4BD3F80C3103F48063002B03D0E9
:1053A0001D4B984701232FE07B6803F40073002B0B
:1053B00003D01A4B9847012326E07B6803F400537F
:1053C000002B04D0124B4FF40052C3F818217B6815
:1053D00003F40043002B08D00D4B4FF40042C3F8F8
:1053E00018210F4B984701230EE07B6803F480439C
:1053F000002B08D0064B4FF48042C3F81821094B0C
:105400009847012300E0002318460837BD4680BDB9
:1054100000400A40814D0800C14E08002950080094
:1054200029520800E551080080B483B000AF002382
:10543000FB711CE0FA79124913465B001344DB0050
:105440000B4403F1100213796FF300031371FA791F
:105450000B4913465B001344DB000B4403F11002BD
:1054600013796FF382031371FB790133FB71FB79BD
:10547000012BDFD900BF0C37BD4680BC704700BF91
:105480004C13002080B582B000AF0023FB7110E008
:10549000FA7913465B001344DB00094A9818FB793C
:1054A0000133DBB21A460121064B9847FB790133E1
:1054B000FB71FB79012BEBD900BF0837BD4680BDDE
:1054C0004C1300200555080080B582B000AF03469C
:1054D000FB71FB7903F00F03FB71FB795A1E134636
:1054E0005B001344DB00054A1344FA790121184696
:1054F000034B984700BF0837BD4680BD4C130020C2
:105500000555080080B582B000AF78600B46FB708F
:105510001346BB707B681B7D03F00103DBB2002BDD
:105520001FD07A68137D6FF3000313757B681B68C7
:10553000002B18D00E4ABB7808335B0113441B685C
:1055400003F00803002B03D0BB7863F07F03BB702C
:105550007B681B68FA7810467A689168BA78984731
:1055600002E000BF00E000BF0837BD4680BD00BFBD
:1055700000400A4080B586B000AF0346FB710023AF
:105580007B61FB795A1E13465B001344DB006D4AB6
:105590001344FB60FB681B7D03F00103DBB2002BAF
:1055A00000F0CC80FB68DA68FB689B689A4200F0E8
:1055B0009980FB689A68FB68DB68D31A3B613B699A
:1055C000B3F5803F05D94FF480333B6100237B6105
:1055D00002E03B691B047B615B4AFB7908335B019A
:1055E00013441B6803F00803002B1DD0564AFB79B7
:1055F00008335B0113441B6803F00703082202FA17
:1056000003F31A463B69B3FBF2F102FB01F29B1A6A
:10561000002B27D07B6943F008037B61FA68137D78
:105620006FF3410313751DE0474AFB7908335B01B3
:1056300013441B681B0903F00303012B0ED1424ADC
:10564000FB7908335B0113441B6803F0070308224E
:1056500002FA03F31A463B69934203D87B6943F08D
:1056600014037B61FB685A68FB68DB68D118FB791F
:105670001A01364B13440A465A607B6943F02103F2
:105680007B61334B9847B860FB791A012F4B134469
:10569000DB6803F01003002B1DD1FB791A012B4BA3
:1056A00013447A699A60FB68DA683B691A44FB68BC
:1056B000DA60FB683A691A61234B1A69FB79013B8E
:1056C0004FF0007101FA03F31F4913430B61B868EF
:1056D000204B984733E0B8681E4B9847FB68DA6860
:1056E000FB689A60184AFB7908335B0113441B6816
:1056F00003F00803002B1AD0FB681B7D03F00203A4
:10570000DBB2002B13D0104AFB7908335B01134442
:1057100004334FF400621A600B4B1A69FB794FF4A3
:10572000807101FA03F3084913430B6107E0FB7929
:105730001A460021F868084B984700E000BF183768
:10574000BD4680BD4C13002000400A4000430A4083
:105750008D3D0800E53D08000555080080B584B082
:1057600000AF0123FB73E0E0FB7B5A1E13465B0096
:105770001344DB00714A1344BB60714B1A69FB7B15
:10578000013B4FF0007101FA03F31340002B3CD0B2
:105790006B4B5A69FB7B013B4FF0007101FA03F33D
:1057A0001340002B31D0FB7B1A01664B1344DB689E
:1057B00003F00103002B01D00123BBE0604B1A6909
:1057C000FB7B013B4FF0007101FA03F3DB435C49C3
:1057D00013400B61FB7B1A015A4B1344DB681B0C13
:1057E0009BB27B607B68002B09D0BB68DA687B6862
:1057F000D21ABB68DA60BB68DA68BB689A60FB7B68
:105800001846514B9847012394E04D4B1A69FB7B96
:105810004FF4807101FA03F31340002B00F08280F3
:10582000474AFB7B5B01134403F586731B6803F453
:105830000063002B24D0424AFB7B5B01134403F539
:105840008E731B6803F40063002B19D13C4AFB7B69
:105850005B01134403F584734FF400621A60384A05
:10586000FB7B5B01134403F58A734FF400621A60FB
:10587000FB7B1A460021B868344B9847012359E056
:105880002F4AFB7B5B01134403F586731B6803F40B
:105890008023002B46D02A4AFB7B5B01134403F58F
:1058A0008E731B689B0C03F00303002B3AD1244A30
:1058B000FB7B5B01134403F584734FF480221A6071
:1058C0001F4B1A69FB7B4FF4807101FA03F3DB4332
:1058D0001B4913400B61BA68137D6FF38203137584
:1058E000174AFB7B5B01134403F584731A68144960
:1058F000FB7B22F002025B010B4403F584731A6008
:105900000F4AFB7B5B01134403F58A7320221A6064
:105910000B4AFB7B5B01134403F58C7340221A6036
:10592000012307E0FB7B0133FB73FB7B022B7FF63C
:105930001BAF002318461037BD4680BD4C13002016
:1059400000400A4000430A4075550800055508000C
:1059500080B487B000AFF860B9607A60BB685A085D
:105960007B681A44BB68B2FBF3F37B617B69032B52
:1059700003D97B69B3F5803F01D3012303E0FB68C2
:105980007A691A62002318461C37BD4680BC7047EE
:1059900080B582B000AF786078680F4B98477B681D
:1059A00000225A607B6800225A627B6800229A6259
:1059B00078680A4B98477868094B98477868094B8C
:1059C00098477868084B98477868084B984700BF15
:1059D0000837BD4680BD00BFC55B0800195B0800E5
:1059E000315B0800495B08007D5B0800635B0800D1
:1059F00080B584B000AFF860B9607A60F8683D4B5C
:105A000098473D4B00221A60BB68002B0DD0BB6845
:105A10009B68032B09D8BB681B687A681946F8682D
:105A2000364B98470346002B01D001235DE0BB684D
:105A30005A68314B1B6813432F4A1360BB68DA68FE
:105A40002D4B1B68134343F4802343F00E032A4A73
:105A50001360BB689B68032B3ED801A252F823F069
:105A6000715A08008B5A0800A55A0800BF5A08004E
:105A7000214B1B6843F480731F4A13601E4B1B6845
:105A800023F480331C4A136027E01B4B1B6823F46C
:105A90008073194A1360184B1B6823F48033164A2D
:105AA00013601AE0144B1B6843F48073124A1360AE
:105AB000114B1B6843F480330F4A13600DE00E4B0B
:105AC0001B6823F480730C4A13600B4B1B6843F470
:105AD0008033094A136000E000BFFB685A68064B38
