:0200000280007C
:1000000000150820152C08002133080021330800B2
:1000100021330800213308002133080000000000CC
:100020000000000000000000000000002133080074
:1000300021330800000000002133080021330800AC
:100040002133080021330800213308002133080040
:100050002133080021330800213308002133080030
:100060002133080021330800791708008917080098
:1000700099170800213308002133080021330800B4
:100080002133080021330800213308002133080000
:1000900021330800213308002133080021330800F0
:1000A00021330800213308002133080021330800E0
:1000B00021330800391B08002133080010B5054C16
:1000C000237833B9044B13B10448AFF30080012304
:1000D000237010BD500D00200000000034AA08005D
:1000E00008B5034B1BB103490348AFF3008008BDBB
:1000F00000000000540D002034AA08004FF00071E9
:100100004FF08062014B59635A637047000C0E40F8
:100110004FF000714FF08062014B59631A637047D2
:10012000000C0E404FF080614FF00072014B59639C
:100130001A637047000C0E400E4B9A6B910103D46A
:10014000986B10F080600FD00A4B9A6B92010CD51F
:10015000084B9A6B920106D59B6B13F0806F14BF0E
:10016000FF2002207047FF2070479B6B5901EFD59D
:1001700001207047000C0E402DE9F041384B9847A4
:100180004FF080724FF0806E4FF0007C4FF0C068EF
:10019000344B354D5A665A655A62C3F88020196F40
:1001A000324821F0807119675A615A66C3F8842079
:1001B000C3F81080C3F834E0C3F830C080472C4B3C
:1001C000092098472B4C29462920A04729462A2058
:1001D000A04729462B20A04729462C20A047294686
:1001E0002D20A04729462E20A04729462F20A04792
:1001F00029463020A04729463320A0471E4F2946D4
:100200003720A04729463420A0474FF0405240F203
:10021000BF113846194B9847194B384640F2BF1169
:100220009847184E4FF040512620A0474FF060519C
:100230003120A04730460021134A144B98473046DE
:100240000021134A134B984730460021124A134BA2
:1002500098473046BDE8F04103220021104B184773
:100260007D360800000C0E400100000875050800EE
:100270005D2F080065310800000E0E405D32080059
:100280000131080000000E4000010101ED160800D8
:1002900001010301F9160800020004000517080017
:1002A000111708002DE9F04F87B010214F4B02A81D
:1002B000984701224E4D2A70BFF35F8F62B600232C
:1002C0004C4C4D4F627123706370A370E3702371C7
:1002D0004A4A90474A4BBB46DFF82891DFF828810D
:1002E00002AE0DF1180A984756F8042B58464146BD
:1002F000C84756450BF1080BF6D104220026434BA4
:1003000001205A64424B87F820609847414B984738
:100310001D20414B98471F20404B98474FF00072DB
:100320004FF080630127DFF8F8B0DFF8F890CBF8E2
:100330003420CBF834303C4B98473C4B9847DFF89F
:10034000F0803C4BDFF8F0A0984789F80060002669
:100350002078002832D1274B13F8012F0130C0B28A
:10036000002AF9D050B372B6BFF35F8F2E70C0472A
:10037000DBF83C3013F08073EAD10093009B2F4AE6
:10038000934205D8009B01330093009B9342F9D917
:10039000DBF83C30DB01FBD599F80030013B012B49
:1003A00011D900230193254A019B9342CFD8019B89
:1003B00001330193019B9342F9D9C8E72F70BFF332
:1003C0005F8F62B6D4E7D04740B14FF000724FF074
:1003D0008063CBF83420CBF83430E2E799F8003072
:1003E000174A52F823309847DBE700BFB5150800DD
:1003F0000C03002074130020940100207D2D0800C0
:10040000790108003D3A080098A5080000040E4054
:10041000A52F0800110F08002D31080049310800F0
:10042000000C0E406C0D002025090800990C0800F6
:1004300025330800690D0800390108008FD003003A
:100440008801002038B5084B04469847074B1A78B6
:100450002AB901251C70064B9847284638BD00254F
:10046000034B9847284638BDA93608006D0D00207B
:10047000E93608000022014B1A7070476D0D00200C
:10048000014B1878704700BF6D0D0020034610B572
:100490000A4903F03F0C8A6B5B0002F0400242EA1B
:1004A0000C0203F4C07313433120054C8B63A04747
:1004B000BDE810403120034B184700BF000E0E402E
:1004C000493108002D3108002DE9F0411A4C05464C
:1004D0001A4B2046984780230022236063682046F9
:1004E00043F0010363606368114643F010036360E7
:1004F0006368134F23F080036360B84701222046EE
:100500000021104B984728460F49104B9847024648
:10051000002120460E4BD2B2984701230D4E236096
:100520004FF000610E20B0473346BDE8F0414FF078
:1005300000610F20184700BF00800040A12C080078
:10054000E92C0800012D080000D8B805192D080075
:10055000312D080065310800002310B4034C01461A
:10056000A4461A46024810BC604700BFAD2C0800E4
:100570000080004010B5054B4FF0605114209847A3
:10058000BDE810401420024B184700BF6531080039
:100590002D31080070B5134B84B0044614209847E1
:1005A0000023C021104D114A0D20CDE90041CDE9B5
:1005B000023390470E4A0F4B6946284698470E4E25
:1005C0004FF000611220B0474FF000611120B0479A
:1005D0004FF4C021094A2846094B5160984704B09E
:1005E00070BD00BF49310800000009405D2F0800C0
:1005F00000D8B8050116080065310800000C0E404F
:10060000D51608001420014B184700BF2D310800F3
:100610000146014B01481847DD160800000009405B
:1006200010B5044C1D20A0472346BDE810401F20F4
:10063000184700BFED2B08001D20014B184700BFD5
:10064000012C08004FF47A71104B10B5A3FB002366
:100650009B0901FB13039BB2044693B1B3F5FA7FE8
:1006600003D0C4F308043CB110BD1D20084BC4F3F3
:1006700008049847002CF7D1BDE810401F20044B18
:1006800018471D20034B9847EBE700BFD34D62107E
:10069000ED2B0800012C080007490A780F2A01D920
:1006A00000207047034610B4501C044C087044F8F6
:1006B0002230012010BC7047F0110020B011002042
:1006C00007490A780F2A01D900207047034610B461
:1006D000501C044C087044F82230012010BC7047B4
:1006E000F1110020F4110020004B184721060800EA
:1006F000004B184739060800054B1B7803B97047B3
:1007000010B5044B9847BDE81040034B184700BF95
:10071000BC0100201D2508004506080038B501244D
:10072000044D4FF48061044A044B05482C709847EF
:10073000204638BDBC010020690B08009530080038
:10074000B00D00200022014B1A707047BC01002040
:1007500038B50F4B0F4AD9880F48402928BF402190
:100760001278986099818AB10C4C551EEDB2531BDA
:10077000251F05EB830504EB820401E0AC4205D0A4
:1007800054F8043D98470028F8D038BD002038BD03
:100790003C130020F1110020700D0020F411002006
:1007A00038B50B4B1A788AB10A4C551EEDB2531B63
:1007B000251F05EB830504EB820401E0AC4205D064
:1007C00054F8043D98470028F8D038BD002038BDC3
:1007D000F0110020B0110020044B5A78222A03BFE8
:1007E000034A01201A610020704700BF3C1300201B
:1007F000F507080010B5244B9B78013B102B0AD855
:10080000DFE803F00A161B090909090909090909A2
:10081000090909303D0010BD3E201C4B98471C4C77
:10082000A0470028FCD0BDE810401020194B184705
:100830001020BDE81040184B18471820174B984758
:10084000174B984701220C211648174B9847174A17
:1008500053689903FCD4136843F0254343F0050320
:100860001360FEE70E4B9847104A53689B03FCD475
:10087000136843F0254343F005031360FEE70C4B78
:10088000BDE81040184700BF3C130020B12E0800FF
:10089000D52E0800F92D0800552E08004931080012
:1008A0006124080000080E40B530080000120E4018
:1008B0007504080038B5154C6378172B1BD0402BF6
:1008C00017D14FF0200C124D124B372293E8030042
:1008D00085F808C085E803000F4B104905F10900B1
:1008E000984728460E4BA560984703460120A381F0
:1008F00038BD002038BD43F2012500210322044BFE
:1009000001201D809970A360A28138BD3C13002096
:1009100034120020ACA50800DD3A0800A0A50800AC
:10092000813A080010B5044B04489847BDE81040D0
:100930000348044B184700BF99060800B508080093
:10094000D9070800C1060800184A5388A03B122B9B
:100950000BD8DFE803F0220F0B0A0A0A0A0A0A0A78
:100960000A0A0A0A0A0A161E0B0070470022104BD8
:100970001A7070470F4B10B598470A220C4B1A702B
:1009800010BDD388042B0ABF0B4B0C4818680C4BC6
:1009900018471422064B1A707047D388042B0ABFDD
:1009A000054B06481868074B184700BF3C1300204A
:1009B0007412002005060800700D002040420F0050
:1009C000C904080095050800002110B51B4C1C4AFD
:1009D00063781170103B062B05D8DFE803F00A138B
:1009E0001C2504040600002010BD164B01202361C5
:1009F00010BD0620144B98470028F4D0134B01205B
:100A0000236110BD0620104B98470028EBD0104BF7
:100A10000120236110BD06200B4B98470028E2D02F
:100A20000C4B0120236110BD0620074B984700287E
:100A3000D9D0094B0120236110BD00BF3C13002019
:100A4000741200204909080045040800250B08001D
:100A50005D0A08008D0A0800D10A080070B5074A2F
:100A6000074B55689847074C0420A0470028FBD047
:100A70002846BDE87040044B184700BF700D0020A9
:100A800075040800450408008D04080070B50A4B81
:100A90000A4AD3E900569047094C0520A047002890
:100AA000FBD0084B304698474FF0C042064B0749F1
:100AB0001A600D6070BD00BF700D00207504080045
:100AC000450408008D040800781200207C120020E4
:100AD0002DE9F0410D4B0E4ED3E90047B0470D4DC7
:100AE0000120A8470028FBD038460B4B98474CB153
:100AF00000230A4A0A4D296812F8010FC85401332D
:100B00009C42F8D13346BDE8F0411847700D0020F3
:100B100075040800450408008D040800770D0020C6
:100B2000B801002070B50A4B0A4AD3E90056904735
:100B3000094C0220A0470028FBD03046074B9847BD
:100B40002946BDE870404FF0C040054A054B1847A4
:100B5000700D002075040800450408008D0408008D
:100B6000050C08007530080070B505461C4E0C4693
:100B7000B04785B91B4B1B78ABB944B11A4A1B4D22
:100B8000296812F8010BC85401339C42F8D1184B64
:100B90009847042816D0BDE870404FF48061154A8C
:100BA0001148154B18470A2B0ED0142BF3D1002CEB
:100BB000F1D00D4D114E2C4415F8010BB047A54254
:100BC000FAD1E8E7B047E6E7002CE4D0064D0C4E3A
:100BD0002C4415F8010BB047AC42FAD1DBE700BF5B
:100BE0007504080074120020B00D0020B801002028
:100BF00081040800690B08009530080059050800B9
:100C00001106080010B50446064B984704B110BD04
:100C1000054B98470228FAD12046BDE81040034B07
:100C2000184700BF75040800810408004504080047
:100C300010B5134C6378122B16D0152B12D1114B13
:100C40001320984700210246521A18BF01224FF084
:100C5000040C0D4B0120597059801A70A360A4F840
:100C60000CC010BD002010BD0021084B08481A68B8
:100C70000068A281074AA06019609047012010BD5A
:100C80003C13002011310800341200207C12002097
:100C9000781200207504080010B5054B9847054BE5
:100CA00005489847BDE810400448054B184700BF69
:100CB0007504080099060800310C0800C9090800ED
:100CC000C1060800074A5378242B07D0252B03D1EF
:100CD000054B01201361704700207047034B012032
:100CE000136170473C130020F50C0800110D08003B
:100CF0000020704710B52620034B9847BDE81040F0
:100D00002620024B184700BF2D310800493108004A
:100D100010B4124B5B88012B04D0022B18D063B1A6
:100D200010BC70474FF000744FF080600C4A0D49C2
:100D3000546310630B7010BC70474FF000744FF099
:100D40008060074A0749546350630B7010BC7047BA
:100D50004FF080644FF00070E8E700BF3C130020C4
:100D6000000C0E406C0D002010B5044B0448984751
:100D7000BDE810400348044B184700BF990608001F
:100D8000F10C0800C50C0800C1060800024A034B1C
:100D9000508800F07F0018473C130020E52408002D
:100DA000154B1B681B681A79824222D930B4134C48
:100DB0002360B3F802C09C44634517D2002504E0C9
:100DC0001A78012513449C450CD95A78042AF7D186
:100DD0009A788242F4D1DA788A42F1D105B123605F
:100DE000012001E00020236030BC7047002030BCAF
:100DF00070470020704700BF881200208C1200202E
:100E00002DE9F0411C4C23787BB300211B4E054695
:100E1000B04750B3DFF86880D8F800305B6853F80B
:100E20002570FB68984723780146F3B12846B04700
:100E30000546D0B1134B144E1C68D8F80020237817
:100E400012681C4453881A44A24206D808E0052BB5
:100E50000FD023781C44A24202D96378042BF6D128
:100E60007B6898472846BDE8F08100252846BDE804
:100E7000F081A078B047E0E785120020A10D0800BE
:100E8000881200208C12002039250800184B1B788E
:100E90005BB32DE9F041174B0546984710B3164B4D
:100EA000164E1C68164F316823780A681C44538814
:100EB0001A44A24206D808E0052B0DD023781C4422
:100EC000A24202D96378042BF6D14B6853F825303F
:100ED000BDE8F0411B681847A288E178A078B847C0
:100EE0000028E0D10020BDE8F0810020704700BF5D
:100EF00085120020A10D08008C120020881200200D
:100F000009280800014B1868704700BF8C120020A8
:100F1000004B1847A1230800F8B50C4F3B787BB174
:100F20000B4D2B681B681B7953B100242046094EDA
:100F3000B0472B6801341B68E0B21B798342F7D8B5
:100F40000023054A3B701380F8BD00BF85120020C6
:100F500088120020010E08008012002038B50C4BCA
:100F60001B789BB10B4D2B681A68127972B1002463
:100F700022465B68013453F822301B6903B198475D
:100F80002B68E2B2196809799142F2D838BD00BFE6
:100F9000851200208812002000232DE9F0478B4C99
:100FA0002288C4E90433B2F5E07FA38100F0D08049
:100FB00094F900202378002A0EDB13F0600F79D01B
:100FC00013F01E0F40D003F01F03022B00F0B68079
:100FD00000252846BDE8F087E588002DF8D013F0FD
:100FE000600FEDD113F01F0200F06581012A40F07F
:100FF000B98062780A2A24D1012D22D1744A12784C
:10100000FAB1744A267917683A681279B24218D947
:1010100000213046704B98470546002800F0C580F7
:101020007B6853F82630DB68984702466B480121FD
:101030006B4B02709847CCE7012A00F04D81022AE1
:101040006CD013F01E0FC3D1A388614E022B04BFD6
:101050000123A3803378002BBAD05E4F94F804802C
:101060003D682B681B79984540D3227802F01F0217
:10107000022AADD1002BABD00024A046DFF8589156
:101080006B68013453F82850EB6898473378014671
:10109000002B9DD040465FFA84F8C847002897D0BF
:1010A000AB689847002837D13D682B681B794345CA
:1010B000E6D88DE713F01F02BED16278013A082A04
:1010C000BFD801A151F822F0AF1108004310080069
:1010D0008B11080043100800A712080043100800F5
:1010E0004310080043100800F91108000021404691
:1010F000394FB847002833D06B6853F82850EB6855
:10110000984733780146002B3FF462AF4046B8471A
:1011100030B3AB68984718B301255AE76278012AC3
:1011200000F0F780032A06D1E28861880A4392B270
:10113000002A00F0C18113F01E0F85D0244E3378B1
:10114000002B3FF445AF234F3D682B681B7991E797
:1011500001259E212348224B98472846BDE8F08769
:10116000237830E7022A7FF46CAF6278002AE2D15C
:10117000022DE0D120791C4B984702461B48294696
:10118000174B01250280984723E7E288002A7FF465
:1011900058AF6288022A7FF454AF154B9847054632
:1011A00018B12379002B00F0BC81237808E7E2888E
:1011B000002A7FF446AF6588012D7FF442AF0D4AC7
:1011C000138823F00203138003E700BF3C130020C1
:1011D0008512002088120020A10D08008412002032
:1011E0002D250800E4010020892508008212002036
:1011F000D524080080120020E288002A7FF421AF65
:101200009C4B98470028D0D0DFF86C92C847DFF895
:101210006CA2A378002800F02581DAF80820527C1F
:101220009A42C2D3964E337883B1964F3B681B687F
:101230001B795BB100252846DFF84C82C0473B682C
:1012400001351B68E8B21B798342F7D800228F4B27
:101250001A80A3783370002B3FF45EAFC847327812
:10126000002800F03381DAF8103002F10052013A20
:1012700003EBC2031A68834F12793B60002A3FF4E4
:101280004BAF0025824E2B4605E03A681268127972
:101290009A427FF641AF18460021B0470135EBB2C4
:1012A0000028F2D181E7E288002A7FF4CAAE794BA8
:1012B000012523618DE66278062A40D0082A36D0BF
:1012C000002A7FF4BEAE022D7FF4BBAE29466F48E4
:1012D000714B984701257CE662780B2A7FF4B1AE0A
:1012E000E288002A7FF4ADAE654A1278002A3FF406
:1012F000A8AE2579644B28466688984700283FF4B5
:1013000054AF2846624BF1B2984700287FF404AFEF
:101310004BE7E28861880A4392B2002A7FF40BAF60
:1013200020795E4B984700287FF4F6AE3DE7012D0B
:101330007FF487AE29465248574B984749E6618863
:101340000A0A013ACDB20E2A3FF63AAE01A151F88F
:1013500022F000BF09140800DF1308001D14080064
:10136000C10F0800C10F0800D3130800A91308001B
:10137000C10F0800C10F0800C10F0800C10F08000D
:10138000C10F0800C10F0800C10F08009113080029
:1013900021214348404B9847E388A2899A427FF62F
:1013A000BBAE0125A38114E6334B9847334B00288D
:1013B00040F094809A68527CAA427FF6F6AE1A6991
:1013C000354B52F83500418898470722A3685A7078
:1013D000E2E72A4A304BD06801789847DCE7264B91
:1013E0009847264B002800F090809A68527CAA42C9
:1013F0007FF6DBAE1A69284B52F8350041889847D2
:101400000222A3685A70C7E71B4B9847002871D186
:101410001A4A214B906801789847BDE7032D3FF6A3
:10142000CFADDFE805F01A17140220211D4B1E4E28
:101430005D18324613F8010BAB4222F8020FF9D1C6
:10144000490002311848144B31709847A4E7102125
:10145000164BECE71521164BE9E7042115480E4B16
:10146000984799E7DAF80020527C9A42BFF4DAAE46
:101470009BE600BF0D250800D524080014030020BA
:101480008512002088120020010E08008012002022
:101490008D0E08008D0D08002D250800652608001A
:1014A000C00100209401002084020020E4020020FA
:1014B000CC020020C80200202079324B98472079C6
:1014C000314B984700287FF427AE6EE6DAF80430F7
:1014D00002F10052013A03EBC203CBE61A68527CD8
:1014E000AA427FF662AE5A68284B52F8350041880E
:1014F00098476AE710200221254B244D1A68907006
:10150000D17018680178A84746E71A68527CAA4249
:101510007FF64BAE5A681D4B52F83500418898470C
:101520006EE71C4E327892B11B4F3A6812681279FE
:101530006AB199461846DFF86480C0473B6809F1F4
:1015400001091B685FFA89F01B798342F5D80022F4
:10155000A38813491B0A013B0A803270032B3FF614
:1015600024AEDFE803F00B0805020E4B236130E5E3
:101570000D4B23612DE50D4B23612AE50C4B2361B7
:1015800027E500BF352A0800BD2508002D250800E5
:10159000140300208512002088120020010E08008C
:1015A00080120020012B0800E92A0800C52A080043
:1015B000A12A0800F0B5042687B004460D460F2284
:1015C0000E210C480C4F02AB0096B84770B9042DA1
:1015D00026462A46044628BF042225B13046074B3A
:1015E00002A992009847204607B0F0BD102420467B
:1015F00007B0F0BD00080E4001000020AD38080023
:101600002DE9F0434FF4807C00244FF088084FF020
:10161000240E4FF400274FF40036DFF8B0902C4D25
:10162000C0F8E4902C60446044628462C0F800809A
:10163000C0F800E0C0F800C007600660F1B10346E2
:10164000886803281AD8086802EB5002B2FBF0F24F
:101650004FF6FB70141F844210D81A624A68D1E911
:10166000020442EA040141F4802242F00E022A60A0
:1016700003280DD8DFE800F005201A120120BDE88C
:10168000F08321F4803242F4802242F487722A608F
:10169000596800200A435A60BDE8F08321F4807243
:1016A00042F4A02242F00E022A60F1E741F4A022A7
:1016B00042F487722A60EBE721F4803222F48072D0
:1016C00042F4802242F00E022A60E1E700415355C5
:1016D0009012002040230360704700BF43699B07BE
:1016E000FCD5C1F30801C1610020704701EB810105
:1016F00000EB81010A67704701EB810100EB81017A
:101700004A67704701EB810100EB81018A677047EE
:1017100001EB810100EB8101C1F88020704700BF1F
:10172000F8B5124B04460E469847114B0546204625
:101730009847054019D00F4C04F160072368B34265
:1017400005D0BC4211D023691034B342F9D161688D
:101750002942F6D0E368304698476368BC4225EAE0
:10176000030502D01034002DE8D1F8BD093108007E
:101770000D310800941200200A210148014B18473E
:10178000000C0E40211708000B210148014B18479F
:10179000000E0E40211708000C210148014B18478C
:1017A00000100E402117080090F814C003461CF0EA
:1017B000010F16D030B404686FF3000C80F814C029
:1017C0006CB1084D084602F1080149016958090742
:1017D00048BF42F080029968234630BC184730BCAD
:1017E0007047704700400A402DE9F043431E664CA5
:1017F00003EB430104EBC10191F814C01CF0010F8D
:1018000039D00246D1E90250A8424FEA430634D00B
:101810002D1AB5F5803F4FEA421C47D80CF1402EF7
:101820000EF5202EDEF800812F0418F0080F72D07C
:10183000DEF800814FF0080E08F007080EFA08FEE7
:101840000EF1FF3E1EEA050F00F09A8091F814E0B9
:1018500047F029076FF3410E81F814E033E04FF4AD
:1018600000644FF480734948C1F8044103FA02F25E
:1018700003691A430261BDE8F0834FEA421C0CF190
:10188000402101F52021D1F80001000705D5F0180D
:1018900004EBC000007D8707E1D43D4DF01804EB58
:1018A000C0002B46BDE8F043002118470CF1402151
:1018B00001F52021D1F800512D0735D521274FF40E
:1018C0008035D1F8001106EB030E04EBCE0EDEF8E6
:1018D000041008442F4901EB02114860EFF310880F
:1018E00072B6BFF35F8F4FF000092B4880F800906D
:1018F000D1F80C9019F0100F20D0B8F1000F04D1DE
:1019000001210170BFF35F8F62B6F11804EBC101D2
:10191000C8688860B3E7DEF80011C1F3011101293E
:1019200025D047F03507CEE7D1F80051C5F30115B2
:10193000012DC3D035274FF48035C4E74FF0007236
:101940008F6002FA03F3DEF80C20CEF81050154435
:101950000E4ACEF80C5011690B431361B8F1000F19
:1019600089D101230370BFF35F8F62B683E7DEF88E
:10197000001101F0070E082101FA0EF1A942D0D2A0
:1019800047F021079FE700BF0C13002000400A40EA
:10199000A917080000430A400C0300202DE9F04776
:1019A000EFF3108372B6BFF35F8F00204FF48061B6
:1019B000594D5A4A2870C2F8081123B901232B70D7
:1019C000BFF35F8F62B6DFF8588198F80030032BC1
:1019D00063D0544F544E3A88B489A41AA4B2002C50
:1019E00038D01346DFF844913F2C86BF00224024B4
:1019F000012289F80020B268EFF3108672B6BFF3B7
:101A00005F8F002129704549D1F81C11890539D40F
:101A100054B11A44464B1846013312F801CBD9B2DF
:101A2000A14280F800C0F6D34FF480624FF4006109
:101A30003B881C44394B3C80C3F81821C3F814116F
:101A4000C3F8042126B901232B70BFF35F8F62B660
:101A5000BDE8F0873749F0880B8813449BB2984261
:101A60000B8040D0DFF8C49099F800A0BAF1000FC5
:101A700039D17369002B33D09847002847D1012210
:101A80003B88B6E726B901232B70BFF35F8F62B6A0
:101A9000042388F80030BDE8F087234E336903B192
:101AA0009847EFF3108372B6BFF35F8F00204FF4B7
:101AB00080611A4A2870C2F8081123B901232B70DB
:101AC000BFF35F8F62B600234FF40071134AC2F870
:101AD0001811C6E90433B38188F80030BDE8F087F7
:101AE0001346012285E7042388F80030EFF31081C4
:101AF00072B6BFF35F8F4FF480420020074B28700F
:101B0000C3F81821C3F804210029A1D19BE73C8028
:101B10005346B48968E700BF0C03002000400A4028
:101B20000A130020061300203C1300200413002099
:101B300000001820081300202DE9F0419B4B1D20C8
:101B400098479B4B984728B99A4B5B6913F002035F
:101B500000F09680974B5A69120700F182805A690B
:101B6000560700F18780D3F81C215969CD0521D58E
:101B70004FF480404FF40041D404C3F80801C3F887
:101B8000081100F1AC80500504D5D3F80C3159058B
:101B900000F14D82930500F14781970404D54FF47D
:101BA0000051844BC3F81811160400F16D815404E0
:101BB00000F1CB8001234FF000754FF480767D4A11
:101BC000106903F1FF3E05FA0EF10842DFB203D0BF
:101BD0005069014240F0CE80116906FA03F00142DB
:101BE00002EB431417D0D4F80C11A44611F4006F83
:101BF00005D0D4F81C1111F4006100F03583DCF835
:101C00000C114F0307D5DCF81C1111F4402FC1F360
:101C1000814400F0E980022B39D166494C6914F007
:101C2000100440F07E810A69900735D54A69920711
:101C300032D520228A610A691D2022F002020A613F
:101C40000A695D4D42F020020A618B61A8475B4B37
:101C500098475B4A1378002B40F0BF820023137033
:101C600013E008229A615B69DF0712D5BDE8F041F5
:101C7000544B184704219961534ABDE8F04110477D
:101C800072B6BFF35F8F514A1370BDE8F081022333
:101C900096E74D4B9847E9E7464B5B699B06F4D5C1
:101CA000474A1378002B00F0798202240125202076
:101CB000404B15709C6198611A69454922F02002D9
:101CC0001A611A6922431A611A6942F008021A61FC
:101CD0001A6942F004021A61BDE8F04108473D4D1F
:101CE0002B7803B33C4C236903B19847EFF3108280
:101CF00072B6BFF35F8F00214FF48060334B1970D1
:101D00002C49C1F8080122B901221A70BFF35F8F74
:101D100062B600234FF40071264AC2F81811C4E9D4
:101D20000433A3812B70234AD2F81C31C3F30A5326
:101D3000082B00F0BC80052020214FF48053287030
:101D4000C2F81411C2F818319FE74FF48043194AC2
:101D5000C2F81831D2F81C3113F4007395D11D4824
:101D60000178012900F04D8204298ED12023C2F888
:101D700014318AE7194800EB0313D868C00784D4EC
:101D8000106920EA01011161DB681B0C08D0144ABC
:101D90000EEB4E0E02EBCE02D168CB1AC2E9023333
:101DA0003846BDE8F0410F4B184700BF5D2F0800D3
:101DB0008535080000400A40812F0800E906080028
:101DC00005130020F90608005D0F08000C03002031
:101DD000F10608000A1300203C13002000430A40CB
:101DE0000C130020E91708004FF480232025402120
:101DF000CCF8083113690EEB4E0E23EA0000B34B0A
:101E0000106103EBCE0E9EF8143064F382038EF85B
:101E10001430DCF8083123F00203CCF80831CCF898
:101E20001451CCF8181130E7A94D2B78012B00F094
:101E30000281022B00F03781042B00F03481052150
:101E40002022A44BA44C2970C3F81421EFF3108274
:101E500072B6BFF35F8F00214FF480609F4B197003
:101E60009C49C1F8080122B901221A70BFF35F8FA3
:101E700062B600234FF40071964AC2F81811C4E903
:101E80000433A3812B7000E74FF40042914BC3F859
:101E90001821D3F81C2155053FF5F7AE8C4A12786E
:101EA000032A7FF4F2AE2022C3F81421EDE68C4A17
:101EB0008C4B8D48194601330978834202F8011F83
:101EC000F8D18A4B9847002800F0F4804FF48051F5
:101ED000804B814AC3F8181192F900100029C0F212
:101EE0007181D288002A00F0AD81002201244FF4D4
:101EF00080417F482C7002807E480280C3F8181110
:101F0000EFF3108572B6BFF35F8F74480270C3F8A9
:101F10000411002D7FF4B9AE0470BFF35F8F62B679
:101F2000B3E61022694C237D8A6113F001020DD0C3
:101F300025686FF30003237545B1D1F820310120E6
:101F400013F0080F18BF8122A168A84794F82C301D
:101F5000DD0710D5A5696FF3000384F82C3055B167
:101F60005C4B0120D3F84031216A13F0080F14BFF5
:101F700082220222A847604B98470120554B1A68DD
:101F800022F07F021A601A6842F080021A60D3F8C9
:101F9000002122F47F7222F0030242F04302C3F8D0
:101FA0000021C3F80401EFF3108472B6BFF35F8F12
:101FB0004FF48052002549490D70C3F804214FF4B5
:101FC0000072C3F804211A6942F480721A611CB9C4
:101FD0000870BFF35F8F62B6EFF3108372B6BFF382
:101FE0005F8F00244FF480603A4A0C70C2F80801F9
:101FF00023B901230B70BFF35F8F62B600224FF449
:102000000074344B344832490261C3F818410A70F5
:102010001969426141F0080119611969828141F031
:10202000040119611A6942F002021A612DE6334B6C
:10203000BDE8F0411847274B2E4FD3F81C61264CC2
:102040003B88B4F80CC0C6F30A569A199445ACBF45
:102050001FFA82FCACEB0306A268B8BFB6B21A4402
:10206000002E00F012811F4B184601330078D9B2C0
:10207000B14202F8010BF7D3402EA7F800C067D099
:102080006369A4F80CC0002B3AD09847002837D1D8
:10209000052020214FF400720E4B2870C3F8141154
:1020A000C3F81821F1E50C4C2369002B3FF4CEAEA8
:1020B0009847CBE6052020214FF48052054B28702D
:1020C000C3F81411C3F81821DFE500BF0C1300207A
:1020D0000A13002000400A403C1300200C0300209B
:1020E0003B1300200000182008001820990F08005A
:1020F0000813002006130020190F08009D1908007E
:102100004FF4007103226A4BC3F818112A70EFF3E1
:10211000108472B6BFF35F8F002566484FF480616C
:1021200005704FF400424FF40065C3F81811C3F86E
:102130001451C3F80411C3F81821C3F80421002C6A
:102140007FF4A3AD01230370BFF35F8F62B69CE5FC
:10215000594EE288338863449A4291DDA3896345EE
:1021600000F096804FF400714FF48042504BC3F85A
:102170001811C3F81821EFF3108072B6BFF35F8F08
:1021800000244C490C70C3F8042100287FF47DAD75
:1021900001230B70BFF35F8F62B676E5EFF3108417
:1021A00072B6BFF35F8F4348444903708B780133A5
:1021B0008B70002C7FF479AD01230370BFF35F8F28
:1021C00062B672E5002302213B4C3D482380038028
:1021D00029703C4ABDE8F0411047EFF3108572B614
:1021E000BFF35F8F3348354904708B78013B8B70A8
:1021F000002D7FF433AD01230370BFF35F8F62B610
:102200002CE503240470EFF3108572B6BFF35F8FE3
:10221000284C4FF4806023704FF400664FF4004365
:10222000C2F81801C2F81461C2F80401C2F81831EA
:10223000C2F80431002D7FF428AD2170BFF35F8F09
:1022400062B622E503212970EFF3108472B6BFF362
:102250005F8F4FF4806117484FF4006502704FF4B0
:102260000042C3F8181162E74FF40063164D174897
:10227000C4F808310EEB4E0EC4F814313A462B4622
:1022800000EBCE00BDE8F0411847A7F800C0F7E624
:102290006369002B3FF4FCAE984700283FF4F8AE8A
:1022A0000022338839883A800B4433805AE700BFD4
:1022B00000400A400C030020081300207413002083
:1022C000061300209D190800A91708000C13002010
:1022D0002DE9F041EFF3108672B6BFF35F8F002156
:1022E000294B2A4C1A782170002A3BD00125284A14
:1022F0001D201D704FF00808904702274FF0040E74
:102300004FF0100C2021234B1D201A6842F400626C
:102310001A601A6822F400721A601A6942F01002F8
:102320001A611A6942F002021A611A6942F0200227
:102330001A611A6942F008021A611A6942F004022D
:102340001A61C3F81880144AC3F818E0C3F818C01B
:102350009F61996190471EB92570BFF35F8F62B688
:10236000BDE8F081EFF3108072B6BFF35F8F0B49C9
:1023700022708A7801328A700028B7D10122227037
:10238000BFF35F8F62B6B1E7051300200C03002096
:102390005D2F080000400A40812F080074130020C0
:1023A000F8B5254B9847254B1D209847EFF310862D
:1023B00072B6BFF35F8F00244FF0500E4FF0005CF9
:1023C0001F4A204D117D204B21F00501117592F817
:1023D0002C102C7021F0050182F82C101A681B4F6C
:1023E00042F480721A6087F81DE3C7F800C0D3F882
:1023F000E0204FF4802022F00302C3F8E020144BC9
:102400009847144B1C70EFF3108172B6BFF35F8FC7
:10241000114A2C70D3780133D37021B901232B706A
:10242000BFF35F8F62B60D4B984726B901232B701F
:10243000BFF35F8F62B6F8BD492D08005D2F08001D
:102440000C1300200C03002000400A4000E100E0D3
:10245000B52F08000513002074130020D1220800B6
:1024600010B5164B1D209847154B1D201A681549AD
:1024700042F400721A601A6822F400621A608847F7
:10248000114B1A7812B900221A7010BDEFF31084A4
:1024900072B6BFF35F8F4FF0000C0C490C488A787E
:1024A000013A8A7080F800C0002CECD10122027041
:1024B000BFF35F8F62B600221A7010BD5D2F080057
:1024C00000400A40812F08000513002074130020EB
:1024D0000C030020024B586900F00100704700BF58
:1024E00000400A40084B00F07F001A6822F080028A
:1024F0001A601A6822F07F0202431A601A6842F0DA
:1025000080021A60704700BF00400A40024B186802
:1025100000F07F00704700BF00400A40024B58683F
:10252000C0F3CA00704700BF00400A40014B9860EA
:10253000998170473C13002000F00F02022A00D955
:102540007047012138B5530103F1402505F52025D9
:102550002B46541EC5F80811D5F8005104EB440071
:10256000074C25F0C00504EBC004C3F80051204619
:10257000044B9847237D6FF38203237538BD00BF5A
:102580000C130020A917080000F00F00430103F10D
:10259000402303F52023D3F81C319B0609D4064BB6
:1025A000013800EB400003EBC000007DC0F3800069
:1025B00070470120704700BF0C13002000F00F038C
:1025C000022B2CD830B5254D590105EB431EDEF802
:1025D0001C21920621D4224C5A1E02EB420204EB2B
:1025E000C20C9CF8144014F0040216D1E40718D46D
:1025F000020618D44FF40055202401F1402303F5BE
:102600002023D3F80821012022F00202C3F8082178
:10261000C3F81851C3F8144130BD012030BD00206B
:102620007047104630BDDEF81C2112F4402FE1D077
:102630004FF480244FF480729CF81410012041F074
:1026400004018CF8141003F1080105EB41114C60F2
:10265000296902FA03F30B432B6130BD00400A40A5
:102660000C13002000F00F0002285AD870B500F1BA
:10267000FF3C2D4C0CEB4C0104EBC1010B7D4FEAF0
:102680004C025D0726D54FF480264FF4807E0B7DEB
:102690000EFA00FE6FF382030B752449430101EB30
:1026A0004015C5F80861086920EA0E000861D5F8F0
:1026B0001C118D0617D402EB0C0304EBC302117D31
:1026C000DB00C80704D56FF30001E3581175984784
:1026D000012070BD430103F1402101F52021D1F813
:1026E0001C118906F4D503F1402101F52021D1F810
:1026F0001C01860406D54FF40050C1F81801402093
:10270000C1F81801202003F1402101F520210B46DA
:10271000C1F81801D1F8041141F00201C3F8041105
:10272000C9E70020704700BF0C13002000400A409A
:1027300000F00F00022857D82DE9F0414FEA401C65
:102740000CF1402C0CF5202CDCF80C41E50748D5A9
:10275000DCF81C41A40644D4451E284E05EB450C6C
:1027600006EBCC0C9CF814406F0014F0040E38D12A
:10277000EFF3108472B6BFF35F8FDFF8848088F8C0
:1027800000E09CF814E01EF0010F29D19CF814E041
:102790004EF0010E8CF814E02CB9012488F80040AA
:1027A000BFF35F8F62B64FF0000CDDF818E07C19C4
:1027B00046F834E006EBC404C4E90123C4E903CCC1
:1027C00011B9B3FA83F149097B1906EBC3031A7DEA
:1027D00061F341021A750B4988470120BDE8F08179
:1027E00024B10020BDE8F08100207047012388F863
:1027F0000030BFF35F8F62B62046F3E70C13002072
:102800000C030020E91708002DE9F04F00F00F0439
:10281000022C85B000F2D480650105F1402606F552
:102820002026D6F80C7117F0010740F0C98001F09E
:10283000030CBCF1010F00F0C780ACF1020CBCF13D
:10284000010F00F2BD8012F4C05E40F0B980F44682
:1028500005F1402606F52026D6F8003110F0800F4D
:1028600018BF0827090123F47F73B2F5806F01F0C8
:10287000300023F0030380F0BA80082A38BF082212
:102880005200013AB2FA82F2C2F11C02BEF1000F0C
:1028900001D040EA0C2003433B43134343F0400381
:1028A000C6F80031D6F80031002B80F289804FF055
:1028B000010C022300255C4FC6F804C107EB43104E
:1028C000D0F80C115E1EC9074FEA431214D502F16D
:1028D000402202F52022D2F800115B00C0F808C1A6
:1028E000C1F3811101FA03F3D2F800112B4321F057
:1028F000C0019DB2C2F80011F3B29C42DED94B4F29
:1029000004EB4406E0B2864607EBC60607E0013456
:102910005FFA84FEBEF1020F06F1180669D804F1D1
:10292000FF38620008EB480C45FA02F207EBCC0CCA
:102930004FEA480312F00302F3460CF11009039327
:10294000E5D0630103F1402303F52023D3F8001100
:102950009CF8140021F0C00141EA8212C3F8002162
:1029600001228246C3F80421D3F800216FF3000A44
:10297000002A00F0010089F804A03FDAD3F804210E
:1029800042F00202C3F804210028C0D056E9033205
:1029900056F8101C56F814CC11449A1A46F80C2C10
:1029A000CB1A624499F8041056F818CC7046CDF84A
:1029B00000C0C1F34001DFF878C0E0470028A6D18D
:1029C000002005B0BDE8F08F002C3FF43CAF02F4CE
:1029D000C053B3F5006F0ED0B3F5805F08BF4FF062
:1029E000030C22F4C0524FF0010E92B230E70722DE
:1029F0004CE70120E5E74FF0020CF2E7DCF800308D
:102A0000002BDDD0084A0834640112590120120756
:102A1000039A48BF4EF0800B424407EBC207F968A7
:102A20005A469847CCE700BF00400A400C130020EC
:102A3000312708000021174B00F00F0203EB0213AF
:102A4000000610B499600AD4134C1448531E03EBCB
:102A5000430300EBC3000121234610BC1847530178
:102A600003F1402303F52023D3F81C1111F4402F68
:102A7000EAD04FF4007403F58A7CCCF80040D3F818
:102A80001C118905FBD4D3F81C1111F4402FF4D18B
:102A9000DAE700BF00430A40A91708000C13002022
:102AA000074AD2F8E03023F0030343F00203C2F8F0
:102AB000E030D2F8E03043F00403C2F8E030704771
:102AC00000400A40074AD2F8E03023F0030343F005
:102AD0000203C2F8E030D2F8E03043F00803C2F855
:102AE000E030704700400A40044AD2F8E03023F05A
:102AF000030343F00203C2F8E030704700400A408D
:102B00002DE9F0438FB06E464FF00109EC46224F9D
:102B1000DFF888800FCF0FC60FCF0FC60FCF0FC6BD
:102B200097E8030046F8040B3170C8F80891D8F80C
:102B30000031CCF1005423F47F7323F0030343F0FE
:102B40006B03C8F80031C8F80491D8F8E0304FF0B2
:102B5000000E23F0030343F00203C8F8E030D8F876
:102B6000E0300DAD43F0100304F5C014C8F8E030B8
:102B700001E01CF801EFAC4504F80CE0F9D14FF48A
:102B800080614FF40062054BC3F81811C3F814219B
:102B90000FB0BDE8F08300BFB8A5080000400A40B0
:102BA000013802281AD8DAB12DE9F0410D46144651
:102BB0000C4FDFF83480561C01E0013C0BD0386824
:102BC000D8F8003015F8011B98470028A6EB04023E
:102BD000F3DA4FF0FF321046BDE8F0814FF0FF32DC
:102BE0001046704758130020541300201D2802D0AF
:102BF0001F2800D07047014B184700BF493108001B
:102C00001D2802D01F2800D07047014B184700BF75
:102C10002D3108001749184808B5814209D0174AD4
:102C2000904206D2013A121A22F00302144B0432E7
:102C300098471448144A904207D2013A121A22F0D7
:102C400003020021114B04329847114B114923F024
:102C5000604203F1604322F07F02B3F5004F8A60C7
:102C600003D28B6843F000538B600B4B98470B4BA0
:102C70009847FEE734AA080000000020500D00200D
:102C8000AD380800500D0020C41300209939080009
:102C90000000080000ED00E03D380800A502080033
:102CA0001420014B184700BF5D2F080010B543F6F4
:102CB000992C864602E0BCF1010C12D0DEF81040DF
:102CC000A407F8D5DEF80400800706D5120402F444
:102CD000702211430BB141F08071CEF80C1000202E
:102CE00010BD012010BD00BF00EB8100036B1AB1C5
:102CF00043F001030363704723F00103036370474C
:102D000000EB8100036B1AB143F0020303637047C9
:102D100023F0020303637047431E0B44B3FBF0F040
:102D2000431EFE2B94BF00B24FF0FF30704700BF30
:102D300000EB8101086B20F47F4008630B6B43EAD2
:102D400002230B63704700BF10B53E20074B984726
:102D5000074CA0470028FCD04FF47102054B064CED
:102D6000DA61A0470028FCD010BD00BFB12E0800DA
:102D7000D52E080000040E404D2F080070B51248F3
:102D8000124DA8473E20124B9847124CA0470028EE
:102D9000FCD04FF08070104B9847104CA047002893
:102DA000FCD00F4B98470F4B0F4A104C9A62A0472C
:102DB0000028FCD00E4B102098470E4B98472B460E
:102DC000BDE870400048184700D8B8051D01002034
:102DD000B12E0800D52E0800F52E0800E52E0800BB
:102DE0001D2F080000040E40013F0F202D2F08006A
:102DF000552E08005537080015490B6B23F00303C7
:102E000043F001030B638B6E1B0758BF4FF4006345
:102E100002D504E0013B16D08A6E1207FAD50C49A0
:102E20000B6B23F0700303430B63886E10F00800F4
:102E300008BF4FF4006302D007E0013B03D08A6E65
:102E40001207FAD57047012070470020704700BF75
:102E500000040E4015490B6B23F0700303430B6312
:102E60008B6E1B0758BF4FF4006302D504E0013B93
:102E700017D08A6E1007FAD50C490B6B23F00303A9
:102E800043F002030B63886E10F0080008BF4FF494
:102E9000006302D007E0013B03D08A6E1207FAD527
:102EA0007047012070470020704700BF00040E40AB
:102EB000074A0302116A9BB221F003010B4343F45A
:102EC0005C1343F001031362936EDB07FCD570477C
:102ED00000040E40024B986E00F00100704700BFE6
:102EE00000040E40024B986E00F48030704700BF23
:102EF00000040E40084B1B6A30B1074A43F0807350
:102F000043F45C1313627047034A23F0807343F465
:102F10005C131362704700BF00040E404FF0005274
:102F2000014B9A62704700BF00040E40024B986E3E
:102F300000F00200704700BF00040E40024AD3694F
:102F400023F48033D361704700040E40024B986E27
:102F500000F04000704700BF00040E401D280AD852
:102F60000123064A83409169002033EA010101D020
:102F70001361704770470120704700BF00040E4086
:102F80001D280AD80123064A83409169002033EAAC
:102F9000010100D07047536170470120704700BFA6
:102FA00000040E404FF48073014A83401360704761
:102FB00000040E40034BC0F312001A6F1043186751
:102FC000704700BF00040E400A490B4A0B6F43F4E0
:102FD00080130B67136923F00403136120BF4FF4C0
:102FE000FA7300BF013BFCD1024A136A1B07FCD5F0
:102FF000704700BF00040E4000ED00E0014B187860
:10300000704700BF5C130020024B1B7803B1704770
:10301000014B18475C13002045070800084B93F943
:1030200000201B78002A03F0600303DB402B05D04F
:1030300000207047402BFBD1024B1847024B18472A
:103040003C130020A107080051070800064B10B5EB
:103050009847064AC37813700BB1012010BD044B8A
:10306000BDE81040184700BF050F08005C130020A2
:103070001D07080030B58446154683B00B466246EE
:103080000021034C00958120A04703B030BD00BF54
:103090003127080030B58446154683B00B4662469A
:1030A0000021034C00950220A04703B030BD00BFB3
:1030B0003127080038B5A1F10E03012B17D9EFF322
:1030C000108572B6BFF35F8F00230A4CC9B223701C
:1030D000094B03EA02221143084B41F0B4419847DF
:1030E00025B901232370BFF35F8F62B638BD4FF05F
:1030F000FF3038BD0C03002000FFFF0079000020E6
:10310000C0F8A010704700BFC06C7047806C70475B
:10311000430903F5001303F206735B02DB6B00F057
:103120001F0023FA00F000F001007047012243095C
:1031300003F5001303F2067300F01F005B0202FAAE
:1031400000F01863704700BF0122430903F5001324
:1031500003F2067300F01F005B0202FA00F05863EE
:10316000704700BF430903F5001301F0F04203F27A
:103170000673B2F1205F4FEA432335D010B416D85E
:10318000B2F1006F1BD0B2F1805F15D14FF0010C8E
:1031900000F01F000CFA00F25A64186F1043186711
:1031A00011EA0C005A601BD05A6610BC704701F03F
:1031B000E042B2F1405F2FD0002010BC70474FF0CA
:1031C000010C00F01F000CFA00F25A64186F1C6F1B
:1031D000204020EA0200186711EA0C005A60E3D18F
:1031E0001A66604610BC7047012200F01F00824042
:1031F000C8075A644CBF5A661A6611F00A0F14BF0A
:103200001A625A62880722D4080748BFC3F884208C
:1032100001205A611A607047012200F01F008240AD
:1032200001F0605CC1F38004C9075A644CBF5A6660
:103230001A6654B95A65BCF1605F0CBF1A635A63D1
:103240001A611A60012010BC70471A65F3E7C3F8D1
:10325000802001205A611A60704700BF034602F0C7
:10326000F040B0F1205F29D010B410D8B0F1006F59
:1032700015D0B0F1805F0FD15964186F08431867FB
:1032800012F00100596015D0596610BC704702F069
:10329000E040B0F1405F25D0002010BC7047596479
:1032A000186F1C6F204020EA0100186712F001001F
:1032B0005960E9D11966012010BC7047D0075964E4
:1032C0004CBF5966196612F00A0F14BF1962596291
:1032D00090071ED4100748BFC3F88410012059611D
:1032E0001960704702F06050C2F38004D20759643D
:1032F0004CBF5966196654B95965B0F1605F0CBF8F
:103300001963596319611960012010BC7047196570
:10331000F3E7C3F88010012059611960704700BFBE
:10332000FEE700BF2DE9F04F0428044683B01BDC04
:10333000022828DC431E012B13D801208449854A2A
:103340000B6F23F480130B671369834923F0040385
:1033500013610870BFF35F8F62B6022C00F0CE805D
:1033600020BF03B0BDE8F08F0528FAD10120794ACB
:103370007949136943F0040313610870BFF35F8F49
:1033800062B620BFEDE772B6BFF35F8F0026012261
:10339000714DDFF8C8816E4B2E7088F800201F6ACF
:1033A0006F497048D3F830B0D0F800A0D1F8009041
:1033B0009E6A47F45C11DA6941F008011BF0020FC4
:1033C0000192196240F09180584610F0700F06D0BB
:1033D0005F4920F0700008638B6E1B07FCD5624BC1
:1033E0009847624B98475A498B6E9803FCD50B6AF5
:1033F00023F09B7323F4803343F45C130B62544932
:103400008B6EDA03FCD55748554B2AF47062026084
:10341000042C29F47060186007D10B6A23F45C1344
:1034200023F0010343F45C130B6201232B70BFF301
:103430005F8F62B64E4B984772B6BFF35F8F002323
:103440002B70BB075CD542494A480B6A18404A4B6F
:1034500003430B620B6A23F45C1323F0780343F4F9
:103460005C130B624549314021B10221384B46F0D3
:1034700000569E62019AD70303D5354B41F04001B7
:10348000DA610BF00303022B5CD0032B03D130482D
:10349000836E5C06FCD52E480BF07003046B24F0A1
:1034A000700423430363836E1A07FCD52D4B284A0F
:1034B000C3F800A0C3F80092C0F830B0936E1B07A9
:1034C000FCD5234A936E0B42FCD000262C4C88F886
:1034D000006023680BB19847266001232B70BFF36F
:1034E0005F8F62B603B0BDE8F08F2BF0030040F0B1
:1034F00001001863996E0A07FCD566E730BF30E714
:10350000FF07AFD512490B6ADC070CD40B6A23F412
:103510005C1323F0030343F45C1343F001030B62D9
:103520008B6ED807FCD50A490B6ADA0108D40B6AFE
:1035300043F09B7343F480330B628B6EDB03FCD54B
:10354000034987E70248836E9E07FCD5A3E700BFC7
:1035500000040E4000ED00E00C0300205D1300208D
:10356000000A0E4000080E401D2F08003D2F0800E5
:10357000C92F0800FCFFC8FE020037010000FF074A
:1035800060130020024B187880F00100704700BFE4
:103590005D1300200C4A034610680C4930B1034407
:1035A0008B42CCBF4FF0FF301360704710B4084C13
:1035B00023448B421460D8BF13602046C8BF4FF02D
:1035C000FF3010BC704700BF64130020FCFF0720D1
:1035D000001508204FF0FF30704700BF4FF4005334
:1035E00000204B60704700BF0120704700207047EB
:1035F000014608B50148024B9847FEE7F0A50800D0
:1036000085380800704700BF4FF0FF30704700BF9B
:1036100070B54FF06051144C1D20A0474FF0605121
:103620001F20A0474FF040511820A0470F4B1820F3
:1036300098474FF060511420A0470D4D1420A84723
:103640004FF060513120A0473120A8474FF4C051BE
:10365000084B4FF00062084898472346BDE8704089
:103660004FF0805138201847653108004931080073
:103670002D3108005D320800000C0E404FF400426E
:1036800010B5064B064C5A650A20A0470B20A047F0
:103690000C20A047BDE81040024B184700120E4016
:1036A0005D2F0800113608000C4B1A6822B9EFF3A1
:1036B000108129B10A490A701A6801321A607047EC
:1036C00010B472B6BFF35F8F0120064C044A21701C
:1036D00010701A6801321A6010BC7047681300201D
:1036E0006C1300200C030020074B1A68013A1A6083
:1036F0001B6843B9054B1B782BB10122044B1A7090
:10370000BFF35F8F62B67047681300206C13002010
:103710000C0300202DE9F041A0B9002A90460DDDF0
:103720000C460A4F0A4E8D1821463868336801341A
:103730009847AC42F8D14046BDE8F081804640460B
:10374000BDE8F0814FF0FF38F5E700BF58130020C7
:1037500070130020314A136B03F00303012B2CD0AC
:10376000023B012B1ED8136AD90138D52C482D4BAA
:1037700003602A4A136B03F00303022B3CD02A4B4D
:1037800026490A6B02F07002702A05D00A6BC2F358
:103790000212D34003607047244AA2FB03235B0854
:1037A00003607047224B1E485B6A13F0800F14BF02
:1037B0004FF400434FF4FA43E2E7136ADB010BD402
:1037C000126A02F07002102A21D0164B19491448CF
:1037D000202A18BF0B46D3E7124B1148D0E7154BF0
:1037E0000F480360136A03F07003102B12D0202BD4
:1037F000BFD10C4B0360BCE7916A0368C1F30A4177
:1038000001FB0333926AD2B2B3FBF2F3B8E70A4B7F
:103810000348B5E7084B0360ABE700BF00040E4068
:1038200010030020001BB700001C4E0EABAAAAAA72
:1038300000120E4000093D0000127A0070B50D4ED6
:103840000D4D761BB61006D0002455F8043B01340C
:103850009847A642F9D1094E094D07F0D5F8761BD5
:10386000B61006D0002455F8043B01349847A64210
:10387000F9D170BD14AA080014AA08001CAA0800F7
:1038800014AA08000FB400B5074A83B004AB10684F
:1038900053F8042B8168019301F0E2FE03B05DF858
:1038A00004EB04B0704700BFA0030020844641EA47
:1038B000000313F0030349D1403A23D30B6803609C
:1038C0004B6843608B688360CB68C3600B6903619E
:1038D0004B6943618B698361CB69C3610B6A036286
:1038E0004B6A43628B6A8362CB6AC3620B6B03636E
:1038F0004B6B43638B6B8363CB6BC3634030403153
:10390000403ADBD230320BD30B6803604B68436024
:103910008B688360CB68C36010301031103AF3D2EB
:103920000C3205D351F8043B40F8043B043AF9D279
:10393000043208D0D2071CBF11F8013B00F8013B4C
:1039400001D30B8803806046704700BF082A13D359
:103950008B07B1D010F00303AED0C3F10403D21A29
:10396000DB071CBF11F8013B00F8013BA4D331F881
:10397000023B20F8023B9FE7043AD9D3013A11F801
:10398000013B00F8013BF9D20B7803704B78437090
:103990008B78837060467047830730B548D0541EDB
:1039A000002A3FD00346CAB201E0013C3AD303F8F3
:1039B000012B9D07F9D1032C2DD9CDB245EA052560
:1039C0000F2C45EA054536D9A4F1100222F00F0C60
:1039D00003F1200EE6444FEA121C03F1100242E903
:1039E000045542E9025510327245F8D10CF101023A
:1039F00014F00C0F03EB021204F00F0C13D0ACF117
:103A0000040323F003030433134442F8045B93429A
:103A1000FBD10CF003042CB1CAB21C4403F8012BF7
:103A20009C42FBD130BD64461346002CF4D1F9E72B
:103A300003461446BFE71A46A446E0E70EB430B585
:103A400004466FF000459CB00B4A1FAB0B49059232
:103A500053F8042B086802A9CDE9013407950495B1
:103A6000069400F06FF80022029B1A701CB0BDE8AB
:103A7000304003B0704700BF0802FFFFA0030020E2
:103A800020F0030110F00300C0F1000051F8043BE6
:103A900000F1040C4FEACC0C6FF000021CBF22FABC
:103AA0000CF213434FF0010C4CEA0C2C4CEA0C4C7A
:103AB000A3EB0C0222EA030212EACC1204BF51F873
:103AC000043B0430F4D0C2F1000102EA0102B2FA70
:103AD00082F2C2F11F0200EBD200704730B540EA1B
:103AE0000104A30722D1032A20D90B468446194694
:103AF00053F8045BA5F1013424EA050414F0803F77
:103B000015D1043A032A19464CF8045BEFD801F1A9
:103B1000FF3E52B163461EF8011F541E03F8011BFD
:103B200041B122469C46002AF4D130BD844601F1C1
:103B3000FF3EEEE76244002CF7D003F8011B9342EE
:103B4000FBD130BD2DE9F04FD5B00C460C9191461C
:103B50000E930A9004F0EEF9036818461793FFF7E6
:103B60008FFFA3891690190603D52369002B00F057
:103B70008F8700242BAB224698464D46CDE9294439
:103B80002893129400230024CDE914342B78CDE936
:103B90001922CDE91B2218920892002B00F0CE8149
:103BA000AA4604E01AF8013F002B00F00981252BFA
:103BB000F8D1BAEB050640F007819AF80030002BE7
:103BC00000F0BC8100234FF0FF324FF02B0920247E
:103BD0001F469AF8016007920AF1010A8DF88330B6
:103BE00009930AF1010AA6F120035A2B00F2208161
:103BF000DFE813F0CA021E011E01C5021E011E01EC
:103C00001E01A3021E011E016A00F3021E014702EB
:103C1000D9021E01D4025B005B005B005B005B000D
:103C20005B005B005B005B001E011E011E011E01AC
:103C30001E011E011E01B0011E010B027A00B0011F
:103C4000B001B0011E011E011E011E019E021E01D7
:103C50001E01B6001E011E011E0119021E014C02AA
:103C60001E011E013F071E011E011E011E011E0135
:103C70001E011E011E01B0011E010B027C00B001DD
:103C8000B001B00191027C0075001E0184021E018A
:103C90007002B8005E0275001E01190272001C0756
:103CA0001E011E011F071E0172000022A6F1300333
:103CB0001AF8016B02EB820203EB4202A6F1300319
:103CC000092BF5D909928EE70E9B53F8042B002A95
:103CD00009920E93C0F2D2819AF8006081E79AF8B7
:103CE000006047F020077CE747F01007BA060E9BFC
:103CF00040F17D81073323F007031A465B6852F8D1
:103D0000084B99460E92002BC0F27F85079B01332A
:103D100001F0398054EA090327F0800B00F0058593
:103D20000A2C79F1000380F0938701235F46303439
:103D30008DF84F410B930DF24F15079A0B99002305
:103D40008A42B8BF0A4606929DF883200D930F93CE
:103D500013931093002A7CD0069B0133069378E0DE
:103D600047F0100717F0200900F032810E9B07334F
:103D700023F00703D3F8049053F8084B0E93002365
:103D800027F4806B00228DF88320079A511C00F0E5
:103D90002A8254EA09012BF0800740F02382002A8E
:103DA00041F02B80002B40F0C5841BF001030B93E6
:103DB00000F0548530230DF24F158DF84F31BCE7DC
:103DC000BAEB050600F0BA802A9BC8E900563344D6
:103DD0002A93299B0133072B299305DC08F1080856
:103DE000089B33440893E8E60C990A9828AA05F042
:103DF000D1FA80B90DF1AC08F2E70C990A9828AA1B
:103E000005F0C8FA002800F08A800D9B1BB10D99BF
:103E10000A9803F0EDFD0C9B9B8913F0400F089B63
:103E200018BF4FF0FF330893089855B0BDE8F08FE6
:103E3000002E00F08380012300228DF8EC600693B1
:103E40003BAD8DF883200B930D9207920F92139246
:103E5000109217F0020302D006990231069117F072
:103E6000840B07D109990698A1EB0009B9F1000F5D
:103E700000F336832A9C82B10122C8F80420299AD3
:103E8000013401320DF18301072A2A942992C8F8DE
:103E9000001000F3698308F108087BB10223C8F819
:103EA0000430299B0234013321AA072B2A94299339
:103EB000C8F8002000F36C8308F10808BBF1800FFC
:103EC00000F02E82079B0B9AA3EB020BBBF1000FB5
:103ED00000F37182FB0500F1C5810B9BC8F800500F
:103EE0001C44C8F80430299B2A940133072B2993DA
:103EF00000F3EA8208F108087B0705D5099B069ABA
:103F00009D1A002D00F35083DDE9083206998A429C
:103F1000ACBF9B185B180893002C7FF46EAF002396
:103F200029930D9B1BB10D990A9803F061FD55462D
:103F30000DF1AC082B78002B7FF432AE2A9B002BBE
:103F40003FF469AF0C9C0A98214628AA05F022FA92
:103F5000A38962E70E9B073323F00702F2E80234DD
:103F6000CDE91434DDE9143424F0004499461846B0
:103F70000E9221464FF0FF32B64B06F04BF9002867
:103F800040F09684484621464FF0FF32B14B06F090
:103F900023F9002840F08C84DDE91401002200237D
:103FA00006F010F9002840F0A6879DF88320002134
:103FB0000320A94DA94B27F080070D910690472EAD
:103FC000C8BF1D4607910B900F9113911091C1E648
:103FD00017F0100340F0628417F0400200F07B8776
:103FE0000E9A994652F8044B0E92A4B2C7E653F8C3
:103FF000044B0E93FB0600F141847D0640F13B84A7
:1040000044F3C0394B4624B27DE6012000220E9BCA
:10401000069053F8041B3BAD8DF883208DF8EC100F
:104020000E930B9010E74FF000090E9C079B54F87D
:10403000045B8DF88390002D00F0EE865A1C00F092
:1040400060851A464946284604F0B2FA0D900028C9
:1040500001F09E800D9B9DF883205B1B0B9323EA50
:10406000E373CDF81C900E940693CDF83490CDF800
:104070003C90CDF84C90CDF840906BE6099B5B42AC
:1040800009939AF8006047F00407AAE547F0100B7F
:104090001BF0200900F0AA830E9B073323F00703CF
:1040A0001A4652F8084BD3F804900E92012369E6A1
:1040B000302278260E9B8DF8842053F8044B684AF2
:1040C0000E934FF00009022347F0020B8DF8856034
:1040D000189257E6BD0600F1D683FC0600F19386E0
:1040E000780600F15D87B90540F18D860E9B089931
:1040F00053F8042B554611700E931BE79AF8006095
:104100006C2E03BF9AF8016047F020070AF1010AFC
:1041100047F0100765E59AF80060682E03BF9AF82B
:10412000016047F400770AF1010A47F0400758E5BB
:104130009AF8006047F0080753E50A9E304603F0FE
:10414000F9FE436818461B93FFF79AFC0346304676
:104150001C931E4603F0EEFE83681993002E3FF475
:10416000BBAD199B002B3FF4B7AD199B1B78002BFF
:104170003FF4B2AD9AF8006047F4806731E59AF8F1
:10418000006047F001072CE59DF88330002B7FF499
:10419000A3AD9AF800608DF8834022E59AF800609C
:1041A00047F080071DE5524612F8016B2A2E01F0F8
:1041B000EB81A6F13003092B924698BF002201F251
:1041C00003801AF8016B02EB820203EB4202A6F1B4
:1041D0003003092BF5D9079205E59AF800608DF8B0
:1041E0008390FEE4BB46012B3FF49AAD022B54AD05
:1041F00012D1189A04F00F03D35C240944EA09741D
:104200004FEA191905F8013D54EA0903F2D154ABFC
:104210005B1B5F460B9390E504F00703E40844EA58
:1042200049744FEAD909303354EA09012A4605F89E
:10423000013DF1D11BF0010FE9D0302BE7D0302345
:10424000023A05F8013C54AB9B1A5F4615460B93A6
:1042500073E500BFFFFFEF7F10A6080014A608005B
:1042600020A60800652E40F3E980DDE91401002254
:10427000002305F09DFF002800F0D2810123C8F83B
:104280000430299BBF4A01330134072B2A94299318
:10429000C8F8002000F37A8508F10808229B129ADA
:1042A000934280F2D782169B179A1C44C8E90023D8
:1042B000299B2A940133072B299300F3DD8308F10E
:1042C0000808129B5D1E002D7FF716AE102D41F3DE
:1042D0004181DFF8B492224649461026B946299B0F
:1042E0000F46DDF828B00C9C05E008F10808103DE9
:1042F000102D40F3588501331032072BC8E90076A2
:10430000CDE92932F1DD2146584628AA05F042F8C8
:1043100000287FF47AADDDE929320DF1AC08E6E73B
:10432000099B069AA3EB020BBBF1000F7FF7CAAD06
:10433000BBF1100F41F30580DFF84C924146204657
:10434000A8464C461023299A0C9DDDF8289006E0DB
:10435000ABF1100BBBF1100F01F1080119DD0132B7
:104360001030072AC1E90043CDE92920F0DD2946B4
:10437000484628AA05F00EF800287FF446ADDDE98E
:104380002920ABF1100BBBF1100F4FF010032BA93C
:10439000E5DC4546A1468846044601325C44072ACE
:1043A000CDE92924C8F80090C8F804B000F31885B6
:1043B00008F1080886E5BBF1100F40F39785DFF898
:1043C000C89141462046A8464C461023299A0C9D88
:1043D000DDF8289006E0ABF1100BBBF1100F01F1F6
:1043E000080119DD01321030072AC1E90043CDE987
:1043F0002920F0DD2946484628AA04F0CBFF0028F2
:104400007FF403ADDDE92920ABF1100BBBF1100FF8
:104410004FF010032BA9E5DC4546A146884604462B
:1044200001325C44072ACDE92924C8F80090C8F875
:1044300004B000F3CE8108F108084BE5129B012B74
:1044400040F37E810123299E01341E44072EC8F8C3
:1044500000502A94C8F80430299600F3E18108F14D
:104460000808169B0136179A1C44072EC8E900233A
:10447000CDE9296400F3E18108F108080022DDE9B3
:104480001401002305F094FE002840F07681129B71
:104490000136013B01351C44072EC8F8005029960F
:1044A000C8F804302A9400F35B8108F108081A9BCD
:1044B00001361C44C8F80430072E24ABCDE929642A
:1044C000C8F800307FF716AD0C990A9828AA04F0B6
:1044D00061FF00287FF499AC2A9C0DF1AC080BE534
:1044E000B9F1100F40F35086DDE929214046CDE9AE
:1044F0001D36B84610244F460C9EA9460A9D04E07E
:10450000103F102F00F1080016DD01321F4B103153
:10451000072AC0E90034CDE92921F1DD31462846DA
:1045200028AA04F037FF00287FF46FACDDE92921C9
:10453000103F102F2BA8E8DC4D46DDE91D36B946AB
:104540004746804609EB010401321049072ACDE9AC
:104550002924C8F80490C8F8001000F3C3839DF81C
:10456000832008F1080886E40C990A9828AA1D936C
:1045700004F010FF00287FF448AC2A9C1D9B0DF12D
:10458000AC088AE450A6080064A6080054A60800F7
:104590000C990A9828AA04F0FDFE00287FF435AC97
:1045A0002A9C0DF1AC0889E4102D40F3C486102636
:1045B000299B0A9FDDF8309004E0103D102D08F192
:1045C000080817DD0133B84A1034072BC8E9002664
:1045D000CDE92934F1DD4946384628AA04F0DAFE4F
:1045E00000287FF412ACDDE92934103D102D0DF1C7
:1045F000AC08E7DC0133AC4A2C44072BCDE9293465
:10460000C8F80450C8F800207FF77EAC0C990A98CF
:1046100028AA04F0BFFE00287FF4F7AB2A9C73E4BD
:104620002299002940F36F83DDF84090129B994551
:10463000A8BF9946B9F1000F0BDD299B4C4401330B
:10464000072BC8E900592A94299300F31D8508F126
:104650000808109EB9F1000FA8BFA6EB0906002EAE
:1046600000F32582DDF840B07805AB4400F15F82AD
:10467000229B129A934202DBF90740F17684169A44
:1046800017991444C8E90012299A2A940132072A7A
:10469000299200F3138508F10808129AAE18A6EBC8
:1046A0000B06D51AAE42A8BF2E46002E0DDD299B63
:1046B00034440133072BC8F800B0C8F804602A94CA
:1046C000299300F3718508F10808002EA8BFAD1BDF
:1046D000002D7FF711AC102D40F33C87DFF8CC9113
:1046E000224649461026B946299B0F46DDF828B0D8
:1046F0000C9C05E008F10808103D102D40F3538391
:1047000001331032072BC8E90076CDE92932F1DDFB
:104710002146584628AA04F03DFE00287FF475ABD8
:10472000DDE929320DF1AC08E6E7079B002B7FF4A9
:10473000FCAA5F46002354AD07930B93FFF7FDBA25
:10474000FA073FF57FAE0123299E01341E44072E50
:10475000C8F800502A94C8F8043029967FF7A5AE0F
:104760000C990A9828AA04F015FE00287FF44DAB96
:10477000DDE929640DF1AC0899E6129B5D1E002D60
:104780007FF795AE102D40F3DF86224607974FF056
:10479000100BDFF818910A9C0C9F05E008F108083F
:1047A000103D102D40F37F8301361032072EC8E9EB
:1047B000009BCDE92962F1DD3946204628AA04F0A4
:1047C000E9FD00287FF421ABDDE929620DF1AC0899
:1047D000E6E70C990A9828AA04F0DCFD00287FF48B
:1047E00014AB2A9C0DF1AC08FFF774BB1BF010034F
:1047F0000E9A3AD11BF0400133D052F8044B99463F
:104800000E920123A4B2FFF7BDBA2D2364428DF8A6
:104810008330BB464FF0010369EB4909FFF7B5BA96
:104820000C990A9828AA04F0B5FD00287FF4EDAA97
:10483000DDE929640DF1AC0813E60C990A9828AA61
:1048400004F0A8FD00287FF4E0AADDE929640DF159
:10485000AC0813E6FD077FF54FAB24E554ADFFF739
:104860006CBA1BF4007940F08A8352F8044B0123A0
:104870000E92FFF787BAB80500F19B834FEAE479FF
:104880004B46FFF740BA0E9B089853F8041BC2171B
:104890005546C1E900020E93FFF74CBB0E9B53F83F
:1048A000044B0E93FFF76BBA54A6080064A60800E9
:1048B000DDE9140102460B4605F0ACFC002840F08F
:1048C000E985612E00F07D85412E00F08B84079BE9
:1048D000013300F08F8326F02003472B069300F06E
:1048E0008F85DDE9141247F480730F931346002B74
:1048F000C0F2B0850B9300238B461D930D93069B4E
:10490000462B00F0E983452B00F0468507990B9B69
:1049100001910221009126A9049123A9039122A9C2
:104920005A460A98029101F0BBFE069B0546472BAA
:1049300040F03A8617F0010FB9460F9F40F0FE8411
:10494000269B5B1B1293069B472B00F06E83069BF6
:10495000462B00F0F083229B1093109B069A013B9C
:10496000412A229300F0BB850021F2B2002B8DF882
:104970009020B6BF2D222B22109B8DF89120B8BF1E
:10498000C3F10103092B40F39B850DF19F0C624697
:10499000B64F1C46104687FB0312D917C1EBA20184
:1049A00001EB8102A3EB42023032632C00F8012CB0
:1049B0000B4600F1FF32ECDC3033811EDBB28C455C
:1049C00002F8013C40F2F9850DF1920101E012F884
:1049D000013B944501F8013BF9D10DF1A1030DF123
:1049E00092021B1A134424AA9B1A1A93129B1A9A16
:1049F000012B1A440B9240F381850B9B169A1344AA
:104A00000B9300230B9A29F4806722EAE27247F4A1
:104A100080770F930692139310931D9B002B40F009
:104A20002C839DF883200793FFF794B9BB46FFF7CB
:104A30002FBB8F4B189317F0200900F0F5800E9BC9
:104A4000073323F00703D3F8049053F8084B0E9371
:104A5000F80709D554EA090306D030238DF885609C
:104A600047F002078DF88430022327F4806BFFF7AC
:104A700089B9804B1893DEE70C990A9828AA04F0AC
:104A800089FC00287FF4C1A92A9C0DF1AC0818E428
:104A900040210A9803F0CAFA0C9B1860186100289C
:104AA00000F0978540230C9A5361FFF762B8102EEF
:104AB00040F37685DFF8C091424648462146A84635
:104AC000B9464FF0100B0746299B0A9C0C9D04E049
:104AD0000832103E102E40F3138201331031072BA1
:104AE000C2E9007BCDE92931F2DD2946204628AA1A
:104AF00004F050FC00287FF488A9DDE929312BAAB5
:104B0000E7E72846CDF81C900E94FEF7B9FF20EA9F
:104B1000E0739DF883200B90CDF83490CDF83C9055
:104B2000CDF84C90CDF840900693FFF713B9129B47
:104B30004246DDF84C80EB185E460793CDF82CA07A
:104B400010972146199FDDF87090DDF828A0DDF858
:104B500030B00F9B1395B8F1000F2ED083BB013FEF
:104B600008F1FF381B9B4944C2E90039299B2A916F
:104B70000133072B299360DC0832079B38789B1B95
:104B80008342A8BF0346002B1C460BDD299819441D
:104B900001300728C2E900632A91299000F31481AB
:104BA00038780832002CB4BF0546051B002D0BDCFD
:104BB00006440F9BB8F1000FD0D1002B00F02682E5
:104BC0000F9B013B0F93CDE7102D40F39D841024E4
:104BD000299804E0103D102D02F1080216DD013085
:104BE000254B10310728C2E90034CDE92901F1DD58
:104BF0005946504628AA04F0CDFB00287FF405A9A9
:104C0000DDE92901103D102D2BAAE8DC01301A4BFB
:104C100029440728CDE929015560136000F341823A
:104C2000387808320644C4E717F0100300F0A0807B
:104C30000E9B53F8044B0E930AE75946504628AA98
:104C400004F0A8FB00287FF4E0A82A992BAA94E797
:104C500000230BF480620696CDF82CA0CDF83480AA
:104C600092461E46DDF8648054AF14E067666666BF
:104C700020A6080034A6080064A6080000232046E9
:104C800049460A2205F004FB0A2C79F100031BD3E4
:104C9000044689462F4620460A220023494605F04D
:104CA000F7FA30327D1E013607F8012CBAF1000FF9
:104CB000E4D098F800309E42E0D1FF2EDED00A2CDE
:104CC00079F1000380F0308154AB5B1BDDF82CA040
:104CD000CDF8648012965F46069EDDF834800B9313
:104CE000FFF72BB80C990A9828AA1D9304F052FBE1
:104CF00000287FF48AA89DF883202A9C1D9B0DF133
:104D0000AC08FFF7B8B80123C8F80430299BBC4AA7
:104D100001330134072B2A942993C8F8002000F3AB
:104D2000178108F10808002940F08680129A07F0E0
:104D3000010313433FF4E0A8169B17991A19C8E919
:104D40000013299B2A920133072B299300F3378103
:104D500008F10808129901338C18072BCDE9293482
:104D6000C8F80050C8F804107FF7C4A8FFF7ACBB20
:104D700017F0400200F0A5800E9A994652F8044BB5
:104D80000E92A4B264E6BB46FEF7CABF0C990A981D
:104D900028AA04F0FFFA00287FF437A82A9C0DF116
:104DA000AC08FFF77BBA14463A464F4691460133AA
:104DB0002C44072BC8F80090C8F80450CDE92934DA
:104DC0007FF798A8FFF780BB5946504628AA04F001
:104DD000E1FA00287FF419A838782A992BAAE1E68D
:104DE0000C990A9828AA04F0D5FA00287FF40DA897
:104DF0002A9C0DF1AC08FFF765B8012BBB467FF488
:104E0000F5A9FEF792BF0E9B089953F8042B55465F
:104E100011600E93FFF78EB8062B294628BF062394
:104E20002A4607950D950693764D0E940B930F9198
:104E300013911091FEF78EBF169B17981A19C8E9A7
:104E40000003299B2A920133072B299300F3B78093
:104E500008F108080029BFF67DAF4E42103180F2FC
:104E6000A98341461024A846DFF89C91DDF828B0BC
:104E70000C9D04E00831103E102E40F3A782013350
:104E80001032072BC1E90094CDE92932F2DD294621
:104E9000584628AA04F07EFA00287EF4B6AFDDE971
:104EA00029322BA9E7E71446079F01362C44072E29
:104EB000CDE92964C8F80090C8F804507FF7F5AA36
:104EC0004EE417F400790E9B66D053F8044B9146DC
:104ED0000E93E4B2BCE517F400790E9B57D053F85B
:104EE000044B91460E93E4B2FEF749BF299ADFF8CE
:104EF0001891FFF795BA2D228DF88320FFF757B848
:104F0000454690463A460C464F4691460133344456
:104F1000072BCDE92934C8F80090C8F804605CDCA0
:104F200008F10808FFF79EBB1C9B1B99ED1A1A4657
:104F30002846FEF7D3FD98F801300BB108F10108BF
:104F4000204649460A220023002605F0A1F99FE6E3
:104F50000C990A9828AA04F01DFA00287EF455AF8F
:104F600022992A9C0DF1AC08DDE6129AAE18A6EB48
:104F70000B06D51AAE42A8BF2E46FFF7A6BB52F8C5
:104F8000044B894601230E92E4B2FEF7FBBE53F8B0
:104F9000044B0E93FEF7F3BE53F8044B0E9357E504
:104FA0000E9B089953F8042B554611800E93FEF77B
:104FB000C1BF44F3C0194B4664B2FEF7A4BE0C99BE
:104FC0000A9828AA04F0E6F900287EF41EAFDDE96D
:104FD000293222990DF1AC083CE70C990A9828AACD
:104FE00004F0D8F900287EF410AF2A9C0DF1AC082B
:104FF000FFF738BB0623079326F02003069370E4DF
:1050000050A6080048A6080064A60800DDE912358D
:10501000EB189E42B346199790460C4628BF9B4614
:10502000DDF82CA0109FFFF723BB229BDA1C109306
:1050300002DB079A934204DD023E26F0200306932A
:105040008BE4109B129A9342C0F2C28019F0010FB8
:1050500000F01D82169A13440B9319F4806F00F030
:105060001482109B6726002B76DC0B9B23EAE373EC
:10507000069300230F931393CFE42D2200238DF882
:1050800083200793FEF768BE0C990A9828AA04F0BB
:1050900081F900287EF4B9AE2A9C0DF1AC08FFF727
:1050A000D8BA5946504628AA04F074F900287EF46C
:1050B000ACAE38782A992BAA06447AE50C990A985E
:1050C00028AA04F067F900287EF49FAE229B2A9C50
:1050D0000DF1AC08FFF7E1BA07990B9B0191032191
:1050E000009126A9049123A9039122A95A460A985E
:1050F000029101F0D5FA03780546302B00F01682B4
:10510000229B079AB94613440F9FEC185846002279
:1051100000230B9905F04CF808B1234611E4269BB7
:10512000A342BFF40EAC30215A1C26921970269B64
:105130009C42F9D805E4229A002A109240F30E828C
:10514000079909F001030B4340F07E816626109B0E
:105150000B9319F4806F88D019990B78FF2B00F00E
:1051600025820024109A204604E001300131FF2BF3
:1051700000F05981934280F25681D21A4B78002B6D
:10518000F3D10B780134F2E7DDE92921FFF7DAB931
:10519000079B9DF883200E9406930B9307900F9026
:1051A00013901090FEF7D6BD0C990A9828AA04F027
:1051B000F1F800287EF429AE229D129B2A9C0DF165
:1051C000AC085D1BFFF781BA00230793FEF70BBD08
:1051D000129B169A9A18109B0B92002B40F3858114
:1051E0006726B6E730238DF8843058238DF8853054
:1051F000079B47F00204632B00F3C48000233BAD00
:105200000D9347F481730F93DDE914121346002BBD
:105210002746C0F284800B9300238B461D9326F013
:1052200020030693612E00F01881412E7FF467ABB6
:1052300022AA58460B9904F01DF800224FF07F5324
:1052400004F04EFD02460B46CDE910230022002358
:1052500004F0AEFF08B101232293AD4B0B93079BE3
:10526000CDE912A6CDE91E78DDE91067AB46DDF881
:105270002CA003F1FF39109506E00022002309F16C
:10528000FF3904F095FFE8B90022A24B30463946B9
:1052900004F026FD0F46064604F0D2FF044604F053
:1052A000B5FC0B4602463946304604F061FB1AF85D
:1052B0000430B9F1FF3FD8464D4606460F460BF87D
:1052C000013BDAD1304639460022934BA946DDF83E
:1052D00048A0109DCDF84880CDE91001DDF87C8014
:1052E000139E1E9F04F08CFF80BBDDE9100100229D
:1052F000894B04F05DFF08B1E10727D44B46002B32
:1053000006DB302201335B440BF8012B5B45FBD1FC
:10531000ABEB0503B94612930F9FFFF714BB26F0C2
:10532000200306932D22DDE914349B4604F100434B
:105330001D920B9376E7299BFFF75CB9079BEC184E
:10534000E4E6299ADFF8D491FFF727B8129B269359
:105350000B9B1BF8012CD97B5B468A4209D130207C
:1053600003F8010C269B5A1E269213F8012C914239
:10537000F6D0392A0BBF0B9A0132927AD2B203F8D7
:10538000012CC5E70A98591C02F050FE054600287A
:1053900000F017810D9034E70221009107995A46D9
:1053A0004C1C26A9049123A9039122A90B9B0A98BE
:1053B0000194029101F074F90546B9462C440F9FFF
:1053C000A4E630238DF8843078230FE745468846DD
:1053D00001333244072BCDE92932C8F80090C8F8D0
:1053E00004607FF7B5AC0C990A9828AA03F0D2FFA5
:1053F00000287EF40AADDDE929320DF1AC08A9E4FC
:10540000079B002B08BF0123079347F480730F937A
:10541000159B002BC0F2B680DDF850B00D900B93B9
:105420001D90FFF773BA1991109213900F940F9A71
:10543000139B1C9913440B9A01FB03230B9323EA40
:10544000E3730693FFF7E9BA169B6626D31819444F
:105450000B917EE600230D9364E722AA58460B9930
:1054600003F008FF00224FF07F5304F039FC02469E
:105470000B46CDE910230022002304F099FE08B169
:1054800001232293264B0B93E9E66726EDE5109B5B
:105490000B93E2E5159B0320002BB8BF2D224FF0A4
:1054A0000003A8BF9DF8832019460D931D4D1E4B88
:1054B000B8BF8DF8832027F080070690FEF77FBDE8
:1054C000002944D130228DF892200DF1930230331F
:1054D00002F8013B24ABD31A1A93FFF787BA06F1FF
:1054E0000F020121D2B2FFF741BAC3F101031A44FE
:1054F00022EAE27367260B920693BAE519F0010FD0
:105500003FF47FAAFFF779BA2998FFF77FBB00BF66
:1055100034A60800000030400000E03F64A6080008
:1055200020A6080018A608001CA60800584600225D
:1055300000230B9904F03CFE00287FF4E1AD079BAB
:10554000C3F101032293DCE5DFF89890ADE40DF19F
:105550009202BCE7299BDFF88C9028E4079A09F0B7
:10556000010959EA020304D10123662606930B932D
:105570007FE5169B662601331A4422EAE2730B92FA
:10558000069376E50D90CDE60E9B9AF80160924663
:1055900053F8042B0E9342EAE2730793FEF721BB04
:1055A000299BDFF84090B1E4079C06E700230F93A6
:1055B00013933CE7DFF82C900AE702231A93FFF7D6
:1055C00015BA0C998B8943F0400213468A81FEF785
:1055D00024BC4FF0FF320C2308920A9A1360FEF7A6
:1055E00023BC00BF64A608002DE9F84F4B6E90461F
:1055F0009C042DD59368126843B38B46064602F18E
:10560000080959E9025A5FEA9A0715D00024043DB7
:1056100001E0A7420ED05A46304655F8041F02F06A
:1056200063F9431C04F10104F3D10023C8E90133F9
:10563000BDE8F88FD8F808302AF0030AA3EB0A0374
:10564000C8F8083009F10809002BDAD10020ECE78E
:1056500002F0CEFA0023C8E90133BDE8F88F00BF9D
:105660002DE9F04FBDB01C461746CDE9053002913B
:1056700018B1836B002B00F07782029A536EDE071D
:1056800040F18481B2F90C108AB2900408D441F43C
:10569000005202994B6E8A8123F4005392B24B66FA
:1056A000110740F1EC80029B1B69002B00F0E780A2
:1056B00002F01A030A2B00F0F08013AB10930023C2
:1056C000CDE91133CDE90933CDE90B330DF14C09A7
:1056D00004933B78002B00F046813C4604E014F82C
:1056E000013F002B00F02181252BF8D1E51B40F074
:1056F0001E812378002B00F036814FF00003002537
:105700004FF0FF3B4FF02B088DF83B30637803954B
:10571000671C0137A3F120025A2A00F24681DFE814
:1057200012F0A102440144019D02440144014401DC
:105730007C02440144016A00530244012902AF0281
:105740004401AB025B005B005B005B005B005B0045
:105750005B005B005B0044014401440144014401DF
:10576000440144014401440113027800440144010E
:105770004401440144014401440144014401440101
:10578000D100440144014401F701440141024401B4
:105790004401210544014401440144014401440100
:1057A000440144014401440113027A0044014401CC
:1057B000440137027A00740044012D024401690259
:1057C000D300570274004401F701720041054401FF
:1057D00044014305440172000021A3F1300217F88F
:1057E000013B01EB810102EB4101A3F13002092AE7
:1057F000F5D903918EE7059B53F8042B002A0392F9
:105800000593C0F2B4813B7883E73B7845F02005EF
:105810007FE745F01005AC06059E40F16B81073629
:1058200026F007063246736852F8086B98460592D0
:10583000002BC0F24984BBF1FF3F00F0318556EAEE
:10584000080325F0800A00F025840A2E78F1000371
:1058500080F0E1840123554630368DF8EF600193E6
:105860000DF1EF04DDF804809DF83B30D845B8BF5A
:10587000D846002B00F0A88008F10108A4E0029DA2
:105880000698294600F0FAFD002840F09485AA8980
:1058900002F01A030A2B7FF410AF0299B1F90E300F
:1058A000002BFFF60AAF4B6EDE0702D4950540F1E0
:1058B000628523463A46029906983DB0BDE8F04F0E
:1058C00000F09ABD45F0100515F0200800F00381A6
:1058D000059E073626F007063346D6F8048053F8AF
:1058E000086B0593002325F4806A4FF000028DF8C1
:1058F0003B20BBF1FF3F00F0DD8156EA08022AF0B1
:10590000800540F0D681BBF1000F40F0CC84002B25
:1059100040F0C5831AF00103019300F0EC833023BB
:105920000DF1EF048DF8EF309CE7E51B1BD0119BC8
:10593000129A01332A44072BC9E900751292119378
:1059400005DC09F10809049B2B440493D1E6002AE5
:1059500000F09C830299069810AAFFF745FE40B913
:105960000DF14C09EFE7129B002B40F01585002349
:105970001193029A536ED90740F1A28093895B0676
:1059800000F1258504983DB0BDE8F08F029BB3F986
:105990000C108D058AB23FF578AE1D46986D02F069
:1059A000D1FAB5F90C108AB26FE6002BDBD04FF0BC
:1059B00001088DF88C304FF0000323AC8DF83B309C
:1059C000CDF804804FF0000B15F00203079318BFC9
:1059D00008F1020815F08403089305D1039BA3EB9B
:1059E0000806002E00F38A82DDE91112481C9DF89A
:1059F0003B6076B1012101320DF13B060728CDE96C
:105A00001102C9E9006100F35882014609F1080951
:105A10000130079BD3B102230232C9F804300728B2
:105A20000FABCDE91102C9F8003040F36282002AC1
:105A300000F027830299069810AAFFF7D5FD0028E9
:105A400097D1DDE911120DF14C09481C089B802B00
:105A500000F07181019BABEB0306002E00F3CF81B8
:105A6000019B07281A44CDE91102C9F80040C9F882
:105A7000043040F35D81002A00F093820299069879
:105A800010AAFFF7B1FD00287FF473AF129A0DF151
:105A90004C09680705D5039BA3EB0804002C00F311
:105AA0008A82DDE903134145ACBF5B18434404938C
:105AB000002A40F0F38100230DF14C09119308E610
:105AC000029B9B899A053FF55AAF029CA06D02F09C
:105AD0003BFAA38953E715F0100340F0188315F043
