:0200000280007C
:1000000000040820613A080051280800512808001F
:10001000512808005128080051280800000000005D
:10002000000000000000000000000000512808004F
:10003000512808000000000051280800512808003D
:1000400051280800512808005128080051280800AC
:10005000512808005128080051280800512808009C
:100060005128080051280800493008006130080074
:10007000512808005128080051280800512808007C
:10008000512808005128080051280800512808006C
:10009000512808005128080051280800512808005C
:1000A000512808005128080051280800512808004C
:1000B00051280800514408005128080010B5054C8B
:1000C000237833B9044B13B10448AFF30080012304
:1000D000237010BD200E002000000000E4D30800B3
:1000E00008B5034B1BB103490348AFF3008008BDBB
:1000F00000000000240E0020E4D3080080B582B088
:1001000000AF78607B68072B2ED801A252F823F04D
:1001100067010800310108003901080041010800A9
:100120004901080051010800590108006101080057
:1001300000200F4B984717E001200D4B984713E024
:1001400000200C4B98470FE010200A4B98470BE01B
:100150002020084B984707E03E20074B984703E0D4
:10016000064B984700E000BF00BF0837BD4680BD82
:1001700079310800E531080059320800A932080039
:1001800080B582B000AF78607B68072B2FD801A2C2
:1001900052F823F0B5010800B9010800B9010800C0
:1001A000CB010800CB010800CB010800DD010800ED
:1001B000DD01080001231BE00F4B98470346002B8D
:1001C00014BF01230023DBB212E00C4B9847034617
:1001D000002B14BF01230023DBB209E0084B984732
:1001E0000346002B14BF01230023DBB200E00023F1
:1001F00018460837BD4680BDB131080041320800BD
:10020000F532080080B483B000AF78607B68072BBC
:1002100023D801A252F823F0390208003F02080057
:1002200043020800470208004B0208004F02080082
:1002300053020800570208004FF4FA430EE000236F
:100240000CE000230AE0084B08E0084B06E0084BEE
:1002500004E0074B02E0064B00E0002318460C3791
:10026000BD4680BC704700BF00093D0000127A0007
:10027000001BB70080B582B000AF0346FB7100BF22
:10028000FB791846064B9847034683F00103DBB21F
:10029000002BF5D100BF00BF0837BD4680BD00BFB1
:1002A0008101080080B586B000AFF8607A603B60DD
:1002B0000B46FB727B68002B07D13B68002B04D1F7
:1002C000FB684FF470021A601AE0FB7A18460E4B76
:1002D000984702467B68B2FBF3F37B617B693A681F
:1002E00002FB03F37B613B68013B1A04074B13409D
:1002F0007A68D2B2134343F47C52FB681A6000BFA1
:1003000000BF1837BD4680BD050208000000FF078A
:1003100080B582B000AF786039603B68002B08D1AF
:10032000094B98477B681B68084A43F00053936267
:1003300005E07B681B68054A43F48033D36100BF46
:100340000837BD4680BD00BF6533080000040E407D
:1003500080B582B000AF78607B68002B03D1054B7D
:100360009847034602E0044B98470346184608376F
:10037000BD4680BD7D330800B133080080B582B032
:1003800000AF0346FB71FB79033B042B08D8FB79D4
:100390001846064B9847FB791846054B984700E0EE
:1003A00000BF00BF0837BD4680BD00BFFD0008008C
:1003B0007502080090B585B000AF78607868214B71
:1003C00098470346002B39D17B68002B03D07B680C
:1003D000012B15D024E006201B4B98474FF080706E
:1003E0001A4B984700BF1A4B98470346002BFAD088
:1003F00007F10C00102301220621164CA0470FE044
:10040000154B98470346002B02D106200E4B984708
:1004100007F10C000023002206210E4CA04700BF6C
:1004200007F10C03796818460C4B984700BF7868B1
:10043000044B98470346002BF9D000E000BF143767
:10044000BD4690BD510308007D0308002533080018
:100450000D330800A5020800DD3208001103080072
:1004600080B48DB000AF786039607B68FB623B6818
:10047000BB62FB6A7B627B6A5A09FB6A3B623B6A2E
:1004800003F01F03012101FA03F3FA61BB61BB6AA8
:100490007B61FB693B613B6903F5001303F2067363
:1004A0005B02FB607B6903F00803002B03D0FB6851
:1004B000BA695A6602E0FB68BA691A667B6903F09A
:1004C0002003002B03D0FB68BA691A6502E0FB68C1
:1004D000BA695A657B6903F0C003002B03D0FB683F
:1004E000BA691A6202E0FB68BA695A627B6903F072
:1004F0008003002B04D0FB68BA69C3F8842003E0B2
:10050000FB68BA69C3F880207B6903F00103002B04
:1005100006D0FB681A6FBB691A43FB681A6706E0CE
:10052000FB681A6FBB69DB431A40FB681A6700BFA0
:1005300000BF00BF3437BD4680BC704780B582B075
:1005400000AF0346FB7172B600BFBFF35F8F00BF01
:10055000054B00221A70FB791846044B984700BFE0
:100560000837BD4680BD00BFCA03002061350800C2
:1005700080B483B000AF0023FB7106E0FB79084A2A
:100580000021D154FB790133FB71FB79042BF5D9A0
:10059000034B01225A7100BF0C37BD4680BC704727
:1005A0006014002080B483B000AF0023FB71094BBE
:1005B0003B6005E03B6801333B60FB790133FB7135
:1005C0003B681B78002BF5D0FB7918460C37BD46ED
:1005D00080BC70476014002080B582B000AF0B4B28
:1005E00098470346FB71FB79002B08D1084B012289
:1005F0001A70BFF35F8F00BF62B600BF03E0FB79E4
:100600001846044B98470837BD4680BDA50508002D
:10061000CA0300203D05080080B483B000AF7860B5
:1006200039607B6800221A6000BF0C37BD4680BC71
:100630007047000080B483B000AF78600B46FB7059
:100640007B681B6823F007027B681A60FB780A2B23
:1006500039D801A252F823F0850608008506080063
:10066000850608008F0608008F0608008F06080020
:100670008F0608008F0608009D060800AB060800DC
:10068000B90608007B681A687B681A601BE07B6803
:100690001B6843F001027B681A6014E07B681B68EA
:1006A00043F002027B681A600DE07B681B6843F030
:1006B00003027B681A6006E07B681B6843F0040253
:1006C0007B681A6000BF00BF0C37BD4680BC704716
:1006D00080B483B000AF786039607B681B6823F01A
:1006E00070027B681A607B681A683B681A437B68F3
:1006F0001A6000BF0C37BD4680BC704780B582B021
:1007000000AF7860396007497B681A683B6810332E
:1007100041F823203868044B984700BF0837BD468E
:1007200080BD00BF00040E406134080080B582B077
:1007300000AF0346FB71FB790A2B00F2A28001A2F5
:1007400052F823F07107080093070800B307080068
:10075000D3070800F307080013080800330808004F
:1007600053080800730808007B0808008308080085
:1007700000204E4B9847034683F00103DBB2002B69
:1007800000F0818000204A4B98470020494B984751
:1007900079E00120454B9847034683F00103DBB223
:1007A000002B72D00120424B98470120414B9847C3
:1007B0006BE002203D4B9847034683F00103DBB218
:1007C000002B64D002203A4B98470220394B9847BF
:1007D0005DE00320354B9847034683F00103DBB20D
:1007E000002B56D00320324B98470320314B9847BB
:1007F0004FE004202D4B9847034683F00103DBB202
:10080000002B48D004202A4B98470420294B9847B6
:1008100041E00520254B9847034683F00103DBB2F6
:10082000002B3AD00520224B98470520214B9847B2
:1008300033E006201D4B9847034683F00103DBB2EB
:10084000002B2CD006201A4B98470620194B9847AE
:1008500025E00720154B9847034683F00103DBB2E0
:10086000002B1ED00720124B98470720114B9847AA
:1008700017E00020104B984714E001200E4B9847DA
:1008800010E000BF0EE000BF0CE000BF0AE000BFB8
:1008900008E000BF06E000BF04E000BF02E000BFC8
:1008A00000E000BF00BF0837BD4680BD81010800E1
:1008B000FD00080075020800B503080080B400AF11
:1008C000054B4FF000725A63034B4FF080625A633E
:1008D00000BFBD4680BC7047000C0E4080B400AF26
:1008E000054B4FF000725A63034B4FF080621A635E
:1008F00000BFBD4680BC7047000C0E4080B400AF06
:10090000054B4FF080625A63034B4FF000721A633D
:1009100000BFBD4680BC7047000C0E4080B400AFE5
:10092000174B9B6B03F00073002B07D1144B9B6B91
:1009300003F08063002B01D100231CE0104B9B6B64
:1009400003F00073002B07D10D4B9B6B03F080630A
:10095000002B01D001230EE0094B9B6B03F00073C9
:10096000002B07D0064B9B6B03F08063002B01D15B
:10097000022300E0FF231846BD4680BC704700BF3D
:10098000000C0E4080B500AF3A4B98470821182064
:10099000394B9847394B4FF080725A61374B4FF0C3
:1009A00080725A66354B4FF08072C3F88420334B07
:1009B0004FF0C0621A61324B9847324B984709207A
:1009C000314B984731492920314B98472F492A20EC
:1009D0002F4B98472D492B202D4B98472B492C20E6
:1009E0002B4B984729492D20294B984727492E20E2
:1009F000274B984725492F20254B984723493020DE
:100A0000234B984721493320214B98471F493720D2
:100A10001F4B98471D4934201D4B98474FF04052BB
:100A200040F2BF111B481C4B984740F2BF111948B8
:100A30001A4B98474FF040512620154B98474FF0DE
:100A400060513120124B9847154A00211548164B2A
:100A50009847164A00211348154B9847154A00211C
:100A60001048154B9847032200210E48134B984716
:100A700000BF80BD4D29080061040800000C0E4035
:100A8000FD080800150E0800C93308000100000821
:100A9000652D0800000E0E40952E0800712C0800F0
:100AA0000001010100000E40B939080001010301F5
:100AB000E3390800020004000D3A0800373A080044
:100AC00080B483B000AF00237B6002E07B68013319
:100AD0007B607B68044A9342F8D900BF00BF0C37A3
:100AE000BD4680BC704700BF8FD0030080B586B084
:100AF00000AFF8600B467A60FB7207F11403F968E7
:100B000018460E4B9847FB7A18460D4B9847FA7AD1
:100B100007F11403114618460A4B984707F11403CE
:100B200079681846084B984707F11403F968184686
:100B3000064B984700BF1837BD4680BD1906080010
:100B40002D07080035060800D1060800FD0608003C
:100B500080B586B000AF3B46102118463B4B984706
:100B60003B4B01221A70BFF35F8F00BF62B600BF1C
:100B7000384B9847384B9847384B984700237B6150
:100B800011E07B69DB00364A98187B699B0007F10E
:100B90001802134453F8183C1A463249324B98470E
:100BA0007B6901337B617B69032BEAD92C4B0022E3
:100BB00083F8202000220A2101202C4B98472C4B3F
:100BC00098471D202B4B98471F202B4B98472B4BAA
:100BD00098472B4B98472B4B98472B4B98472B4BC1
:100BE00000221A700023FB74294B9847294BDB6BBA
:100BF00003F08073002B0CBF01230023DBB2BB7416
:100C0000BB7C002BF0D0244B984700BF214BDB6B03
:100C100003F08073002BF9D01C4B1B78002B12D0F3
:100C20001A4B1B78022B0ED81C4B98470346002BFF
:100C300002D0124B984706E0144B1B781A46184B0B
:100C400053F822309847144B9847CDE759280800AD
:100C5000CA03002071050800493F08008509080003
:100C60005C0200203CCF080091640800ED0A0800F7
:100C7000E51B0800052D0800352D0800BD080800FB
:100C8000011408003918080045190800D80F002081
:100C9000D9050800000C0E40C10A08001D09080013
:100CA0008002002080B584B000AF0346FB710023B2
:100CB000FB60094B9847094B1B78DBB2002B04D132
:100CC0000123FB60054AFB791370054B9847FB68CD
:100CD00018461037BD4680BD712908003C0E002023
:100CE000C929080080B400AF034B00221A7000BF6E
:100CF000BD4680BC704700BF3C0E002080B400AFF2
:100D0000034B1B78DBB21846BD4680BC704700BF62
:100D10003C0E002080B582B000AF78600C4B9B6B1E
:100D200003F040027B6803F03F031A437B685B00DB
:100D300003F4C073064913438B633120054B984776
:100D40003120054B984700BF0837BD4680BD00BF26
:100D5000000E0E40352D0800052D080080B483B02C
:100D600000AF78607B68072B23D801A252F823F0EC
:100D7000910D0800970D08009B0D08009F0D0800BD
:100D8000A30D0800A70D0800AB0D0800AF0D08006B
:100D90004FF4FA430EE000230CE000230AE0084B76
:100DA00008E0084B06E0084B04E0074B02E0064B66
:100DB00000E0002318460C37BD4680BC704700BFDA
:100DC00000093D0000127A00001BB70080B500AF9B
:100DD0000620034B984703461B01184680BD00BF01
:100DE0005D0D080080B500AF024B984703465B08D5
:100DF000184680BDCD0D080080B582B000AF786088
:100E00007868034B984700BF0837BD4680BD00BFD8
:100E1000C933080080B500AF4FF060511420034B78
:100E200098471420024B984700BF80BD652D0800ED
:100E3000052D080080B584B000AF1420144B9847EE
:100E4000144B3B60C0237B600023FB600023BB602E
:100E50000D20114B9847114B984702463B461946C7
:100E60000F48104B98474FF0006112200E4B9847E7
:100E70004FF0006111200C4B98470C4B4FF4C022EF
:100E80005A6007480A4B984700BF1037BD4680BDDF
:100E9000352D080080969800F90D0800E50D080032
:100EA0000000094035600800652D0800000C0E4068
:100EB0004561080080B500AF1420024B984700BF81
:100EC00080BD00BF052D080080B582B000AF03468D
:100ED000FB71FB7919460348034B984700BF08375D
:100EE000BD4680BD00000940DB61080080B483B0CE
:100EF00000AF78600B4B1B780F2B01D900230BE060
:100F0000084B1B785A1CD1B2064A11701946064A82
:100F10007B6842F82130012318460C37BD4680BC5F
:100F2000704700BF800E0020400E002080B483B0C8
:100F300000AF78600B4B1B780F2B01D900230BE01F
:100F4000084B1B785A1CD1B2064A11701946064A42
:100F50007B6842F82130012318460C37BD4680BC1F
:100F6000704700BFC40E0020840E002080B500AF83
:100F7000034B00221A70034B984700BF80BD00BF8F
:100F8000C50E0020F55E080080B500AF014B984704
:100F900000BF80BD0D5F080080B500AF084B1B7817
:100FA000DBB283F00103DBB2002B06D1054B98477F
:100FB00003461846044B984700E000BF80BD00BFC1
:100FC0009002002031480800215F080080B500AF82
:100FD000074B01221A70074B01221A70064A4FF480
:100FE00080610648064B98470123184680BD00BF24
:100FF000C50E002090020020151608005C1000208D
:101000004942080080B400AF034B00221A7000BFB1
:10101000BD4680BC704700BF9002002080B582B002
:1010200000AF0023BB71134B134A9A60114BDB884E
:10103000402B28BF40239AB20E4B9A810F4B1B784E
:10104000FB710FE0FB79013B0D4A52F823309847C2
:101050000346BB71BB79002B01D0012306E0FB796D
:10106000013BFB71FB79002BECD1002318460837BC
:10107000BD4680BD681400201C100020C40E002056
:10108000840E002080B582B000AF0023BB710E4BF0
:101090001B78FB710FE0FB79013B0C4A52F82330BF
:1010A00098470346BB71BB79002B01D0012306E0B2
:1010B000FB79013BFB71FB79002BECD10023184637
:1010C0000837BD4680BD00BF800E0020400E0020C6
:1010D00080B582B000AF78607B68072B2ED801A264
:1010E00052F823F03B110800051108000D1108000B
:1010F000151108001D110800251108002D11080008
:101100003511080000200F4B984717E001200D4BC8
:10111000984713E000200C4B98470FE010200A4B33
:1011200098470BE02020084B984707E03E20074BEC
:10113000984703E0064B984700E000BF00BF083720
:10114000BD4680BD79310800E531080059320800FC
:10115000A932080080B582B000AF78607B68072BA9
:101160002FD801A252F823F0891108008D11080030
:101170008D1108009F1108009F1108009F110800A1
:10118000B1110800B111080001231BE00F4B984773
:101190000346002B14BF01230023DBB212E00C4BEB
:1011A00098470346002B14BF01230023DBB209E05C
:1011B000084B98470346002B14BF01230023DBB2E2
:1011C00000E0002318460837BD4680BDB131080055
:1011D00041320800F532080080B582B000AF034606
:1011E000FB7100BFFB791846064B9847034683F016
:1011F0000103DBB2002BF5D100BF00BF0837BD46AD
:1012000080BD00BF5511080080B500AF014B984765
:1012100000BF80BD6947080080B500AF344B5B88D4
:10122000DBB2013B102B5FD801A252F823F000BFC4
:10123000751208008912080091120800E9120800CE
:10124000E9120800E9120800E9120800E912080092
:10125000E9120800E9120800E9120800E912080082
:10126000E9120800E9120800E9120800BF1208009C
:10127000E312080006201F4B984706201E4B984794
:1012800010201E4B984730E010201D4B98472CE053
:1012900001220C211B481C4B98471C4B984700BF50
:1012A0001B4B5B6803F40033002BF9D1184B1B6810
:1012B000174A43F0254343F005031360FEE7134B41
:1012C000984700BF124B5B6803F40033002BF9D141
:1012D0000F4B1B680E4A43F0254343F00503136090
:1012E000FEE70C4B984700E000BF00BF80BD00BF89
:1012F00068140020D1100800D911080079300800C6
:10130000F930080000080E40F12708000912080013
:1013100000120E40E50C080080B400AF094B01221A
:101320001A70084B32225A70064B00229A70064BF4
:10133000044A9A60044B03229A8101231846BD4651
:1013400080BC7047DC0F00206814002080B500AF1F
:1013500040220D490D480E4B98470C4B20221A7223
:101360000C4B37220C491846094B98470B4B074A40
:101370009A6006480A4B984703469AB2074B9A81EF
:101380000123184680BD00BF50CF0800DC0F0020AD
:1013900031650800E50F002044CF080068140020E4
:1013A000D564080080B400AF064B5B78222B04D1D3
:1013B000044B054A1A61012300E000231846BD468C
:1013C00080BC7047681400201912080080B500AF77
:1013D000084B5B78172B02D0402B04D007E0064B5C
:1013E0009847034604E0054B9847034600E0002376
:1013F000184680BD68140020191308004D1308001A
:1014000080B500AF0348044B98470448044B984705
:1014100000BF80BDCD130800ED0E0800A513080025
:101420002D0F080080B500AF0D4B5B88A22B0FD0AD
:10143000A22B11DCA02B02D0A12B03D00CE0094B76
:1014400098470AE0084B9847084B0A221A7004E0B4
:10145000064B00221A7000E000BF00BF80BD00BF35
:1014600068140020350E0800B50E0800C60E0020D6
:1014700080B582B000AF0E4B1B687B600C4B5B6885
:101480003B600C4B984700BF02200B4B984703462C
:10149000002BF9D03868094B9847094A79684FF012
:1014A000C040084B984700BF0837BD4680BD00BF0D
:1014B0001C100020E50C0800A50C0800150D080004
:1014C000D51508001D42080080B582B000AF094B59
:1014D0005B687B60084B984700BF0420074B984728
:1014E0000346002BF9D07868054B984700BF0837B2
:1014F000BD4680BD1C100020E50C0800A50C0800AE
:10150000150D080080B582B000AF0E4B1B687B60E4
:101510000C4B5B683B600C4B984700BF05200B4BA6
:1015200098470346002BF9D03868094B9847094B78
:101530004FF0C0421A60084A7B68136000BF08374A
:10154000BD4680BD1C100020E50C0800A50C08005D
:10155000150D0800C80E0020CC0E002080B584B008
:1015600000AF164B1B68BB60144B5B687B60144B71
:101570003B60144B984700BF0120134B984703462C
:10158000002BF9D07868114B98470023FB600BE0E3
:101590003A68FB681A440E4B1968FB680B441278D2
:1015A0001A70FB680133FB60FA68BB689A42EFD39C
:1015B000044B984700BF1037BD4680BD1C1000206B
:1015C00024100020E50C0800A50C0800150D0800EB
:1015D0008C02002080B582B000AF03463960FB71F9
:1015E0001346BB71084B9847FB79002B08D1074B7A
:1015F00098470346022B04D10020054B984700E092
:1016000000BF0837BD4680BDE50C0800FD0C080092
:10161000A50C080080B584B000AF03463960FB71AB
:101620001346BB71244B9847FB79002B06D0234A05
:101630004FF480612248234B984739E0224B1B78B6
:10164000002B1AD10023FB600BE0204B1A68FB68CB
:1016500013441B49FA680A4412781A70FB68013374
:10166000FB60FA683B689A42EFD3194B98470346F0
:10167000042B17D1104B984714E0134B1B780A2BFF
:1016800010D10023BB6009E00D4ABB6813441B78EE
:101690001846104B9847BB680133BB60BA683B687B
:1016A0009A42F1D3054A4FF480610548054B9847AB
:1016B0001037BD4680BD00BFE50C080015160800B8
:1016C0005C10002049420800C60E00208C02002059
:1016D000FD0C0800C90E080080B500AF1B4B5B78FD
:1016E000122B02D0152B10D02CE0194B1B68174A77
:1016F0009360184B1B689AB2144B9A81154B0022C9
:101700001A60154B984701231DE01320134B98478F
:101710000346002B14BF01230023DBB21A46104BF3
:101720001A700F4B00225A700D4B00229A700C4B0E
:101730000022DA70054B0A4A9A60044B04229A810F
:10174000012300E00023184680BD00BF681400207C
:10175000C80E0020CC0E0020E50C0800D52C080097
:10176000DC0F002080B500AF2B4B00221A702B4BF2
:101770005B78103B062B42D801A252F823F000BF41
:101780009D170800C9170800B3170800DF170800E5
:10179000FF170800FF170800F51708000620204B68
:1017A00098470346002B2CD01C4B1E4A1A6101237C
:1017B0002FE006201A4B98470346002B23D0174BE7
:1017C000194A1A61012324E00620154B9847034665
:1017D000002B1AD0114B154A1A61012319E006207B
:1017E0000F4B98470346002B11D00C4B104A1A613F
:1017F00001230EE0094B0F4A1A61012309E000237F
:1018000007E000BF04E000BF02E000BF00E000BF4F
:101810000023184680BD00BFC60E002068140020BB
:10182000A50C08007114080005150800C91408006B
:101830005D1508002514080080B500AF044B9847DB
:101840000448054B98470548054B984700BF80BDA5
:10185000E50C0800D9160800ED0E08006517080011
:101860002D0F080080B400AF194B5B88022B1ED0EF
:10187000022B28DC002B02D0012B0CD023E0154BCF
:101880004FF000725A63134B4FF080625A63124B51
:1018900000221A7017E00F4B4FF000725A630D4B85
:1018A0004FF080621A630C4B01221A700BE0094B57
:1018B0004FF080625A63074B4FF000721A63064B79
:1018C00002221A7000BF00BFBD4680BC704700BF37
:1018D00068140020000C0E40D80F002080B500AF27
:1018E0002620034B98472620024B984700BF80BD17
:1018F000052D0800352D080080B400AF0A4B5B7839
:10190000242B02D0252B05D009E0074B074A1A618A
:10191000012305E0044B064A1A61012300E000237D
:101920001846BD4680BC7047681400206518080042
:10193000DD18080080B400AF00231846BD4680BC07
:101940007047000080B500AF0348044B9847044837
:10195000044B984700BF80BD35190800ED0E080004
:10196000F91808002D0F080080B400AF024B18468C
:10197000BD4680BC704700BF5C02002080B400AF51
:10198000024B1B681846BD4680BC7047D80E00202D
:1019900080B400AF064B1B681B68054A12681268CA
:1019A000528892B213441846BD4680BC704700BFAF
:1019B000D40E002080B584B000AF78600B46FB7079
:1019C000124B9847F8607B681B781A467B68134473
:1019D0007B6010E07B685B78042B11D07B685B78C0
:1019E000FA789A4201D17B680CE07B681B781A4632
:1019F0007B6813447B60FA687B689A42EAD800E00F
:101A000000BF002318461037BD4680BD911908005D
:101A100080B584B000AF03460A46FB711346BB7124
:101A20001E4B1B78002B01D1002332E01C4B1B689E
:101A30001B681B79FA799A4201D3002329E0184BDD
:101A40001B681B68174A1360174B9847F8601AE029
:101A5000144B1B685B78042B0DD1124B1B689B78D1
:101A6000FA799A4207D10F4B1B68DB78BA799A4210
:101A700001D101230DE00B4B1B680A4A1268127852
:101A80001344084A1360074B1B68FA689A42DFD870
:101A9000002318461037BD4680BD00BFD20E00207F
:101AA000D40E0020D80E00209119080080B584B013
:101AB00000AF0346FB71FB79002118461E4B984787
:101AC000034683F00103DBB2002B01D000232FE09B
:101AD0001A4B1B685A68FB799B0013441B68BB6058
:101AE000BB68DB68984703461A46FB7911461846DF
:101AF000114B9847034683F00103DBB2002B01D062
:101B0000002315E00E4B1B68FB600521F8680D4BA8
:101B10009847F860FB68002B05D0FB689B78184657
:101B2000094B9847F1E700BFBB685B689847012302
:101B300018461037BD4680BD111A0800D40E00208B
:101B4000D80E0020B5190800314C080080B584B0CB
:101B500000AF03460A46FB711346BB71BA79FB79A5
:101B6000114618461A4B9847034683F00103DBB22F
:101B7000002B01D0002327E0164B1B68FB600521DA
:101B8000F868154B9847F860FB68002B11D0FB688C
:101B90009878FB68D978FB689B889BB21A460F4BF4
:101BA0009847034683F00103DBB2002BE7D0002304
:101BB0000AE000BF0A4B1B685A68FB799B0013447C
:101BC0001B681B689847034618461037BD4680BD02
:101BD000111A0800D80E0020B5190800794808002D
:101BE000D40E002080B500AF014B984700BF80BDE8
:101BF0001546080080B582B000AF0F4B1B78002B54
:101C000010D00023FB7106E0FB7918460B4B984778
:101C1000FB790133FB710A4B1B681B681B79FA794E
:101C20009A42F1D3044B00221A70064B00221A800C
:101C300000BF0837BD4680BDD20E0020AD1A080097
:101C4000D40E0020D00E002080B582B000AF144B1F
:101C50001B78002B1FD00023FB7115E0114B1B6874
:101C60005A68FB799B0013441B681B69002B08D042
:101C70000C4B1B685A68FB799B0013441B681B695B
:101C80009847FB790133FB71064B1B681B681B7976
:101C9000FA799A42E2D300BF0837BD4680BD00BF43
:101CA000D20E0020D40E002080B500AF064BDB889A
:101CB000022B01D0002304E002210448044B984782
:101CC0000123184680BD00BF68140020D00E0020FC
:101CD0005148080080B500AF0B4BDB88022B01D0C8
:101CE00000230EE0084B9B88DBB21846074B984751
:101CF00003469AB2064B1A8002210548054B9847C5
:101D00000123184680BD00BF68140020B14C0800B4
:101D1000DC0E00205148080080B400AF0B4BDB887C
:101D2000002B01D000230DE0084B5B88012B08D16C
:101D3000074B1B8823F002039AB2054B1A8001233C
:101D400000E000231846BD4680BC704768140020A0
:101D5000D00E002080B500AF0A4BDB88002B01D0ED
:101D600000230CE0074B5B88002B07D1054B9B88B9
:101D7000DBB21846044B9847034600E000231846A0
:101D800080BD00BF681400202D4E080080B500AF54
:101D9000264BDB88002B01D0002345E0234B5B88DA
:101DA000012B02D0022B02D03DE000233CE0204B6F
:101DB0009847034683F00103DBB2002B30D11B4B65
:101DC0009B88DBB2002B2DD11A4B9847174B9B8871
:101DD0001B0A9BB2DBB2013B032B1FD801A252F8B6
:101DE00023F000BFF51D0800FF1D0800091E0800B4
:101DF000131E08000D4B104A1A61012314E00B4B0F
:101E00000E4A1A6101230FE0084B0D4A1A610123A3
:101E10000AE0064B0B4A1A61012305E000BF02E00D
:101E200000BF00E000BF0023184680BD68140020FA
:101E3000AD470800F51B0800ED50080021510800CF
:101E4000555108007951080080B500AF0D4BDB8873
:101E5000002B01D0002312E00A4B5B88002B0DD130
:101E6000084B9B88DBB21846074B9847054B9B886D
:101E7000DBB21846054B9847034600E0002318469E
:101E800080BD00BF6814002065500800194D08008F
:101E900080B500AF054B5B88DBB203F07F03DBB29C
:101EA0001846034B984700BF80BD00BF6814002050
:101EB000D147080080B400AF064BDB88002B01D06F
:101EC000002303E0034B044A1A6101231846BD4670
:101ED00080BC704768140020911E080080B584B053
:101EE00000AF0023FB71294B5B88DBB2032B20D8AA
:101EF00001A252F823F000BF091F0800131F0800B9
:101F00001D1F0800271F080004212148214B984766
:101F100011E01523FB71204BBB600CE01023FB711B
:101F20001E4BBB6007E02023FB711D4B9847B86038
:101F300001E0002326E0FB79002B22D00023FB7375
:101F40000DE0FB7BBA6813441A78FB7B91B2154A0B
:101F50005B0013440A465A80FB7B0133FB73FA7B18
:101F6000FB799A42EDD3FB790133DBB25B00DAB245
:101F70000C4B1A700B4B1B789BB219460948054B4A
:101F80009847012318461037BD4680BD68140020CD
:101F900058030020514808005C030020740300200F
:101FA000691908008803002080B582B000AF7F4B1C
:101FB0005B88FB717D4B5B881B0A9BB2DBB2013BEC
:101FC0000E2B00F2E08001A252F823F00920080055
:101FD0005920080073210800872108008721080084
:101FE000D3200800E9200800872108008721080085
:101FF0008721080087210800872108008721080021
:102000008721080069210800694B9847034683F03F
:102010000103DBB2002B0AD0664B9A68654B9B68C4
:102020001B789BB219461046634B9847AEE0614B54
:102030001B68002242F010029A70002242F0020255
:10204000DA705C4B1A685B4B1B681B789BB21946B5
:102050001046594B984799E0554B98470346002B3B
:1020600019D0544B9B685B7CFA799A4201D30023C8
:1020700097E0504B1A69FB79DB00134418684D4B0D
:102080001A69FB79DB0013441B685B889BB2194615
:10209000494B984718E0474B1B685B7CFA799A429A
:1020A00001D300237DE0434B5A68FB79DB001344E6
:1020B0001868404B5A68FB79DB0013441B685B8847
:1020C0009BB219463C4B9847384B9B6802225A708A
:1020D0005CE0384BDA68374BDB681B789BB21946FB
:1020E0001046354B984751E0314B9847034683F0F3
:1020F0000103DBB2002B19D02E4B9B685B7CFA7975
:102100009A4201D300234CE02A4B1A69FB79DB0089
:1021100013441868274B1A69FB79DB0013441B68CA
:102120005B889BB21946244B984718E0214B1B68EB
:102130005B7CFA799A4201D3002332E01D4B5A6846
:10214000FB79DB00134418681A4B5A68FB79DB00F3
:1021500013441B685B889BB21946174B9847134B77
:102160009B6807225A7011E021211448124B9847AE
:102170000CE0134B9847034683F00103DBB2002BBE
:1021800003D000230DE000230BE000BF074BDA88EB
:10219000064B9B899A4203D2044BDA88034B9A81FF
:1021A000012318460837BD4680BD00BF68140020D3
:1021B000AD470800580400205148080034030020AF
:1021C000DD1E080080B500AF064BDB88012B01D077
:1021D000002304E001210448044B984701231846DA
:1021E00080BD00BF68140020D20E002051480800B6
:1021F00080B582B000AF374BDB88002B01D00023C5
:1022000063E0354B98470346002B01D100235CE087
:10221000324B98470346002B09D02E4B5B88DBB22C
:102220002F4A9268527C93420BDD00234DE0294BEC
:102230005B88DBB22A4A1268527C934201DD00239C
:1022400043E0284B9847234B5B88DAB2264B1A7041
:10225000254B1B78002B01D1012336E01F4B9847FB
:102260000346002B0BD01E4B1A691F4B1B7803F142
:102270000053013BDB0013441C4A13600AE0184B77
:102280005A68194B1B7803F10053013BDB001344E0
:10229000164A13600023FB710FE0FB7900211846FA
:1022A000134B9847034683F00103DBB2002B01D0A8
:1022B00000230AE0FB790133FB710C4B1B681B68A0
:1022C0001B79FA799A42E8D3012318460837BD46AC
:1022D00080BD00BF6814002015480800AD47080005
:1022E00058040020F51B0800D20E0020D40E002058
:1022F0004D1B080080B582B000AF1E4BDB88012B60
:1023000001D0002332E01C4B1B78002B01D10023AD
:102310002CE0184B9B88FB71184B1B681B681B79C2
:10232000FA799A4201D3002320E0FB790021184674
:10233000134B9847034683F00103DBB2002B01D017
:10234000002313E00D4B1B685A68FB799B00134474
:102350001B683B603B68DB68984703461A46094B9D
:102360001A7001210748084B98470123184608377F
:10237000BD4680BD68140020D20E0020D40E00207F
:10238000111A0800DE0E00205148080080B582B006
:1023900000AF144BDB88002B01D000231EE0124B52
:1023A0001B78002B01D1002318E00E4B9B88FB719A
:1023B0000C4B5B88BB71FB7918460C4B9847034666
:1023C00083F00103DBB2002B01D0002306E0BA79D1
:1023D000FB7911461846064B9847034618460837BE
:1023E000BD4680BD68140020D20E0020AD1A080042
:1023F0004D1B080080B500AF554B1B785BB2002B1E
:1024000044DA534BDB88002B01D100239DE0504B75
:102410001B7803F01F03002B16D14D4B5B78082B64
:102420000ED0082B12DC002B02D0062B04D00DE0BE
:10243000484B9847034688E0474B9847034684E05B
:10244000464B9847034680E000BF00E000BF404B8A
:102450001B7803F01F03012B07D13D4B5B780A2B40
:1024600005D13F4B984703466FE000BF00E000BF37
:10247000374B1B7803F01F03022B60D1344B5B7882
:10248000002B5ED1374B984703465EE0304B1B78FC
:1024900003F01F03002B29D12D4B5B78013B082B48
:1024A00026D801A252F823F0D5240800F124080010
:1024B000DD240800F1240800CD240800F1240800E0
:1024C000F1240800F1240800E5240800264B984771
:1024D00003463AE0254B9847034636E0244B98479D
:1024E000034632E0234B984703462EE000BF00E04E
:1024F00000BF174B1B7803F01F03012B07D1144BB0
:102500005B780B2B05D11C4B984703461DE000BFA1
:1025100000E000BF0E4B1B7803F01F03022B12D10B
:102520000B4B5B78012B02D0032B04D00CE0134B38
:102530009847034609E0124B9847034605E000BF61
:1025400002E000BF00E000BF0023184680BD00BFCE
:1025500068140020A91C0800A91F0800C521080054
:10256000F5220800D51C0800B51E0800191D08003A
:102570008D1D0800F12108008D230800551D08005D
:10258000491E080080B582B000AF204B1B78002B9D
:1025900001D1002336E01E4B9B88FB711D4B1B684D
:1025A0001B681B79FA799A4201D300232AE0FB7950
:1025B00000211846184B9847034683F00103DBB20D
:1025C000002B01D000231DE0124B1B685A68FB79D9
:1025D0009B0013441B683B603B68DB6898470346DD
:1025E0001A46FB79114618460B4B9847034683F071
:1025F0000103DBB2002B01D0002303E03B689B68A2
:102600009847034618460837BD4680BDD20E0020C5
:1026100068140020D40E0020111A080080B582B082
:1026200000AF1E4B1B78002B01D1002332E01C4B66
:102630009B88FB710023FB7124E01A4B1B685A68CE
:10264000FB799B0013441B683B603B68DB68984741
:1026500003461A46FB7911461846134B9847034622
:1026600083F00103DBB2002B01D0002312E03B68B2
:102670009B6898470346002B01D001230AE0FB79B1
:102680000133FB71074B1B681B681B79FA799A426F
:10269000D3D3002318460837BD4680BDD20E002094
:1026A00068140020D40E0020111A080080B500AF75
:1026B000254B00229A81244B00221A61224B0022D2
:1026C0005A61214B1B78C02B09D11F4B5B78012B22
:1026D00005D19E211D481E4B9847012332E01A4B1D
:1026E0001B785BB2002B05DA174BDB88002B01D17E
:1026F000002327E0144B1B7803F06003002B06D166
:10270000144B98470346002B01D001231AE00E4BCF
:102710001B7803F01F03012B06D10F4B984703468C
:10272000002B01D001230DE0074B1B7803F01F03A2
:10273000022B06D1094B98470346002B01D00123F9
:1027400000E00023184680BD681400209402002099
:1027500051480800F5230800852508001D260800BB
:1027600080B483B000AFEFF310833B603B68002B75
:102770000CBF01230023DBB27B6072B600BFBFF346
:102780005F8F00BF044B00221A707B6818460C371D
:10279000BD4680BC704700BFCA03002080B483B030
:1027A00000AF78607B68002B14BF01230023DBB2ED
:1027B00018460C37BD4680BC7047000080B582B01B
:1027C00000AF78607868084B98470346002B07D025
:1027D000064B01221A70BFF35F8F00BF62B600BFC5
:1027E00000BF0837BD4680BD9D270800CA030020F2
:1027F00080B586B000AFF860B9607A60BB680E2B18
:1028000002D0BB680F2B02D14FF0FF3316E00D4B07
:10281000984778617B681B0223F07F4323F0FF0316
:10282000BA68D2B2134343F0B4431946F868064B72
:10283000984738617869054B98473B6918461837BF
:10284000BD4680BD61270800BD000020BD270800EF
:1028500080B400AFFEE7000090B58BB002AF7860A7
:10286000396007F10C03042200920F220E21144854
:10287000144CA0470346002B01D010231BE03B68FB
:10288000042B01D904233B600023FB610EE0FB69AC
:102890009B007A681A44FB699B0007F120010B44F6
:1028A00053F8143C1360FB690133FB61FA693B6820
:1028B0009A42ECD3002318462437BD4690BD00BF92
:1028C00000080E400100002080B582B000AF7860A3
:1028D0007868034B984700BF0837BD4680BD00BFEE
:1028E000C933080080B500AF0A20044B98470B207D
:1028F000024B984700BF00BF80BD00BFC928080039
:1029000080B500AF4FF060511D200D4B98474FF040
:1029100060511F200A4B98474FF040511820084B38
:1029200098474FF000624FF4C0510648064B984755
:102930004FF080513820024B984700BF80BD00BF48
:10294000652D0800000C0E40952E080080B500AFE4
:10295000044B4FF400425A60034B9847034B98478F
:1029600000BF80BD50120E40E52808000129080074
:1029700080B483B000AF114B1B68002B14D1EFF370
:1029800010837B607B68002B0BD172B600BFBFF356
:102990005F8F00BF0A4B00221A700A4B01221A7087
:1029A00002E0084B00221A70044B1B680133034AF3
:1029B000136000BF0C37BD4680BC7047E00E00209E
:1029C000CA030020E40E002080B400AF0C4B1B684B
:1029D000013B0B4A13600A4B1B68002B0CD1094BBF
:1029E0001B78DBB2002B07D0074B01221A70BFF314
:1029F0005F8F00BF62B600BF00BFBD4680BC70479E
:102A0000E00E0020E40E0020CA03002080B584B050
:102A100000AF78600023FB6017E0104AFB6852F8B3
:102A200033307A689A420DD10C4AFB68DB001344BC
:102A30005B68012B03D17868094B984702E07868FE
:102A4000084B9847FB680133FB60FB68012BE4D916
:102A500000BF00BF1037BD4680BD00BF5CCF08007F
:102A6000352D0800052D080080B584B000AF7860D2
:102A70000023FB6017E0104AFB6852F833307A6895
:102A80009A420DD10C4AFB68DB0013445B68012BB2
:102A900003D17868094B984702E07868084B98475B
:102AA000FB680133FB60FB68012BE4D900BF00BF6A
:102AB0001037BD4680BD00BF5CCF0800052D080063
:102AC000352D080080B485B000AFF860B9607A6039
:102AD0007B68002B03D0FB68BA685A6602E0FB688B
:102AE000BA681A6600BF1437BD4680BC704780B410
:102AF00087B000AFF860B9607A60FB687A685A64A2
:102B0000BB68B3F1605F3CD0BB68B3F1605F34D8A1
:102B1000BB68B3F1405F34D0BB68B3F1405F2CD8E1
:102B2000BB68B3F1205F2CD0BB68B3F1205F24D821
:102B3000BB68B3F1805F17D0BB68B3F1805F1CD86E
:102B4000BB68002B1DD0BB68B3F1006F15D1FB68CB
:102B50001B6F7B61FB681A6F7B68D9437B690B40F5
:102B60001A40FB681A6708E0FB681B6F7B617A6894
:102B70007B691A43FB681A6700BFFB687A685A6072
:102B800000E000BF1C37BD4680BC704780B584B0F4
:102B900000AFF860B9607A60B968F868194B984777
:102BA0007B6803F001031A46B968F868164B98472A
:102BB0007B6803F00A03002B03D0FB68BA681A6233
:102BC00002E0FB68BA685A627B6803F00203002BDC
:102BD00004D0FB68BA68C3F8802008E07B6803F083
:102BE0000803002B03D0FB68BA68C3F88420FB6895
:102BF000BA685A61FB68BA681A6000BF1037BD46F0
:102C000080BD00BF8D2C0800C52A080080B584B0A7
:102C100000AFF860B9607A603B60B968F868124B41
:102C20009847BA69B968F868104B98473B68002B19
:102C300003D0FB68BA681A6502E0FB68BA685A6597
:102C40007B68002B03D0FB68BA681A6302E0FB685C
:102C5000BA685A63FB68BA681A61FB68BA681A6096
:102C600000BF1037BD4680BD8D2C0800C52A080066
:102C700080B483B000AF786039607B683A68C3F88D
:102C8000A02000BF0C37BD4680BC704780B483B025
:102C900000AF786039607B683A685A6400BF0C37CF
:102CA000BD4680BC704780B483B000AF78607B685D
:102CB000DB6C18460C37BD4680BC704780B483B0CF
:102CC00000AF78607B689B6C18460C37BD4680BCB3
:102CD0007047000080B584B000AF78607868084B1A
:102CE0009847F860FB68DA6B7B6803F01F0322FAF1
:102CF00003F303F0010318461037BD4680BD00BF43
:102D0000712F080080B584B000AF78607868084BF8
:102D10009847F8607B6803F01F03012202FA03F36F
:102D20001A46FB681A6300BF1037BD4680BD00BF5E
:102D3000712F080080B584B000AF78607868084BC8
:102D40009847F8607B6803F01F03012202FA03F33F
:102D50001A46FB685A6300BF1037BD4680BD00BFEE
:102D6000712F080090B587B002AF7860396078683D
:102D7000434B9847F8603B6803F0F043B3F1605F62
:102D800057D0B3F1605F73D8B3F1405F51D0B3F166
:102D9000405F6DD8B3F1205F3FD0B3F1205F67D8BB
:102DA000B3F1006F03D0B3F1805F1BD060E07B68AC
:102DB00003F01F03012202FA03F31A464FF00061E9
:102DC000F868304B98477B6803F01F03012202FA32
:102DD00003F319463B6803F001031A46F8682A4BCF
:102DE000984747E07B6803F01F03012202FA03F3D0
:102DF0001A464FF08051F868224B98477B6803F0E1
:102E00001F03012202FA03F319463B6803F0010392
:102E10001A46F8681C4B98472CE07B6803F01F03A8
:102E2000012202FA03F33A681946F868174B9847EB
:102E300020E07B6803F01F03012202FA03F3194626
:102E40003B6803F06053B3F1605F0CBF01230023C4
:102E5000DBB218463B689B0803F001023B6803F0B5
:102E60000103009313460246F868094CA04701E0AD
:102E7000002300E0012318461437BD4690BD00BF73
:102E8000712F0800EF2A0800C52A08008D2B0800C2
:102E90000D2C080090B587B002AFF860B9607A6079
:102EA0007B6803F0F043B3F1605F39D0B3F1605F4A
:102EB0004FD8B3F1405F33D0B3F1405F49D8B3F19D
:102EC000205F27D0B3F1205F43D8B3F1006F03D068
:102ED000B3F1805F0FD03CE0BA684FF00061F86852
:102EE0001F4B98477B6803F001031A46B968F868DE
:102EF0001C4B98472FE0BA684FF08051F868184B88
:102F000098477B6803F001031A46B968F868154BC7
:102F1000984720E07A68B968F868134B98471AE038
:102F20007B6803F06053B3F1605F0CBF01230023A3
:102F3000DBB219467B689B0803F001027B6803F053
:102F40000103009313460A46B968F868074CA04786
:102F500001E0002300E0012318461437BD4690BD70
:102F6000EF2A0800C52A08008D2B08000D2C080048
:102F700080B485B000AF78607B685B0903F500130F
:102F800003F206735B02FB60FB6818461437BD460C
:102F900080BC704780B584B000AF786039607868D5
:102FA000264B9847F8607868254B98470246FB689F
:102FB0001340FB60FB68002B3CD00023BB6034E077
:102FC000204ABB681B0113441B683A689A4226D109
:102FD0001C4ABB681B01134404331A68FB68134086
:102FE000002B1CD0174ABB681B0113440C331B6811
:102FF0001449BA6812010A4410681249BA681201E9
:103000000A4404321268114698470E4ABB681B01F5
:10301000134404331B68DB43FA681340FB60BB684E
:103020000133BB60BB68062B03D8FB68002BC7D1FC
:1030300000E000BF00BF1037BD4680BDA72C0800D0
:10304000BD2C0800E80E002080B500AF0A21024820
:10305000024B984700BF80BD000C0E40952F080022
:1030600080B500AF0B210248024B984700BF80BDDE
:10307000000E0E40952F080080B485B000AF786038
:103080001C4B1B6B23F003031A4A43F00103136329
:103090004FF40063FB6007E0FB68002B01D10123C4
:1030A00023E0FB68013BFB60124B9B6E03F00803BF
:1030B000002BF1D00F4B1B6B23F070020D497B6886
:1030C00013430B634FF40063FB6007E0FB68002BC6
:1030D00001D1012309E0FB68013BFB60054B9B6EBE
:1030E00003F00803002BF1D0002318461437BD4627
:1030F00080BC704700040E4080B485B000AF78609B
:103100001C4B1B6B23F070021A497B6813430B6343
:103110004FF40063FB6007E0FB68002B01D1012343
:1031200023E0FB68013BFB60124B9B6E03F008033E
:10313000002BF1D00F4B1B6B23F003030D4A43F020
:10314000020313634FF40063FB6007E0FB68002B8E
:1031500001D1012309E0FB68013BFB60054B9B6E3D
:1031600003F00803002BF1D0002318461437BD46A6
:1031700080BC704700040E4080B483B000AF78601C
:103180007B68012B07D1084B9B68074A43F0254316
:1031900043F480139360044B044A1A6000BF0C3759
:1031A000BD4680BC704700BF10120E40080000A54D
:1031B00080B400AF094B5B6903F08003002B07D09C
:1031C000074B9B6E03F08003002B01D0012300E02E
:1031D00000231846BD4680BC704700BF10120E4049
:1031E00000040E4080B483B000AF7860134B1B6ABC
:1031F000124A43F45C1343F00803136200BF0F4B01
:103200009B6E03F40033002BF9D00C4B1B6A23F4A4
:103210005C1323F070037A681343084A43F45C1389
:10322000136200BF054B9B6E03F40033002BF9D0F3
:1032300000BF00BF0C37BD4680BC704700040E4085
:1032400080B400AF034B9B6E03F400331846BD46B9
:1032500080BC704700040E4080B485B000AF786039
:10326000104B1B6AFB60FB6823F00303FB607B6869
:103270001B029AB2FB68134343F45C1343F001034F
:10328000FB60084AFB68136200BF064B9B6E03F0AD
:103290000103002BF9D000BF00BF1437BD4680BC2E
:1032A000704700BF00040E4080B483B000AF0A4BEB
:1032B0001B6A7B607B6823F003037B607B6843F4BD
:1032C0005C1343F002037B60034A7B68136200BF18
:1032D0000C37BD4680BC704700040E4080B400AF80
:1032E000034B1B6A03F002031846BD4680BC7047BF
:1032F00000040E4080B400AF034B9B6E03F001034B
:103300001846BD4680BC704700040E4080B400AF34
:10331000034B9B6E03F480331846BD4680BC704758
:1033200000040E4080B485B000AF78600C4B1B6A7F
:10333000FB607B68002B04D0FB6843F08073FB606C
:1033400003E0FB6823F08073FB60054AFB6843F4ED
:103350005C13136200BF1437BD4680BC704700BFCA
:1033600000040E4080B400AF034B4FF000529A624D
:1033700000BFBD4680BC704700040E4080B400AF63
:10338000034B9B6E03F002031846BD4680BC70479A
:1033900000040E4080B400AF044BDB69034A23F401
:1033A0008033D36100BFBD4680BC704700040E402F
:1033B00080B400AF034B9B6E03F040031846BD463C
:1033C00080BC704700040E4080B483B000AF7860CA
:1033D0007B681D2B01D9012315E07B681F2B11D8B9
:1033E0000B4B9A6901217B6801FA03F31A40012112
:1033F0007B6801FA03F39A4204D001227B689A4069
:10340000034B1A61002318460C37BD4680BC704739
:1034100000040E4080B483B000AF78607B681D2B41
:1034200001D9012315E07B681F2B11D80B4B9A693A
:1034300001217B6801FA03F31A4001217B6801FA3C
:1034400003F39A4204D101227B689A40034B5A61EC
:10345000002318460C37BD4680BC704700040E4060
:1034600080B483B000AF7860054A4FF480717B6808
:1034700001FA03F3136000BF0C37BD4680BC7047F0
:1034800000040E4080B483B000AF78607B68C3F363
:1034900012037B60054B1A6F04497B6813430B676B
:1034A00000BF0C37BD4680BC704700BF00040E4013
:1034B00080B483B000AF134B1B6F124A43F48013E8
:1034C0001367114B1B69104A23F00403136120BFDB
:1034D00000BF00237B6004E000BF00BF7B680133B6
:1034E0007B607B68B3F5FA7FF6D300BF054B1B6AA0
:1034F00003F00803002BF9D000BF00BF0C37BD4616
:1035000080BC704700040E4000ED00E080B586B03E
:1035100000AFF860B9607A6000237B61FB68002B24
:1035200012D04FF0FF3313E00B4B1B680B4A1268AD
:10353000B96810469847BB680133BB607B690133AB
:103540007B617B68013B7B607B68002BECDC7B69EB
:1035500018461837BD4680BD5C1400208414002036
:10356000B0B59CB000AF78607B68052B00F0E881B7
:103570007B68052B00F3F5817B68022B03DC7B68FD
:10358000002B06DCEDE17B68033B012B00F2E981B7
:103590001BE0884B1B6F874A23F480131367864B0D
:1035A0001B69854A23F004031361844B01221A70BE
:1035B000BFF35F8F00BF62B600BF7B68022B01D1F3
:1035C00030BF01E020BF00BFCBE172B600BFBFF348
:1035D0005F8F00BF794B00221A70794B01221A705D
:1035E0007B68042B0CBF01230023DAB207F1200310
:1035F000FB6407F11C03BB6407F118037B6407F14C
:1036000014033B6407F11003FB6307F10C03BB6376
:10361000134687F83730674B1B6A3B63654B1B6B60
:10362000FB62684B1B68BB62674B1B687B62FB6C71
:10363000002B02D0FB6C3A6B1A60BB6C002B03D0E2
:103640005C4B9A6ABB6C1A607B6C002B03D0594BA5
:10365000DA697B6C1A603B6C002B02D03B6CFA6A17
:103660001A60FB6B002B02D0FB6BBA6A1A60BB6B53
:10367000002B02D0BB6B7A6A1A604E4A3B6B43F454
:103680005C1343F008031362FB6A03F00203002B90
:103690000FD0FB6A23F0030343F00103FB62454AAA
:1036A000FB6A136300BF434B9B6E03F00803002BC0
:1036B000F9D0FB6A03F07003002B0DD0FB6A23F0F6
:1036C0007003FB623B4AFB6A136300BF394B9B6E7E
:1036D00003F00803002BF9D03C4B98473C4B98472C
:1036E00000BF344B9B6E03F40033002BF9D0314BF9
:1036F0001B6A23F09B7323F480332E4A43F45C133C
:10370000136200BF2B4B9B6E03F48033002BF9D068
:103710002C4ABB6A23F4706313602B4A7B6A23F440
:103720007063136097F83730002B09D0214B1B6A68
:1037300023F45C1323F001031E4A43F45C13136269
:1037400000BF1E4B01221A70BFF35F8F00BF62B62D
:1037500000BF204B984772B600BFBFF35F8F00BF1A
:10376000164B00221A703D6AFC69B86979693A699A
:10377000FB68FD66BC6678663966FA65BB65002342
:103780007B65FB6E03F00203002B29D0094B1B6AFB
:10379000114A1A400749114B13430B62054B1B6A30
:1037A00023F45C1323F07803024A43F45C1313629E
:1037B00053E000BF00040E4000ED00E0CA0300200B
:1037C000580F002000080E40000A0E406533080024
:1037D00095330800B1340800FCFFC8FE0200370131
:1037E000FB6E03F00103002B37D0604B1B6A03F024
:1037F0000103002B12D15D4B1B6A23F45C1323F0F1
:1038000003035A4A43F45C1343F00103136200BFFD
:10381000564B9B6E03F00103002BF9D0534B1B6AF0
:1038200003F08073002B0ED1504B1B6A4F4A43F0BC
:103830009B7343F48033136200BF4C4B9B6E03F4C5
:103840008033002BF9D0494B1B6A23F45C1323F01F
:103850007803464A43F45C131362BA6E444B134038
:10386000002B08D0414ABB6E43F0005393627B6D3E
:1038700043F002037B657B6E03F48033002B06D09C
:103880003A4A7B6ED3617B6D43F040037B653B6EB0
:1038900003F00303022B02D0032B08D00FE000BF7C
:1038A000324B9B6E03F00203002BF9D007E000BF00
:1038B0002E4B9B6E03F04003002BF9D000BF2B4B27
:1038C0001B6B3B653B6D23F070023B6E03F0700396
:1038D000264913430B6300BF244B9B6E03F0080380
:1038E000002BF9D0234AFB6D1360234ABB6D136094
:1038F0001E4A3B6E136300BF1C4B9B6E03F0080314
:10390000002BF9D000BF194B9A6E7B6D1340002B32
:10391000F9D000BF194B00221A70194B1B68002BFD
:1039200005D0174B1B689847154B00221A60154BA2
:1039300001221A70BFF35F8F00BF62B600BF10E0B4
:10394000114B1B69104A43F0040313610D4B012214
:103950001A70BFF35F8F00BF62B600BF20BF00BF09
:1039600000BF00BF7037BD46B0BD00BF00040E40B1
:103970000000FF0700080E40000A0E40580F00200C
:103980005C0F0020CA03002000ED00E080B400AF0F
:10399000084B1B78DBB2002B14BF01230023DBB2E2
:1039A00083F00103DBB203F00103DBB21846BD462E
:1039B00080BC7047580F002080B485B000AFF8601D
:1039C000B9607A60F968BA6813469B0013449B009B
:1039D0000B4470337A681A6000BF1437BD4680BC50
:1039E000704780B485B000AFF860B9607A60F9685C
:1039F000BA6813469B0013449B000B4474337A68E7
:103A00001A6000BF1437BD4680BC704780B485B0D3
:103A100000AFF860B9607A60F968BA6813469B0035
:103A200013449B000B4478337A681A6000BF143744
:103A3000BD4680BC704780B485B000AFF860B96007
:103A40007A60F968BA6813469B0013449B000B44E4
:103A500080337A681A6000BF1437BD4680BC704757
:103A600080B582B000AF1E4B7B601E4B3B607A6816
:103A70003B689A420CD007E07A68131D7B603B6874
:103A8000191D396012681A603B68174A9342F3D3D4
:103A9000164B3B6004E03B681A1D3A6000221A6036
:103AA0003B68134A9342F6D3124B7B607B68124A01
:103AB00023F0604323F07F0393607B68B3F1005FE2
:103AC00009D37B680D4A934205D20B4B9B680A4A87
:103AD00043F0005393600A4B98470A4B9847FEE720
:103AE000E4D3080000000020200E0020200E00205B
:103AF000B01400200000080000ED00E000400020AD
:103B000095620800510B080080B485B000AF786062
:103B1000104BFB60104B1B68002B02D10E4B0F4A61
:103B20001A600D4B1B68BB60BA687B681344FA6867
:103B30009A4202DA4FF0FF3306E0074B1A687B68BF
:103B40001344054A1360BB6818461437BD4680BC51
:103B5000704700BFFC1F0820600F002000040820F1
:103B600080B483B000AF78604FF0FF3318460C3755
:103B7000BD4680BC704780B483B000AF78603960C8
:103B80003B684FF400525A60002318460C37BD467C
:103B900080BC704780B483B000AF786001231846C2
:103BA0000C37BD4680BC704780B485B000AFF8606C
:103BB000B9607A60002318461437BD4680BC704750
:103BC00080B582B000AF786079680248024B9847B0
:103BD000FEE700BF6CCF0800DD62080080B483B050
:103BE00000AF7860396000BF0C37BD4680BC7047BD
:103BF00080B400AF4FF0FF331846BD4680BC70471D
:103C000080B582B000AF78607B68072B2ED801A208
:103C100052F823F06B3C0800353C08003D3C08009E
:103C2000453C08004D3C0800553C08005D3C080040
:103C3000653C080000200F4B984717E001200D4B12
:103C4000984713E000200C4B98470FE010200A4BD8
:103C500098470BE02020084B984707E03E20074B91
:103C6000984703E0064B984700E000BF00BF0837C5
:103C7000BD4680BD79310800E531080059320800A1
:103C8000A932080080B582B000AF78607B68072B4E
:103C90002FD801A252F823F0B93C0800BD3C08001F
:103CA000BD3C0800CF3C0800CF3C0800CF3C0800DA
:103CB000E13C0800E13C080001231BE00F4B984762
:103CC0000346002B14BF01230023DBB212E00C4B90
:103CD00098470346002B14BF01230023DBB209E001
:103CE000084B98470346002B14BF01230023DBB287
:103CF00000E0002318460837BD4680BDB1310800FA
:103D000041320800F532080080B483B000AF78601B
:103D10007B68072B23D801A252F823F03D3D080011
:103D2000433D0800473D08004B3D08004F3D08005B
:103D3000533D0800573D08005B3D08004FF4FA432F
:103D40000EE000230CE000230AE0084B08E0084BDB
:103D500006E0084B04E0074B02E0064B00E00023BE
:103D600018460C37BD4680BC704700BF00093D00B7
:103D700000127A00001BB70080B582B000AF034686
:103D8000FB7100BFFB791846064B9847034683F04A
:103D90000103DBB2002BF5D100BF00BF0837BD46E1
:103DA00080BD00BF853C080080B586B000AFF860DC
:103DB0007A603B600B46FB727B68002B07D13B6847
:103DC000002B04D1FB684FF470021A601AE0FB7AF2
:103DD00018460E4B984702467B68B2FBF3F37B61B3
:103DE0007B693A6802FB03F37B613B68013B1A0481
:103DF000074B13407A68D2B2134343F47C52FB68FA
:103E00001A6000BF00BF1837BD4680BD093D0800DD
:103E10000000FF0780B582B000AF786039603B6872
:103E2000002B08D1094B98477B681B68084A43F070
:103E30000053936205E07B681B68054A43F48033B6
:103E4000D36100BF0837BD4680BD00BF65330800A1
:103E500000040E4080B582B000AF78607B68002B14
:103E600003D1054B9847034602E0044B98470346AD
:103E700018460837BD4680BD7D330800B1330800C1
:103E800080B582B000AF0346FB71FB79033B042B86
:103E900008D8FB791846064B9847FB791846054B1E
:103EA000984700E000BF00BF0837BD4680BD00BF97
:103EB000013C0800793D080080B582B000AF786011
:103EC00000BF7868044B98470346002BF9D00023C5
:103ED00018460837BD4680BD553E080080B500AF86
:103EE0000620034B984703461B01184680BD00BFC0
:103EF000093D080080B500AF024B984703465B08B8
:103F0000184680BDDD3E080090B583B000AF0620A6
:103F1000094B9847381D002300220621074CA04773
:103F20003B1D01211846064B98470120054B984739
:103F300000BF0C37BD4690BD813E0800A93D08007A
:103F4000153E0800B93E080090B583B000AF164892
:103F5000164B98470620164B98474FF08070154B2C
:103F6000984700BF144B98470346002BFAD0381DE2
:103F7000102301220621114CA0473B1D00211846A9
:103F80000F4B984700200F4B984710200E4B984737
:103F90000E4B98470E4B984703461846034B9847DD
:103FA00000BF0C37BD4690BD00D8B805BD0100204C
:103FB000813E0800253308000D330800A93D0800A4
:103FC000153E0800B93E0800F9300800D53F08004A
:103FD000F53E080080B400AF584B1B6B03F00303A1
:103FE000032B00F28C80022B3FD2002B02D0012B3E
:103FF00010D084E0524B5B6903F08003002B04D0A7
:10400000504B4FF400421A6079E04E4B4FF4FA42A5
:104010001A6074E0494B1B6A03F08073002B03D0D5
:10402000484B494A1A606AE0464B484A1A60434B7B
:104030001B6A03F07003202B0BD0202B11D8002B10
:1040400011D0102B0DD13F4B1B685B003D4A136014
:104050000AE03C4B1A6813465B001344394A13606C
:1040600002E000BF4BE000BF49E0344B1B6A03F0A5
:104070008073002B03D0334B334A1A601FE0314B5F
:10408000324A1A602D4B1B6A03F07003202B0BD0B1
:10409000202B11D8002B11D0102B0DD1294B1B68D0
:1040A0005B00284A13600AE0264B1A6813465B003F
:1040B0001344244A136002E000BF00E000BF1F4B1E
:1040C0001B6B03F00303022B15D11C4B9B6A1B0CCB
:1040D000C3F30A0301331B4A126802FB03F3194AB4
:1040E0001360164B9B6ADBB2164A1268B2FBF3F3FD
:1040F000144A136002E0134B154A1A6000BF0F4BBD
:104100001B6B03F07003702B08D10E4B1B68114A18
:10411000A2FB03235B080B4A13600AE0074B1B6BEF
:104120001B0903F00703074A126822FA03F3054A42
:10413000136000BFBD4680BC704700BF00040E4046
:1041400010120E40CC030020001BB70000093D00F8
:10415000001C4E0EABAAAAAA80B500AF0B4B984725
:104160000346DA780A4B1A70094B1B78002B09D1E9
:10417000084B9847034683F00103DBB2002B01D0C4
:10418000002300E00123184680BD00BF7D19080010
:10419000640F0020CD0F080080B500AF034B1B78E3
:1041A000002B01D1024B984700BF80BD640F002057
:1041B0000510080080B500AF104B1B785BB2002BD8
:1041C00009DA0E4B1B7803F06003402B03D10C4B34
:1041D000984703460FE0094B1B785BB2002B09DBC5
:1041E000064B1B7803F06003402B03D1054B984727
:1041F000034600E00023184680BD00BF681400207D
:10420000851008001D10080080B400AF024B1B7819
:104210001846BD4680BC7047640F002090B587B03B
:1042200002AFF860B9607A607B680093BB68FA6897
:1042300000218120034CA047034618461437BD4691
:1042400090BD00BF5D4F080090B587B002AFF86029
:10425000B9607A607B680093BB68FA68002102202D
:10426000034CA047034618461437BD4690BD00BF17
:104270005D4F080080B483B000AF0346FB71FB794B
:1042800003F01F03012202FA03F1054A97F90730F0
:104290005B0942F8231000BF0C37BD4680BC704755
:1042A00000E100E080B483B000AF03463960FB71E9
:1042B00097F90730002B0BDA3B68DAB20C49FB792F
:1042C00003F00F03043B1201D2B20B441A7609E04B
:1042D0003B68DAB2074997F907301201D2B20B44B2
:1042E00083F8002300BF0C37BD4680BC704700BF79
:1042F00000ED00E000E100E080B483B000AFEFF338
:1043000010833B603B68002B0CBF01230023DBB212
:104310007B6072B600BFBFF35F8F00BF044B00220B
:104320001A707B6818460C37BD4680BC704700BFCA
:10433000CA03002080B483B000AF78607B68002B94
:1043400014BF01230023DBB218460C37BD4680BCE6
:104350007047000080B582B000AF78607868084B85
:1043600098470346002B07D0064B01221A70BFF373
:104370005F8F00BF62B600BF00BF0837BD4680BD7B
:1043800035430800CA03002080B584B000AF03465F
:10439000FB71084B9847F860FB79074AD25C013201
:1043A000D1B2054AD154F868044B984700BF103782
:1043B000BD4680BDF9420800601400205543080046
:1043C00080B584B000AF0346FB71084B9847F86096
:1043D000FB79074AD25C013AD1B2054AD154F86858
:1043E000044B984700BF1037BD4680BDF942080016
:1043F000601400205543080080B582B000AF03462A
:10440000FB71FB7983F00103DBB2002B06D00D4B6F
:104410001B78002B02D002200B4B9847FB79002B16
:1044200009D0084B1B7883F00103DBB2002B02D0CC
:104430000220064B9847034AFB79137000BF0837E8
:10444000BD4680BD650F0020C143080089430800B8
:1044500080B500AF1D205F4B98475F4B98470346E0
:1044600083F00103DBB2002B0ED05C4B5B6903F0E1
:104470000203002B08D172B600BFBFF35F8F00BFED
:10448000574B00221A70A4E0544B5B6903F00803F9
:10449000002B0DD0514B08229A61504B5B6903F001
:1044A0000103002B01D14F4B98474F4B98478FE0AA
:1044B0004A4B5B6903F00403002B05D0474B0422F1
:1044C0009A61484B984783E0484B98470346002B36
:1044D00079D1474B98470346002B76D13F4B5B6918
:1044E00003F01003002B1DD03C4B10229A61414B6E
:1044F0009847414B9847414B9847414B9847374B1A
:104500001B69364A43F008031361344B1B69334A75
:1045100043F004031361314B1B69304A43F002033B
:10452000136155E02D4B1B6903F00203002B20D0D3
:104530002A4B5B6903F00203002B1AD0274B202281
:104540009A61264B1B69254A23F002031361234B12
:104550001B69224A43F020031361204B02229A6117
:104560001D20284B9847284B98470020274B9847F9
:104570002EE01A4B5B6903F02003002B27D00120AB
:10458000224B9847154B02229A61144B20229A61C4
:10459000124B1B69114A23F0200313610F4B1B6957
:1045A0000E4A43F0020313610C4B1B690B4A43F0A4
:1045B00008031361094B1B69084A43F004031361A4
:1045C000134B984704E000BF02E000BF00E000BFCB
:1045D00000BF80BDC93308008D39080000400A4083
:1045E000CA030020491C0800990F0800E55808007C
:1045F000015D0800255A0800F51B08004552080017
:10460000C5520800153408006D0F0800F943080072
:10461000890F080080B582B000AF194B98471D2064
:10462000184B9847184B98477860184B1B68174AE7
:1046300043F48073136005211D20154B98471D20FE
:10464000144B9847144B9847104BD3F8E0300F4A5F
:1046500023F00303C2F8E0304FF480200F4B98475B
:104660000F4B00221A7003200E4B98470E4B9847B1
:1046700078680E4B984700BF0837BD4680BD00BF25
:10468000093F0800C9330800F942080000400A4009
:10469000A542080075420800C95908008534080081
:1046A000650F002089430800B14608005543080003
:1046B00080B582B000AF264B984778600120254B2B
:1046C00098471D20244B9847244B1B68234A43F4EA
:1046D00000631360214B1B68204A23F400731360AE
:1046E0001E4B1B691D4A43F0100313611B4B1B69D2
:1046F0001A4A43F002031361184B1B69174A43F02F
:1047000020031361154B1B69144A43F0080313611E
:10471000124B1B69114A43F0040313610F4B08222B
:104720009A610E4B04229A610C4B10229A610B4B3A
:1047300002229A61094B20229A611D20084B98475A
:104740007868084B984700BF0837BD4680BD00BF5A
:10475000F9420800F9430800C933080000400A4044
:10476000153408005543080080B500AF1D200B4BE1
:1047700098470B4B1B680A4A43F400731360084BBD
:104780001B68074A23F4006313601D20054B9847FC
:104790000020054B984700BF80BD00BFC93308000B
:1047A00000400A4015340800F943080080B400AF07
:1047B000064B5B6903F00103002B14BF01230023A8
:1047C000DBB21846BD4680BC704700BF00400A40BF
:1047D00080B483B000AF0346FB710D4B1B680C4ADD
:1047E00023F0800313600A4B1B6823F07F02FB79E0
:1047F00003F07F03064913430B60054B1B68044A13
:1048000043F08003136000BF0C37BD4680BC704787
:1048100000400A4080B400AF044B1B68DBB203F0D9
:104820007F03DBB21846BD4680BC704700400A409B
:1048300080B400AF054B5B68DB089BB2C3F30A038F
:104840009BB21846BD4680BC704700BF00400A407E
:1048500080B483B000AF78600B467B80054A7B68EC
:104860009360044A7B88938100BF0C37BD4680BCAF
:10487000704700BF6814002090B589B002AF0346AE
:10488000FB710B46BB711346BB800023FB740023F6
:104890007B74FB7903F08003002B14BF01230023FA
:1048A0003B74FB7903F00F03FB71FB79022B01D9F9
:1048B0000023B4E1B34AFB795B01134403F586732B
:1048C0001B6803F00103002B01D00023A7E1BB7993
:1048D00003F00303032B1AD0032B1EDC012B02D0A1
:1048E000022B17D019E0FB79002B07D0FB79032BA3
:1048F00004D0FB79042B01D0012300E000237B745A
:104900007B7C03F001037B7401237B7507E00123AB
:104910007B7504E002237B7501E000237FE17B7D52
:10492000032B0CD0032B0DDC012B02D0022B03D068
:1049300008E001233B7507E002233B7504E00323F5
:104940003B7501E000236AE17B7C002B17D0BB881C
:1049500003F4C053B3F5006F03D0B3F5805F03D009
:1049600005E00223FB7405E00323FB7402E001234E
:10497000FB7400BFBB8823F4C053BB8006E0BB8838
:1049800003F4C053002B01D0002348E17D4AFB799A
:1049900008335B0113441B6823F47F7323F0030384
:1049A000BA79120102F03002397C002901D00821C5
:1049B00000E000211143BA88B2F5806F07D2BA88AF
:1049C000082A38BF082292B25200013A01E040F2B0
:1049D000FF72B2FA82F2C2F11C0211433A7D9201D7
:1049E000D2B211437A7C002A04D0FA7C120202F47B
:1049F000407200E000220A43C2F309026148F979DB
:104A00001A4301F108035B0103441A605D4AFB7914
:104A100008335B0113441B68002B01DB0023FEE01D
:104A2000584AFB7908335B011344043301221A60AE
:104A30000023FB820223BB7439E0524ABB7C5B013A
:104A4000134403F586731B6803F00103002B2BD07E
:104A50004C4ABB7C08335B0113441B689B09DBB2E7
:104A600003F003033B753A7DBB7C5B0002FA03F362
:104A70001AB2B7F9163013431BB2FB82414ABB7C12
:104A80005B01134403F5847301221A603D4ABB7C29
:104A900008335B0113441A683A49BB7C22F0C00218
:104AA00008335B010B441A60BB7C013BBB74BA7CCE
:104AB000FB799A42C1D2FB79BB74ABE0BB7C5A1E36
:104AC00013465B001344DB002F4A1344FB60FB6872
:104AD0001B7DC3F30003DBB2002B14BF01230023B3
:104AE000FB72FA8ABB7C5B0042FA03F3DBB203F091
:104AF00003033B753B7D002B00F08880FA68137D33
:104B00006FF3000313751F4ABB7C08335B0113442A
:104B10001B6823F0C0013B7D9B01DAB21948BB7CC6
:104B20000A4308335B0103441A60164ABB7C08330E
:104B30005B011344043301221A60124ABB7C083320
:104B40005B0113441B68002B20DBFB681B68002BF8
:104B500001D1002363E00B4ABB7C08335B011344A3
:104B60001B6803F00803002B03D0BB7C63F07F03BA
:104B7000BB74FB681B68FA68D168BA7C012098474F
:104B800000234CE000400A406C0F0020264ABB7C0A
:104B900008335B01134404331A682349BB7C42F099
:104BA000020208335B010B4404331A60FB7A002BCA
:104BB0002DD0FB68DA68FB681B69D21AFB68DA60E3
:104BC000FB681B7DC3F34003DBB2002B14BF012342
:104BD0000023D9B2FB685A68FB68DB68D418FB680D
:104BE0009A68FB68DB68D21AFB681B68B87C009384
:104BF000134622460D4CA0470346FB72FB7A83F016
:104C00000103DBB2002B02D0002308E000BFBB7C15
:104C10000133BB74BB7C022B7FF650AF01231846D7
:104C20001C37BD4690BD00BF00400A405D4F0800E4
:104C300080B584B000AF0346FB71FB7903F00F032E
:104C4000FB73FB7B022B28D8164AFB7B5B011344CA
:104C500003F5847301221A60124AFB7B08335B015F
:104C600013441A680F49FB7B22F0C00208335B0132
:104C70000B441A60FB7918460B4B9847FB7B5A1E76
:104C80000A4913465B001344DB000B4403F1100296
:104C900013796FF38203137100E000BF1037BD4634
:104CA00080BD00BF00400A406D5A08006C0F002014
:104CB00080B485B000AF0346FB71FB7903F00F03AE
:104CC000FB73FB7B5A1E13465B001344DB00104A48
:104CD0001344BB600F4AFB7B5B01134403F58E73E7
:104CE0001B6803F02003002B06D1BB681B7D03F07B
:104CF0000403DBB2002B01D0012300E0002303F00A
:104D00000103DBB218461437BD4680BC704700BFB4
:104D10006C0F002000400A4080B485B000AF03460D
:104D2000FB71FB7903F00F03FB73FB7B022B01D9B3
:104D3000002371E0FB7B5A1E13465B001344DB002B
:104D4000384A1344BB60384AFB7B5B01134403F5CC
:104D50008E731B6803F02003002B06D1BB681B7DFC
:104D600003F00403DBB2002B01D0012354E0BB6845
:104D70001B7D03F00103DBB2002B01D000234BE0CD
:104D800097F90730002B25DA274AFB7B5B01134498
:104D900003F58E731B689B0C03F00303002B19D0E3
:104DA000BA68137D43F0040313751F4AFB7B083375
:104DB0005B01134404334FF480221A601A4B1A69C2
:104DC000FB7B4FF4807101FA03F3174913430B6126
:104DD000012321E0144AFB7B5B01134403F5847338
:104DE0001A681149FB7B22F002025B010B4403F5B8
:104DF00084731A600C4AFB7B5B01134403F58C73CC
:104E00004FF400521A60084AFB7B5B01134403F520
:104E10008A7320221A60012318461437BD4680BCCD
:104E2000704700BF6C0F002000400A4080B584B07E
:104E300000AF0346FB710023FB73FB7903F00F0304
:104E4000FB71FB79022B01D900237EE0FB795A1E0E
:104E500013465B001344DB003E4A1344BB60BB684F
:104E60001B7D03F00403DBB2002B1AD0BA68137D5C
:104E70006FF382031375384AFB795B01134403F522
:104E800084734FF480221A60334B1A69FB794FF414
:104E9000807101FA03F3DB432F4913400B610123B7
:104EA000FB732D4AFB795B01134403F58E731B687A
:104EB00003F02003002B35D0274AFB795B01134414
:104EC00003F58E731B6803F40053002B10D0224AA5
:104ED000FB795B01134403F58C734FF400521A60A5
:104EE0001D4AFB795B01134403F58C7340221A6061
:104EF000194AFB795B01134403F58C7320221A6075
:104F0000154AFB7908335B01134404331A681249CC
:104F1000FB7942F0020208335B010B4404331A6050
:104F20000123FB73FB7B002B0ED0BB681B7D03F0C2
:104F30000103DBB2002B07D0BA68137D6FF30003C7
:104F40001375BB681B689847012318461037BD4688
:104F500080BD00BF6C0F002000400A4080B586B0C5
:104F600000AFBA607B600346FB730B46BB73FB7BF1
:104F700003F00F03FB73FB7B022B01D9002363E0DB
:104F8000FB7B5A1E13465B001344DB00304A13447C
:104F90007B61304AFB7B5B01134403F586731B681E
:104FA00003F00103002B11D02A4AFB7B5B01134461
:104FB00003F58E731B6803F02003002B06D17B6979
:104FC0001B7D03F00403DBB2002B01D000233BE088
:104FD000214B984738617B691B7D03F00103DBB2ED
:104FE000002B04D038691D4B984700232CE07A69C8
:104FF000137D43F0010313753869184B98477B699B
:10500000BA685A607B697A689A607B690022DA60C4
:105010007B6900221A617B693A6A1A60BB7B002BAC
:1050200002D17B68002B01D1012300E0002303F0B3
:105030000103D9B27A69137D61F341031375FB7BD8
:105040001846074B9847012318461837BD4680BDC0
:105050006C0F002000400A40F94208005543080048
:10506000195B080080B584B000AF0346FB71FB7983
:1050700003F00F03FB73FB7B1A01194B134400224F
:105080009A6097F90730002B21DA14E0154AFB7B70
:105090005B01134403F58A734FF400721A6000BF7A
:1050A000104AFB7B5B01134403F58E731B6803F40A
:1050B0000073002BF4D10B4AFB7B5B01134403F517
:1050C0008E731B689B0C03F00303002BDED1FB796E
:1050D0001846054B984700BF1037BD4680BD00BF3E
:1050E00000430A4000400A406D5A080080B400AFF7
:1050F0000A4BD3F8E03023F00303084A43F00203DD
:10510000C2F8E030054BD3F8E030044A43F0040322
:10511000C2F8E03000BFBD4680BC704700400A4086
:1051200080B400AF0A4BD3F8E03023F00303084A01
:1051300043F00203C2F8E030054BD3F8E030044AF4
:1051400043F00803C2F8E03000BFBD4680BC7047A2
:1051500000400A4080B400AF064BD3F8E03023F0A3
:105160000303044A43F00203C2F8E03000BFBD4627
:1051700080BC704700400A40B0B493B000AF2E4BE3
:105180003C1D1D460FCD0FC40FCD0FC40FCD0FC456
:1051900095E80300206004342170284B0122C3F8F5
:1051A0000821264BD3F8003123F47F7323F0030347
:1051B000224A43F06B03C2F80031204B0122C3F8AE
:1051C00004211E4BD3F8E03023F003031B4A43F0C5
:1051D0000203C2F8E030194BD3F8E030174A43F02D
:1051E0001003C2F8E030164B3B643B1DFB63002309
:1051F00087F847300CE0FA6B531CFB633B6C591C7F
:10520000396412781A7097F84730013387F84730BD
:1052100097F84730342BEED9084B4FF48062C3F82F
:105220001821064B4FF40062C3F8142100BF4C371D
:10523000BD46B0BC704700BF88CF080000400A40A0
:105240000000182080B582B000AF1B4B1B681A4AC3
:1052500023F07F031360184B1B68174A43F0800349
:105260001360154BD3F8003123F47F7323F003034D
:10527000114A43F04303C2F800310F4B0122C3F837
:1052800004210E4B984778600B4B4FF48052C3F8C3
:105290000421094B4FF40072C3F80421064B1B692B
:1052A000054A43F4807313617868054B984700BF43
:1052B0000837BD4680BD00BF00400A40F9420800E3
:1052C0005543080080B582B000AF104B9847786016
:1052D0000F4B4FF48062C3F8082178680D4B984754
:1052E0000B4B4FF40072C3F818210B4B00221A61CC
:1052F000094B00225A61084B00229A81074B002279
:105300001A7000BF0837BD4680BD00BFF9420800D3
:1053100000400A405543080068140020660F002032
:1053200080B584B000AF404B1B78002B03D03F4BBF
:1053300098473F4B98473F4BD3F81C311B0DC3F3A5
:105340000A03082B07D03C4B98473A4B4FF4805246
:10535000C3F8182164E0394BBB600023FB730AE0FB
:10536000BB685A1CBA60FA7B35490A441B78137033
:10537000FB7B0133FB73FB7B072BF1D9304B5A8846
:105380002F4B5A802E4B9A882D4B9A802C4BDA88C3
:105390002B4BDA802B4B9847034683F00103DBB29B
:1053A000002B07D0244B9847224B4FF48052C3F870
:1053B000182135E01F4B4FF48052C3F81821204BC1
:1053C0001B785BB2002B0BDA1F4B00221A801F4B9D
:1053D00000221A80144B02221A701D4B98471FE0BE
:1053E000174BDB88002B02D11A4B984718E0164B5D
:1053F00000221A80154B00221A800B4B01221A70D2
:105400000C4B4FF48042C3F81821134B9847786037
:10541000084B4FF48042C3F8042178680F4B98473B
:105420001037BD4680BD00BF660F0020C958080078
:10543000C552080000400A40FD570800000018202F
:1054400068140020AD260800680F00206A0F0020B5
:105450006154080021580800F9420800554308002B
:1054600080B584B000AF4C4B984738604B4B4FF43D
:105470008062C3F808213868494B9847494B1B782C
:10548000032B04D1484B9847484B984781E0484B41
:105490009A89484B1B88D31AFB81FB89002B27D1A3
:1054A000454B1A88434B1B8813449AB2424B1A80CF
:1054B0003F4BDA88404B1B889A4203D03F4B1B7806
:1054C000002B02D03E4B984763E0394B5B69002BC1
:1054D0000ED0374B5B699847034683F00103DBB27C
:1054E000002B05D1334B00221A80314B9B89FB8165
:1054F000FB893F2B05D94023FB81304B00221A70DA
:1055000002E02E4B01221A702E4BBB60284B9B6889
:10551000284A128813447B601F4B984738601F4B02
:10552000D3F81C3103F40073002B06D038681C4BF1
:1055300098471C4B04221A702BE000237B730AE06F
:105540007A68531C7B60BB68591CB96012781A706A
:105550007B7B01337B737B7B9BB2FA899A42EFD8CA
:10556000144B1A88FB8913449AB2124B1A800B4BC6
:105570004FF48062C3F81821084B4FF40062C3F85F
:105580001421064B4FF48062C3F804213868044BA1
:1055900098471037BD4680BDF942080000400A40D8
:1055A00055430800660F0020C9580800C55208007E
:1055B000681400206A0F0020680F00209C0F002054
:1055C000855808000000182080B584B000AF614BFA
:1055D0001B78012B0FD05F4B1B78022B03D05D4B48
:1055E0001B78042B02D15C4B984701E05B4B98473A
:1055F0005B4B9847ABE05B4BD3F81C311B0D9BB268
:10560000C3F30A03BB81584B9B891A46574B1B882F
:105610001946BB890B449A4205DA534B9A89534B7E
:105620001B88D31ABB81524BBB604F4B9B684F4AC0
:10563000128813447B600023FB730AE0BA68531C92
:10564000BB607B68591C796012781A70FB7B013350
:10565000FB73FB7B9BB2BA899A42EFD8434B1A8803
:10566000BB8913449AB2414B1A80BB89402B0AD1A3
:105670003D4BDB881A463F4B1B8819463B4B1B882A
:105680000B449A4220DC394B1A88374B9A81364BAF
:105690005B69002B10D0344B5B699847034683F05D
:1056A0000103DBB2002B07D02C4B98472D4B4FF456
:1056B0000072C3F818214AE02A4B4FF40072C3F875
:1056C00018212D4B984742E0274B9A89274B1B887E
:1056D0009A4227D1244B5B69002B07D11F4B984777
:1056E000204B4FF40072C3F8182130E01E4B5B6969
:1056F0009847034683F00103DBB2002B07D0174B1A
:105700009847184B4FF40072C3F818211FE0194B4B
:105710001A88164B1B8813449AB2164B1A80134BE7
:1057200000221A800F4B4FF40072C3F818210D4B62
:105730004FF48042C3F81821104B98473860094B4A
:105740004FF48042C3F8042138680D4B9847103756
:10575000BD4680BD660F0020C9580800FD570800EF
:10576000C552080000400A40681400206A0F00205B
:1057700000001820680F002021580800F942080096
:105780005543080080B500AF0C4BD3F81C3103F42F
:105790000073002B0FD10A4B1B78012B02D1094B50
:1057A000984709E0064B1B78042B05D1034B2022B8
:1057B000C3F8142100E000BF80BD00BF00400A40D4
:1057C000660F00202158080080B400AF094BD3F8C1
:1057D0001C3103F48063002B08D1074B1B78032B8B
:1057E00005D1044B2022C3F8142100E000BFBD46C0
:1057F00080BC704700400A40660F002080B400AFB4
:10580000054B05221A70054B2022C3F8142100BF56
:10581000BD4680BC704700BF660F002000400A40B4
:1058200080B582B000AF134B03221A70124B984719
:105830007860124B4FF48062C3F818210F4B4FF47D
:105840000062C3F814210D4B4FF48062C3F80421A9
:105850000A4B4FF40042C3F81821084B4FF40042A2
:10586000C3F804217868064B984700BF0837BD4647
:1058700080BD00BF660F0020F942080000400A40CA
:105880005543080080B582B000AF0B4B04221A705C
:105890000A4B984778600A4B4FF48042C3F81821AE
:1058A000074B4FF48042C3F804217868054B9847B2
:1058B00000BF0837BD4680BD660F0020F9420800D2
:1058C00000400A405543080080B500AF044B1B69F7
:1058D000002B02D0024B1B69984700BF80BD00BF60
:1058E0006814002080B582B000AF314BD3F81C3172
:1058F0007B602F4B5B6903F48073002B01D1002385
:1059000052E02B4B4FF48042C3F80821284B4FF450
:105910000042C3F808217B6803F48053002B03D0B6
:10592000244B984701233FE07B6803F48063002BFE
:105930000AD01F4BD3F80C3103F48063002B03D043
:105940001D4B984701232FE07B6803F40073002B65
:1059500003D01A4B9847012326E07B6803F40053D9
:10596000002B04D0124B4FF40052C3F818217B686F
:1059700003F40043002B08D00D4B4FF40042C3F852
:1059800018210F4B984701230EE07B6803F48043F6
:10599000002B08D0064B4FF48042C3F81821094B66
:1059A0009847012300E0002318460837BD4680BD14
:1059B00000400A402153080061540800C9550800FE
:1059C000C95708008557080080B483B000AF002392
:1059D000FB711CE0FA79124913465B001344DB00AB
:1059E0000B4403F1100213796FF300031371FA797A
:1059F0000B4913465B001344DB000B4403F1100218
:105A000013796FF382031371FB790133FB71FB7917
:105A1000012BDFD900BF00BF0C37BD4680BC7047EB
:105A20006C0F002080B582B000AF0023FB7110E046
:105A3000FA7913465B001344DB000A4A9818FB7995
:105A40000133DBB21A460121074B9847FB7901333A
:105A5000FB71FB79012BEBD900BF00BF0837BD46B6
:105A600080BD00BF6C0F0020A95A080080B582B02D
:105A700000AF0346FB71FB7903F00F03FB71FB7969
:105A80005A1E13465B001344DB00054A1344FA799F
:105A900001211846034B984700BF0837BD4680BD1B
:105AA0006C0F0020A95A080080B582B000AF786062
:105AB0000B46FB701346BB707B681B7D03F0010334
:105AC000DBB2002B1FD07A68137D6FF300031375D0
:105AD0007B681B68002B18D00E4ABB7808335B012B
